{
	"contracts/UlaloDatastore.sol": {
		"UlaloDataStore": {
			"abi": [
				{
					"inputs": [
						{
							"internalType": "string",
							"name": "initMessage",
							"type": "string"
						}
					],
					"stateMutability": "nonpayable",
					"type": "constructor"
				},
				{
					"anonymous": false,
					"inputs": [],
					"name": "AllDataCleared",
					"type": "event"
				},
				{
					"anonymous": false,
					"inputs": [
						{
							"indexed": true,
							"internalType": "address",
							"name": "userAddress",
							"type": "address"
						}
					],
					"name": "AllFilesCleared",
					"type": "event"
				},
				{
					"anonymous": false,
					"inputs": [
						{
							"indexed": true,
							"internalType": "address",
							"name": "userAddress",
							"type": "address"
						},
						{
							"indexed": false,
							"internalType": "string",
							"name": "cid",
							"type": "string"
						},
						{
							"indexed": false,
							"internalType": "uint256",
							"name": "index",
							"type": "uint256"
						}
					],
					"name": "FileDeleted",
					"type": "event"
				},
				{
					"anonymous": false,
					"inputs": [
						{
							"indexed": true,
							"internalType": "address",
							"name": "user",
							"type": "address"
						},
						{
							"indexed": false,
							"internalType": "string",
							"name": "cid",
							"type": "string"
						},
						{
							"indexed": false,
							"internalType": "string",
							"name": "fileName",
							"type": "string"
						},
						{
							"indexed": false,
							"internalType": "string",
							"name": "fileType",
							"type": "string"
						},
						{
							"indexed": false,
							"internalType": "uint256",
							"name": "fileSize",
							"type": "uint256"
						},
						{
							"indexed": false,
							"internalType": "string",
							"name": "fileContent",
							"type": "string"
						},
						{
							"indexed": false,
							"internalType": "string",
							"name": "date",
							"type": "string"
						},
						{
							"indexed": false,
							"internalType": "uint256",
							"name": "score",
							"type": "uint256"
						}
					],
					"name": "FileStored",
					"type": "event"
				},
				{
					"anonymous": false,
					"inputs": [
						{
							"indexed": false,
							"internalType": "string",
							"name": "oldStr",
							"type": "string"
						},
						{
							"indexed": false,
							"internalType": "string",
							"name": "newStr",
							"type": "string"
						}
					],
					"name": "UpdatedMessages",
					"type": "event"
				},
				{
					"inputs": [
						{
							"internalType": "address",
							"name": "userAddress",
							"type": "address"
						}
					],
					"name": "clearAllFiles",
					"outputs": [
						{
							"internalType": "string[]",
							"name": "",
							"type": "string[]"
						},
						{
							"internalType": "string[]",
							"name": "",
							"type": "string[]"
						},
						{
							"internalType": "string[]",
							"name": "",
							"type": "string[]"
						},
						{
							"internalType": "uint256[]",
							"name": "",
							"type": "uint256[]"
						},
						{
							"internalType": "string[]",
							"name": "",
							"type": "string[]"
						},
						{
							"internalType": "string[]",
							"name": "",
							"type": "string[]"
						},
						{
							"internalType": "uint256[]",
							"name": "",
							"type": "uint256[]"
						}
					],
					"stateMutability": "nonpayable",
					"type": "function"
				},
				{
					"inputs": [
						{
							"internalType": "address",
							"name": "userAddress",
							"type": "address"
						},
						{
							"internalType": "uint256",
							"name": "index",
							"type": "uint256"
						},
						{
							"internalType": "string",
							"name": "cid",
							"type": "string"
						}
					],
					"name": "deleteUserFile",
					"outputs": [
						{
							"internalType": "string[]",
							"name": "cids",
							"type": "string[]"
						},
						{
							"internalType": "string[]",
							"name": "fileNames",
							"type": "string[]"
						},
						{
							"internalType": "string[]",
							"name": "fileTypes",
							"type": "string[]"
						},
						{
							"internalType": "uint256[]",
							"name": "fileSizes",
							"type": "uint256[]"
						},
						{
							"internalType": "string[]",
							"name": "fileContents",
							"type": "string[]"
						},
						{
							"internalType": "string[]",
							"name": "dates",
							"type": "string[]"
						},
						{
							"internalType": "uint256[]",
							"name": "scores",
							"type": "uint256[]"
						}
					],
					"stateMutability": "nonpayable",
					"type": "function"
				},
				{
					"inputs": [
						{
							"internalType": "address",
							"name": "user",
							"type": "address"
						}
					],
					"name": "getFiles",
					"outputs": [
						{
							"internalType": "string[]",
							"name": "cids",
							"type": "string[]"
						},
						{
							"internalType": "string[]",
							"name": "fileNames",
							"type": "string[]"
						},
						{
							"internalType": "string[]",
							"name": "fileTypes",
							"type": "string[]"
						},
						{
							"internalType": "uint256[]",
							"name": "fileSizes",
							"type": "uint256[]"
						},
						{
							"internalType": "string[]",
							"name": "fileContents",
							"type": "string[]"
						},
						{
							"internalType": "string[]",
							"name": "dates",
							"type": "string[]"
						},
						{
							"internalType": "uint256[]",
							"name": "scores",
							"type": "uint256[]"
						}
					],
					"stateMutability": "view",
					"type": "function"
				},
				{
					"inputs": [],
					"name": "message",
					"outputs": [
						{
							"internalType": "string",
							"name": "",
							"type": "string"
						}
					],
					"stateMutability": "view",
					"type": "function"
				},
				{
					"inputs": [
						{
							"internalType": "address",
							"name": "userAddress",
							"type": "address"
						},
						{
							"internalType": "string",
							"name": "cid",
							"type": "string"
						},
						{
							"internalType": "string",
							"name": "fileName",
							"type": "string"
						},
						{
							"internalType": "string",
							"name": "fileType",
							"type": "string"
						},
						{
							"internalType": "uint256",
							"name": "fileSize",
							"type": "uint256"
						},
						{
							"internalType": "string",
							"name": "fileContent",
							"type": "string"
						},
						{
							"internalType": "string",
							"name": "date",
							"type": "string"
						},
						{
							"internalType": "uint256",
							"name": "score",
							"type": "uint256"
						}
					],
					"name": "storeFileForUser",
					"outputs": [],
					"stateMutability": "nonpayable",
					"type": "function"
				},
				{
					"inputs": [
						{
							"internalType": "string",
							"name": "newMessage",
							"type": "string"
						}
					],
					"name": "update",
					"outputs": [],
					"stateMutability": "nonpayable",
					"type": "function"
				}
			],
			"devdoc": {
				"kind": "dev",
				"methods": {},
				"version": 1
			},
			"evm": {
				"assembly": "    /* \"contracts/UlaloDatastore.sol\":65:6789  contract UlaloDataStore {... */\n  mstore(0x40, 0x80)\n    /* \"contracts/UlaloDatastore.sol\":124:201  constructor(string memory initMessage) {... */\n  callvalue\n  dup1\n  iszero\n  tag_1\n  jumpi\n  0x00\n  dup1\n  revert\ntag_1:\n  pop\n  mload(0x40)\n  sub(codesize, bytecodeSize)\n  dup1\n  bytecodeSize\n  dup4\n  codecopy\n  dup2\n  dup2\n  add\n  0x40\n  mstore\n  dup2\n  add\n  swap1\n  tag_2\n  swap2\n  swap1\n  tag_3\n  jump\t// in\ntag_2:\n    /* \"contracts/UlaloDatastore.sol\":183:194  initMessage */\n  dup1\n    /* \"contracts/UlaloDatastore.sol\":173:180  message */\n  0x00\n    /* \"contracts/UlaloDatastore.sol\":173:194  message = initMessage */\n  swap1\n  dup2\n  tag_6\n  swap2\n  swap1\n  tag_7\n  jump\t// in\ntag_6:\n  pop\n    /* \"contracts/UlaloDatastore.sol\":124:201  constructor(string memory initMessage) {... */\n  pop\n    /* \"contracts/UlaloDatastore.sol\":65:6789  contract UlaloDataStore {... */\n  jump(tag_8)\n    /* \"#utility.yul\":7:82   */\ntag_9:\n    /* \"#utility.yul\":40:46   */\n  0x00\n    /* \"#utility.yul\":73:75   */\n  0x40\n    /* \"#utility.yul\":67:76   */\n  mload\n    /* \"#utility.yul\":57:76   */\n  swap1\n  pop\n    /* \"#utility.yul\":7:82   */\n  swap1\n  jump\t// out\n    /* \"#utility.yul\":88:205   */\ntag_10:\n    /* \"#utility.yul\":197:198   */\n  0x00\n    /* \"#utility.yul\":194:195   */\n  dup1\n    /* \"#utility.yul\":187:199   */\n  revert\n    /* \"#utility.yul\":211:328   */\ntag_11:\n    /* \"#utility.yul\":320:321   */\n  0x00\n    /* \"#utility.yul\":317:318   */\n  dup1\n    /* \"#utility.yul\":310:322   */\n  revert\n    /* \"#utility.yul\":334:451   */\ntag_12:\n    /* \"#utility.yul\":443:444   */\n  0x00\n    /* \"#utility.yul\":440:441   */\n  dup1\n    /* \"#utility.yul\":433:445   */\n  revert\n    /* \"#utility.yul\":457:574   */\ntag_13:\n    /* \"#utility.yul\":566:567   */\n  0x00\n    /* \"#utility.yul\":563:564   */\n  dup1\n    /* \"#utility.yul\":556:568   */\n  revert\n    /* \"#utility.yul\":580:682   */\ntag_14:\n    /* \"#utility.yul\":621:627   */\n  0x00\n    /* \"#utility.yul\":672:674   */\n  0x1f\n    /* \"#utility.yul\":668:675   */\n  not\n    /* \"#utility.yul\":663:665   */\n  0x1f\n    /* \"#utility.yul\":656:661   */\n  dup4\n    /* \"#utility.yul\":652:666   */\n  add\n    /* \"#utility.yul\":648:676   */\n  and\n    /* \"#utility.yul\":638:676   */\n  swap1\n  pop\n    /* \"#utility.yul\":580:682   */\n  swap2\n  swap1\n  pop\n  jump\t// out\n    /* \"#utility.yul\":688:868   */\ntag_15:\n    /* \"#utility.yul\":736:813   */\n  0x4e487b7100000000000000000000000000000000000000000000000000000000\n    /* \"#utility.yul\":733:734   */\n  0x00\n    /* \"#utility.yul\":726:814   */\n  mstore\n    /* \"#utility.yul\":833:837   */\n  0x41\n    /* \"#utility.yul\":830:831   */\n  0x04\n    /* \"#utility.yul\":823:838   */\n  mstore\n    /* \"#utility.yul\":857:861   */\n  0x24\n    /* \"#utility.yul\":854:855   */\n  0x00\n    /* \"#utility.yul\":847:862   */\n  revert\n    /* \"#utility.yul\":874:1155   */\ntag_16:\n    /* \"#utility.yul\":957:984   */\n  tag_50\n    /* \"#utility.yul\":979:983   */\n  dup3\n    /* \"#utility.yul\":957:984   */\n  tag_14\n  jump\t// in\ntag_50:\n    /* \"#utility.yul\":949:955   */\n  dup2\n    /* \"#utility.yul\":945:985   */\n  add\n    /* \"#utility.yul\":1087:1093   */\n  dup2\n    /* \"#utility.yul\":1075:1085   */\n  dup2\n    /* \"#utility.yul\":1072:1094   */\n  lt\n    /* \"#utility.yul\":1051:1069   */\n  0xffffffffffffffff\n    /* \"#utility.yul\":1039:1049   */\n  dup3\n    /* \"#utility.yul\":1036:1070   */\n  gt\n    /* \"#utility.yul\":1033:1095   */\n  or\n    /* \"#utility.yul\":1030:1118   */\n  iszero\n  tag_51\n  jumpi\n    /* \"#utility.yul\":1098:1116   */\n  tag_52\n  tag_15\n  jump\t// in\ntag_52:\n    /* \"#utility.yul\":1030:1118   */\ntag_51:\n    /* \"#utility.yul\":1138:1148   */\n  dup1\n    /* \"#utility.yul\":1134:1136   */\n  0x40\n    /* \"#utility.yul\":1127:1149   */\n  mstore\n    /* \"#utility.yul\":917:1155   */\n  pop\n    /* \"#utility.yul\":874:1155   */\n  pop\n  pop\n  jump\t// out\n    /* \"#utility.yul\":1161:1290   */\ntag_17:\n    /* \"#utility.yul\":1195:1201   */\n  0x00\n    /* \"#utility.yul\":1222:1242   */\n  tag_54\n  tag_9\n  jump\t// in\ntag_54:\n    /* \"#utility.yul\":1212:1242   */\n  swap1\n  pop\n    /* \"#utility.yul\":1251:1284   */\n  tag_55\n    /* \"#utility.yul\":1279:1283   */\n  dup3\n    /* \"#utility.yul\":1271:1277   */\n  dup3\n    /* \"#utility.yul\":1251:1284   */\n  tag_16\n  jump\t// in\ntag_55:\n    /* \"#utility.yul\":1161:1290   */\n  swap2\n  swap1\n  pop\n  jump\t// out\n    /* \"#utility.yul\":1296:1604   */\ntag_18:\n    /* \"#utility.yul\":1358:1362   */\n  0x00\n    /* \"#utility.yul\":1448:1466   */\n  0xffffffffffffffff\n    /* \"#utility.yul\":1440:1446   */\n  dup3\n    /* \"#utility.yul\":1437:1467   */\n  gt\n    /* \"#utility.yul\":1434:1490   */\n  iszero\n  tag_57\n  jumpi\n    /* \"#utility.yul\":1470:1488   */\n  tag_58\n  tag_15\n  jump\t// in\ntag_58:\n    /* \"#utility.yul\":1434:1490   */\ntag_57:\n    /* \"#utility.yul\":1508:1537   */\n  tag_59\n    /* \"#utility.yul\":1530:1536   */\n  dup3\n    /* \"#utility.yul\":1508:1537   */\n  tag_14\n  jump\t// in\ntag_59:\n    /* \"#utility.yul\":1500:1537   */\n  swap1\n  pop\n    /* \"#utility.yul\":1592:1596   */\n  0x20\n    /* \"#utility.yul\":1586:1590   */\n  dup2\n    /* \"#utility.yul\":1582:1597   */\n  add\n    /* \"#utility.yul\":1574:1597   */\n  swap1\n  pop\n    /* \"#utility.yul\":1296:1604   */\n  swap2\n  swap1\n  pop\n  jump\t// out\n    /* \"#utility.yul\":1610:1749   */\ntag_19:\n    /* \"#utility.yul\":1699:1705   */\n  dup3\n    /* \"#utility.yul\":1694:1697   */\n  dup2\n    /* \"#utility.yul\":1689:1692   */\n  dup4\n    /* \"#utility.yul\":1683:1706   */\n  mcopy\n    /* \"#utility.yul\":1740:1741   */\n  0x00\n    /* \"#utility.yul\":1731:1737   */\n  dup4\n    /* \"#utility.yul\":1726:1729   */\n  dup4\n    /* \"#utility.yul\":1722:1738   */\n  add\n    /* \"#utility.yul\":1715:1742   */\n  mstore\n    /* \"#utility.yul\":1610:1749   */\n  pop\n  pop\n  pop\n  jump\t// out\n    /* \"#utility.yul\":1755:2189   */\ntag_20:\n    /* \"#utility.yul\":1844:1849   */\n  0x00\n    /* \"#utility.yul\":1869:1935   */\n  tag_62\n    /* \"#utility.yul\":1885:1934   */\n  tag_63\n    /* \"#utility.yul\":1927:1933   */\n  dup5\n    /* \"#utility.yul\":1885:1934   */\n  tag_18\n  jump\t// in\ntag_63:\n    /* \"#utility.yul\":1869:1935   */\n  tag_17\n  jump\t// in\ntag_62:\n    /* \"#utility.yul\":1860:1935   */\n  swap1\n  pop\n    /* \"#utility.yul\":1958:1964   */\n  dup3\n    /* \"#utility.yul\":1951:1956   */\n  dup2\n    /* \"#utility.yul\":1944:1965   */\n  mstore\n    /* \"#utility.yul\":1996:2000   */\n  0x20\n    /* \"#utility.yul\":1989:1994   */\n  dup2\n    /* \"#utility.yul\":1985:2001   */\n  add\n    /* \"#utility.yul\":2034:2037   */\n  dup5\n    /* \"#utility.yul\":2025:2031   */\n  dup5\n    /* \"#utility.yul\":2020:2023   */\n  dup5\n    /* \"#utility.yul\":2016:2032   */\n  add\n    /* \"#utility.yul\":2013:2038   */\n  gt\n    /* \"#utility.yul\":2010:2122   */\n  iszero\n  tag_64\n  jumpi\n    /* \"#utility.yul\":2041:2120   */\n  tag_65\n  tag_13\n  jump\t// in\ntag_65:\n    /* \"#utility.yul\":2010:2122   */\ntag_64:\n    /* \"#utility.yul\":2131:2183   */\n  tag_66\n    /* \"#utility.yul\":2176:2182   */\n  dup5\n    /* \"#utility.yul\":2171:2174   */\n  dup3\n    /* \"#utility.yul\":2166:2169   */\n  dup6\n    /* \"#utility.yul\":2131:2183   */\n  tag_19\n  jump\t// in\ntag_66:\n    /* \"#utility.yul\":1850:2189   */\n  pop\n    /* \"#utility.yul\":1755:2189   */\n  swap4\n  swap3\n  pop\n  pop\n  pop\n  jump\t// out\n    /* \"#utility.yul\":2209:2564   */\ntag_21:\n    /* \"#utility.yul\":2276:2281   */\n  0x00\n    /* \"#utility.yul\":2325:2328   */\n  dup3\n    /* \"#utility.yul\":2318:2322   */\n  0x1f\n    /* \"#utility.yul\":2310:2316   */\n  dup4\n    /* \"#utility.yul\":2306:2323   */\n  add\n    /* \"#utility.yul\":2302:2329   */\n  slt\n    /* \"#utility.yul\":2292:2414   */\n  tag_68\n  jumpi\n    /* \"#utility.yul\":2333:2412   */\n  tag_69\n  tag_12\n  jump\t// in\ntag_69:\n    /* \"#utility.yul\":2292:2414   */\ntag_68:\n    /* \"#utility.yul\":2443:2449   */\n  dup2\n    /* \"#utility.yul\":2437:2450   */\n  mload\n    /* \"#utility.yul\":2468:2558   */\n  tag_70\n    /* \"#utility.yul\":2554:2557   */\n  dup5\n    /* \"#utility.yul\":2546:2552   */\n  dup3\n    /* \"#utility.yul\":2539:2543   */\n  0x20\n    /* \"#utility.yul\":2531:2537   */\n  dup7\n    /* \"#utility.yul\":2527:2544   */\n  add\n    /* \"#utility.yul\":2468:2558   */\n  tag_20\n  jump\t// in\ntag_70:\n    /* \"#utility.yul\":2459:2558   */\n  swap2\n  pop\n    /* \"#utility.yul\":2282:2564   */\n  pop\n    /* \"#utility.yul\":2209:2564   */\n  swap3\n  swap2\n  pop\n  pop\n  jump\t// out\n    /* \"#utility.yul\":2570:3094   */\ntag_3:\n    /* \"#utility.yul\":2650:2656   */\n  0x00\n    /* \"#utility.yul\":2699:2701   */\n  0x20\n    /* \"#utility.yul\":2687:2696   */\n  dup3\n    /* \"#utility.yul\":2678:2685   */\n  dup5\n    /* \"#utility.yul\":2674:2697   */\n  sub\n    /* \"#utility.yul\":2670:2702   */\n  slt\n    /* \"#utility.yul\":2667:2786   */\n  iszero\n  tag_72\n  jumpi\n    /* \"#utility.yul\":2705:2784   */\n  tag_73\n  tag_10\n  jump\t// in\ntag_73:\n    /* \"#utility.yul\":2667:2786   */\ntag_72:\n    /* \"#utility.yul\":2846:2847   */\n  0x00\n    /* \"#utility.yul\":2835:2844   */\n  dup3\n    /* \"#utility.yul\":2831:2848   */\n  add\n    /* \"#utility.yul\":2825:2849   */\n  mload\n    /* \"#utility.yul\":2876:2894   */\n  0xffffffffffffffff\n    /* \"#utility.yul\":2868:2874   */\n  dup2\n    /* \"#utility.yul\":2865:2895   */\n  gt\n    /* \"#utility.yul\":2862:2979   */\n  iszero\n  tag_74\n  jumpi\n    /* \"#utility.yul\":2898:2977   */\n  tag_75\n  tag_11\n  jump\t// in\ntag_75:\n    /* \"#utility.yul\":2862:2979   */\ntag_74:\n    /* \"#utility.yul\":3003:3077   */\n  tag_76\n    /* \"#utility.yul\":3069:3076   */\n  dup5\n    /* \"#utility.yul\":3060:3066   */\n  dup3\n    /* \"#utility.yul\":3049:3058   */\n  dup6\n    /* \"#utility.yul\":3045:3067   */\n  add\n    /* \"#utility.yul\":3003:3077   */\n  tag_21\n  jump\t// in\ntag_76:\n    /* \"#utility.yul\":2993:3077   */\n  swap2\n  pop\n    /* \"#utility.yul\":2796:3087   */\n  pop\n    /* \"#utility.yul\":2570:3094   */\n  swap3\n  swap2\n  pop\n  pop\n  jump\t// out\n    /* \"#utility.yul\":3100:3199   */\ntag_22:\n    /* \"#utility.yul\":3152:3158   */\n  0x00\n    /* \"#utility.yul\":3186:3191   */\n  dup2\n    /* \"#utility.yul\":3180:3192   */\n  mload\n    /* \"#utility.yul\":3170:3192   */\n  swap1\n  pop\n    /* \"#utility.yul\":3100:3199   */\n  swap2\n  swap1\n  pop\n  jump\t// out\n    /* \"#utility.yul\":3205:3385   */\ntag_23:\n    /* \"#utility.yul\":3253:3330   */\n  0x4e487b7100000000000000000000000000000000000000000000000000000000\n    /* \"#utility.yul\":3250:3251   */\n  0x00\n    /* \"#utility.yul\":3243:3331   */\n  mstore\n    /* \"#utility.yul\":3350:3354   */\n  0x22\n    /* \"#utility.yul\":3347:3348   */\n  0x04\n    /* \"#utility.yul\":3340:3355   */\n  mstore\n    /* \"#utility.yul\":3374:3378   */\n  0x24\n    /* \"#utility.yul\":3371:3372   */\n  0x00\n    /* \"#utility.yul\":3364:3379   */\n  revert\n    /* \"#utility.yul\":3391:3711   */\ntag_24:\n    /* \"#utility.yul\":3435:3441   */\n  0x00\n    /* \"#utility.yul\":3472:3473   */\n  0x02\n    /* \"#utility.yul\":3466:3470   */\n  dup3\n    /* \"#utility.yul\":3462:3474   */\n  div\n    /* \"#utility.yul\":3452:3474   */\n  swap1\n  pop\n    /* \"#utility.yul\":3519:3520   */\n  0x01\n    /* \"#utility.yul\":3513:3517   */\n  dup3\n    /* \"#utility.yul\":3509:3521   */\n  and\n    /* \"#utility.yul\":3540:3558   */\n  dup1\n    /* \"#utility.yul\":3530:3611   */\n  tag_80\n  jumpi\n    /* \"#utility.yul\":3596:3600   */\n  0x7f\n    /* \"#utility.yul\":3588:3594   */\n  dup3\n    /* \"#utility.yul\":3584:3601   */\n  and\n    /* \"#utility.yul\":3574:3601   */\n  swap2\n  pop\n    /* \"#utility.yul\":3530:3611   */\ntag_80:\n    /* \"#utility.yul\":3658:3660   */\n  0x20\n    /* \"#utility.yul\":3650:3656   */\n  dup3\n    /* \"#utility.yul\":3647:3661   */\n  lt\n    /* \"#utility.yul\":3627:3645   */\n  dup2\n    /* \"#utility.yul\":3624:3662   */\n  sub\n    /* \"#utility.yul\":3621:3705   */\n  tag_81\n  jumpi\n    /* \"#utility.yul\":3677:3695   */\n  tag_82\n  tag_23\n  jump\t// in\ntag_82:\n    /* \"#utility.yul\":3621:3705   */\ntag_81:\n    /* \"#utility.yul\":3442:3711   */\n  pop\n    /* \"#utility.yul\":3391:3711   */\n  swap2\n  swap1\n  pop\n  jump\t// out\n    /* \"#utility.yul\":3717:3858   */\ntag_25:\n    /* \"#utility.yul\":3766:3770   */\n  0x00\n    /* \"#utility.yul\":3789:3792   */\n  dup2\n    /* \"#utility.yul\":3781:3792   */\n  swap1\n  pop\n    /* \"#utility.yul\":3812:3815   */\n  dup2\n    /* \"#utility.yul\":3809:3810   */\n  0x00\n    /* \"#utility.yul\":3802:3816   */\n  mstore\n    /* \"#utility.yul\":3846:3850   */\n  0x20\n    /* \"#utility.yul\":3843:3844   */\n  0x00\n    /* \"#utility.yul\":3833:3851   */\n  keccak256\n    /* \"#utility.yul\":3825:3851   */\n  swap1\n  pop\n    /* \"#utility.yul\":3717:3858   */\n  swap2\n  swap1\n  pop\n  jump\t// out\n    /* \"#utility.yul\":3864:3957   */\ntag_26:\n    /* \"#utility.yul\":3901:3907   */\n  0x00\n    /* \"#utility.yul\":3948:3950   */\n  0x20\n    /* \"#utility.yul\":3943:3945   */\n  0x1f\n    /* \"#utility.yul\":3936:3941   */\n  dup4\n    /* \"#utility.yul\":3932:3946   */\n  add\n    /* \"#utility.yul\":3928:3951   */\n  div\n    /* \"#utility.yul\":3918:3951   */\n  swap1\n  pop\n    /* \"#utility.yul\":3864:3957   */\n  swap2\n  swap1\n  pop\n  jump\t// out\n    /* \"#utility.yul\":3963:4070   */\ntag_27:\n    /* \"#utility.yul\":4007:4015   */\n  0x00\n    /* \"#utility.yul\":4057:4062   */\n  dup3\n    /* \"#utility.yul\":4051:4055   */\n  dup3\n    /* \"#utility.yul\":4047:4063   */\n  shl\n    /* \"#utility.yul\":4026:4063   */\n  swap1\n  pop\n    /* \"#utility.yul\":3963:4070   */\n  swap3\n  swap2\n  pop\n  pop\n  jump\t// out\n    /* \"#utility.yul\":4076:4469   */\ntag_28:\n    /* \"#utility.yul\":4145:4151   */\n  0x00\n    /* \"#utility.yul\":4195:4196   */\n  0x08\n    /* \"#utility.yul\":4183:4193   */\n  dup4\n    /* \"#utility.yul\":4179:4197   */\n  mul\n    /* \"#utility.yul\":4218:4315   */\n  tag_87\n    /* \"#utility.yul\":4248:4314   */\n  0xffffffffffffffffffffffffffffffffffffffffffffffffffffffffffffffff\n    /* \"#utility.yul\":4237:4246   */\n  dup3\n    /* \"#utility.yul\":4218:4315   */\n  tag_27\n  jump\t// in\ntag_87:\n    /* \"#utility.yul\":4336:4375   */\n  tag_88\n    /* \"#utility.yul\":4366:4374   */\n  dup7\n    /* \"#utility.yul\":4355:4364   */\n  dup4\n    /* \"#utility.yul\":4336:4375   */\n  tag_27\n  jump\t// in\ntag_88:\n    /* \"#utility.yul\":4324:4375   */\n  swap6\n  pop\n    /* \"#utility.yul\":4408:4412   */\n  dup1\n    /* \"#utility.yul\":4404:4413   */\n  not\n    /* \"#utility.yul\":4397:4402   */\n  dup5\n    /* \"#utility.yul\":4393:4414   */\n  and\n    /* \"#utility.yul\":4384:4414   */\n  swap4\n  pop\n    /* \"#utility.yul\":4457:4461   */\n  dup1\n    /* \"#utility.yul\":4447:4455   */\n  dup7\n    /* \"#utility.yul\":4443:4462   */\n  and\n    /* \"#utility.yul\":4436:4441   */\n  dup5\n    /* \"#utility.yul\":4433:4463   */\n  or\n    /* \"#utility.yul\":4423:4463   */\n  swap3\n  pop\n    /* \"#utility.yul\":4152:4469   */\n  pop\n  pop\n    /* \"#utility.yul\":4076:4469   */\n  swap4\n  swap3\n  pop\n  pop\n  pop\n  jump\t// out\n    /* \"#utility.yul\":4475:4552   */\ntag_29:\n    /* \"#utility.yul\":4512:4519   */\n  0x00\n    /* \"#utility.yul\":4541:4546   */\n  dup2\n    /* \"#utility.yul\":4530:4546   */\n  swap1\n  pop\n    /* \"#utility.yul\":4475:4552   */\n  swap2\n  swap1\n  pop\n  jump\t// out\n    /* \"#utility.yul\":4558:4618   */\ntag_30:\n    /* \"#utility.yul\":4586:4589   */\n  0x00\n    /* \"#utility.yul\":4607:4612   */\n  dup2\n    /* \"#utility.yul\":4600:4612   */\n  swap1\n  pop\n    /* \"#utility.yul\":4558:4618   */\n  swap2\n  swap1\n  pop\n  jump\t// out\n    /* \"#utility.yul\":4624:4766   */\ntag_31:\n    /* \"#utility.yul\":4674:4683   */\n  0x00\n    /* \"#utility.yul\":4707:4760   */\n  tag_92\n    /* \"#utility.yul\":4725:4759   */\n  tag_93\n    /* \"#utility.yul\":4734:4758   */\n  tag_94\n    /* \"#utility.yul\":4752:4757   */\n  dup5\n    /* \"#utility.yul\":4734:4758   */\n  tag_29\n  jump\t// in\ntag_94:\n    /* \"#utility.yul\":4725:4759   */\n  tag_30\n  jump\t// in\ntag_93:\n    /* \"#utility.yul\":4707:4760   */\n  tag_29\n  jump\t// in\ntag_92:\n    /* \"#utility.yul\":4694:4760   */\n  swap1\n  pop\n    /* \"#utility.yul\":4624:4766   */\n  swap2\n  swap1\n  pop\n  jump\t// out\n    /* \"#utility.yul\":4772:4847   */\ntag_32:\n    /* \"#utility.yul\":4815:4818   */\n  0x00\n    /* \"#utility.yul\":4836:4841   */\n  dup2\n    /* \"#utility.yul\":4829:4841   */\n  swap1\n  pop\n    /* \"#utility.yul\":4772:4847   */\n  swap2\n  swap1\n  pop\n  jump\t// out\n    /* \"#utility.yul\":4853:5122   */\ntag_33:\n    /* \"#utility.yul\":4963:5002   */\n  tag_97\n    /* \"#utility.yul\":4994:5001   */\n  dup4\n    /* \"#utility.yul\":4963:5002   */\n  tag_31\n  jump\t// in\ntag_97:\n    /* \"#utility.yul\":5024:5115   */\n  tag_98\n    /* \"#utility.yul\":5073:5114   */\n  tag_99\n    /* \"#utility.yul\":5097:5113   */\n  dup3\n    /* \"#utility.yul\":5073:5114   */\n  tag_32\n  jump\t// in\ntag_99:\n    /* \"#utility.yul\":5065:5071   */\n  dup5\n    /* \"#utility.yul\":5058:5062   */\n  dup5\n    /* \"#utility.yul\":5052:5063   */\n  sload\n    /* \"#utility.yul\":5024:5115   */\n  tag_28\n  jump\t// in\ntag_98:\n    /* \"#utility.yul\":5018:5022   */\n  dup3\n    /* \"#utility.yul\":5011:5116   */\n  sstore\n    /* \"#utility.yul\":4929:5122   */\n  pop\n    /* \"#utility.yul\":4853:5122   */\n  pop\n  pop\n  pop\n  jump\t// out\n    /* \"#utility.yul\":5128:5201   */\ntag_34:\n    /* \"#utility.yul\":5173:5176   */\n  0x00\n    /* \"#utility.yul\":5128:5201   */\n  swap1\n  jump\t// out\n    /* \"#utility.yul\":5207:5396   */\ntag_35:\n    /* \"#utility.yul\":5284:5316   */\n  tag_102\n  tag_34\n  jump\t// in\ntag_102:\n    /* \"#utility.yul\":5325:5390   */\n  tag_103\n    /* \"#utility.yul\":5383:5389   */\n  dup2\n    /* \"#utility.yul\":5375:5381   */\n  dup5\n    /* \"#utility.yul\":5369:5373   */\n  dup5\n    /* \"#utility.yul\":5325:5390   */\n  tag_33\n  jump\t// in\ntag_103:\n    /* \"#utility.yul\":5260:5396   */\n  pop\n    /* \"#utility.yul\":5207:5396   */\n  pop\n  pop\n  jump\t// out\n    /* \"#utility.yul\":5402:5588   */\ntag_36:\n    /* \"#utility.yul\":5462:5582   */\ntag_105:\n    /* \"#utility.yul\":5479:5482   */\n  dup2\n    /* \"#utility.yul\":5472:5477   */\n  dup2\n    /* \"#utility.yul\":5469:5483   */\n  lt\n    /* \"#utility.yul\":5462:5582   */\n  iszero\n  tag_107\n  jumpi\n    /* \"#utility.yul\":5533:5572   */\n  tag_108\n    /* \"#utility.yul\":5570:5571   */\n  0x00\n    /* \"#utility.yul\":5563:5568   */\n  dup3\n    /* \"#utility.yul\":5533:5572   */\n  tag_35\n  jump\t// in\ntag_108:\n    /* \"#utility.yul\":5506:5507   */\n  0x01\n    /* \"#utility.yul\":5499:5504   */\n  dup2\n    /* \"#utility.yul\":5495:5508   */\n  add\n    /* \"#utility.yul\":5486:5508   */\n  swap1\n  pop\n    /* \"#utility.yul\":5462:5582   */\n  jump(tag_105)\ntag_107:\n    /* \"#utility.yul\":5402:5588   */\n  pop\n  pop\n  jump\t// out\n    /* \"#utility.yul\":5594:6137   */\ntag_37:\n    /* \"#utility.yul\":5695:5697   */\n  0x1f\n    /* \"#utility.yul\":5690:5693   */\n  dup3\n    /* \"#utility.yul\":5687:5698   */\n  gt\n    /* \"#utility.yul\":5684:6130   */\n  iszero\n  tag_110\n  jumpi\n    /* \"#utility.yul\":5729:5767   */\n  tag_111\n    /* \"#utility.yul\":5761:5766   */\n  dup2\n    /* \"#utility.yul\":5729:5767   */\n  tag_25\n  jump\t// in\ntag_111:\n    /* \"#utility.yul\":5813:5842   */\n  tag_112\n    /* \"#utility.yul\":5831:5841   */\n  dup5\n    /* \"#utility.yul\":5813:5842   */\n  tag_26\n  jump\t// in\ntag_112:\n    /* \"#utility.yul\":5803:5811   */\n  dup2\n    /* \"#utility.yul\":5799:5843   */\n  add\n    /* \"#utility.yul\":5996:5998   */\n  0x20\n    /* \"#utility.yul\":5984:5994   */\n  dup6\n    /* \"#utility.yul\":5981:5999   */\n  lt\n    /* \"#utility.yul\":5978:6027   */\n  iszero\n  tag_113\n  jumpi\n    /* \"#utility.yul\":6017:6025   */\n  dup2\n    /* \"#utility.yul\":6002:6025   */\n  swap1\n  pop\n    /* \"#utility.yul\":5978:6027   */\ntag_113:\n    /* \"#utility.yul\":6040:6120   */\n  tag_114\n    /* \"#utility.yul\":6096:6118   */\n  tag_115\n    /* \"#utility.yul\":6114:6117   */\n  dup6\n    /* \"#utility.yul\":6096:6118   */\n  tag_26\n  jump\t// in\ntag_115:\n    /* \"#utility.yul\":6086:6094   */\n  dup4\n    /* \"#utility.yul\":6082:6119   */\n  add\n    /* \"#utility.yul\":6069:6080   */\n  dup3\n    /* \"#utility.yul\":6040:6120   */\n  tag_36\n  jump\t// in\ntag_114:\n    /* \"#utility.yul\":5699:6130   */\n  pop\n  pop\n    /* \"#utility.yul\":5684:6130   */\ntag_110:\n    /* \"#utility.yul\":5594:6137   */\n  pop\n  pop\n  pop\n  jump\t// out\n    /* \"#utility.yul\":6143:6260   */\ntag_38:\n    /* \"#utility.yul\":6197:6205   */\n  0x00\n    /* \"#utility.yul\":6247:6252   */\n  dup3\n    /* \"#utility.yul\":6241:6245   */\n  dup3\n    /* \"#utility.yul\":6237:6253   */\n  shr\n    /* \"#utility.yul\":6216:6253   */\n  swap1\n  pop\n    /* \"#utility.yul\":6143:6260   */\n  swap3\n  swap2\n  pop\n  pop\n  jump\t// out\n    /* \"#utility.yul\":6266:6435   */\ntag_39:\n    /* \"#utility.yul\":6310:6316   */\n  0x00\n    /* \"#utility.yul\":6343:6394   */\n  tag_118\n    /* \"#utility.yul\":6391:6392   */\n  0x00\n    /* \"#utility.yul\":6387:6393   */\n  not\n    /* \"#utility.yul\":6379:6384   */\n  dup5\n    /* \"#utility.yul\":6376:6377   */\n  0x08\n    /* \"#utility.yul\":6372:6385   */\n  mul\n    /* \"#utility.yul\":6343:6394   */\n  tag_38\n  jump\t// in\ntag_118:\n    /* \"#utility.yul\":6339:6395   */\n  not\n    /* \"#utility.yul\":6424:6428   */\n  dup1\n    /* \"#utility.yul\":6418:6422   */\n  dup4\n    /* \"#utility.yul\":6414:6429   */\n  and\n    /* \"#utility.yul\":6404:6429   */\n  swap2\n  pop\n    /* \"#utility.yul\":6317:6435   */\n  pop\n    /* \"#utility.yul\":6266:6435   */\n  swap3\n  swap2\n  pop\n  pop\n  jump\t// out\n    /* \"#utility.yul\":6440:6735   */\ntag_40:\n    /* \"#utility.yul\":6516:6520   */\n  0x00\n    /* \"#utility.yul\":6662:6691   */\n  tag_120\n    /* \"#utility.yul\":6687:6690   */\n  dup4\n    /* \"#utility.yul\":6681:6685   */\n  dup4\n    /* \"#utility.yul\":6662:6691   */\n  tag_39\n  jump\t// in\ntag_120:\n    /* \"#utility.yul\":6654:6691   */\n  swap2\n  pop\n    /* \"#utility.yul\":6724:6727   */\n  dup3\n    /* \"#utility.yul\":6721:6722   */\n  0x02\n    /* \"#utility.yul\":6717:6728   */\n  mul\n    /* \"#utility.yul\":6711:6715   */\n  dup3\n    /* \"#utility.yul\":6708:6729   */\n  or\n    /* \"#utility.yul\":6700:6729   */\n  swap1\n  pop\n    /* \"#utility.yul\":6440:6735   */\n  swap3\n  swap2\n  pop\n  pop\n  jump\t// out\n    /* \"#utility.yul\":6740:8135   */\ntag_7:\n    /* \"#utility.yul\":6857:6894   */\n  tag_122\n    /* \"#utility.yul\":6890:6893   */\n  dup3\n    /* \"#utility.yul\":6857:6894   */\n  tag_22\n  jump\t// in\ntag_122:\n    /* \"#utility.yul\":6959:6977   */\n  0xffffffffffffffff\n    /* \"#utility.yul\":6951:6957   */\n  dup2\n    /* \"#utility.yul\":6948:6978   */\n  gt\n    /* \"#utility.yul\":6945:7001   */\n  iszero\n  tag_123\n  jumpi\n    /* \"#utility.yul\":6981:6999   */\n  tag_124\n  tag_15\n  jump\t// in\ntag_124:\n    /* \"#utility.yul\":6945:7001   */\ntag_123:\n    /* \"#utility.yul\":7025:7063   */\n  tag_125\n    /* \"#utility.yul\":7057:7061   */\n  dup3\n    /* \"#utility.yul\":7051:7062   */\n  sload\n    /* \"#utility.yul\":7025:7063   */\n  tag_24\n  jump\t// in\ntag_125:\n    /* \"#utility.yul\":7110:7177   */\n  tag_126\n    /* \"#utility.yul\":7170:7176   */\n  dup3\n    /* \"#utility.yul\":7162:7168   */\n  dup3\n    /* \"#utility.yul\":7156:7160   */\n  dup6\n    /* \"#utility.yul\":7110:7177   */\n  tag_37\n  jump\t// in\ntag_126:\n    /* \"#utility.yul\":7204:7205   */\n  0x00\n    /* \"#utility.yul\":7228:7232   */\n  0x20\n    /* \"#utility.yul\":7215:7232   */\n  swap1\n  pop\n    /* \"#utility.yul\":7260:7262   */\n  0x1f\n    /* \"#utility.yul\":7252:7258   */\n  dup4\n    /* \"#utility.yul\":7249:7263   */\n  gt\n    /* \"#utility.yul\":7277:7278   */\n  0x01\n    /* \"#utility.yul\":7272:7890   */\n  dup2\n  eq\n  tag_128\n  jumpi\n    /* \"#utility.yul\":7934:7935   */\n  0x00\n    /* \"#utility.yul\":7951:7957   */\n  dup5\n    /* \"#utility.yul\":7948:8025   */\n  iszero\n  tag_129\n  jumpi\n    /* \"#utility.yul\":8000:8009   */\n  dup3\n    /* \"#utility.yul\":7995:7998   */\n  dup8\n    /* \"#utility.yul\":7991:8010   */\n  add\n    /* \"#utility.yul\":7985:8011   */\n  mload\n    /* \"#utility.yul\":7976:8011   */\n  swap1\n  pop\n    /* \"#utility.yul\":7948:8025   */\ntag_129:\n    /* \"#utility.yul\":8051:8118   */\n  tag_130\n    /* \"#utility.yul\":8111:8117   */\n  dup6\n    /* \"#utility.yul\":8104:8109   */\n  dup3\n    /* \"#utility.yul\":8051:8118   */\n  tag_40\n  jump\t// in\ntag_130:\n    /* \"#utility.yul\":8045:8049   */\n  dup7\n    /* \"#utility.yul\":8038:8119   */\n  sstore\n    /* \"#utility.yul\":7907:8129   */\n  pop\n    /* \"#utility.yul\":7242:8129   */\n  jump(tag_127)\n    /* \"#utility.yul\":7272:7890   */\ntag_128:\n    /* \"#utility.yul\":7324:7328   */\n  0x1f\n    /* \"#utility.yul\":7320:7329   */\n  not\n    /* \"#utility.yul\":7312:7318   */\n  dup5\n    /* \"#utility.yul\":7308:7330   */\n  and\n    /* \"#utility.yul\":7358:7395   */\n  tag_131\n    /* \"#utility.yul\":7390:7394   */\n  dup7\n    /* \"#utility.yul\":7358:7395   */\n  tag_25\n  jump\t// in\ntag_131:\n    /* \"#utility.yul\":7417:7418   */\n  0x00\n    /* \"#utility.yul\":7431:7639   */\ntag_132:\n    /* \"#utility.yul\":7445:7452   */\n  dup3\n    /* \"#utility.yul\":7442:7443   */\n  dup2\n    /* \"#utility.yul\":7439:7453   */\n  lt\n    /* \"#utility.yul\":7431:7639   */\n  iszero\n  tag_134\n  jumpi\n    /* \"#utility.yul\":7524:7533   */\n  dup5\n    /* \"#utility.yul\":7519:7522   */\n  dup10\n    /* \"#utility.yul\":7515:7534   */\n  add\n    /* \"#utility.yul\":7509:7535   */\n  mload\n    /* \"#utility.yul\":7501:7507   */\n  dup3\n    /* \"#utility.yul\":7494:7536   */\n  sstore\n    /* \"#utility.yul\":7575:7576   */\n  0x01\n    /* \"#utility.yul\":7567:7573   */\n  dup3\n    /* \"#utility.yul\":7563:7577   */\n  add\n    /* \"#utility.yul\":7553:7577   */\n  swap2\n  pop\n    /* \"#utility.yul\":7622:7624   */\n  0x20\n    /* \"#utility.yul\":7611:7620   */\n  dup6\n    /* \"#utility.yul\":7607:7625   */\n  add\n    /* \"#utility.yul\":7594:7625   */\n  swap5\n  pop\n    /* \"#utility.yul\":7468:7472   */\n  0x20\n    /* \"#utility.yul\":7465:7466   */\n  dup2\n    /* \"#utility.yul\":7461:7473   */\n  add\n    /* \"#utility.yul\":7456:7473   */\n  swap1\n  pop\n    /* \"#utility.yul\":7431:7639   */\n  jump(tag_132)\ntag_134:\n    /* \"#utility.yul\":7667:7673   */\n  dup7\n    /* \"#utility.yul\":7658:7665   */\n  dup4\n    /* \"#utility.yul\":7655:7674   */\n  lt\n    /* \"#utility.yul\":7652:7831   */\n  iszero\n  tag_135\n  jumpi\n    /* \"#utility.yul\":7725:7734   */\n  dup5\n    /* \"#utility.yul\":7720:7723   */\n  dup10\n    /* \"#utility.yul\":7716:7735   */\n  add\n    /* \"#utility.yul\":7710:7736   */\n  mload\n    /* \"#utility.yul\":7768:7816   */\n  tag_136\n    /* \"#utility.yul\":7810:7814   */\n  0x1f\n    /* \"#utility.yul\":7802:7808   */\n  dup10\n    /* \"#utility.yul\":7798:7815   */\n  and\n    /* \"#utility.yul\":7787:7796   */\n  dup3\n    /* \"#utility.yul\":7768:7816   */\n  tag_39\n  jump\t// in\ntag_136:\n    /* \"#utility.yul\":7760:7766   */\n  dup4\n    /* \"#utility.yul\":7753:7817   */\n  sstore\n    /* \"#utility.yul\":7675:7831   */\n  pop\n    /* \"#utility.yul\":7652:7831   */\ntag_135:\n    /* \"#utility.yul\":7877:7878   */\n  0x01\n    /* \"#utility.yul\":7873:7874   */\n  0x02\n    /* \"#utility.yul\":7865:7871   */\n  dup9\n    /* \"#utility.yul\":7861:7875   */\n  mul\n    /* \"#utility.yul\":7857:7879   */\n  add\n    /* \"#utility.yul\":7851:7855   */\n  dup9\n    /* \"#utility.yul\":7844:7880   */\n  sstore\n    /* \"#utility.yul\":7279:7890   */\n  pop\n  pop\n  pop\n    /* \"#utility.yul\":7242:8129   */\ntag_127:\n  pop\n    /* \"#utility.yul\":6832:8135   */\n  pop\n  pop\n  pop\n    /* \"#utility.yul\":6740:8135   */\n  pop\n  pop\n  jump\t// out\n    /* \"contracts/UlaloDatastore.sol\":65:6789  contract UlaloDataStore {... */\ntag_8:\n  dataSize(sub_0)\n  dup1\n  dataOffset(sub_0)\n  0x00\n  codecopy\n  0x00\n  return\nstop\n\nsub_0: assembly {\n        /* \"contracts/UlaloDatastore.sol\":65:6789  contract UlaloDataStore {... */\n      mstore(0x40, 0x80)\n      callvalue\n      dup1\n      iszero\n      tag_1\n      jumpi\n      0x00\n      dup1\n      revert\n    tag_1:\n      pop\n      jumpi(tag_2, lt(calldatasize, 0x04))\n      shr(0xe0, calldataload(0x00))\n      dup1\n      0x3d7403a3\n      eq\n      tag_3\n      jumpi\n      dup1\n      0x3e2d2458\n      eq\n      tag_4\n      jumpi\n      dup1\n      0x433bf37b\n      eq\n      tag_5\n      jumpi\n      dup1\n      0x45e660c9\n      eq\n      tag_6\n      jumpi\n      dup1\n      0xd4277f98\n      eq\n      tag_7\n      jumpi\n      dup1\n      0xe21f37ce\n      eq\n      tag_8\n      jumpi\n    tag_2:\n      0x00\n      dup1\n      revert\n        /* \"contracts/UlaloDatastore.sol\":207:383  function update(string memory newMessage) public {... */\n    tag_3:\n      tag_9\n      0x04\n      dup1\n      calldatasize\n      sub\n      dup2\n      add\n      swap1\n      tag_10\n      swap2\n      swap1\n      tag_11\n      jump\t// in\n    tag_10:\n      tag_12\n      jump\t// in\n    tag_9:\n      stop\n        /* \"contracts/UlaloDatastore.sol\":3586:4378  function clearAllFiles(address userAddress) public returns (... */\n    tag_4:\n      tag_13\n      0x04\n      dup1\n      calldatasize\n      sub\n      dup2\n      add\n      swap1\n      tag_14\n      swap2\n      swap1\n      tag_15\n      jump\t// in\n    tag_14:\n      tag_16\n      jump\t// in\n    tag_13:\n      mload(0x40)\n      tag_17\n      swap8\n      swap7\n      swap6\n      swap5\n      swap4\n      swap3\n      swap2\n      swap1\n      tag_18\n      jump\t// in\n    tag_17:\n      mload(0x40)\n      dup1\n      swap2\n      sub\n      swap1\n      return\n        /* \"contracts/UlaloDatastore.sol\":1930:3578  function getFiles(address user) public view returns (... */\n    tag_5:\n      tag_19\n      0x04\n      dup1\n      calldatasize\n      sub\n      dup2\n      add\n      swap1\n      tag_20\n      swap2\n      swap1\n      tag_15\n      jump\t// in\n    tag_20:\n      tag_21\n      jump\t// in\n    tag_19:\n      mload(0x40)\n      tag_22\n      swap8\n      swap7\n      swap6\n      swap5\n      swap4\n      swap3\n      swap2\n      swap1\n      tag_18\n      jump\t// in\n    tag_22:\n      mload(0x40)\n      dup1\n      swap2\n      sub\n      swap1\n      return\n        /* \"contracts/UlaloDatastore.sol\":4549:5631  function deleteUserFile(address userAddress, uint256 index, string memory cid) public returns (... */\n    tag_6:\n      tag_23\n      0x04\n      dup1\n      calldatasize\n      sub\n      dup2\n      add\n      swap1\n      tag_24\n      swap2\n      swap1\n      tag_25\n      jump\t// in\n    tag_24:\n      tag_26\n      jump\t// in\n    tag_23:\n      mload(0x40)\n      tag_27\n      swap8\n      swap7\n      swap6\n      swap5\n      swap4\n      swap3\n      swap2\n      swap1\n      tag_18\n      jump\t// in\n    tag_27:\n      mload(0x40)\n      dup1\n      swap2\n      sub\n      swap1\n      return\n        /* \"contracts/UlaloDatastore.sol\":1109:1923  function storeFileForUser(address userAddress, string memory cid, string memory fileName, string memory fileType, uint256 fileSize, string memory fileContent, string memory date, uint256 score) public {... */\n    tag_7:\n      tag_28\n      0x04\n      dup1\n      calldatasize\n      sub\n      dup2\n      add\n      swap1\n      tag_29\n      swap2\n      swap1\n      tag_30\n      jump\t// in\n    tag_29:\n      tag_31\n      jump\t// in\n    tag_28:\n      stop\n        /* \"contracts/UlaloDatastore.sol\":96:117  string public message */\n    tag_8:\n      tag_32\n      tag_33\n      jump\t// in\n    tag_32:\n      mload(0x40)\n      tag_34\n      swap2\n      swap1\n      tag_35\n      jump\t// in\n    tag_34:\n      mload(0x40)\n      dup1\n      swap2\n      sub\n      swap1\n      return\n        /* \"contracts/UlaloDatastore.sol\":207:383  function update(string memory newMessage) public {... */\n    tag_12:\n        /* \"contracts/UlaloDatastore.sol\":266:286  string memory oldMsg */\n      0x00\n        /* \"contracts/UlaloDatastore.sol\":289:296  message */\n      dup1\n        /* \"contracts/UlaloDatastore.sol\":266:296  string memory oldMsg = message */\n      dup1\n      sload\n      tag_37\n      swap1\n      tag_38\n      jump\t// in\n    tag_37:\n      dup1\n      0x1f\n      add\n      0x20\n      dup1\n      swap2\n      div\n      mul\n      0x20\n      add\n      mload(0x40)\n      swap1\n      dup2\n      add\n      0x40\n      mstore\n      dup1\n      swap3\n      swap2\n      swap1\n      dup2\n      dup2\n      mstore\n      0x20\n      add\n      dup3\n      dup1\n      sload\n      tag_39\n      swap1\n      tag_38\n      jump\t// in\n    tag_39:\n      dup1\n      iszero\n      tag_40\n      jumpi\n      dup1\n      0x1f\n      lt\n      tag_41\n      jumpi\n      0x0100\n      dup1\n      dup4\n      sload\n      div\n      mul\n      dup4\n      mstore\n      swap2\n      0x20\n      add\n      swap2\n      jump(tag_40)\n    tag_41:\n      dup3\n      add\n      swap2\n      swap1\n      0x00\n      mstore\n      keccak256(0x00, 0x20)\n      swap1\n    tag_42:\n      dup2\n      sload\n      dup2\n      mstore\n      swap1\n      0x01\n      add\n      swap1\n      0x20\n      add\n      dup1\n      dup4\n      gt\n      tag_42\n      jumpi\n      dup3\n      swap1\n      sub\n      0x1f\n      and\n      dup3\n      add\n      swap2\n    tag_40:\n      pop\n      pop\n      pop\n      pop\n      pop\n      swap1\n      pop\n        /* \"contracts/UlaloDatastore.sol\":316:326  newMessage */\n      dup2\n        /* \"contracts/UlaloDatastore.sol\":306:313  message */\n      0x00\n        /* \"contracts/UlaloDatastore.sol\":306:326  message = newMessage */\n      swap1\n      dup2\n      tag_43\n      swap2\n      swap1\n      tag_44\n      jump\t// in\n    tag_43:\n      pop\n        /* \"contracts/UlaloDatastore.sol\":341:376  UpdatedMessages(oldMsg, newMessage) */\n      0xf91d506d7335e83e4869a58cd98e0557cdcef6f507ba1e52725521305626d05b\n        /* \"contracts/UlaloDatastore.sol\":357:363  oldMsg */\n      dup2\n        /* \"contracts/UlaloDatastore.sol\":365:375  newMessage */\n      dup4\n        /* \"contracts/UlaloDatastore.sol\":341:376  UpdatedMessages(oldMsg, newMessage) */\n      mload(0x40)\n      tag_45\n      swap3\n      swap2\n      swap1\n      tag_46\n      jump\t// in\n    tag_45:\n      mload(0x40)\n      dup1\n      swap2\n      sub\n      swap1\n      log1\n        /* \"contracts/UlaloDatastore.sol\":256:383  {... */\n      pop\n        /* \"contracts/UlaloDatastore.sol\":207:383  function update(string memory newMessage) public {... */\n      pop\n      jump\t// out\n        /* \"contracts/UlaloDatastore.sol\":3586:4378  function clearAllFiles(address userAddress) public returns (... */\n    tag_16:\n        /* \"contracts/UlaloDatastore.sol\":3655:3670  string[] memory */\n      0x60\n        /* \"contracts/UlaloDatastore.sol\":3680:3695  string[] memory */\n      dup1\n        /* \"contracts/UlaloDatastore.sol\":3705:3720  string[] memory */\n      0x60\n        /* \"contracts/UlaloDatastore.sol\":3730:3746  uint256[] memory */\n      dup1\n        /* \"contracts/UlaloDatastore.sol\":3756:3771  string[] memory */\n      0x60\n        /* \"contracts/UlaloDatastore.sol\":3781:3796  string[] memory */\n      dup1\n        /* \"contracts/UlaloDatastore.sol\":3806:3822  uint256[] memory */\n      0x60\n        /* \"contracts/UlaloDatastore.sol\":3861:3872  userAddress */\n      dup8\n        /* \"contracts/UlaloDatastore.sol\":3847:3872  msg.sender == userAddress */\n      0xffffffffffffffffffffffffffffffffffffffff\n      and\n        /* \"contracts/UlaloDatastore.sol\":3847:3857  msg.sender */\n      caller\n        /* \"contracts/UlaloDatastore.sol\":3847:3872  msg.sender == userAddress */\n      0xffffffffffffffffffffffffffffffffffffffff\n      and\n      eq\n        /* \"contracts/UlaloDatastore.sol\":3839:3906  require(msg.sender == userAddress, \"Not authorized to clear files\") */\n      tag_48\n      jumpi\n      mload(0x40)\n      0x08c379a000000000000000000000000000000000000000000000000000000000\n      dup2\n      mstore\n      0x04\n      add\n      tag_49\n      swap1\n      tag_50\n      jump\t// in\n    tag_49:\n      mload(0x40)\n      dup1\n      swap2\n      sub\n      swap1\n      revert\n    tag_48:\n        /* \"contracts/UlaloDatastore.sol\":3956:3957  0 */\n      0x00\n        /* \"contracts/UlaloDatastore.sol\":3924:3933  userFiles */\n      0x01\n        /* \"contracts/UlaloDatastore.sol\":3924:3946  userFiles[userAddress] */\n      0x00\n        /* \"contracts/UlaloDatastore.sol\":3934:3945  userAddress */\n      dup11\n        /* \"contracts/UlaloDatastore.sol\":3924:3946  userFiles[userAddress] */\n      0xffffffffffffffffffffffffffffffffffffffff\n      and\n      0xffffffffffffffffffffffffffffffffffffffff\n      and\n      dup2\n      mstore\n      0x20\n      add\n      swap1\n      dup2\n      mstore\n      0x20\n      add\n      0x00\n      keccak256\n        /* \"contracts/UlaloDatastore.sol\":3924:3953  userFiles[userAddress].length */\n      dup1\n      sload\n      swap1\n      pop\n        /* \"contracts/UlaloDatastore.sol\":3924:3957  userFiles[userAddress].length > 0 */\n      gt\n        /* \"contracts/UlaloDatastore.sol\":3916:3990  require(userFiles[userAddress].length > 0, \"No files exist for this user\") */\n      tag_51\n      jumpi\n      mload(0x40)\n      0x08c379a000000000000000000000000000000000000000000000000000000000\n      dup2\n      mstore\n      0x04\n      add\n      tag_52\n      swap1\n      tag_53\n      jump\t// in\n    tag_52:\n      mload(0x40)\n      dup1\n      swap2\n      sub\n      swap1\n      revert\n    tag_51:\n        /* \"contracts/UlaloDatastore.sol\":4055:4072  uint256 fileCount */\n      0x00\n        /* \"contracts/UlaloDatastore.sol\":4075:4084  userFiles */\n      0x01\n        /* \"contracts/UlaloDatastore.sol\":4075:4097  userFiles[userAddress] */\n      0x00\n        /* \"contracts/UlaloDatastore.sol\":4085:4096  userAddress */\n      dup11\n        /* \"contracts/UlaloDatastore.sol\":4075:4097  userFiles[userAddress] */\n      0xffffffffffffffffffffffffffffffffffffffff\n      and\n      0xffffffffffffffffffffffffffffffffffffffff\n      and\n      dup2\n      mstore\n      0x20\n      add\n      swap1\n      dup2\n      mstore\n      0x20\n      add\n      0x00\n      keccak256\n        /* \"contracts/UlaloDatastore.sol\":4075:4104  userFiles[userAddress].length */\n      dup1\n      sload\n      swap1\n      pop\n        /* \"contracts/UlaloDatastore.sol\":4055:4104  uint256 fileCount = userFiles[userAddress].length */\n      swap1\n      pop\n        /* \"contracts/UlaloDatastore.sol\":4119:4128  uint256 i */\n      0x00\n        /* \"contracts/UlaloDatastore.sol\":4114:4219  for (uint256 i = 0; i < fileCount; i++) {... */\n    tag_54:\n        /* \"contracts/UlaloDatastore.sol\":4138:4147  fileCount */\n      dup2\n        /* \"contracts/UlaloDatastore.sol\":4134:4135  i */\n      dup2\n        /* \"contracts/UlaloDatastore.sol\":4134:4147  i < fileCount */\n      lt\n        /* \"contracts/UlaloDatastore.sol\":4114:4219  for (uint256 i = 0; i < fileCount; i++) {... */\n      iszero\n      tag_55\n      jumpi\n        /* \"contracts/UlaloDatastore.sol\":4203:4208  false */\n      0x00\n        /* \"contracts/UlaloDatastore.sol\":4168:4177  userFiles */\n      0x01\n        /* \"contracts/UlaloDatastore.sol\":4168:4190  userFiles[userAddress] */\n      0x00\n        /* \"contracts/UlaloDatastore.sol\":4178:4189  userAddress */\n      dup13\n        /* \"contracts/UlaloDatastore.sol\":4168:4190  userFiles[userAddress] */\n      0xffffffffffffffffffffffffffffffffffffffff\n      and\n      0xffffffffffffffffffffffffffffffffffffffff\n      and\n      dup2\n      mstore\n      0x20\n      add\n      swap1\n      dup2\n      mstore\n      0x20\n      add\n      0x00\n      keccak256\n        /* \"contracts/UlaloDatastore.sol\":4191:4192  i */\n      dup3\n        /* \"contracts/UlaloDatastore.sol\":4168:4193  userFiles[userAddress][i] */\n      dup2\n      sload\n      dup2\n      lt\n      tag_57\n      jumpi\n      tag_58\n      tag_59\n      jump\t// in\n    tag_58:\n    tag_57:\n      swap1\n      0x00\n      mstore\n      keccak256(0x00, 0x20)\n      swap1\n      0x08\n      mul\n      add\n        /* \"contracts/UlaloDatastore.sol\":4168:4200  userFiles[userAddress][i].active */\n      0x07\n      add\n      0x00\n        /* \"contracts/UlaloDatastore.sol\":4168:4208  userFiles[userAddress][i].active = false */\n      0x0100\n      exp\n      dup2\n      sload\n      dup2\n      0xff\n      mul\n      not\n      and\n      swap1\n      dup4\n      iszero\n      iszero\n      mul\n      or\n      swap1\n      sstore\n      pop\n        /* \"contracts/UlaloDatastore.sol\":4149:4152  i++ */\n      dup1\n      dup1\n      0x01\n      add\n      swap2\n      pop\n      pop\n        /* \"contracts/UlaloDatastore.sol\":4114:4219  for (uint256 i = 0; i < fileCount; i++) {... */\n      jump(tag_54)\n    tag_55:\n      pop\n        /* \"contracts/UlaloDatastore.sol\":4250:4261  userAddress */\n      dup9\n        /* \"contracts/UlaloDatastore.sol\":4234:4262  AllFilesCleared(userAddress) */\n      0xffffffffffffffffffffffffffffffffffffffff\n      and\n      0xac3bda4dd8cefc7c083649cc37a6edd7fe0f6c6b19e8e8451935185b07695d98\n      mload(0x40)\n      mload(0x40)\n      dup1\n      swap2\n      sub\n      swap1\n      log2\n        /* \"contracts/UlaloDatastore.sol\":4343:4371  getUpdatedFiles(userAddress) */\n      tag_61\n        /* \"contracts/UlaloDatastore.sol\":4359:4370  userAddress */\n      dup10\n        /* \"contracts/UlaloDatastore.sol\":4343:4358  getUpdatedFiles */\n      tag_62\n        /* \"contracts/UlaloDatastore.sol\":4343:4371  getUpdatedFiles(userAddress) */\n      jump\t// in\n    tag_61:\n        /* \"contracts/UlaloDatastore.sol\":4336:4371  return getUpdatedFiles(userAddress) */\n      swap8\n      pop\n      swap8\n      pop\n      swap8\n      pop\n      swap8\n      pop\n      swap8\n      pop\n      swap8\n      pop\n      swap8\n      pop\n      pop\n        /* \"contracts/UlaloDatastore.sol\":3586:4378  function clearAllFiles(address userAddress) public returns (... */\n      swap2\n      swap4\n      swap6\n      swap8\n      swap1\n      swap3\n      swap5\n      swap7\n      pop\n      jump\t// out\n        /* \"contracts/UlaloDatastore.sol\":1930:3578  function getFiles(address user) public view returns (... */\n    tag_21:\n        /* \"contracts/UlaloDatastore.sol\":1992:2012  string[] memory cids */\n      0x60\n        /* \"contracts/UlaloDatastore.sol\":2022:2047  string[] memory fileNames */\n      dup1\n        /* \"contracts/UlaloDatastore.sol\":2057:2082  string[] memory fileTypes */\n      0x60\n        /* \"contracts/UlaloDatastore.sol\":2092:2118  uint256[] memory fileSizes */\n      dup1\n        /* \"contracts/UlaloDatastore.sol\":2128:2156  string[] memory fileContents */\n      0x60\n        /* \"contracts/UlaloDatastore.sol\":2166:2187  string[] memory dates */\n      dup1\n        /* \"contracts/UlaloDatastore.sol\":2197:2220  uint256[] memory scores */\n      0x60\n        /* \"contracts/UlaloDatastore.sol\":2237:2251  uint256 length */\n      0x00\n        /* \"contracts/UlaloDatastore.sol\":2254:2263  userFiles */\n      0x01\n        /* \"contracts/UlaloDatastore.sol\":2254:2269  userFiles[user] */\n      0x00\n        /* \"contracts/UlaloDatastore.sol\":2264:2268  user */\n      dup11\n        /* \"contracts/UlaloDatastore.sol\":2254:2269  userFiles[user] */\n      0xffffffffffffffffffffffffffffffffffffffff\n      and\n      0xffffffffffffffffffffffffffffffffffffffff\n      and\n      dup2\n      mstore\n      0x20\n      add\n      swap1\n      dup2\n      mstore\n      0x20\n      add\n      0x00\n      keccak256\n        /* \"contracts/UlaloDatastore.sol\":2254:2276  userFiles[user].length */\n      dup1\n      sload\n      swap1\n      pop\n        /* \"contracts/UlaloDatastore.sol\":2237:2276  uint256 length = userFiles[user].length */\n      swap1\n      pop\n        /* \"contracts/UlaloDatastore.sol\":2286:2308  uint256 validFileCount */\n      0x00\n        /* \"contracts/UlaloDatastore.sol\":2373:2382  uint256 i */\n      dup1\n        /* \"contracts/UlaloDatastore.sol\":2368:2509  for (uint256 i = 0; i < length; i++) {... */\n    tag_64:\n        /* \"contracts/UlaloDatastore.sol\":2392:2398  length */\n      dup3\n        /* \"contracts/UlaloDatastore.sol\":2388:2389  i */\n      dup2\n        /* \"contracts/UlaloDatastore.sol\":2388:2398  i < length */\n      lt\n        /* \"contracts/UlaloDatastore.sol\":2368:2509  for (uint256 i = 0; i < length; i++) {... */\n      iszero\n      tag_65\n      jumpi\n        /* \"contracts/UlaloDatastore.sol\":2423:2432  userFiles */\n      0x01\n        /* \"contracts/UlaloDatastore.sol\":2423:2438  userFiles[user] */\n      0x00\n        /* \"contracts/UlaloDatastore.sol\":2433:2437  user */\n      dup13\n        /* \"contracts/UlaloDatastore.sol\":2423:2438  userFiles[user] */\n      0xffffffffffffffffffffffffffffffffffffffff\n      and\n      0xffffffffffffffffffffffffffffffffffffffff\n      and\n      dup2\n      mstore\n      0x20\n      add\n      swap1\n      dup2\n      mstore\n      0x20\n      add\n      0x00\n      keccak256\n        /* \"contracts/UlaloDatastore.sol\":2439:2440  i */\n      dup2\n        /* \"contracts/UlaloDatastore.sol\":2423:2441  userFiles[user][i] */\n      dup2\n      sload\n      dup2\n      lt\n      tag_67\n      jumpi\n      tag_68\n      tag_59\n      jump\t// in\n    tag_68:\n    tag_67:\n      swap1\n      0x00\n      mstore\n      keccak256(0x00, 0x20)\n      swap1\n      0x08\n      mul\n      add\n        /* \"contracts/UlaloDatastore.sol\":2423:2448  userFiles[user][i].active */\n      0x07\n      add\n      0x00\n      swap1\n      sload\n      swap1\n      0x0100\n      exp\n      swap1\n      div\n      0xff\n      and\n        /* \"contracts/UlaloDatastore.sol\":2419:2499  if (userFiles[user][i].active) {... */\n      iszero\n      tag_70\n      jumpi\n        /* \"contracts/UlaloDatastore.sol\":2468:2484  validFileCount++ */\n      dup2\n      dup1\n      tag_71\n      swap1\n      tag_72\n      jump\t// in\n    tag_71:\n      swap3\n      pop\n      pop\n        /* \"contracts/UlaloDatastore.sol\":2419:2499  if (userFiles[user][i].active) {... */\n    tag_70:\n        /* \"contracts/UlaloDatastore.sol\":2400:2403  i++ */\n      dup1\n      dup1\n      0x01\n      add\n      swap2\n      pop\n      pop\n        /* \"contracts/UlaloDatastore.sol\":2368:2509  for (uint256 i = 0; i < length; i++) {... */\n      jump(tag_64)\n    tag_65:\n      pop\n        /* \"contracts/UlaloDatastore.sol\":2609:2623  validFileCount */\n      dup1\n        /* \"contracts/UlaloDatastore.sol\":2596:2624  new string[](validFileCount) */\n      0xffffffffffffffff\n      dup2\n      gt\n      iszero\n      tag_73\n      jumpi\n      tag_74\n      tag_75\n      jump\t// in\n    tag_74:\n    tag_73:\n      mload(0x40)\n      swap1\n      dup1\n      dup3\n      mstore\n      dup1\n      0x20\n      mul\n      0x20\n      add\n      dup3\n      add\n      0x40\n      mstore\n      dup1\n      iszero\n      tag_76\n      jumpi\n      dup2\n      0x20\n      add\n    tag_77:\n      0x60\n      dup2\n      mstore\n      0x20\n      add\n      swap1\n      0x01\n      swap1\n      sub\n      swap1\n      dup2\n      tag_77\n      jumpi\n      swap1\n      pop\n    tag_76:\n      pop\n        /* \"contracts/UlaloDatastore.sol\":2589:2624  cids = new string[](validFileCount) */\n      swap9\n      pop\n        /* \"contracts/UlaloDatastore.sol\":2659:2673  validFileCount */\n      dup1\n        /* \"contracts/UlaloDatastore.sol\":2646:2674  new string[](validFileCount) */\n      0xffffffffffffffff\n      dup2\n      gt\n      iszero\n      tag_78\n      jumpi\n      tag_79\n      tag_75\n      jump\t// in\n    tag_79:\n    tag_78:\n      mload(0x40)\n      swap1\n      dup1\n      dup3\n      mstore\n      dup1\n      0x20\n      mul\n      0x20\n      add\n      dup3\n      add\n      0x40\n      mstore\n      dup1\n      iszero\n      tag_80\n      jumpi\n      dup2\n      0x20\n      add\n    tag_81:\n      0x60\n      dup2\n      mstore\n      0x20\n      add\n      swap1\n      0x01\n      swap1\n      sub\n      swap1\n      dup2\n      tag_81\n      jumpi\n      swap1\n      pop\n    tag_80:\n      pop\n        /* \"contracts/UlaloDatastore.sol\":2634:2674  fileNames = new string[](validFileCount) */\n      swap8\n      pop\n        /* \"contracts/UlaloDatastore.sol\":2709:2723  validFileCount */\n      dup1\n        /* \"contracts/UlaloDatastore.sol\":2696:2724  new string[](validFileCount) */\n      0xffffffffffffffff\n      dup2\n      gt\n      iszero\n      tag_82\n      jumpi\n      tag_83\n      tag_75\n      jump\t// in\n    tag_83:\n    tag_82:\n      mload(0x40)\n      swap1\n      dup1\n      dup3\n      mstore\n      dup1\n      0x20\n      mul\n      0x20\n      add\n      dup3\n      add\n      0x40\n      mstore\n      dup1\n      iszero\n      tag_84\n      jumpi\n      dup2\n      0x20\n      add\n    tag_85:\n      0x60\n      dup2\n      mstore\n      0x20\n      add\n      swap1\n      0x01\n      swap1\n      sub\n      swap1\n      dup2\n      tag_85\n      jumpi\n      swap1\n      pop\n    tag_84:\n      pop\n        /* \"contracts/UlaloDatastore.sol\":2684:2724  fileTypes = new string[](validFileCount) */\n      swap7\n      pop\n        /* \"contracts/UlaloDatastore.sol\":2760:2774  validFileCount */\n      dup1\n        /* \"contracts/UlaloDatastore.sol\":2746:2775  new uint256[](validFileCount) */\n      0xffffffffffffffff\n      dup2\n      gt\n      iszero\n      tag_86\n      jumpi\n      tag_87\n      tag_75\n      jump\t// in\n    tag_87:\n    tag_86:\n      mload(0x40)\n      swap1\n      dup1\n      dup3\n      mstore\n      dup1\n      0x20\n      mul\n      0x20\n      add\n      dup3\n      add\n      0x40\n      mstore\n      dup1\n      iszero\n      tag_88\n      jumpi\n      dup2\n      0x20\n      add\n      0x20\n      dup3\n      mul\n      dup1\n      calldatasize\n      dup4\n      calldatacopy\n      dup1\n      dup3\n      add\n      swap2\n      pop\n      pop\n      swap1\n      pop\n    tag_88:\n      pop\n        /* \"contracts/UlaloDatastore.sol\":2734:2775  fileSizes = new uint256[](validFileCount) */\n      swap6\n      pop\n        /* \"contracts/UlaloDatastore.sol\":2813:2827  validFileCount */\n      dup1\n        /* \"contracts/UlaloDatastore.sol\":2800:2828  new string[](validFileCount) */\n      0xffffffffffffffff\n      dup2\n      gt\n      iszero\n      tag_89\n      jumpi\n      tag_90\n      tag_75\n      jump\t// in\n    tag_90:\n    tag_89:\n      mload(0x40)\n      swap1\n      dup1\n      dup3\n      mstore\n      dup1\n      0x20\n      mul\n      0x20\n      add\n      dup3\n      add\n      0x40\n      mstore\n      dup1\n      iszero\n      tag_91\n      jumpi\n      dup2\n      0x20\n      add\n    tag_92:\n      0x60\n      dup2\n      mstore\n      0x20\n      add\n      swap1\n      0x01\n      swap1\n      sub\n      swap1\n      dup2\n      tag_92\n      jumpi\n      swap1\n      pop\n    tag_91:\n      pop\n        /* \"contracts/UlaloDatastore.sol\":2785:2828  fileContents = new string[](validFileCount) */\n      swap5\n      pop\n        /* \"contracts/UlaloDatastore.sol\":2859:2873  validFileCount */\n      dup1\n        /* \"contracts/UlaloDatastore.sol\":2846:2874  new string[](validFileCount) */\n      0xffffffffffffffff\n      dup2\n      gt\n      iszero\n      tag_93\n      jumpi\n      tag_94\n      tag_75\n      jump\t// in\n    tag_94:\n    tag_93:\n      mload(0x40)\n      swap1\n      dup1\n      dup3\n      mstore\n      dup1\n      0x20\n      mul\n      0x20\n      add\n      dup3\n      add\n      0x40\n      mstore\n      dup1\n      iszero\n      tag_95\n      jumpi\n      dup2\n      0x20\n      add\n    tag_96:\n      0x60\n      dup2\n      mstore\n      0x20\n      add\n      swap1\n      0x01\n      swap1\n      sub\n      swap1\n      dup2\n      tag_96\n      jumpi\n      swap1\n      pop\n    tag_95:\n      pop\n        /* \"contracts/UlaloDatastore.sol\":2838:2874  dates = new string[](validFileCount) */\n      swap4\n      pop\n        /* \"contracts/UlaloDatastore.sol\":2907:2921  validFileCount */\n      dup1\n        /* \"contracts/UlaloDatastore.sol\":2893:2922  new uint256[](validFileCount) */\n      0xffffffffffffffff\n      dup2\n      gt\n      iszero\n      tag_97\n      jumpi\n      tag_98\n      tag_75\n      jump\t// in\n    tag_98:\n    tag_97:\n      mload(0x40)\n      swap1\n      dup1\n      dup3\n      mstore\n      dup1\n      0x20\n      mul\n      0x20\n      add\n      dup3\n      add\n      0x40\n      mstore\n      dup1\n      iszero\n      tag_99\n      jumpi\n      dup2\n      0x20\n      add\n      0x20\n      dup3\n      mul\n      dup1\n      calldatasize\n      dup4\n      calldatacopy\n      dup1\n      dup3\n      add\n      swap2\n      pop\n      pop\n      swap1\n      pop\n    tag_99:\n      pop\n        /* \"contracts/UlaloDatastore.sol\":2884:2922  scores = new uint256[](validFileCount) */\n      swap3\n      pop\n        /* \"contracts/UlaloDatastore.sol\":2933:2946  uint256 index */\n      0x00\n        /* \"contracts/UlaloDatastore.sol\":2965:2974  uint256 i */\n      dup1\n        /* \"contracts/UlaloDatastore.sol\":2960:3487  for (uint256 i = 0; i < length; i++) {... */\n    tag_100:\n        /* \"contracts/UlaloDatastore.sol\":2984:2990  length */\n      dup4\n        /* \"contracts/UlaloDatastore.sol\":2980:2981  i */\n      dup2\n        /* \"contracts/UlaloDatastore.sol\":2980:2990  i < length */\n      lt\n        /* \"contracts/UlaloDatastore.sol\":2960:3487  for (uint256 i = 0; i < length; i++) {... */\n      iszero\n      tag_101\n      jumpi\n        /* \"contracts/UlaloDatastore.sol\":3015:3024  userFiles */\n      0x01\n        /* \"contracts/UlaloDatastore.sol\":3015:3030  userFiles[user] */\n      0x00\n        /* \"contracts/UlaloDatastore.sol\":3025:3029  user */\n      dup14\n        /* \"contracts/UlaloDatastore.sol\":3015:3030  userFiles[user] */\n      0xffffffffffffffffffffffffffffffffffffffff\n      and\n      0xffffffffffffffffffffffffffffffffffffffff\n      and\n      dup2\n      mstore\n      0x20\n      add\n      swap1\n      dup2\n      mstore\n      0x20\n      add\n      0x00\n      keccak256\n        /* \"contracts/UlaloDatastore.sol\":3031:3032  i */\n      dup2\n        /* \"contracts/UlaloDatastore.sol\":3015:3033  userFiles[user][i] */\n      dup2\n      sload\n      dup2\n      lt\n      tag_103\n      jumpi\n      tag_104\n      tag_59\n      jump\t// in\n    tag_104:\n    tag_103:\n      swap1\n      0x00\n      mstore\n      keccak256(0x00, 0x20)\n      swap1\n      0x08\n      mul\n      add\n        /* \"contracts/UlaloDatastore.sol\":3015:3040  userFiles[user][i].active */\n      0x07\n      add\n      0x00\n      swap1\n      sload\n      swap1\n      0x0100\n      exp\n      swap1\n      div\n      0xff\n      and\n        /* \"contracts/UlaloDatastore.sol\":3011:3477  if (userFiles[user][i].active) {... */\n      iszero\n      tag_106\n      jumpi\n        /* \"contracts/UlaloDatastore.sol\":3060:3084  FileDetails storage file */\n      0x00\n        /* \"contracts/UlaloDatastore.sol\":3087:3096  userFiles */\n      0x01\n        /* \"contracts/UlaloDatastore.sol\":3087:3102  userFiles[user] */\n      0x00\n        /* \"contracts/UlaloDatastore.sol\":3097:3101  user */\n      dup15\n        /* \"contracts/UlaloDatastore.sol\":3087:3102  userFiles[user] */\n      0xffffffffffffffffffffffffffffffffffffffff\n      and\n      0xffffffffffffffffffffffffffffffffffffffff\n      and\n      dup2\n      mstore\n      0x20\n      add\n      swap1\n      dup2\n      mstore\n      0x20\n      add\n      0x00\n      keccak256\n        /* \"contracts/UlaloDatastore.sol\":3103:3104  i */\n      dup3\n        /* \"contracts/UlaloDatastore.sol\":3087:3105  userFiles[user][i] */\n      dup2\n      sload\n      dup2\n      lt\n      tag_107\n      jumpi\n      tag_108\n      tag_59\n      jump\t// in\n    tag_108:\n    tag_107:\n      swap1\n      0x00\n      mstore\n      keccak256(0x00, 0x20)\n      swap1\n      0x08\n      mul\n      add\n        /* \"contracts/UlaloDatastore.sol\":3060:3105  FileDetails storage file = userFiles[user][i] */\n      swap1\n      pop\n        /* \"contracts/UlaloDatastore.sol\":3137:3141  file */\n      dup1\n        /* \"contracts/UlaloDatastore.sol\":3137:3145  file.cid */\n      0x00\n      add\n        /* \"contracts/UlaloDatastore.sol\":3123:3145  cids[index] = file.cid */\n      dup1\n      sload\n      tag_110\n      swap1\n      tag_38\n      jump\t// in\n    tag_110:\n      dup1\n      0x1f\n      add\n      0x20\n      dup1\n      swap2\n      div\n      mul\n      0x20\n      add\n      mload(0x40)\n      swap1\n      dup2\n      add\n      0x40\n      mstore\n      dup1\n      swap3\n      swap2\n      swap1\n      dup2\n      dup2\n      mstore\n      0x20\n      add\n      dup3\n      dup1\n      sload\n      tag_111\n      swap1\n      tag_38\n      jump\t// in\n    tag_111:\n      dup1\n      iszero\n      tag_112\n      jumpi\n      dup1\n      0x1f\n      lt\n      tag_113\n      jumpi\n      0x0100\n      dup1\n      dup4\n      sload\n      div\n      mul\n      dup4\n      mstore\n      swap2\n      0x20\n      add\n      swap2\n      jump(tag_112)\n    tag_113:\n      dup3\n      add\n      swap2\n      swap1\n      0x00\n      mstore\n      keccak256(0x00, 0x20)\n      swap1\n    tag_114:\n      dup2\n      sload\n      dup2\n      mstore\n      swap1\n      0x01\n      add\n      swap1\n      0x20\n      add\n      dup1\n      dup4\n      gt\n      tag_114\n      jumpi\n      dup3\n      swap1\n      sub\n      0x1f\n      and\n      dup3\n      add\n      swap2\n    tag_112:\n      pop\n      pop\n      pop\n      pop\n      pop\n        /* \"contracts/UlaloDatastore.sol\":3123:3127  cids */\n      dup13\n        /* \"contracts/UlaloDatastore.sol\":3128:3133  index */\n      dup5\n        /* \"contracts/UlaloDatastore.sol\":3123:3134  cids[index] */\n      dup2\n      mload\n      dup2\n      lt\n      tag_115\n      jumpi\n      tag_116\n      tag_59\n      jump\t// in\n    tag_116:\n    tag_115:\n      0x20\n      mul\n      0x20\n      add\n      add\n        /* \"contracts/UlaloDatastore.sol\":3123:3145  cids[index] = file.cid */\n      dup2\n      swap1\n      mstore\n      pop\n        /* \"contracts/UlaloDatastore.sol\":3182:3186  file */\n      dup1\n        /* \"contracts/UlaloDatastore.sol\":3182:3195  file.fileName */\n      0x01\n      add\n        /* \"contracts/UlaloDatastore.sol\":3163:3195  fileNames[index] = file.fileName */\n      dup1\n      sload\n      tag_117\n      swap1\n      tag_38\n      jump\t// in\n    tag_117:\n      dup1\n      0x1f\n      add\n      0x20\n      dup1\n      swap2\n      div\n      mul\n      0x20\n      add\n      mload(0x40)\n      swap1\n      dup2\n      add\n      0x40\n      mstore\n      dup1\n      swap3\n      swap2\n      swap1\n      dup2\n      dup2\n      mstore\n      0x20\n      add\n      dup3\n      dup1\n      sload\n      tag_118\n      swap1\n      tag_38\n      jump\t// in\n    tag_118:\n      dup1\n      iszero\n      tag_119\n      jumpi\n      dup1\n      0x1f\n      lt\n      tag_120\n      jumpi\n      0x0100\n      dup1\n      dup4\n      sload\n      div\n      mul\n      dup4\n      mstore\n      swap2\n      0x20\n      add\n      swap2\n      jump(tag_119)\n    tag_120:\n      dup3\n      add\n      swap2\n      swap1\n      0x00\n      mstore\n      keccak256(0x00, 0x20)\n      swap1\n    tag_121:\n      dup2\n      sload\n      dup2\n      mstore\n      swap1\n      0x01\n      add\n      swap1\n      0x20\n      add\n      dup1\n      dup4\n      gt\n      tag_121\n      jumpi\n      dup3\n      swap1\n      sub\n      0x1f\n      and\n      dup3\n      add\n      swap2\n    tag_119:\n      pop\n      pop\n      pop\n      pop\n      pop\n        /* \"contracts/UlaloDatastore.sol\":3163:3172  fileNames */\n      dup12\n        /* \"contracts/UlaloDatastore.sol\":3173:3178  index */\n      dup5\n        /* \"contracts/UlaloDatastore.sol\":3163:3179  fileNames[index] */\n      dup2\n      mload\n      dup2\n      lt\n      tag_122\n      jumpi\n      tag_123\n      tag_59\n      jump\t// in\n    tag_123:\n    tag_122:\n      0x20\n      mul\n      0x20\n      add\n      add\n        /* \"contracts/UlaloDatastore.sol\":3163:3195  fileNames[index] = file.fileName */\n      dup2\n      swap1\n      mstore\n      pop\n        /* \"contracts/UlaloDatastore.sol\":3232:3236  file */\n      dup1\n        /* \"contracts/UlaloDatastore.sol\":3232:3245  file.fileType */\n      0x02\n      add\n        /* \"contracts/UlaloDatastore.sol\":3213:3245  fileTypes[index] = file.fileType */\n      dup1\n      sload\n      tag_124\n      swap1\n      tag_38\n      jump\t// in\n    tag_124:\n      dup1\n      0x1f\n      add\n      0x20\n      dup1\n      swap2\n      div\n      mul\n      0x20\n      add\n      mload(0x40)\n      swap1\n      dup2\n      add\n      0x40\n      mstore\n      dup1\n      swap3\n      swap2\n      swap1\n      dup2\n      dup2\n      mstore\n      0x20\n      add\n      dup3\n      dup1\n      sload\n      tag_125\n      swap1\n      tag_38\n      jump\t// in\n    tag_125:\n      dup1\n      iszero\n      tag_126\n      jumpi\n      dup1\n      0x1f\n      lt\n      tag_127\n      jumpi\n      0x0100\n      dup1\n      dup4\n      sload\n      div\n      mul\n      dup4\n      mstore\n      swap2\n      0x20\n      add\n      swap2\n      jump(tag_126)\n    tag_127:\n      dup3\n      add\n      swap2\n      swap1\n      0x00\n      mstore\n      keccak256(0x00, 0x20)\n      swap1\n    tag_128:\n      dup2\n      sload\n      dup2\n      mstore\n      swap1\n      0x01\n      add\n      swap1\n      0x20\n      add\n      dup1\n      dup4\n      gt\n      tag_128\n      jumpi\n      dup3\n      swap1\n      sub\n      0x1f\n      and\n      dup3\n      add\n      swap2\n    tag_126:\n      pop\n      pop\n      pop\n      pop\n      pop\n        /* \"contracts/UlaloDatastore.sol\":3213:3222  fileTypes */\n      dup11\n        /* \"contracts/UlaloDatastore.sol\":3223:3228  index */\n      dup5\n        /* \"contracts/UlaloDatastore.sol\":3213:3229  fileTypes[index] */\n      dup2\n      mload\n      dup2\n      lt\n      tag_129\n      jumpi\n      tag_130\n      tag_59\n      jump\t// in\n    tag_130:\n    tag_129:\n      0x20\n      mul\n      0x20\n      add\n      add\n        /* \"contracts/UlaloDatastore.sol\":3213:3245  fileTypes[index] = file.fileType */\n      dup2\n      swap1\n      mstore\n      pop\n        /* \"contracts/UlaloDatastore.sol\":3282:3286  file */\n      dup1\n        /* \"contracts/UlaloDatastore.sol\":3282:3295  file.fileSize */\n      0x03\n      add\n      sload\n        /* \"contracts/UlaloDatastore.sol\":3263:3272  fileSizes */\n      dup10\n        /* \"contracts/UlaloDatastore.sol\":3273:3278  index */\n      dup5\n        /* \"contracts/UlaloDatastore.sol\":3263:3279  fileSizes[index] */\n      dup2\n      mload\n      dup2\n      lt\n      tag_131\n      jumpi\n      tag_132\n      tag_59\n      jump\t// in\n    tag_132:\n    tag_131:\n      0x20\n      mul\n      0x20\n      add\n      add\n        /* \"contracts/UlaloDatastore.sol\":3263:3295  fileSizes[index] = file.fileSize */\n      dup2\n      dup2\n      mstore\n      pop\n      pop\n        /* \"contracts/UlaloDatastore.sol\":3335:3339  file */\n      dup1\n        /* \"contracts/UlaloDatastore.sol\":3335:3351  file.fileContent */\n      0x04\n      add\n        /* \"contracts/UlaloDatastore.sol\":3313:3351  fileContents[index] = file.fileContent */\n      dup1\n      sload\n      tag_133\n      swap1\n      tag_38\n      jump\t// in\n    tag_133:\n      dup1\n      0x1f\n      add\n      0x20\n      dup1\n      swap2\n      div\n      mul\n      0x20\n      add\n      mload(0x40)\n      swap1\n      dup2\n      add\n      0x40\n      mstore\n      dup1\n      swap3\n      swap2\n      swap1\n      dup2\n      dup2\n      mstore\n      0x20\n      add\n      dup3\n      dup1\n      sload\n      tag_134\n      swap1\n      tag_38\n      jump\t// in\n    tag_134:\n      dup1\n      iszero\n      tag_135\n      jumpi\n      dup1\n      0x1f\n      lt\n      tag_136\n      jumpi\n      0x0100\n      dup1\n      dup4\n      sload\n      div\n      mul\n      dup4\n      mstore\n      swap2\n      0x20\n      add\n      swap2\n      jump(tag_135)\n    tag_136:\n      dup3\n      add\n      swap2\n      swap1\n      0x00\n      mstore\n      keccak256(0x00, 0x20)\n      swap1\n    tag_137:\n      dup2\n      sload\n      dup2\n      mstore\n      swap1\n      0x01\n      add\n      swap1\n      0x20\n      add\n      dup1\n      dup4\n      gt\n      tag_137\n      jumpi\n      dup3\n      swap1\n      sub\n      0x1f\n      and\n      dup3\n      add\n      swap2\n    tag_135:\n      pop\n      pop\n      pop\n      pop\n      pop\n        /* \"contracts/UlaloDatastore.sol\":3313:3325  fileContents */\n      dup9\n        /* \"contracts/UlaloDatastore.sol\":3326:3331  index */\n      dup5\n        /* \"contracts/UlaloDatastore.sol\":3313:3332  fileContents[index] */\n      dup2\n      mload\n      dup2\n      lt\n      tag_138\n      jumpi\n      tag_139\n      tag_59\n      jump\t// in\n    tag_139:\n    tag_138:\n      0x20\n      mul\n      0x20\n      add\n      add\n        /* \"contracts/UlaloDatastore.sol\":3313:3351  fileContents[index] = file.fileContent */\n      dup2\n      swap1\n      mstore\n      pop\n        /* \"contracts/UlaloDatastore.sol\":3384:3388  file */\n      dup1\n        /* \"contracts/UlaloDatastore.sol\":3384:3393  file.date */\n      0x05\n      add\n        /* \"contracts/UlaloDatastore.sol\":3369:3393  dates[index] = file.date */\n      dup1\n      sload\n      tag_140\n      swap1\n      tag_38\n      jump\t// in\n    tag_140:\n      dup1\n      0x1f\n      add\n      0x20\n      dup1\n      swap2\n      div\n      mul\n      0x20\n      add\n      mload(0x40)\n      swap1\n      dup2\n      add\n      0x40\n      mstore\n      dup1\n      swap3\n      swap2\n      swap1\n      dup2\n      dup2\n      mstore\n      0x20\n      add\n      dup3\n      dup1\n      sload\n      tag_141\n      swap1\n      tag_38\n      jump\t// in\n    tag_141:\n      dup1\n      iszero\n      tag_142\n      jumpi\n      dup1\n      0x1f\n      lt\n      tag_143\n      jumpi\n      0x0100\n      dup1\n      dup4\n      sload\n      div\n      mul\n      dup4\n      mstore\n      swap2\n      0x20\n      add\n      swap2\n      jump(tag_142)\n    tag_143:\n      dup3\n      add\n      swap2\n      swap1\n      0x00\n      mstore\n      keccak256(0x00, 0x20)\n      swap1\n    tag_144:\n      dup2\n      sload\n      dup2\n      mstore\n      swap1\n      0x01\n      add\n      swap1\n      0x20\n      add\n      dup1\n      dup4\n      gt\n      tag_144\n      jumpi\n      dup3\n      swap1\n      sub\n      0x1f\n      and\n      dup3\n      add\n      swap2\n    tag_142:\n      pop\n      pop\n      pop\n      pop\n      pop\n        /* \"contracts/UlaloDatastore.sol\":3369:3374  dates */\n      dup8\n        /* \"contracts/UlaloDatastore.sol\":3375:3380  index */\n      dup5\n        /* \"contracts/UlaloDatastore.sol\":3369:3381  dates[index] */\n      dup2\n      mload\n      dup2\n      lt\n      tag_145\n      jumpi\n      tag_146\n      tag_59\n      jump\t// in\n    tag_146:\n    tag_145:\n      0x20\n      mul\n      0x20\n      add\n      add\n        /* \"contracts/UlaloDatastore.sol\":3369:3393  dates[index] = file.date */\n      dup2\n      swap1\n      mstore\n      pop\n        /* \"contracts/UlaloDatastore.sol\":3427:3431  file */\n      dup1\n        /* \"contracts/UlaloDatastore.sol\":3427:3437  file.score */\n      0x06\n      add\n      sload\n        /* \"contracts/UlaloDatastore.sol\":3411:3417  scores */\n      dup7\n        /* \"contracts/UlaloDatastore.sol\":3418:3423  index */\n      dup5\n        /* \"contracts/UlaloDatastore.sol\":3411:3424  scores[index] */\n      dup2\n      mload\n      dup2\n      lt\n      tag_147\n      jumpi\n      tag_148\n      tag_59\n      jump\t// in\n    tag_148:\n    tag_147:\n      0x20\n      mul\n      0x20\n      add\n      add\n        /* \"contracts/UlaloDatastore.sol\":3411:3437  scores[index] = file.score */\n      dup2\n      dup2\n      mstore\n      pop\n      pop\n        /* \"contracts/UlaloDatastore.sol\":3455:3462  index++ */\n      dup3\n      dup1\n      tag_149\n      swap1\n      tag_72\n      jump\t// in\n    tag_149:\n      swap4\n      pop\n      pop\n        /* \"contracts/UlaloDatastore.sol\":3042:3477  {... */\n      pop\n        /* \"contracts/UlaloDatastore.sol\":3011:3477  if (userFiles[user][i].active) {... */\n    tag_106:\n        /* \"contracts/UlaloDatastore.sol\":2992:2995  i++ */\n      dup1\n      dup1\n      0x01\n      add\n      swap2\n      pop\n      pop\n        /* \"contracts/UlaloDatastore.sol\":2960:3487  for (uint256 i = 0; i < length; i++) {... */\n      jump(tag_100)\n    tag_101:\n      pop\n        /* \"contracts/UlaloDatastore.sol\":3496:3571  return (cids, fileNames, fileTypes, fileSizes, fileContents, dates, scores) */\n      pop\n      pop\n      pop\n        /* \"contracts/UlaloDatastore.sol\":1930:3578  function getFiles(address user) public view returns (... */\n      swap2\n      swap4\n      swap6\n      swap8\n      swap1\n      swap3\n      swap5\n      swap7\n      pop\n      jump\t// out\n        /* \"contracts/UlaloDatastore.sol\":4549:5631  function deleteUserFile(address userAddress, uint256 index, string memory cid) public returns (... */\n    tag_26:\n        /* \"contracts/UlaloDatastore.sol\":4653:4673  string[] memory cids */\n      0x60\n        /* \"contracts/UlaloDatastore.sol\":4683:4708  string[] memory fileNames */\n      dup1\n        /* \"contracts/UlaloDatastore.sol\":4718:4743  string[] memory fileTypes */\n      0x60\n        /* \"contracts/UlaloDatastore.sol\":4753:4779  uint256[] memory fileSizes */\n      dup1\n        /* \"contracts/UlaloDatastore.sol\":4789:4817  string[] memory fileContents */\n      0x60\n        /* \"contracts/UlaloDatastore.sol\":4827:4848  string[] memory dates */\n      dup1\n        /* \"contracts/UlaloDatastore.sol\":4858:4881  uint256[] memory scores */\n      0x60\n        /* \"contracts/UlaloDatastore.sol\":4921:4932  userAddress */\n      dup10\n        /* \"contracts/UlaloDatastore.sol\":4907:4932  msg.sender == userAddress */\n      0xffffffffffffffffffffffffffffffffffffffff\n      and\n        /* \"contracts/UlaloDatastore.sol\":4907:4917  msg.sender */\n      caller\n        /* \"contracts/UlaloDatastore.sol\":4907:4932  msg.sender == userAddress */\n      0xffffffffffffffffffffffffffffffffffffffff\n      and\n      eq\n        /* \"contracts/UlaloDatastore.sol\":4899:4967  require(msg.sender == userAddress, \"Not authorized to delete files\") */\n      tag_151\n      jumpi\n      mload(0x40)\n      0x08c379a000000000000000000000000000000000000000000000000000000000\n      dup2\n      mstore\n      0x04\n      add\n      tag_152\n      swap1\n      tag_153\n      jump\t// in\n    tag_152:\n      mload(0x40)\n      dup1\n      swap2\n      sub\n      swap1\n      revert\n    tag_151:\n        /* \"contracts/UlaloDatastore.sol\":4977:4994  uint256 fileCount */\n      0x00\n        /* \"contracts/UlaloDatastore.sol\":4997:5006  userFiles */\n      0x01\n        /* \"contracts/UlaloDatastore.sol\":4997:5019  userFiles[userAddress] */\n      0x00\n        /* \"contracts/UlaloDatastore.sol\":5007:5018  userAddress */\n      dup13\n        /* \"contracts/UlaloDatastore.sol\":4997:5019  userFiles[userAddress] */\n      0xffffffffffffffffffffffffffffffffffffffff\n      and\n      0xffffffffffffffffffffffffffffffffffffffff\n      and\n      dup2\n      mstore\n      0x20\n      add\n      swap1\n      dup2\n      mstore\n      0x20\n      add\n      0x00\n      keccak256\n        /* \"contracts/UlaloDatastore.sol\":4997:5026  userFiles[userAddress].length */\n      dup1\n      sload\n      swap1\n      pop\n        /* \"contracts/UlaloDatastore.sol\":4977:5026  uint256 fileCount = userFiles[userAddress].length */\n      swap1\n      pop\n        /* \"contracts/UlaloDatastore.sol\":5056:5057  0 */\n      0x00\n        /* \"contracts/UlaloDatastore.sol\":5044:5053  fileCount */\n      dup2\n        /* \"contracts/UlaloDatastore.sol\":5044:5057  fileCount > 0 */\n      gt\n        /* \"contracts/UlaloDatastore.sol\":5036:5090  require(fileCount > 0, \"No files exist for this user\") */\n      tag_154\n      jumpi\n      mload(0x40)\n      0x08c379a000000000000000000000000000000000000000000000000000000000\n      dup2\n      mstore\n      0x04\n      add\n      tag_155\n      swap1\n      tag_53\n      jump\t// in\n    tag_155:\n      mload(0x40)\n      dup1\n      swap2\n      sub\n      swap1\n      revert\n    tag_154:\n        /* \"contracts/UlaloDatastore.sol\":5116:5125  fileCount */\n      dup1\n        /* \"contracts/UlaloDatastore.sol\":5108:5113  index */\n      dup11\n        /* \"contracts/UlaloDatastore.sol\":5108:5125  index < fileCount */\n      lt\n        /* \"contracts/UlaloDatastore.sol\":5100:5143  require(index < fileCount, \"Invalid index\") */\n      tag_156\n      jumpi\n      mload(0x40)\n      0x08c379a000000000000000000000000000000000000000000000000000000000\n      dup2\n      mstore\n      0x04\n      add\n      tag_157\n      swap1\n      tag_158\n      jump\t// in\n    tag_157:\n      mload(0x40)\n      dup1\n      swap2\n      sub\n      swap1\n      revert\n    tag_156:\n        /* \"contracts/UlaloDatastore.sol\":5330:5333  cid */\n      dup9\n        /* \"contracts/UlaloDatastore.sol\":5313:5334  abi.encodePacked(cid) */\n      add(0x20, mload(0x40))\n      tag_159\n      swap2\n      swap1\n      tag_160\n      jump\t// in\n    tag_159:\n      mload(0x40)\n      0x20\n      dup2\n      dup4\n      sub\n      sub\n      dup2\n      mstore\n      swap1\n      0x40\n      mstore\n        /* \"contracts/UlaloDatastore.sol\":5303:5335  keccak256(abi.encodePacked(cid)) */\n      dup1\n      mload\n      swap1\n      0x20\n      add\n      keccak256\n        /* \"contracts/UlaloDatastore.sol\":5264:5273  userFiles */\n      0x01\n        /* \"contracts/UlaloDatastore.sol\":5264:5286  userFiles[userAddress] */\n      0x00\n        /* \"contracts/UlaloDatastore.sol\":5274:5285  userAddress */\n      dup14\n        /* \"contracts/UlaloDatastore.sol\":5264:5286  userFiles[userAddress] */\n      0xffffffffffffffffffffffffffffffffffffffff\n      and\n      0xffffffffffffffffffffffffffffffffffffffff\n      and\n      dup2\n      mstore\n      0x20\n      add\n      swap1\n      dup2\n      mstore\n      0x20\n      add\n      0x00\n      keccak256\n        /* \"contracts/UlaloDatastore.sol\":5287:5292  index */\n      dup12\n        /* \"contracts/UlaloDatastore.sol\":5264:5293  userFiles[userAddress][index] */\n      dup2\n      sload\n      dup2\n      lt\n      tag_161\n      jumpi\n      tag_162\n      tag_59\n      jump\t// in\n    tag_162:\n    tag_161:\n      swap1\n      0x00\n      mstore\n      keccak256(0x00, 0x20)\n      swap1\n      0x08\n      mul\n      add\n        /* \"contracts/UlaloDatastore.sol\":5264:5297  userFiles[userAddress][index].cid */\n      0x00\n      add\n        /* \"contracts/UlaloDatastore.sol\":5247:5298  abi.encodePacked(userFiles[userAddress][index].cid) */\n      add(0x20, mload(0x40))\n      tag_164\n      swap2\n      swap1\n      tag_165\n      jump\t// in\n    tag_164:\n      mload(0x40)\n      0x20\n      dup2\n      dup4\n      sub\n      sub\n      dup2\n      mstore\n      swap1\n      0x40\n      mstore\n        /* \"contracts/UlaloDatastore.sol\":5237:5299  keccak256(abi.encodePacked(userFiles[userAddress][index].cid)) */\n      dup1\n      mload\n      swap1\n      0x20\n      add\n      keccak256\n        /* \"contracts/UlaloDatastore.sol\":5237:5335  keccak256(abi.encodePacked(userFiles[userAddress][index].cid)) == keccak256(abi.encodePacked(cid)) */\n      eq\n        /* \"contracts/UlaloDatastore.sol\":5216:5384  require(... */\n      tag_166\n      jumpi\n      mload(0x40)\n      0x08c379a000000000000000000000000000000000000000000000000000000000\n      dup2\n      mstore\n      0x04\n      add\n      tag_167\n      swap1\n      tag_168\n      jump\t// in\n    tag_167:\n      mload(0x40)\n      dup1\n      swap2\n      sub\n      swap1\n      revert\n    tag_166:\n        /* \"contracts/UlaloDatastore.sol\":5481:5486  false */\n      0x00\n        /* \"contracts/UlaloDatastore.sol\":5442:5451  userFiles */\n      0x01\n        /* \"contracts/UlaloDatastore.sol\":5442:5464  userFiles[userAddress] */\n      0x00\n        /* \"contracts/UlaloDatastore.sol\":5452:5463  userAddress */\n      dup14\n        /* \"contracts/UlaloDatastore.sol\":5442:5464  userFiles[userAddress] */\n      0xffffffffffffffffffffffffffffffffffffffff\n      and\n      0xffffffffffffffffffffffffffffffffffffffff\n      and\n      dup2\n      mstore\n      0x20\n      add\n      swap1\n      dup2\n      mstore\n      0x20\n      add\n      0x00\n      keccak256\n        /* \"contracts/UlaloDatastore.sol\":5465:5470  index */\n      dup12\n        /* \"contracts/UlaloDatastore.sol\":5442:5471  userFiles[userAddress][index] */\n      dup2\n      sload\n      dup2\n      lt\n      tag_169\n      jumpi\n      tag_170\n      tag_59\n      jump\t// in\n    tag_170:\n    tag_169:\n      swap1\n      0x00\n      mstore\n      keccak256(0x00, 0x20)\n      swap1\n      0x08\n      mul\n      add\n        /* \"contracts/UlaloDatastore.sol\":5442:5478  userFiles[userAddress][index].active */\n      0x07\n      add\n      0x00\n        /* \"contracts/UlaloDatastore.sol\":5442:5486  userFiles[userAddress][index].active = false */\n      0x0100\n      exp\n      dup2\n      sload\n      dup2\n      0xff\n      mul\n      not\n      and\n      swap1\n      dup4\n      iszero\n      iszero\n      mul\n      or\n      swap1\n      sstore\n      pop\n        /* \"contracts/UlaloDatastore.sol\":5514:5525  userAddress */\n      dup11\n        /* \"contracts/UlaloDatastore.sol\":5502:5538  FileDeleted(userAddress, cid, index) */\n      0xffffffffffffffffffffffffffffffffffffffff\n      and\n      0x4f290849018eb780affafba63563006086546149769e7b527f0e61c4f282de07\n        /* \"contracts/UlaloDatastore.sol\":5527:5530  cid */\n      dup11\n        /* \"contracts/UlaloDatastore.sol\":5532:5537  index */\n      dup13\n        /* \"contracts/UlaloDatastore.sol\":5502:5538  FileDeleted(userAddress, cid, index) */\n      mload(0x40)\n      tag_172\n      swap3\n      swap2\n      swap1\n      tag_173\n      jump\t// in\n    tag_172:\n      mload(0x40)\n      dup1\n      swap2\n      sub\n      swap1\n      log2\n        /* \"contracts/UlaloDatastore.sol\":5596:5624  getUpdatedFiles(userAddress) */\n      tag_174\n        /* \"contracts/UlaloDatastore.sol\":5612:5623  userAddress */\n      dup12\n        /* \"contracts/UlaloDatastore.sol\":5596:5611  getUpdatedFiles */\n      tag_62\n        /* \"contracts/UlaloDatastore.sol\":5596:5624  getUpdatedFiles(userAddress) */\n      jump\t// in\n    tag_174:\n        /* \"contracts/UlaloDatastore.sol\":5589:5624  return getUpdatedFiles(userAddress) */\n      swap8\n      pop\n      swap8\n      pop\n      swap8\n      pop\n      swap8\n      pop\n      swap8\n      pop\n      swap8\n      pop\n      swap8\n      pop\n      pop\n        /* \"contracts/UlaloDatastore.sol\":4549:5631  function deleteUserFile(address userAddress, uint256 index, string memory cid) public returns (... */\n      swap4\n      swap8\n      pop\n      swap4\n      swap8\n      pop\n      swap4\n      swap8\n      swap1\n      swap5\n      pop\n      jump\t// out\n        /* \"contracts/UlaloDatastore.sol\":1109:1923  function storeFileForUser(address userAddress, string memory cid, string memory fileName, string memory fileType, uint256 fileSize, string memory fileContent, string memory date, uint256 score) public {... */\n    tag_31:\n        /* \"contracts/UlaloDatastore.sol\":1348:1349  0 */\n      0x00\n        /* \"contracts/UlaloDatastore.sol\":1334:1337  cid */\n      dup8\n        /* \"contracts/UlaloDatastore.sol\":1328:1345  bytes(cid).length */\n      mload\n        /* \"contracts/UlaloDatastore.sol\":1328:1349  bytes(cid).length > 0 */\n      gt\n        /* \"contracts/UlaloDatastore.sol\":1320:1373  require(bytes(cid).length > 0, \"CID cannot be empty\") */\n      tag_176\n      jumpi\n      mload(0x40)\n      0x08c379a000000000000000000000000000000000000000000000000000000000\n      dup2\n      mstore\n      0x04\n      add\n      tag_177\n      swap1\n      tag_178\n      jump\t// in\n    tag_177:\n      mload(0x40)\n      dup1\n      swap2\n      sub\n      swap1\n      revert\n    tag_176:\n        /* \"contracts/UlaloDatastore.sol\":1416:1417  0 */\n      0x00\n        /* \"contracts/UlaloDatastore.sol\":1397:1405  fileName */\n      dup7\n        /* \"contracts/UlaloDatastore.sol\":1391:1413  bytes(fileName).length */\n      mload\n        /* \"contracts/UlaloDatastore.sol\":1391:1417  bytes(fileName).length > 0 */\n      gt\n        /* \"contracts/UlaloDatastore.sol\":1383:1447  require(bytes(fileName).length > 0, \"File name cannot be empty\") */\n      tag_179\n      jumpi\n      mload(0x40)\n      0x08c379a000000000000000000000000000000000000000000000000000000000\n      dup2\n      mstore\n      0x04\n      add\n      tag_180\n      swap1\n      tag_181\n      jump\t// in\n    tag_180:\n      mload(0x40)\n      dup1\n      swap2\n      sub\n      swap1\n      revert\n    tag_179:\n        /* \"contracts/UlaloDatastore.sol\":1490:1491  0 */\n      0x00\n        /* \"contracts/UlaloDatastore.sol\":1471:1479  fileType */\n      dup6\n        /* \"contracts/UlaloDatastore.sol\":1465:1487  bytes(fileType).length */\n      mload\n        /* \"contracts/UlaloDatastore.sol\":1465:1491  bytes(fileType).length > 0 */\n      gt\n        /* \"contracts/UlaloDatastore.sol\":1457:1521  require(bytes(fileType).length > 0, \"File type cannot be empty\") */\n      tag_182\n      jumpi\n      mload(0x40)\n      0x08c379a000000000000000000000000000000000000000000000000000000000\n      dup2\n      mstore\n      0x04\n      add\n      tag_183\n      swap1\n      tag_184\n      jump\t// in\n    tag_183:\n      mload(0x40)\n      dup1\n      swap2\n      sub\n      swap1\n      revert\n    tag_182:\n        /* \"contracts/UlaloDatastore.sol\":1532:1541  userFiles */\n      0x01\n        /* \"contracts/UlaloDatastore.sol\":1532:1554  userFiles[userAddress] */\n      0x00\n        /* \"contracts/UlaloDatastore.sol\":1542:1553  userAddress */\n      dup10\n        /* \"contracts/UlaloDatastore.sol\":1532:1554  userFiles[userAddress] */\n      0xffffffffffffffffffffffffffffffffffffffff\n      and\n      0xffffffffffffffffffffffffffffffffffffffff\n      and\n      dup2\n      mstore\n      0x20\n      add\n      swap1\n      dup2\n      mstore\n      0x20\n      add\n      0x00\n      keccak256\n        /* \"contracts/UlaloDatastore.sol\":1560:1815  FileDetails({... */\n      mload(0x40)\n      dup1\n      0x0100\n      add\n      0x40\n      mstore\n      dup1\n        /* \"contracts/UlaloDatastore.sol\":1591:1594  cid */\n      dup10\n        /* \"contracts/UlaloDatastore.sol\":1560:1815  FileDetails({... */\n      dup2\n      mstore\n      0x20\n      add\n        /* \"contracts/UlaloDatastore.sol\":1618:1626  fileName */\n      dup9\n        /* \"contracts/UlaloDatastore.sol\":1560:1815  FileDetails({... */\n      dup2\n      mstore\n      0x20\n      add\n        /* \"contracts/UlaloDatastore.sol\":1650:1658  fileType */\n      dup8\n        /* \"contracts/UlaloDatastore.sol\":1560:1815  FileDetails({... */\n      dup2\n      mstore\n      0x20\n      add\n        /* \"contracts/UlaloDatastore.sol\":1682:1690  fileSize */\n      dup7\n        /* \"contracts/UlaloDatastore.sol\":1560:1815  FileDetails({... */\n      dup2\n      mstore\n      0x20\n      add\n        /* \"contracts/UlaloDatastore.sol\":1717:1728  fileContent */\n      dup6\n        /* \"contracts/UlaloDatastore.sol\":1560:1815  FileDetails({... */\n      dup2\n      mstore\n      0x20\n      add\n        /* \"contracts/UlaloDatastore.sol\":1748:1752  date */\n      dup5\n        /* \"contracts/UlaloDatastore.sol\":1560:1815  FileDetails({... */\n      dup2\n      mstore\n      0x20\n      add\n        /* \"contracts/UlaloDatastore.sol\":1773:1778  score */\n      dup4\n        /* \"contracts/UlaloDatastore.sol\":1560:1815  FileDetails({... */\n      dup2\n      mstore\n      0x20\n      add\n        /* \"contracts/UlaloDatastore.sol\":1800:1804  true */\n      0x01\n        /* \"contracts/UlaloDatastore.sol\":1560:1815  FileDetails({... */\n      iszero\n      iszero\n      dup2\n      mstore\n      pop\n        /* \"contracts/UlaloDatastore.sol\":1532:1816  userFiles[userAddress].push(FileDetails({... */\n      swap1\n      dup1\n      0x01\n      dup2\n      sload\n      add\n      dup1\n      dup3\n      sstore\n      dup1\n      swap2\n      pop\n      pop\n      0x01\n      swap1\n      sub\n      swap1\n      0x00\n      mstore\n      keccak256(0x00, 0x20)\n      swap1\n      0x08\n      mul\n      add\n      0x00\n      swap1\n      swap2\n      swap1\n      swap2\n      swap1\n      swap2\n      pop\n      0x00\n      dup3\n      add\n      mload\n      dup2\n      0x00\n      add\n      swap1\n      dup2\n      tag_186\n      swap2\n      swap1\n      tag_44\n      jump\t// in\n    tag_186:\n      pop\n      0x20\n      dup3\n      add\n      mload\n      dup2\n      0x01\n      add\n      swap1\n      dup2\n      tag_187\n      swap2\n      swap1\n      tag_44\n      jump\t// in\n    tag_187:\n      pop\n      0x40\n      dup3\n      add\n      mload\n      dup2\n      0x02\n      add\n      swap1\n      dup2\n      tag_188\n      swap2\n      swap1\n      tag_44\n      jump\t// in\n    tag_188:\n      pop\n      0x60\n      dup3\n      add\n      mload\n      dup2\n      0x03\n      add\n      sstore\n      0x80\n      dup3\n      add\n      mload\n      dup2\n      0x04\n      add\n      swap1\n      dup2\n      tag_189\n      swap2\n      swap1\n      tag_44\n      jump\t// in\n    tag_189:\n      pop\n      0xa0\n      dup3\n      add\n      mload\n      dup2\n      0x05\n      add\n      swap1\n      dup2\n      tag_190\n      swap2\n      swap1\n      tag_44\n      jump\t// in\n    tag_190:\n      pop\n      0xc0\n      dup3\n      add\n      mload\n      dup2\n      0x06\n      add\n      sstore\n      0xe0\n      dup3\n      add\n      mload\n      dup2\n      0x07\n      add\n      exp(0x0100, 0x00)\n      dup2\n      sload\n      dup2\n      0xff\n      mul\n      not\n      and\n      swap1\n      dup4\n      iszero\n      iszero\n      mul\n      or\n      swap1\n      sstore\n      pop\n      pop\n      pop\n        /* \"contracts/UlaloDatastore.sol\":1843:1854  userAddress */\n      dup8\n        /* \"contracts/UlaloDatastore.sol\":1832:1916  FileStored(userAddress, cid, fileName, fileType, fileSize, fileContent, date, score) */\n      0xffffffffffffffffffffffffffffffffffffffff\n      and\n      0xad8603a3fe1d55f26ce13346f2c7f31f8624ac0b9cf6f1a0586469eec6473240\n        /* \"contracts/UlaloDatastore.sol\":1856:1859  cid */\n      dup9\n        /* \"contracts/UlaloDatastore.sol\":1861:1869  fileName */\n      dup9\n        /* \"contracts/UlaloDatastore.sol\":1871:1879  fileType */\n      dup9\n        /* \"contracts/UlaloDatastore.sol\":1881:1889  fileSize */\n      dup9\n        /* \"contracts/UlaloDatastore.sol\":1891:1902  fileContent */\n      dup9\n        /* \"contracts/UlaloDatastore.sol\":1904:1908  date */\n      dup9\n        /* \"contracts/UlaloDatastore.sol\":1910:1915  score */\n      dup9\n        /* \"contracts/UlaloDatastore.sol\":1832:1916  FileStored(userAddress, cid, fileName, fileType, fileSize, fileContent, date, score) */\n      mload(0x40)\n      tag_191\n      swap8\n      swap7\n      swap6\n      swap5\n      swap4\n      swap3\n      swap2\n      swap1\n      tag_192\n      jump\t// in\n    tag_191:\n      mload(0x40)\n      dup1\n      swap2\n      sub\n      swap1\n      log2\n        /* \"contracts/UlaloDatastore.sol\":1109:1923  function storeFileForUser(address userAddress, string memory cid, string memory fileName, string memory fileType, uint256 fileSize, string memory fileContent, string memory date, uint256 score) public {... */\n      pop\n      pop\n      pop\n      pop\n      pop\n      pop\n      pop\n      pop\n      jump\t// out\n        /* \"contracts/UlaloDatastore.sol\":96:117  string public message */\n    tag_33:\n      0x00\n      dup1\n      sload\n      tag_193\n      swap1\n      tag_38\n      jump\t// in\n    tag_193:\n      dup1\n      0x1f\n      add\n      0x20\n      dup1\n      swap2\n      div\n      mul\n      0x20\n      add\n      mload(0x40)\n      swap1\n      dup2\n      add\n      0x40\n      mstore\n      dup1\n      swap3\n      swap2\n      swap1\n      dup2\n      dup2\n      mstore\n      0x20\n      add\n      dup3\n      dup1\n      sload\n      tag_194\n      swap1\n      tag_38\n      jump\t// in\n    tag_194:\n      dup1\n      iszero\n      tag_195\n      jumpi\n      dup1\n      0x1f\n      lt\n      tag_196\n      jumpi\n      0x0100\n      dup1\n      dup4\n      sload\n      div\n      mul\n      dup4\n      mstore\n      swap2\n      0x20\n      add\n      swap2\n      jump(tag_195)\n    tag_196:\n      dup3\n      add\n      swap2\n      swap1\n      0x00\n      mstore\n      keccak256(0x00, 0x20)\n      swap1\n    tag_197:\n      dup2\n      sload\n      dup2\n      mstore\n      swap1\n      0x01\n      add\n      swap1\n      0x20\n      add\n      dup1\n      dup4\n      gt\n      tag_197\n      jumpi\n      dup3\n      swap1\n      sub\n      0x1f\n      and\n      dup3\n      add\n      swap2\n    tag_195:\n      pop\n      pop\n      pop\n      pop\n      pop\n      dup2\n      jump\t// out\n        /* \"contracts/UlaloDatastore.sol\":5637:6787  function getUpdatedFiles(address userAddress) internal view returns (... */\n    tag_62:\n        /* \"contracts/UlaloDatastore.sol\":5715:5735  string[] memory cids */\n      0x60\n        /* \"contracts/UlaloDatastore.sol\":5745:5770  string[] memory fileNames */\n      dup1\n        /* \"contracts/UlaloDatastore.sol\":5780:5805  string[] memory fileTypes */\n      0x60\n        /* \"contracts/UlaloDatastore.sol\":5815:5841  uint256[] memory fileSizes */\n      dup1\n        /* \"contracts/UlaloDatastore.sol\":5851:5879  string[] memory fileContents */\n      0x60\n        /* \"contracts/UlaloDatastore.sol\":5889:5910  string[] memory dates */\n      dup1\n        /* \"contracts/UlaloDatastore.sol\":5920:5943  uint256[] memory scores */\n      0x60\n        /* \"contracts/UlaloDatastore.sol\":5960:5974  uint256 length */\n      0x00\n        /* \"contracts/UlaloDatastore.sol\":5977:5986  userFiles */\n      0x01\n        /* \"contracts/UlaloDatastore.sol\":5977:5999  userFiles[userAddress] */\n      0x00\n        /* \"contracts/UlaloDatastore.sol\":5987:5998  userAddress */\n      dup11\n        /* \"contracts/UlaloDatastore.sol\":5977:5999  userFiles[userAddress] */\n      0xffffffffffffffffffffffffffffffffffffffff\n      and\n      0xffffffffffffffffffffffffffffffffffffffff\n      and\n      dup2\n      mstore\n      0x20\n      add\n      swap1\n      dup2\n      mstore\n      0x20\n      add\n      0x00\n      keccak256\n        /* \"contracts/UlaloDatastore.sol\":5977:6006  userFiles[userAddress].length */\n      dup1\n      sload\n      swap1\n      pop\n        /* \"contracts/UlaloDatastore.sol\":5960:6006  uint256 length = userFiles[userAddress].length */\n      swap1\n      pop\n        /* \"contracts/UlaloDatastore.sol\":6037:6043  length */\n      dup1\n        /* \"contracts/UlaloDatastore.sol\":6024:6044  new string[](length) */\n      0xffffffffffffffff\n      dup2\n      gt\n      iszero\n      tag_199\n      jumpi\n      tag_200\n      tag_75\n      jump\t// in\n    tag_200:\n    tag_199:\n      mload(0x40)\n      swap1\n      dup1\n      dup3\n      mstore\n      dup1\n      0x20\n      mul\n      0x20\n      add\n      dup3\n      add\n      0x40\n      mstore\n      dup1\n      iszero\n      tag_201\n      jumpi\n      dup2\n      0x20\n      add\n    tag_202:\n      0x60\n      dup2\n      mstore\n      0x20\n      add\n      swap1\n      0x01\n      swap1\n      sub\n      swap1\n      dup2\n      tag_202\n      jumpi\n      swap1\n      pop\n    tag_201:\n      pop\n        /* \"contracts/UlaloDatastore.sol\":6017:6044  cids = new string[](length) */\n      swap8\n      pop\n        /* \"contracts/UlaloDatastore.sol\":6079:6085  length */\n      dup1\n        /* \"contracts/UlaloDatastore.sol\":6066:6086  new string[](length) */\n      0xffffffffffffffff\n      dup2\n      gt\n      iszero\n      tag_203\n      jumpi\n      tag_204\n      tag_75\n      jump\t// in\n    tag_204:\n    tag_203:\n      mload(0x40)\n      swap1\n      dup1\n      dup3\n      mstore\n      dup1\n      0x20\n      mul\n      0x20\n      add\n      dup3\n      add\n      0x40\n      mstore\n      dup1\n      iszero\n      tag_205\n      jumpi\n      dup2\n      0x20\n      add\n    tag_206:\n      0x60\n      dup2\n      mstore\n      0x20\n      add\n      swap1\n      0x01\n      swap1\n      sub\n      swap1\n      dup2\n      tag_206\n      jumpi\n      swap1\n      pop\n    tag_205:\n      pop\n        /* \"contracts/UlaloDatastore.sol\":6054:6086  fileNames = new string[](length) */\n      swap7\n      pop\n        /* \"contracts/UlaloDatastore.sol\":6121:6127  length */\n      dup1\n        /* \"contracts/UlaloDatastore.sol\":6108:6128  new string[](length) */\n      0xffffffffffffffff\n      dup2\n      gt\n      iszero\n      tag_207\n      jumpi\n      tag_208\n      tag_75\n      jump\t// in\n    tag_208:\n    tag_207:\n      mload(0x40)\n      swap1\n      dup1\n      dup3\n      mstore\n      dup1\n      0x20\n      mul\n      0x20\n      add\n      dup3\n      add\n      0x40\n      mstore\n      dup1\n      iszero\n      tag_209\n      jumpi\n      dup2\n      0x20\n      add\n    tag_210:\n      0x60\n      dup2\n      mstore\n      0x20\n      add\n      swap1\n      0x01\n      swap1\n      sub\n      swap1\n      dup2\n      tag_210\n      jumpi\n      swap1\n      pop\n    tag_209:\n      pop\n        /* \"contracts/UlaloDatastore.sol\":6096:6128  fileTypes = new string[](length) */\n      swap6\n      pop\n        /* \"contracts/UlaloDatastore.sol\":6164:6170  length */\n      dup1\n        /* \"contracts/UlaloDatastore.sol\":6150:6171  new uint256[](length) */\n      0xffffffffffffffff\n      dup2\n      gt\n      iszero\n      tag_211\n      jumpi\n      tag_212\n      tag_75\n      jump\t// in\n    tag_212:\n    tag_211:\n      mload(0x40)\n      swap1\n      dup1\n      dup3\n      mstore\n      dup1\n      0x20\n      mul\n      0x20\n      add\n      dup3\n      add\n      0x40\n      mstore\n      dup1\n      iszero\n      tag_213\n      jumpi\n      dup2\n      0x20\n      add\n      0x20\n      dup3\n      mul\n      dup1\n      calldatasize\n      dup4\n      calldatacopy\n      dup1\n      dup3\n      add\n      swap2\n      pop\n      pop\n      swap1\n      pop\n    tag_213:\n      pop\n        /* \"contracts/UlaloDatastore.sol\":6138:6171  fileSizes = new uint256[](length) */\n      swap5\n      pop\n        /* \"contracts/UlaloDatastore.sol\":6209:6215  length */\n      dup1\n        /* \"contracts/UlaloDatastore.sol\":6196:6216  new string[](length) */\n      0xffffffffffffffff\n      dup2\n      gt\n      iszero\n      tag_214\n      jumpi\n      tag_215\n      tag_75\n      jump\t// in\n    tag_215:\n    tag_214:\n      mload(0x40)\n      swap1\n      dup1\n      dup3\n      mstore\n      dup1\n      0x20\n      mul\n      0x20\n      add\n      dup3\n      add\n      0x40\n      mstore\n      dup1\n      iszero\n      tag_216\n      jumpi\n      dup2\n      0x20\n      add\n    tag_217:\n      0x60\n      dup2\n      mstore\n      0x20\n      add\n      swap1\n      0x01\n      swap1\n      sub\n      swap1\n      dup2\n      tag_217\n      jumpi\n      swap1\n      pop\n    tag_216:\n      pop\n        /* \"contracts/UlaloDatastore.sol\":6181:6216  fileContents = new string[](length) */\n      swap4\n      pop\n        /* \"contracts/UlaloDatastore.sol\":6247:6253  length */\n      dup1\n        /* \"contracts/UlaloDatastore.sol\":6234:6254  new string[](length) */\n      0xffffffffffffffff\n      dup2\n      gt\n      iszero\n      tag_218\n      jumpi\n      tag_219\n      tag_75\n      jump\t// in\n    tag_219:\n    tag_218:\n      mload(0x40)\n      swap1\n      dup1\n      dup3\n      mstore\n      dup1\n      0x20\n      mul\n      0x20\n      add\n      dup3\n      add\n      0x40\n      mstore\n      dup1\n      iszero\n      tag_220\n      jumpi\n      dup2\n      0x20\n      add\n    tag_221:\n      0x60\n      dup2\n      mstore\n      0x20\n      add\n      swap1\n      0x01\n      swap1\n      sub\n      swap1\n      dup2\n      tag_221\n      jumpi\n      swap1\n      pop\n    tag_220:\n      pop\n        /* \"contracts/UlaloDatastore.sol\":6226:6254  dates = new string[](length) */\n      swap3\n      pop\n        /* \"contracts/UlaloDatastore.sol\":6287:6293  length */\n      dup1\n        /* \"contracts/UlaloDatastore.sol\":6273:6294  new uint256[](length) */\n      0xffffffffffffffff\n      dup2\n      gt\n      iszero\n      tag_222\n      jumpi\n      tag_223\n      tag_75\n      jump\t// in\n    tag_223:\n    tag_222:\n      mload(0x40)\n      swap1\n      dup1\n      dup3\n      mstore\n      dup1\n      0x20\n      mul\n      0x20\n      add\n      dup3\n      add\n      0x40\n      mstore\n      dup1\n      iszero\n      tag_224\n      jumpi\n      dup2\n      0x20\n      add\n      0x20\n      dup3\n      mul\n      dup1\n      calldatasize\n      dup4\n      calldatacopy\n      dup1\n      dup3\n      add\n      swap2\n      pop\n      pop\n      swap1\n      pop\n    tag_224:\n      pop\n        /* \"contracts/UlaloDatastore.sol\":6264:6294  scores = new uint256[](length) */\n      swap2\n      pop\n        /* \"contracts/UlaloDatastore.sol\":6310:6319  uint256 i */\n      0x00\n        /* \"contracts/UlaloDatastore.sol\":6305:6695  for (uint256 i = 0; i < length; i++) {... */\n    tag_225:\n        /* \"contracts/UlaloDatastore.sol\":6329:6335  length */\n      dup2\n        /* \"contracts/UlaloDatastore.sol\":6325:6326  i */\n      dup2\n        /* \"contracts/UlaloDatastore.sol\":6325:6335  i < length */\n      lt\n        /* \"contracts/UlaloDatastore.sol\":6305:6695  for (uint256 i = 0; i < length; i++) {... */\n      iszero\n      tag_226\n      jumpi\n        /* \"contracts/UlaloDatastore.sol\":6356:6380  FileDetails storage file */\n      0x00\n        /* \"contracts/UlaloDatastore.sol\":6383:6392  userFiles */\n      0x01\n        /* \"contracts/UlaloDatastore.sol\":6383:6405  userFiles[userAddress] */\n      0x00\n        /* \"contracts/UlaloDatastore.sol\":6393:6404  userAddress */\n      dup13\n        /* \"contracts/UlaloDatastore.sol\":6383:6405  userFiles[userAddress] */\n      0xffffffffffffffffffffffffffffffffffffffff\n      and\n      0xffffffffffffffffffffffffffffffffffffffff\n      and\n      dup2\n      mstore\n      0x20\n      add\n      swap1\n      dup2\n      mstore\n      0x20\n      add\n      0x00\n      keccak256\n        /* \"contracts/UlaloDatastore.sol\":6406:6407  i */\n      dup3\n        /* \"contracts/UlaloDatastore.sol\":6383:6408  userFiles[userAddress][i] */\n      dup2\n      sload\n      dup2\n      lt\n      tag_228\n      jumpi\n      tag_229\n      tag_59\n      jump\t// in\n    tag_229:\n    tag_228:\n      swap1\n      0x00\n      mstore\n      keccak256(0x00, 0x20)\n      swap1\n      0x08\n      mul\n      add\n        /* \"contracts/UlaloDatastore.sol\":6356:6408  FileDetails storage file = userFiles[userAddress][i] */\n      swap1\n      pop\n        /* \"contracts/UlaloDatastore.sol\":6432:6436  file */\n      dup1\n        /* \"contracts/UlaloDatastore.sol\":6432:6440  file.cid */\n      0x00\n      add\n        /* \"contracts/UlaloDatastore.sol\":6422:6440  cids[i] = file.cid */\n      dup1\n      sload\n      tag_231\n      swap1\n      tag_38\n      jump\t// in\n    tag_231:\n      dup1\n      0x1f\n      add\n      0x20\n      dup1\n      swap2\n      div\n      mul\n      0x20\n      add\n      mload(0x40)\n      swap1\n      dup2\n      add\n      0x40\n      mstore\n      dup1\n      swap3\n      swap2\n      swap1\n      dup2\n      dup2\n      mstore\n      0x20\n      add\n      dup3\n      dup1\n      sload\n      tag_232\n      swap1\n      tag_38\n      jump\t// in\n    tag_232:\n      dup1\n      iszero\n      tag_233\n      jumpi\n      dup1\n      0x1f\n      lt\n      tag_234\n      jumpi\n      0x0100\n      dup1\n      dup4\n      sload\n      div\n      mul\n      dup4\n      mstore\n      swap2\n      0x20\n      add\n      swap2\n      jump(tag_233)\n    tag_234:\n      dup3\n      add\n      swap2\n      swap1\n      0x00\n      mstore\n      keccak256(0x00, 0x20)\n      swap1\n    tag_235:\n      dup2\n      sload\n      dup2\n      mstore\n      swap1\n      0x01\n      add\n      swap1\n      0x20\n      add\n      dup1\n      dup4\n      gt\n      tag_235\n      jumpi\n      dup3\n      swap1\n      sub\n      0x1f\n      and\n      dup3\n      add\n      swap2\n    tag_233:\n      pop\n      pop\n      pop\n      pop\n      pop\n        /* \"contracts/UlaloDatastore.sol\":6422:6426  cids */\n      dup11\n        /* \"contracts/UlaloDatastore.sol\":6427:6428  i */\n      dup4\n        /* \"contracts/UlaloDatastore.sol\":6422:6429  cids[i] */\n      dup2\n      mload\n      dup2\n      lt\n      tag_236\n      jumpi\n      tag_237\n      tag_59\n      jump\t// in\n    tag_237:\n    tag_236:\n      0x20\n      mul\n      0x20\n      add\n      add\n        /* \"contracts/UlaloDatastore.sol\":6422:6440  cids[i] = file.cid */\n      dup2\n      swap1\n      mstore\n      pop\n        /* \"contracts/UlaloDatastore.sol\":6469:6473  file */\n      dup1\n        /* \"contracts/UlaloDatastore.sol\":6469:6482  file.fileName */\n      0x01\n      add\n        /* \"contracts/UlaloDatastore.sol\":6454:6482  fileNames[i] = file.fileName */\n      dup1\n      sload\n      tag_238\n      swap1\n      tag_38\n      jump\t// in\n    tag_238:\n      dup1\n      0x1f\n      add\n      0x20\n      dup1\n      swap2\n      div\n      mul\n      0x20\n      add\n      mload(0x40)\n      swap1\n      dup2\n      add\n      0x40\n      mstore\n      dup1\n      swap3\n      swap2\n      swap1\n      dup2\n      dup2\n      mstore\n      0x20\n      add\n      dup3\n      dup1\n      sload\n      tag_239\n      swap1\n      tag_38\n      jump\t// in\n    tag_239:\n      dup1\n      iszero\n      tag_240\n      jumpi\n      dup1\n      0x1f\n      lt\n      tag_241\n      jumpi\n      0x0100\n      dup1\n      dup4\n      sload\n      div\n      mul\n      dup4\n      mstore\n      swap2\n      0x20\n      add\n      swap2\n      jump(tag_240)\n    tag_241:\n      dup3\n      add\n      swap2\n      swap1\n      0x00\n      mstore\n      keccak256(0x00, 0x20)\n      swap1\n    tag_242:\n      dup2\n      sload\n      dup2\n      mstore\n      swap1\n      0x01\n      add\n      swap1\n      0x20\n      add\n      dup1\n      dup4\n      gt\n      tag_242\n      jumpi\n      dup3\n      swap1\n      sub\n      0x1f\n      and\n      dup3\n      add\n      swap2\n    tag_240:\n      pop\n      pop\n      pop\n      pop\n      pop\n        /* \"contracts/UlaloDatastore.sol\":6454:6463  fileNames */\n      dup10\n        /* \"contracts/UlaloDatastore.sol\":6464:6465  i */\n      dup4\n        /* \"contracts/UlaloDatastore.sol\":6454:6466  fileNames[i] */\n      dup2\n      mload\n      dup2\n      lt\n      tag_243\n      jumpi\n      tag_244\n      tag_59\n      jump\t// in\n    tag_244:\n    tag_243:\n      0x20\n      mul\n      0x20\n      add\n      add\n        /* \"contracts/UlaloDatastore.sol\":6454:6482  fileNames[i] = file.fileName */\n      dup2\n      swap1\n      mstore\n      pop\n        /* \"contracts/UlaloDatastore.sol\":6511:6515  file */\n      dup1\n        /* \"contracts/UlaloDatastore.sol\":6511:6524  file.fileType */\n      0x02\n      add\n        /* \"contracts/UlaloDatastore.sol\":6496:6524  fileTypes[i] = file.fileType */\n      dup1\n      sload\n      tag_245\n      swap1\n      tag_38\n      jump\t// in\n    tag_245:\n      dup1\n      0x1f\n      add\n      0x20\n      dup1\n      swap2\n      div\n      mul\n      0x20\n      add\n      mload(0x40)\n      swap1\n      dup2\n      add\n      0x40\n      mstore\n      dup1\n      swap3\n      swap2\n      swap1\n      dup2\n      dup2\n      mstore\n      0x20\n      add\n      dup3\n      dup1\n      sload\n      tag_246\n      swap1\n      tag_38\n      jump\t// in\n    tag_246:\n      dup1\n      iszero\n      tag_247\n      jumpi\n      dup1\n      0x1f\n      lt\n      tag_248\n      jumpi\n      0x0100\n      dup1\n      dup4\n      sload\n      div\n      mul\n      dup4\n      mstore\n      swap2\n      0x20\n      add\n      swap2\n      jump(tag_247)\n    tag_248:\n      dup3\n      add\n      swap2\n      swap1\n      0x00\n      mstore\n      keccak256(0x00, 0x20)\n      swap1\n    tag_249:\n      dup2\n      sload\n      dup2\n      mstore\n      swap1\n      0x01\n      add\n      swap1\n      0x20\n      add\n      dup1\n      dup4\n      gt\n      tag_249\n      jumpi\n      dup3\n      swap1\n      sub\n      0x1f\n      and\n      dup3\n      add\n      swap2\n    tag_247:\n      pop\n      pop\n      pop\n      pop\n      pop\n        /* \"contracts/UlaloDatastore.sol\":6496:6505  fileTypes */\n      dup9\n        /* \"contracts/UlaloDatastore.sol\":6506:6507  i */\n      dup4\n        /* \"contracts/UlaloDatastore.sol\":6496:6508  fileTypes[i] */\n      dup2\n      mload\n      dup2\n      lt\n      tag_250\n      jumpi\n      tag_251\n      tag_59\n      jump\t// in\n    tag_251:\n    tag_250:\n      0x20\n      mul\n      0x20\n      add\n      add\n        /* \"contracts/UlaloDatastore.sol\":6496:6524  fileTypes[i] = file.fileType */\n      dup2\n      swap1\n      mstore\n      pop\n        /* \"contracts/UlaloDatastore.sol\":6553:6557  file */\n      dup1\n        /* \"contracts/UlaloDatastore.sol\":6553:6566  file.fileSize */\n      0x03\n      add\n      sload\n        /* \"contracts/UlaloDatastore.sol\":6538:6547  fileSizes */\n      dup8\n        /* \"contracts/UlaloDatastore.sol\":6548:6549  i */\n      dup4\n        /* \"contracts/UlaloDatastore.sol\":6538:6550  fileSizes[i] */\n      dup2\n      mload\n      dup2\n      lt\n      tag_252\n      jumpi\n      tag_253\n      tag_59\n      jump\t// in\n    tag_253:\n    tag_252:\n      0x20\n      mul\n      0x20\n      add\n      add\n        /* \"contracts/UlaloDatastore.sol\":6538:6566  fileSizes[i] = file.fileSize */\n      dup2\n      dup2\n      mstore\n      pop\n      pop\n        /* \"contracts/UlaloDatastore.sol\":6598:6602  file */\n      dup1\n        /* \"contracts/UlaloDatastore.sol\":6598:6614  file.fileContent */\n      0x04\n      add\n        /* \"contracts/UlaloDatastore.sol\":6580:6614  fileContents[i] = file.fileContent */\n      dup1\n      sload\n      tag_254\n      swap1\n      tag_38\n      jump\t// in\n    tag_254:\n      dup1\n      0x1f\n      add\n      0x20\n      dup1\n      swap2\n      div\n      mul\n      0x20\n      add\n      mload(0x40)\n      swap1\n      dup2\n      add\n      0x40\n      mstore\n      dup1\n      swap3\n      swap2\n      swap1\n      dup2\n      dup2\n      mstore\n      0x20\n      add\n      dup3\n      dup1\n      sload\n      tag_255\n      swap1\n      tag_38\n      jump\t// in\n    tag_255:\n      dup1\n      iszero\n      tag_256\n      jumpi\n      dup1\n      0x1f\n      lt\n      tag_257\n      jumpi\n      0x0100\n      dup1\n      dup4\n      sload\n      div\n      mul\n      dup4\n      mstore\n      swap2\n      0x20\n      add\n      swap2\n      jump(tag_256)\n    tag_257:\n      dup3\n      add\n      swap2\n      swap1\n      0x00\n      mstore\n      keccak256(0x00, 0x20)\n      swap1\n    tag_258:\n      dup2\n      sload\n      dup2\n      mstore\n      swap1\n      0x01\n      add\n      swap1\n      0x20\n      add\n      dup1\n      dup4\n      gt\n      tag_258\n      jumpi\n      dup3\n      swap1\n      sub\n      0x1f\n      and\n      dup3\n      add\n      swap2\n    tag_256:\n      pop\n      pop\n      pop\n      pop\n      pop\n        /* \"contracts/UlaloDatastore.sol\":6580:6592  fileContents */\n      dup7\n        /* \"contracts/UlaloDatastore.sol\":6593:6594  i */\n      dup4\n        /* \"contracts/UlaloDatastore.sol\":6580:6595  fileContents[i] */\n      dup2\n      mload\n      dup2\n      lt\n      tag_259\n      jumpi\n      tag_260\n      tag_59\n      jump\t// in\n    tag_260:\n    tag_259:\n      0x20\n      mul\n      0x20\n      add\n      add\n        /* \"contracts/UlaloDatastore.sol\":6580:6614  fileContents[i] = file.fileContent */\n      dup2\n      swap1\n      mstore\n      pop\n        /* \"contracts/UlaloDatastore.sol\":6639:6643  file */\n      dup1\n        /* \"contracts/UlaloDatastore.sol\":6639:6648  file.date */\n      0x05\n      add\n        /* \"contracts/UlaloDatastore.sol\":6628:6648  dates[i] = file.date */\n      dup1\n      sload\n      tag_261\n      swap1\n      tag_38\n      jump\t// in\n    tag_261:\n      dup1\n      0x1f\n      add\n      0x20\n      dup1\n      swap2\n      div\n      mul\n      0x20\n      add\n      mload(0x40)\n      swap1\n      dup2\n      add\n      0x40\n      mstore\n      dup1\n      swap3\n      swap2\n      swap1\n      dup2\n      dup2\n      mstore\n      0x20\n      add\n      dup3\n      dup1\n      sload\n      tag_262\n      swap1\n      tag_38\n      jump\t// in\n    tag_262:\n      dup1\n      iszero\n      tag_263\n      jumpi\n      dup1\n      0x1f\n      lt\n      tag_264\n      jumpi\n      0x0100\n      dup1\n      dup4\n      sload\n      div\n      mul\n      dup4\n      mstore\n      swap2\n      0x20\n      add\n      swap2\n      jump(tag_263)\n    tag_264:\n      dup3\n      add\n      swap2\n      swap1\n      0x00\n      mstore\n      keccak256(0x00, 0x20)\n      swap1\n    tag_265:\n      dup2\n      sload\n      dup2\n      mstore\n      swap1\n      0x01\n      add\n      swap1\n      0x20\n      add\n      dup1\n      dup4\n      gt\n      tag_265\n      jumpi\n      dup3\n      swap1\n      sub\n      0x1f\n      and\n      dup3\n      add\n      swap2\n    tag_263:\n      pop\n      pop\n      pop\n      pop\n      pop\n        /* \"contracts/UlaloDatastore.sol\":6628:6633  dates */\n      dup6\n        /* \"contracts/UlaloDatastore.sol\":6634:6635  i */\n      dup4\n        /* \"contracts/UlaloDatastore.sol\":6628:6636  dates[i] */\n      dup2\n      mload\n      dup2\n      lt\n      tag_266\n      jumpi\n      tag_267\n      tag_59\n      jump\t// in\n    tag_267:\n    tag_266:\n      0x20\n      mul\n      0x20\n      add\n      add\n        /* \"contracts/UlaloDatastore.sol\":6628:6648  dates[i] = file.date */\n      dup2\n      swap1\n      mstore\n      pop\n        /* \"contracts/UlaloDatastore.sol\":6674:6678  file */\n      dup1\n        /* \"contracts/UlaloDatastore.sol\":6674:6684  file.score */\n      0x06\n      add\n      sload\n        /* \"contracts/UlaloDatastore.sol\":6662:6668  scores */\n      dup5\n        /* \"contracts/UlaloDatastore.sol\":6669:6670  i */\n      dup4\n        /* \"contracts/UlaloDatastore.sol\":6662:6671  scores[i] */\n      dup2\n      mload\n      dup2\n      lt\n      tag_268\n      jumpi\n      tag_269\n      tag_59\n      jump\t// in\n    tag_269:\n    tag_268:\n      0x20\n      mul\n      0x20\n      add\n      add\n        /* \"contracts/UlaloDatastore.sol\":6662:6684  scores[i] = file.score */\n      dup2\n      dup2\n      mstore\n      pop\n      pop\n        /* \"contracts/UlaloDatastore.sol\":6342:6695  {... */\n      pop\n        /* \"contracts/UlaloDatastore.sol\":6337:6340  i++ */\n      dup1\n      dup1\n      0x01\n      add\n      swap2\n      pop\n      pop\n        /* \"contracts/UlaloDatastore.sol\":6305:6695  for (uint256 i = 0; i < length; i++) {... */\n      jump(tag_225)\n    tag_226:\n      pop\n        /* \"contracts/UlaloDatastore.sol\":6705:6780  return (cids, fileNames, fileTypes, fileSizes, fileContents, dates, scores) */\n      pop\n        /* \"contracts/UlaloDatastore.sol\":5637:6787  function getUpdatedFiles(address userAddress) internal view returns (... */\n      swap2\n      swap4\n      swap6\n      swap8\n      swap1\n      swap3\n      swap5\n      swap7\n      pop\n      jump\t// out\n        /* \"#utility.yul\":7:82   */\n    tag_270:\n        /* \"#utility.yul\":40:46   */\n      0x00\n        /* \"#utility.yul\":73:75   */\n      0x40\n        /* \"#utility.yul\":67:76   */\n      mload\n        /* \"#utility.yul\":57:76   */\n      swap1\n      pop\n        /* \"#utility.yul\":7:82   */\n      swap1\n      jump\t// out\n        /* \"#utility.yul\":88:205   */\n    tag_271:\n        /* \"#utility.yul\":197:198   */\n      0x00\n        /* \"#utility.yul\":194:195   */\n      dup1\n        /* \"#utility.yul\":187:199   */\n      revert\n        /* \"#utility.yul\":211:328   */\n    tag_272:\n        /* \"#utility.yul\":320:321   */\n      0x00\n        /* \"#utility.yul\":317:318   */\n      dup1\n        /* \"#utility.yul\":310:322   */\n      revert\n        /* \"#utility.yul\":334:451   */\n    tag_273:\n        /* \"#utility.yul\":443:444   */\n      0x00\n        /* \"#utility.yul\":440:441   */\n      dup1\n        /* \"#utility.yul\":433:445   */\n      revert\n        /* \"#utility.yul\":457:574   */\n    tag_274:\n        /* \"#utility.yul\":566:567   */\n      0x00\n        /* \"#utility.yul\":563:564   */\n      dup1\n        /* \"#utility.yul\":556:568   */\n      revert\n        /* \"#utility.yul\":580:682   */\n    tag_275:\n        /* \"#utility.yul\":621:627   */\n      0x00\n        /* \"#utility.yul\":672:674   */\n      0x1f\n        /* \"#utility.yul\":668:675   */\n      not\n        /* \"#utility.yul\":663:665   */\n      0x1f\n        /* \"#utility.yul\":656:661   */\n      dup4\n        /* \"#utility.yul\":652:666   */\n      add\n        /* \"#utility.yul\":648:676   */\n      and\n        /* \"#utility.yul\":638:676   */\n      swap1\n      pop\n        /* \"#utility.yul\":580:682   */\n      swap2\n      swap1\n      pop\n      jump\t// out\n        /* \"#utility.yul\":688:868   */\n    tag_75:\n        /* \"#utility.yul\":736:813   */\n      0x4e487b7100000000000000000000000000000000000000000000000000000000\n        /* \"#utility.yul\":733:734   */\n      0x00\n        /* \"#utility.yul\":726:814   */\n      mstore\n        /* \"#utility.yul\":833:837   */\n      0x41\n        /* \"#utility.yul\":830:831   */\n      0x04\n        /* \"#utility.yul\":823:838   */\n      mstore\n        /* \"#utility.yul\":857:861   */\n      0x24\n        /* \"#utility.yul\":854:855   */\n      0x00\n        /* \"#utility.yul\":847:862   */\n      revert\n        /* \"#utility.yul\":874:1155   */\n    tag_276:\n        /* \"#utility.yul\":957:984   */\n      tag_354\n        /* \"#utility.yul\":979:983   */\n      dup3\n        /* \"#utility.yul\":957:984   */\n      tag_275\n      jump\t// in\n    tag_354:\n        /* \"#utility.yul\":949:955   */\n      dup2\n        /* \"#utility.yul\":945:985   */\n      add\n        /* \"#utility.yul\":1087:1093   */\n      dup2\n        /* \"#utility.yul\":1075:1085   */\n      dup2\n        /* \"#utility.yul\":1072:1094   */\n      lt\n        /* \"#utility.yul\":1051:1069   */\n      0xffffffffffffffff\n        /* \"#utility.yul\":1039:1049   */\n      dup3\n        /* \"#utility.yul\":1036:1070   */\n      gt\n        /* \"#utility.yul\":1033:1095   */\n      or\n        /* \"#utility.yul\":1030:1118   */\n      iszero\n      tag_355\n      jumpi\n        /* \"#utility.yul\":1098:1116   */\n      tag_356\n      tag_75\n      jump\t// in\n    tag_356:\n        /* \"#utility.yul\":1030:1118   */\n    tag_355:\n        /* \"#utility.yul\":1138:1148   */\n      dup1\n        /* \"#utility.yul\":1134:1136   */\n      0x40\n        /* \"#utility.yul\":1127:1149   */\n      mstore\n        /* \"#utility.yul\":917:1155   */\n      pop\n        /* \"#utility.yul\":874:1155   */\n      pop\n      pop\n      jump\t// out\n        /* \"#utility.yul\":1161:1290   */\n    tag_277:\n        /* \"#utility.yul\":1195:1201   */\n      0x00\n        /* \"#utility.yul\":1222:1242   */\n      tag_358\n      tag_270\n      jump\t// in\n    tag_358:\n        /* \"#utility.yul\":1212:1242   */\n      swap1\n      pop\n        /* \"#utility.yul\":1251:1284   */\n      tag_359\n        /* \"#utility.yul\":1279:1283   */\n      dup3\n        /* \"#utility.yul\":1271:1277   */\n      dup3\n        /* \"#utility.yul\":1251:1284   */\n      tag_276\n      jump\t// in\n    tag_359:\n        /* \"#utility.yul\":1161:1290   */\n      swap2\n      swap1\n      pop\n      jump\t// out\n        /* \"#utility.yul\":1296:1604   */\n    tag_278:\n        /* \"#utility.yul\":1358:1362   */\n      0x00\n        /* \"#utility.yul\":1448:1466   */\n      0xffffffffffffffff\n        /* \"#utility.yul\":1440:1446   */\n      dup3\n        /* \"#utility.yul\":1437:1467   */\n      gt\n        /* \"#utility.yul\":1434:1490   */\n      iszero\n      tag_361\n      jumpi\n        /* \"#utility.yul\":1470:1488   */\n      tag_362\n      tag_75\n      jump\t// in\n    tag_362:\n        /* \"#utility.yul\":1434:1490   */\n    tag_361:\n        /* \"#utility.yul\":1508:1537   */\n      tag_363\n        /* \"#utility.yul\":1530:1536   */\n      dup3\n        /* \"#utility.yul\":1508:1537   */\n      tag_275\n      jump\t// in\n    tag_363:\n        /* \"#utility.yul\":1500:1537   */\n      swap1\n      pop\n        /* \"#utility.yul\":1592:1596   */\n      0x20\n        /* \"#utility.yul\":1586:1590   */\n      dup2\n        /* \"#utility.yul\":1582:1597   */\n      add\n        /* \"#utility.yul\":1574:1597   */\n      swap1\n      pop\n        /* \"#utility.yul\":1296:1604   */\n      swap2\n      swap1\n      pop\n      jump\t// out\n        /* \"#utility.yul\":1610:1758   */\n    tag_279:\n        /* \"#utility.yul\":1708:1714   */\n      dup3\n        /* \"#utility.yul\":1703:1706   */\n      dup2\n        /* \"#utility.yul\":1698:1701   */\n      dup4\n        /* \"#utility.yul\":1685:1715   */\n      calldatacopy\n        /* \"#utility.yul\":1749:1750   */\n      0x00\n        /* \"#utility.yul\":1740:1746   */\n      dup4\n        /* \"#utility.yul\":1735:1738   */\n      dup4\n        /* \"#utility.yul\":1731:1747   */\n      add\n        /* \"#utility.yul\":1724:1751   */\n      mstore\n        /* \"#utility.yul\":1610:1758   */\n      pop\n      pop\n      pop\n      jump\t// out\n        /* \"#utility.yul\":1764:2189   */\n    tag_280:\n        /* \"#utility.yul\":1842:1847   */\n      0x00\n        /* \"#utility.yul\":1867:1933   */\n      tag_366\n        /* \"#utility.yul\":1883:1932   */\n      tag_367\n        /* \"#utility.yul\":1925:1931   */\n      dup5\n        /* \"#utility.yul\":1883:1932   */\n      tag_278\n      jump\t// in\n    tag_367:\n        /* \"#utility.yul\":1867:1933   */\n      tag_277\n      jump\t// in\n    tag_366:\n        /* \"#utility.yul\":1858:1933   */\n      swap1\n      pop\n        /* \"#utility.yul\":1956:1962   */\n      dup3\n        /* \"#utility.yul\":1949:1954   */\n      dup2\n        /* \"#utility.yul\":1942:1963   */\n      mstore\n        /* \"#utility.yul\":1994:1998   */\n      0x20\n        /* \"#utility.yul\":1987:1992   */\n      dup2\n        /* \"#utility.yul\":1983:1999   */\n      add\n        /* \"#utility.yul\":2032:2035   */\n      dup5\n        /* \"#utility.yul\":2023:2029   */\n      dup5\n        /* \"#utility.yul\":2018:2021   */\n      dup5\n        /* \"#utility.yul\":2014:2030   */\n      add\n        /* \"#utility.yul\":2011:2036   */\n      gt\n        /* \"#utility.yul\":2008:2120   */\n      iszero\n      tag_368\n      jumpi\n        /* \"#utility.yul\":2039:2118   */\n      tag_369\n      tag_274\n      jump\t// in\n    tag_369:\n        /* \"#utility.yul\":2008:2120   */\n    tag_368:\n        /* \"#utility.yul\":2129:2183   */\n      tag_370\n        /* \"#utility.yul\":2176:2182   */\n      dup5\n        /* \"#utility.yul\":2171:2174   */\n      dup3\n        /* \"#utility.yul\":2166:2169   */\n      dup6\n        /* \"#utility.yul\":2129:2183   */\n      tag_279\n      jump\t// in\n    tag_370:\n        /* \"#utility.yul\":1848:2189   */\n      pop\n        /* \"#utility.yul\":1764:2189   */\n      swap4\n      swap3\n      pop\n      pop\n      pop\n      jump\t// out\n        /* \"#utility.yul\":2209:2549   */\n    tag_281:\n        /* \"#utility.yul\":2265:2270   */\n      0x00\n        /* \"#utility.yul\":2314:2317   */\n      dup3\n        /* \"#utility.yul\":2307:2311   */\n      0x1f\n        /* \"#utility.yul\":2299:2305   */\n      dup4\n        /* \"#utility.yul\":2295:2312   */\n      add\n        /* \"#utility.yul\":2291:2318   */\n      slt\n        /* \"#utility.yul\":2281:2403   */\n      tag_372\n      jumpi\n        /* \"#utility.yul\":2322:2401   */\n      tag_373\n      tag_273\n      jump\t// in\n    tag_373:\n        /* \"#utility.yul\":2281:2403   */\n    tag_372:\n        /* \"#utility.yul\":2439:2445   */\n      dup2\n        /* \"#utility.yul\":2426:2446   */\n      calldataload\n        /* \"#utility.yul\":2464:2543   */\n      tag_374\n        /* \"#utility.yul\":2539:2542   */\n      dup5\n        /* \"#utility.yul\":2531:2537   */\n      dup3\n        /* \"#utility.yul\":2524:2528   */\n      0x20\n        /* \"#utility.yul\":2516:2522   */\n      dup7\n        /* \"#utility.yul\":2512:2529   */\n      add\n        /* \"#utility.yul\":2464:2543   */\n      tag_280\n      jump\t// in\n    tag_374:\n        /* \"#utility.yul\":2455:2543   */\n      swap2\n      pop\n        /* \"#utility.yul\":2271:2549   */\n      pop\n        /* \"#utility.yul\":2209:2549   */\n      swap3\n      swap2\n      pop\n      pop\n      jump\t// out\n        /* \"#utility.yul\":2555:3064   */\n    tag_11:\n        /* \"#utility.yul\":2624:2630   */\n      0x00\n        /* \"#utility.yul\":2673:2675   */\n      0x20\n        /* \"#utility.yul\":2661:2670   */\n      dup3\n        /* \"#utility.yul\":2652:2659   */\n      dup5\n        /* \"#utility.yul\":2648:2671   */\n      sub\n        /* \"#utility.yul\":2644:2676   */\n      slt\n        /* \"#utility.yul\":2641:2760   */\n      iszero\n      tag_376\n      jumpi\n        /* \"#utility.yul\":2679:2758   */\n      tag_377\n      tag_271\n      jump\t// in\n    tag_377:\n        /* \"#utility.yul\":2641:2760   */\n    tag_376:\n        /* \"#utility.yul\":2827:2828   */\n      0x00\n        /* \"#utility.yul\":2816:2825   */\n      dup3\n        /* \"#utility.yul\":2812:2829   */\n      add\n        /* \"#utility.yul\":2799:2830   */\n      calldataload\n        /* \"#utility.yul\":2857:2875   */\n      0xffffffffffffffff\n        /* \"#utility.yul\":2849:2855   */\n      dup2\n        /* \"#utility.yul\":2846:2876   */\n      gt\n        /* \"#utility.yul\":2843:2960   */\n      iszero\n      tag_378\n      jumpi\n        /* \"#utility.yul\":2879:2958   */\n      tag_379\n      tag_272\n      jump\t// in\n    tag_379:\n        /* \"#utility.yul\":2843:2960   */\n    tag_378:\n        /* \"#utility.yul\":2984:3047   */\n      tag_380\n        /* \"#utility.yul\":3039:3046   */\n      dup5\n        /* \"#utility.yul\":3030:3036   */\n      dup3\n        /* \"#utility.yul\":3019:3028   */\n      dup6\n        /* \"#utility.yul\":3015:3037   */\n      add\n        /* \"#utility.yul\":2984:3047   */\n      tag_281\n      jump\t// in\n    tag_380:\n        /* \"#utility.yul\":2974:3047   */\n      swap2\n      pop\n        /* \"#utility.yul\":2770:3057   */\n      pop\n        /* \"#utility.yul\":2555:3064   */\n      swap3\n      swap2\n      pop\n      pop\n      jump\t// out\n        /* \"#utility.yul\":3070:3196   */\n    tag_282:\n        /* \"#utility.yul\":3107:3114   */\n      0x00\n        /* \"#utility.yul\":3147:3189   */\n      0xffffffffffffffffffffffffffffffffffffffff\n        /* \"#utility.yul\":3140:3145   */\n      dup3\n        /* \"#utility.yul\":3136:3190   */\n      and\n        /* \"#utility.yul\":3125:3190   */\n      swap1\n      pop\n        /* \"#utility.yul\":3070:3196   */\n      swap2\n      swap1\n      pop\n      jump\t// out\n        /* \"#utility.yul\":3202:3298   */\n    tag_283:\n        /* \"#utility.yul\":3239:3246   */\n      0x00\n        /* \"#utility.yul\":3268:3292   */\n      tag_383\n        /* \"#utility.yul\":3286:3291   */\n      dup3\n        /* \"#utility.yul\":3268:3292   */\n      tag_282\n      jump\t// in\n    tag_383:\n        /* \"#utility.yul\":3257:3292   */\n      swap1\n      pop\n        /* \"#utility.yul\":3202:3298   */\n      swap2\n      swap1\n      pop\n      jump\t// out\n        /* \"#utility.yul\":3304:3426   */\n    tag_284:\n        /* \"#utility.yul\":3377:3401   */\n      tag_385\n        /* \"#utility.yul\":3395:3400   */\n      dup2\n        /* \"#utility.yul\":3377:3401   */\n      tag_283\n      jump\t// in\n    tag_385:\n        /* \"#utility.yul\":3370:3375   */\n      dup2\n        /* \"#utility.yul\":3367:3402   */\n      eq\n        /* \"#utility.yul\":3357:3420   */\n      tag_386\n      jumpi\n        /* \"#utility.yul\":3416:3417   */\n      0x00\n        /* \"#utility.yul\":3413:3414   */\n      dup1\n        /* \"#utility.yul\":3406:3418   */\n      revert\n        /* \"#utility.yul\":3357:3420   */\n    tag_386:\n        /* \"#utility.yul\":3304:3426   */\n      pop\n      jump\t// out\n        /* \"#utility.yul\":3432:3571   */\n    tag_285:\n        /* \"#utility.yul\":3478:3483   */\n      0x00\n        /* \"#utility.yul\":3516:3522   */\n      dup2\n        /* \"#utility.yul\":3503:3523   */\n      calldataload\n        /* \"#utility.yul\":3494:3523   */\n      swap1\n      pop\n        /* \"#utility.yul\":3532:3565   */\n      tag_388\n        /* \"#utility.yul\":3559:3564   */\n      dup2\n        /* \"#utility.yul\":3532:3565   */\n      tag_284\n      jump\t// in\n    tag_388:\n        /* \"#utility.yul\":3432:3571   */\n      swap3\n      swap2\n      pop\n      pop\n      jump\t// out\n        /* \"#utility.yul\":3577:3906   */\n    tag_15:\n        /* \"#utility.yul\":3636:3642   */\n      0x00\n        /* \"#utility.yul\":3685:3687   */\n      0x20\n        /* \"#utility.yul\":3673:3682   */\n      dup3\n        /* \"#utility.yul\":3664:3671   */\n      dup5\n        /* \"#utility.yul\":3660:3683   */\n      sub\n        /* \"#utility.yul\":3656:3688   */\n      slt\n        /* \"#utility.yul\":3653:3772   */\n      iszero\n      tag_390\n      jumpi\n        /* \"#utility.yul\":3691:3770   */\n      tag_391\n      tag_271\n      jump\t// in\n    tag_391:\n        /* \"#utility.yul\":3653:3772   */\n    tag_390:\n        /* \"#utility.yul\":3811:3812   */\n      0x00\n        /* \"#utility.yul\":3836:3889   */\n      tag_392\n        /* \"#utility.yul\":3881:3888   */\n      dup5\n        /* \"#utility.yul\":3872:3878   */\n      dup3\n        /* \"#utility.yul\":3861:3870   */\n      dup6\n        /* \"#utility.yul\":3857:3879   */\n      add\n        /* \"#utility.yul\":3836:3889   */\n      tag_285\n      jump\t// in\n    tag_392:\n        /* \"#utility.yul\":3826:3889   */\n      swap2\n      pop\n        /* \"#utility.yul\":3782:3899   */\n      pop\n        /* \"#utility.yul\":3577:3906   */\n      swap3\n      swap2\n      pop\n      pop\n      jump\t// out\n        /* \"#utility.yul\":3912:4036   */\n    tag_286:\n        /* \"#utility.yul\":3989:3995   */\n      0x00\n        /* \"#utility.yul\":4023:4028   */\n      dup2\n        /* \"#utility.yul\":4017:4029   */\n      mload\n        /* \"#utility.yul\":4007:4029   */\n      swap1\n      pop\n        /* \"#utility.yul\":3912:4036   */\n      swap2\n      swap1\n      pop\n      jump\t// out\n        /* \"#utility.yul\":4042:4236   */\n    tag_287:\n        /* \"#utility.yul\":4151:4162   */\n      0x00\n        /* \"#utility.yul\":4185:4191   */\n      dup3\n        /* \"#utility.yul\":4180:4183   */\n      dup3\n        /* \"#utility.yul\":4173:4192   */\n      mstore\n        /* \"#utility.yul\":4225:4229   */\n      0x20\n        /* \"#utility.yul\":4220:4223   */\n      dup3\n        /* \"#utility.yul\":4216:4230   */\n      add\n        /* \"#utility.yul\":4201:4230   */\n      swap1\n      pop\n        /* \"#utility.yul\":4042:4236   */\n      swap3\n      swap2\n      pop\n      pop\n      jump\t// out\n        /* \"#utility.yul\":4242:4384   */\n    tag_288:\n        /* \"#utility.yul\":4319:4323   */\n      0x00\n        /* \"#utility.yul\":4342:4345   */\n      dup2\n        /* \"#utility.yul\":4334:4345   */\n      swap1\n      pop\n        /* \"#utility.yul\":4372:4376   */\n      0x20\n        /* \"#utility.yul\":4367:4370   */\n      dup3\n        /* \"#utility.yul\":4363:4377   */\n      add\n        /* \"#utility.yul\":4355:4377   */\n      swap1\n      pop\n        /* \"#utility.yul\":4242:4384   */\n      swap2\n      swap1\n      pop\n      jump\t// out\n        /* \"#utility.yul\":4390:4489   */\n    tag_289:\n        /* \"#utility.yul\":4442:4448   */\n      0x00\n        /* \"#utility.yul\":4476:4481   */\n      dup2\n        /* \"#utility.yul\":4470:4482   */\n      mload\n        /* \"#utility.yul\":4460:4482   */\n      swap1\n      pop\n        /* \"#utility.yul\":4390:4489   */\n      swap2\n      swap1\n      pop\n      jump\t// out\n        /* \"#utility.yul\":4495:4654   */\n    tag_290:\n        /* \"#utility.yul\":4569:4580   */\n      0x00\n        /* \"#utility.yul\":4603:4609   */\n      dup3\n        /* \"#utility.yul\":4598:4601   */\n      dup3\n        /* \"#utility.yul\":4591:4610   */\n      mstore\n        /* \"#utility.yul\":4643:4647   */\n      0x20\n        /* \"#utility.yul\":4638:4641   */\n      dup3\n        /* \"#utility.yul\":4634:4648   */\n      add\n        /* \"#utility.yul\":4619:4648   */\n      swap1\n      pop\n        /* \"#utility.yul\":4495:4654   */\n      swap3\n      swap2\n      pop\n      pop\n      jump\t// out\n        /* \"#utility.yul\":4660:4799   */\n    tag_291:\n        /* \"#utility.yul\":4749:4755   */\n      dup3\n        /* \"#utility.yul\":4744:4747   */\n      dup2\n        /* \"#utility.yul\":4739:4742   */\n      dup4\n        /* \"#utility.yul\":4733:4756   */\n      mcopy\n        /* \"#utility.yul\":4790:4791   */\n      0x00\n        /* \"#utility.yul\":4781:4787   */\n      dup4\n        /* \"#utility.yul\":4776:4779   */\n      dup4\n        /* \"#utility.yul\":4772:4788   */\n      add\n        /* \"#utility.yul\":4765:4792   */\n      mstore\n        /* \"#utility.yul\":4660:4799   */\n      pop\n      pop\n      pop\n      jump\t// out\n        /* \"#utility.yul\":4805:5162   */\n    tag_292:\n        /* \"#utility.yul\":4883:4886   */\n      0x00\n        /* \"#utility.yul\":4911:4950   */\n      tag_400\n        /* \"#utility.yul\":4944:4949   */\n      dup3\n        /* \"#utility.yul\":4911:4950   */\n      tag_289\n      jump\t// in\n    tag_400:\n        /* \"#utility.yul\":4966:5027   */\n      tag_401\n        /* \"#utility.yul\":5020:5026   */\n      dup2\n        /* \"#utility.yul\":5015:5018   */\n      dup6\n        /* \"#utility.yul\":4966:5027   */\n      tag_290\n      jump\t// in\n    tag_401:\n        /* \"#utility.yul\":4959:5027   */\n      swap4\n      pop\n        /* \"#utility.yul\":5036:5101   */\n      tag_402\n        /* \"#utility.yul\":5094:5100   */\n      dup2\n        /* \"#utility.yul\":5089:5092   */\n      dup6\n        /* \"#utility.yul\":5082:5086   */\n      0x20\n        /* \"#utility.yul\":5075:5080   */\n      dup7\n        /* \"#utility.yul\":5071:5087   */\n      add\n        /* \"#utility.yul\":5036:5101   */\n      tag_291\n      jump\t// in\n    tag_402:\n        /* \"#utility.yul\":5126:5155   */\n      tag_403\n        /* \"#utility.yul\":5148:5154   */\n      dup2\n        /* \"#utility.yul\":5126:5155   */\n      tag_275\n      jump\t// in\n    tag_403:\n        /* \"#utility.yul\":5121:5124   */\n      dup5\n        /* \"#utility.yul\":5117:5156   */\n      add\n        /* \"#utility.yul\":5110:5156   */\n      swap2\n      pop\n        /* \"#utility.yul\":4887:5162   */\n      pop\n        /* \"#utility.yul\":4805:5162   */\n      swap3\n      swap2\n      pop\n      pop\n      jump\t// out\n        /* \"#utility.yul\":5168:5364   */\n    tag_293:\n        /* \"#utility.yul\":5257:5267   */\n      0x00\n        /* \"#utility.yul\":5292:5358   */\n      tag_405\n        /* \"#utility.yul\":5354:5357   */\n      dup4\n        /* \"#utility.yul\":5346:5352   */\n      dup4\n        /* \"#utility.yul\":5292:5358   */\n      tag_292\n      jump\t// in\n    tag_405:\n        /* \"#utility.yul\":5278:5358   */\n      swap1\n      pop\n        /* \"#utility.yul\":5168:5364   */\n      swap3\n      swap2\n      pop\n      pop\n      jump\t// out\n        /* \"#utility.yul\":5370:5493   */\n    tag_294:\n        /* \"#utility.yul\":5450:5454   */\n      0x00\n        /* \"#utility.yul\":5482:5486   */\n      0x20\n        /* \"#utility.yul\":5477:5480   */\n      dup3\n        /* \"#utility.yul\":5473:5487   */\n      add\n        /* \"#utility.yul\":5465:5487   */\n      swap1\n      pop\n        /* \"#utility.yul\":5370:5493   */\n      swap2\n      swap1\n      pop\n      jump\t// out\n        /* \"#utility.yul\":5527:6518   */\n    tag_295:\n        /* \"#utility.yul\":5666:5669   */\n      0x00\n        /* \"#utility.yul\":5695:5759   */\n      tag_408\n        /* \"#utility.yul\":5753:5758   */\n      dup3\n        /* \"#utility.yul\":5695:5759   */\n      tag_286\n      jump\t// in\n    tag_408:\n        /* \"#utility.yul\":5775:5871   */\n      tag_409\n        /* \"#utility.yul\":5864:5870   */\n      dup2\n        /* \"#utility.yul\":5859:5862   */\n      dup6\n        /* \"#utility.yul\":5775:5871   */\n      tag_287\n      jump\t// in\n    tag_409:\n        /* \"#utility.yul\":5768:5871   */\n      swap4\n      pop\n        /* \"#utility.yul\":5897:5900   */\n      dup4\n        /* \"#utility.yul\":5942:5946   */\n      0x20\n        /* \"#utility.yul\":5934:5940   */\n      dup3\n        /* \"#utility.yul\":5930:5947   */\n      mul\n        /* \"#utility.yul\":5925:5928   */\n      dup6\n        /* \"#utility.yul\":5921:5948   */\n      add\n        /* \"#utility.yul\":5972:6038   */\n      tag_410\n        /* \"#utility.yul\":6032:6037   */\n      dup6\n        /* \"#utility.yul\":5972:6038   */\n      tag_288\n      jump\t// in\n    tag_410:\n        /* \"#utility.yul\":6061:6068   */\n      dup1\n        /* \"#utility.yul\":6092:6093   */\n      0x00\n        /* \"#utility.yul\":6077:6473   */\n    tag_411:\n        /* \"#utility.yul\":6102:6108   */\n      dup6\n        /* \"#utility.yul\":6099:6100   */\n      dup2\n        /* \"#utility.yul\":6096:6109   */\n      lt\n        /* \"#utility.yul\":6077:6473   */\n      iszero\n      tag_413\n      jumpi\n        /* \"#utility.yul\":6173:6182   */\n      dup5\n        /* \"#utility.yul\":6167:6171   */\n      dup5\n        /* \"#utility.yul\":6163:6183   */\n      sub\n        /* \"#utility.yul\":6158:6161   */\n      dup10\n        /* \"#utility.yul\":6151:6184   */\n      mstore\n        /* \"#utility.yul\":6224:6230   */\n      dup2\n        /* \"#utility.yul\":6218:6231   */\n      mload\n        /* \"#utility.yul\":6252:6336   */\n      tag_414\n        /* \"#utility.yul\":6331:6335   */\n      dup6\n        /* \"#utility.yul\":6316:6329   */\n      dup3\n        /* \"#utility.yul\":6252:6336   */\n      tag_293\n      jump\t// in\n    tag_414:\n        /* \"#utility.yul\":6244:6336   */\n      swap5\n      pop\n        /* \"#utility.yul\":6359:6429   */\n      tag_415\n        /* \"#utility.yul\":6422:6428   */\n      dup4\n        /* \"#utility.yul\":6359:6429   */\n      tag_294\n      jump\t// in\n    tag_415:\n        /* \"#utility.yul\":6349:6429   */\n      swap3\n      pop\n        /* \"#utility.yul\":6458:6462   */\n      0x20\n        /* \"#utility.yul\":6453:6456   */\n      dup11\n        /* \"#utility.yul\":6449:6463   */\n      add\n        /* \"#utility.yul\":6442:6463   */\n      swap10\n      pop\n        /* \"#utility.yul\":6137:6473   */\n      pop\n        /* \"#utility.yul\":6124:6125   */\n      0x01\n        /* \"#utility.yul\":6121:6122   */\n      dup2\n        /* \"#utility.yul\":6117:6126   */\n      add\n        /* \"#utility.yul\":6112:6126   */\n      swap1\n      pop\n        /* \"#utility.yul\":6077:6473   */\n      jump(tag_411)\n    tag_413:\n        /* \"#utility.yul\":6081:6095   */\n      pop\n        /* \"#utility.yul\":6489:6493   */\n      dup3\n        /* \"#utility.yul\":6482:6493   */\n      swap8\n      pop\n        /* \"#utility.yul\":6509:6512   */\n      dup8\n        /* \"#utility.yul\":6502:6512   */\n      swap6\n      pop\n        /* \"#utility.yul\":5671:6518   */\n      pop\n      pop\n      pop\n      pop\n      pop\n        /* \"#utility.yul\":5527:6518   */\n      swap3\n      swap2\n      pop\n      pop\n      jump\t// out\n        /* \"#utility.yul\":6524:6638   */\n    tag_296:\n        /* \"#utility.yul\":6591:6597   */\n      0x00\n        /* \"#utility.yul\":6625:6630   */\n      dup2\n        /* \"#utility.yul\":6619:6631   */\n      mload\n        /* \"#utility.yul\":6609:6631   */\n      swap1\n      pop\n        /* \"#utility.yul\":6524:6638   */\n      swap2\n      swap1\n      pop\n      jump\t// out\n        /* \"#utility.yul\":6644:6828   */\n    tag_297:\n        /* \"#utility.yul\":6743:6754   */\n      0x00\n        /* \"#utility.yul\":6777:6783   */\n      dup3\n        /* \"#utility.yul\":6772:6775   */\n      dup3\n        /* \"#utility.yul\":6765:6784   */\n      mstore\n        /* \"#utility.yul\":6817:6821   */\n      0x20\n        /* \"#utility.yul\":6812:6815   */\n      dup3\n        /* \"#utility.yul\":6808:6822   */\n      add\n        /* \"#utility.yul\":6793:6822   */\n      swap1\n      pop\n        /* \"#utility.yul\":6644:6828   */\n      swap3\n      swap2\n      pop\n      pop\n      jump\t// out\n        /* \"#utility.yul\":6834:6966   */\n    tag_298:\n        /* \"#utility.yul\":6901:6905   */\n      0x00\n        /* \"#utility.yul\":6924:6927   */\n      dup2\n        /* \"#utility.yul\":6916:6927   */\n      swap1\n      pop\n        /* \"#utility.yul\":6954:6958   */\n      0x20\n        /* \"#utility.yul\":6949:6952   */\n      dup3\n        /* \"#utility.yul\":6945:6959   */\n      add\n        /* \"#utility.yul\":6937:6959   */\n      swap1\n      pop\n        /* \"#utility.yul\":6834:6966   */\n      swap2\n      swap1\n      pop\n      jump\t// out\n        /* \"#utility.yul\":6972:7049   */\n    tag_299:\n        /* \"#utility.yul\":7009:7016   */\n      0x00\n        /* \"#utility.yul\":7038:7043   */\n      dup2\n        /* \"#utility.yul\":7027:7043   */\n      swap1\n      pop\n        /* \"#utility.yul\":6972:7049   */\n      swap2\n      swap1\n      pop\n      jump\t// out\n        /* \"#utility.yul\":7055:7163   */\n    tag_300:\n        /* \"#utility.yul\":7132:7156   */\n      tag_421\n        /* \"#utility.yul\":7150:7155   */\n      dup2\n        /* \"#utility.yul\":7132:7156   */\n      tag_299\n      jump\t// in\n    tag_421:\n        /* \"#utility.yul\":7127:7130   */\n      dup3\n        /* \"#utility.yul\":7120:7157   */\n      mstore\n        /* \"#utility.yul\":7055:7163   */\n      pop\n      pop\n      jump\t// out\n        /* \"#utility.yul\":7169:7348   */\n    tag_301:\n        /* \"#utility.yul\":7238:7248   */\n      0x00\n        /* \"#utility.yul\":7259:7305   */\n      tag_423\n        /* \"#utility.yul\":7301:7304   */\n      dup4\n        /* \"#utility.yul\":7293:7299   */\n      dup4\n        /* \"#utility.yul\":7259:7305   */\n      tag_300\n      jump\t// in\n    tag_423:\n        /* \"#utility.yul\":7337:7341   */\n      0x20\n        /* \"#utility.yul\":7332:7335   */\n      dup4\n        /* \"#utility.yul\":7328:7342   */\n      add\n        /* \"#utility.yul\":7314:7342   */\n      swap1\n      pop\n        /* \"#utility.yul\":7169:7348   */\n      swap3\n      swap2\n      pop\n      pop\n      jump\t// out\n        /* \"#utility.yul\":7354:7467   */\n    tag_302:\n        /* \"#utility.yul\":7424:7428   */\n      0x00\n        /* \"#utility.yul\":7456:7460   */\n      0x20\n        /* \"#utility.yul\":7451:7454   */\n      dup3\n        /* \"#utility.yul\":7447:7461   */\n      add\n        /* \"#utility.yul\":7439:7461   */\n      swap1\n      pop\n        /* \"#utility.yul\":7354:7467   */\n      swap2\n      swap1\n      pop\n      jump\t// out\n        /* \"#utility.yul\":7503:8235   */\n    tag_303:\n        /* \"#utility.yul\":7622:7625   */\n      0x00\n        /* \"#utility.yul\":7651:7705   */\n      tag_426\n        /* \"#utility.yul\":7699:7704   */\n      dup3\n        /* \"#utility.yul\":7651:7705   */\n      tag_296\n      jump\t// in\n    tag_426:\n        /* \"#utility.yul\":7721:7807   */\n      tag_427\n        /* \"#utility.yul\":7800:7806   */\n      dup2\n        /* \"#utility.yul\":7795:7798   */\n      dup6\n        /* \"#utility.yul\":7721:7807   */\n      tag_297\n      jump\t// in\n    tag_427:\n        /* \"#utility.yul\":7714:7807   */\n      swap4\n      pop\n        /* \"#utility.yul\":7831:7887   */\n      tag_428\n        /* \"#utility.yul\":7881:7886   */\n      dup4\n        /* \"#utility.yul\":7831:7887   */\n      tag_298\n      jump\t// in\n    tag_428:\n        /* \"#utility.yul\":7910:7917   */\n      dup1\n        /* \"#utility.yul\":7941:7942   */\n      0x00\n        /* \"#utility.yul\":7926:8210   */\n    tag_429:\n        /* \"#utility.yul\":7951:7957   */\n      dup4\n        /* \"#utility.yul\":7948:7949   */\n      dup2\n        /* \"#utility.yul\":7945:7958   */\n      lt\n        /* \"#utility.yul\":7926:8210   */\n      iszero\n      tag_431\n      jumpi\n        /* \"#utility.yul\":8027:8033   */\n      dup2\n        /* \"#utility.yul\":8021:8034   */\n      mload\n        /* \"#utility.yul\":8054:8117   */\n      tag_432\n        /* \"#utility.yul\":8113:8116   */\n      dup9\n        /* \"#utility.yul\":8098:8111   */\n      dup3\n        /* \"#utility.yul\":8054:8117   */\n      tag_301\n      jump\t// in\n    tag_432:\n        /* \"#utility.yul\":8047:8117   */\n      swap8\n      pop\n        /* \"#utility.yul\":8140:8200   */\n      tag_433\n        /* \"#utility.yul\":8193:8199   */\n      dup4\n        /* \"#utility.yul\":8140:8200   */\n      tag_302\n      jump\t// in\n    tag_433:\n        /* \"#utility.yul\":8130:8200   */\n      swap3\n      pop\n        /* \"#utility.yul\":7986:8210   */\n      pop\n        /* \"#utility.yul\":7973:7974   */\n      0x01\n        /* \"#utility.yul\":7970:7971   */\n      dup2\n        /* \"#utility.yul\":7966:7975   */\n      add\n        /* \"#utility.yul\":7961:7975   */\n      swap1\n      pop\n        /* \"#utility.yul\":7926:8210   */\n      jump(tag_429)\n    tag_431:\n        /* \"#utility.yul\":7930:7944   */\n      pop\n        /* \"#utility.yul\":8226:8229   */\n      dup6\n        /* \"#utility.yul\":8219:8229   */\n      swap4\n      pop\n        /* \"#utility.yul\":7627:8235   */\n      pop\n      pop\n      pop\n        /* \"#utility.yul\":7503:8235   */\n      swap3\n      swap2\n      pop\n      pop\n      jump\t// out\n        /* \"#utility.yul\":8241:10384   */\n    tag_18:\n        /* \"#utility.yul\":8952:8956   */\n      0x00\n        /* \"#utility.yul\":8990:8993   */\n      0xe0\n        /* \"#utility.yul\":8979:8988   */\n      dup3\n        /* \"#utility.yul\":8975:8994   */\n      add\n        /* \"#utility.yul\":8967:8994   */\n      swap1\n      pop\n        /* \"#utility.yul\":9040:9049   */\n      dup2\n        /* \"#utility.yul\":9034:9038   */\n      dup2\n        /* \"#utility.yul\":9030:9050   */\n      sub\n        /* \"#utility.yul\":9026:9027   */\n      0x00\n        /* \"#utility.yul\":9015:9024   */\n      dup4\n        /* \"#utility.yul\":9011:9028   */\n      add\n        /* \"#utility.yul\":9004:9051   */\n      mstore\n        /* \"#utility.yul\":9068:9196   */\n      tag_435\n        /* \"#utility.yul\":9191:9195   */\n      dup2\n        /* \"#utility.yul\":9182:9188   */\n      dup11\n        /* \"#utility.yul\":9068:9196   */\n      tag_295\n      jump\t// in\n    tag_435:\n        /* \"#utility.yul\":9060:9196   */\n      swap1\n      pop\n        /* \"#utility.yul\":9243:9252   */\n      dup2\n        /* \"#utility.yul\":9237:9241   */\n      dup2\n        /* \"#utility.yul\":9233:9253   */\n      sub\n        /* \"#utility.yul\":9228:9230   */\n      0x20\n        /* \"#utility.yul\":9217:9226   */\n      dup4\n        /* \"#utility.yul\":9213:9231   */\n      add\n        /* \"#utility.yul\":9206:9254   */\n      mstore\n        /* \"#utility.yul\":9271:9399   */\n      tag_436\n        /* \"#utility.yul\":9394:9398   */\n      dup2\n        /* \"#utility.yul\":9385:9391   */\n      dup10\n        /* \"#utility.yul\":9271:9399   */\n      tag_295\n      jump\t// in\n    tag_436:\n        /* \"#utility.yul\":9263:9399   */\n      swap1\n      pop\n        /* \"#utility.yul\":9446:9455   */\n      dup2\n        /* \"#utility.yul\":9440:9444   */\n      dup2\n        /* \"#utility.yul\":9436:9456   */\n      sub\n        /* \"#utility.yul\":9431:9433   */\n      0x40\n        /* \"#utility.yul\":9420:9429   */\n      dup4\n        /* \"#utility.yul\":9416:9434   */\n      add\n        /* \"#utility.yul\":9409:9457   */\n      mstore\n        /* \"#utility.yul\":9474:9602   */\n      tag_437\n        /* \"#utility.yul\":9597:9601   */\n      dup2\n        /* \"#utility.yul\":9588:9594   */\n      dup9\n        /* \"#utility.yul\":9474:9602   */\n      tag_295\n      jump\t// in\n    tag_437:\n        /* \"#utility.yul\":9466:9602   */\n      swap1\n      pop\n        /* \"#utility.yul\":9649:9658   */\n      dup2\n        /* \"#utility.yul\":9643:9647   */\n      dup2\n        /* \"#utility.yul\":9639:9659   */\n      sub\n        /* \"#utility.yul\":9634:9636   */\n      0x60\n        /* \"#utility.yul\":9623:9632   */\n      dup4\n        /* \"#utility.yul\":9619:9637   */\n      add\n        /* \"#utility.yul\":9612:9660   */\n      mstore\n        /* \"#utility.yul\":9677:9785   */\n      tag_438\n        /* \"#utility.yul\":9780:9784   */\n      dup2\n        /* \"#utility.yul\":9771:9777   */\n      dup8\n        /* \"#utility.yul\":9677:9785   */\n      tag_303\n      jump\t// in\n    tag_438:\n        /* \"#utility.yul\":9669:9785   */\n      swap1\n      pop\n        /* \"#utility.yul\":9833:9842   */\n      dup2\n        /* \"#utility.yul\":9827:9831   */\n      dup2\n        /* \"#utility.yul\":9823:9843   */\n      sub\n        /* \"#utility.yul\":9817:9820   */\n      0x80\n        /* \"#utility.yul\":9806:9815   */\n      dup4\n        /* \"#utility.yul\":9802:9821   */\n      add\n        /* \"#utility.yul\":9795:9844   */\n      mstore\n        /* \"#utility.yul\":9861:9989   */\n      tag_439\n        /* \"#utility.yul\":9984:9988   */\n      dup2\n        /* \"#utility.yul\":9975:9981   */\n      dup7\n        /* \"#utility.yul\":9861:9989   */\n      tag_295\n      jump\t// in\n    tag_439:\n        /* \"#utility.yul\":9853:9989   */\n      swap1\n      pop\n        /* \"#utility.yul\":10037:10046   */\n      dup2\n        /* \"#utility.yul\":10031:10035   */\n      dup2\n        /* \"#utility.yul\":10027:10047   */\n      sub\n        /* \"#utility.yul\":10021:10024   */\n      0xa0\n        /* \"#utility.yul\":10010:10019   */\n      dup4\n        /* \"#utility.yul\":10006:10025   */\n      add\n        /* \"#utility.yul\":9999:10048   */\n      mstore\n        /* \"#utility.yul\":10065:10193   */\n      tag_440\n        /* \"#utility.yul\":10188:10192   */\n      dup2\n        /* \"#utility.yul\":10179:10185   */\n      dup6\n        /* \"#utility.yul\":10065:10193   */\n      tag_295\n      jump\t// in\n    tag_440:\n        /* \"#utility.yul\":10057:10193   */\n      swap1\n      pop\n        /* \"#utility.yul\":10241:10250   */\n      dup2\n        /* \"#utility.yul\":10235:10239   */\n      dup2\n        /* \"#utility.yul\":10231:10251   */\n      sub\n        /* \"#utility.yul\":10225:10228   */\n      0xc0\n        /* \"#utility.yul\":10214:10223   */\n      dup4\n        /* \"#utility.yul\":10210:10229   */\n      add\n        /* \"#utility.yul\":10203:10252   */\n      mstore\n        /* \"#utility.yul\":10269:10377   */\n      tag_441\n        /* \"#utility.yul\":10372:10376   */\n      dup2\n        /* \"#utility.yul\":10363:10369   */\n      dup5\n        /* \"#utility.yul\":10269:10377   */\n      tag_303\n      jump\t// in\n    tag_441:\n        /* \"#utility.yul\":10261:10377   */\n      swap1\n      pop\n        /* \"#utility.yul\":8241:10384   */\n      swap9\n      swap8\n      pop\n      pop\n      pop\n      pop\n      pop\n      pop\n      pop\n      pop\n      jump\t// out\n        /* \"#utility.yul\":10390:10512   */\n    tag_304:\n        /* \"#utility.yul\":10463:10487   */\n      tag_443\n        /* \"#utility.yul\":10481:10486   */\n      dup2\n        /* \"#utility.yul\":10463:10487   */\n      tag_299\n      jump\t// in\n    tag_443:\n        /* \"#utility.yul\":10456:10461   */\n      dup2\n        /* \"#utility.yul\":10453:10488   */\n      eq\n        /* \"#utility.yul\":10443:10506   */\n      tag_444\n      jumpi\n        /* \"#utility.yul\":10502:10503   */\n      0x00\n        /* \"#utility.yul\":10499:10500   */\n      dup1\n        /* \"#utility.yul\":10492:10504   */\n      revert\n        /* \"#utility.yul\":10443:10506   */\n    tag_444:\n        /* \"#utility.yul\":10390:10512   */\n      pop\n      jump\t// out\n        /* \"#utility.yul\":10518:10657   */\n    tag_305:\n        /* \"#utility.yul\":10564:10569   */\n      0x00\n        /* \"#utility.yul\":10602:10608   */\n      dup2\n        /* \"#utility.yul\":10589:10609   */\n      calldataload\n        /* \"#utility.yul\":10580:10609   */\n      swap1\n      pop\n        /* \"#utility.yul\":10618:10651   */\n      tag_446\n        /* \"#utility.yul\":10645:10650   */\n      dup2\n        /* \"#utility.yul\":10618:10651   */\n      tag_304\n      jump\t// in\n    tag_446:\n        /* \"#utility.yul\":10518:10657   */\n      swap3\n      swap2\n      pop\n      pop\n      jump\t// out\n        /* \"#utility.yul\":10663:11462   */\n    tag_25:\n        /* \"#utility.yul\":10750:10756   */\n      0x00\n        /* \"#utility.yul\":10758:10764   */\n      dup1\n        /* \"#utility.yul\":10766:10772   */\n      0x00\n        /* \"#utility.yul\":10815:10817   */\n      0x60\n        /* \"#utility.yul\":10803:10812   */\n      dup5\n        /* \"#utility.yul\":10794:10801   */\n      dup7\n        /* \"#utility.yul\":10790:10813   */\n      sub\n        /* \"#utility.yul\":10786:10818   */\n      slt\n        /* \"#utility.yul\":10783:10902   */\n      iszero\n      tag_448\n      jumpi\n        /* \"#utility.yul\":10821:10900   */\n      tag_449\n      tag_271\n      jump\t// in\n    tag_449:\n        /* \"#utility.yul\":10783:10902   */\n    tag_448:\n        /* \"#utility.yul\":10941:10942   */\n      0x00\n        /* \"#utility.yul\":10966:11019   */\n      tag_450\n        /* \"#utility.yul\":11011:11018   */\n      dup7\n        /* \"#utility.yul\":11002:11008   */\n      dup3\n        /* \"#utility.yul\":10991:11000   */\n      dup8\n        /* \"#utility.yul\":10987:11009   */\n      add\n        /* \"#utility.yul\":10966:11019   */\n      tag_285\n      jump\t// in\n    tag_450:\n        /* \"#utility.yul\":10956:11019   */\n      swap4\n      pop\n        /* \"#utility.yul\":10912:11029   */\n      pop\n        /* \"#utility.yul\":11068:11070   */\n      0x20\n        /* \"#utility.yul\":11094:11147   */\n      tag_451\n        /* \"#utility.yul\":11139:11146   */\n      dup7\n        /* \"#utility.yul\":11130:11136   */\n      dup3\n        /* \"#utility.yul\":11119:11128   */\n      dup8\n        /* \"#utility.yul\":11115:11137   */\n      add\n        /* \"#utility.yul\":11094:11147   */\n      tag_305\n      jump\t// in\n    tag_451:\n        /* \"#utility.yul\":11084:11147   */\n      swap3\n      pop\n        /* \"#utility.yul\":11039:11157   */\n      pop\n        /* \"#utility.yul\":11224:11226   */\n      0x40\n        /* \"#utility.yul\":11213:11222   */\n      dup5\n        /* \"#utility.yul\":11209:11227   */\n      add\n        /* \"#utility.yul\":11196:11228   */\n      calldataload\n        /* \"#utility.yul\":11255:11273   */\n      0xffffffffffffffff\n        /* \"#utility.yul\":11247:11253   */\n      dup2\n        /* \"#utility.yul\":11244:11274   */\n      gt\n        /* \"#utility.yul\":11241:11358   */\n      iszero\n      tag_452\n      jumpi\n        /* \"#utility.yul\":11277:11356   */\n      tag_453\n      tag_272\n      jump\t// in\n    tag_453:\n        /* \"#utility.yul\":11241:11358   */\n    tag_452:\n        /* \"#utility.yul\":11382:11445   */\n      tag_454\n        /* \"#utility.yul\":11437:11444   */\n      dup7\n        /* \"#utility.yul\":11428:11434   */\n      dup3\n        /* \"#utility.yul\":11417:11426   */\n      dup8\n        /* \"#utility.yul\":11413:11435   */\n      add\n        /* \"#utility.yul\":11382:11445   */\n      tag_281\n      jump\t// in\n    tag_454:\n        /* \"#utility.yul\":11372:11445   */\n      swap2\n      pop\n        /* \"#utility.yul\":11167:11455   */\n      pop\n        /* \"#utility.yul\":10663:11462   */\n      swap3\n      pop\n      swap3\n      pop\n      swap3\n      jump\t// out\n        /* \"#utility.yul\":11468:13717   */\n    tag_30:\n        /* \"#utility.yul\":11640:11646   */\n      0x00\n        /* \"#utility.yul\":11648:11654   */\n      dup1\n        /* \"#utility.yul\":11656:11662   */\n      0x00\n        /* \"#utility.yul\":11664:11670   */\n      dup1\n        /* \"#utility.yul\":11672:11678   */\n      0x00\n        /* \"#utility.yul\":11680:11686   */\n      dup1\n        /* \"#utility.yul\":11688:11694   */\n      0x00\n        /* \"#utility.yul\":11696:11702   */\n      dup1\n        /* \"#utility.yul\":11745:11748   */\n      0x0100\n        /* \"#utility.yul\":11733:11742   */\n      dup10\n        /* \"#utility.yul\":11724:11731   */\n      dup12\n        /* \"#utility.yul\":11720:11743   */\n      sub\n        /* \"#utility.yul\":11716:11749   */\n      slt\n        /* \"#utility.yul\":11713:11833   */\n      iszero\n      tag_456\n      jumpi\n        /* \"#utility.yul\":11752:11831   */\n      tag_457\n      tag_271\n      jump\t// in\n    tag_457:\n        /* \"#utility.yul\":11713:11833   */\n    tag_456:\n        /* \"#utility.yul\":11872:11873   */\n      0x00\n        /* \"#utility.yul\":11897:11950   */\n      tag_458\n        /* \"#utility.yul\":11942:11949   */\n      dup12\n        /* \"#utility.yul\":11933:11939   */\n      dup3\n        /* \"#utility.yul\":11922:11931   */\n      dup13\n        /* \"#utility.yul\":11918:11940   */\n      add\n        /* \"#utility.yul\":11897:11950   */\n      tag_285\n      jump\t// in\n    tag_458:\n        /* \"#utility.yul\":11887:11950   */\n      swap9\n      pop\n        /* \"#utility.yul\":11843:11960   */\n      pop\n        /* \"#utility.yul\":12027:12029   */\n      0x20\n        /* \"#utility.yul\":12016:12025   */\n      dup10\n        /* \"#utility.yul\":12012:12030   */\n      add\n        /* \"#utility.yul\":11999:12031   */\n      calldataload\n        /* \"#utility.yul\":12058:12076   */\n      0xffffffffffffffff\n        /* \"#utility.yul\":12050:12056   */\n      dup2\n        /* \"#utility.yul\":12047:12077   */\n      gt\n        /* \"#utility.yul\":12044:12161   */\n      iszero\n      tag_459\n      jumpi\n        /* \"#utility.yul\":12080:12159   */\n      tag_460\n      tag_272\n      jump\t// in\n    tag_460:\n        /* \"#utility.yul\":12044:12161   */\n    tag_459:\n        /* \"#utility.yul\":12185:12248   */\n      tag_461\n        /* \"#utility.yul\":12240:12247   */\n      dup12\n        /* \"#utility.yul\":12231:12237   */\n      dup3\n        /* \"#utility.yul\":12220:12229   */\n      dup13\n        /* \"#utility.yul\":12216:12238   */\n      add\n        /* \"#utility.yul\":12185:12248   */\n      tag_281\n      jump\t// in\n    tag_461:\n        /* \"#utility.yul\":12175:12248   */\n      swap8\n      pop\n        /* \"#utility.yul\":11970:12258   */\n      pop\n        /* \"#utility.yul\":12325:12327   */\n      0x40\n        /* \"#utility.yul\":12314:12323   */\n      dup10\n        /* \"#utility.yul\":12310:12328   */\n      add\n        /* \"#utility.yul\":12297:12329   */\n      calldataload\n        /* \"#utility.yul\":12356:12374   */\n      0xffffffffffffffff\n        /* \"#utility.yul\":12348:12354   */\n      dup2\n        /* \"#utility.yul\":12345:12375   */\n      gt\n        /* \"#utility.yul\":12342:12459   */\n      iszero\n      tag_462\n      jumpi\n        /* \"#utility.yul\":12378:12457   */\n      tag_463\n      tag_272\n      jump\t// in\n    tag_463:\n        /* \"#utility.yul\":12342:12459   */\n    tag_462:\n        /* \"#utility.yul\":12483:12546   */\n      tag_464\n        /* \"#utility.yul\":12538:12545   */\n      dup12\n        /* \"#utility.yul\":12529:12535   */\n      dup3\n        /* \"#utility.yul\":12518:12527   */\n      dup13\n        /* \"#utility.yul\":12514:12536   */\n      add\n        /* \"#utility.yul\":12483:12546   */\n      tag_281\n      jump\t// in\n    tag_464:\n        /* \"#utility.yul\":12473:12546   */\n      swap7\n      pop\n        /* \"#utility.yul\":12268:12556   */\n      pop\n        /* \"#utility.yul\":12623:12625   */\n      0x60\n        /* \"#utility.yul\":12612:12621   */\n      dup10\n        /* \"#utility.yul\":12608:12626   */\n      add\n        /* \"#utility.yul\":12595:12627   */\n      calldataload\n        /* \"#utility.yul\":12654:12672   */\n      0xffffffffffffffff\n        /* \"#utility.yul\":12646:12652   */\n      dup2\n        /* \"#utility.yul\":12643:12673   */\n      gt\n        /* \"#utility.yul\":12640:12757   */\n      iszero\n      tag_465\n      jumpi\n        /* \"#utility.yul\":12676:12755   */\n      tag_466\n      tag_272\n      jump\t// in\n    tag_466:\n        /* \"#utility.yul\":12640:12757   */\n    tag_465:\n        /* \"#utility.yul\":12781:12844   */\n      tag_467\n        /* \"#utility.yul\":12836:12843   */\n      dup12\n        /* \"#utility.yul\":12827:12833   */\n      dup3\n        /* \"#utility.yul\":12816:12825   */\n      dup13\n        /* \"#utility.yul\":12812:12834   */\n      add\n        /* \"#utility.yul\":12781:12844   */\n      tag_281\n      jump\t// in\n    tag_467:\n        /* \"#utility.yul\":12771:12844   */\n      swap6\n      pop\n        /* \"#utility.yul\":12566:12854   */\n      pop\n        /* \"#utility.yul\":12893:12896   */\n      0x80\n        /* \"#utility.yul\":12920:12973   */\n      tag_468\n        /* \"#utility.yul\":12965:12972   */\n      dup12\n        /* \"#utility.yul\":12956:12962   */\n      dup3\n        /* \"#utility.yul\":12945:12954   */\n      dup13\n        /* \"#utility.yul\":12941:12963   */\n      add\n        /* \"#utility.yul\":12920:12973   */\n      tag_305\n      jump\t// in\n    tag_468:\n        /* \"#utility.yul\":12910:12973   */\n      swap5\n      pop\n        /* \"#utility.yul\":12864:12983   */\n      pop\n        /* \"#utility.yul\":13050:13053   */\n      0xa0\n        /* \"#utility.yul\":13039:13048   */\n      dup10\n        /* \"#utility.yul\":13035:13054   */\n      add\n        /* \"#utility.yul\":13022:13055   */\n      calldataload\n        /* \"#utility.yul\":13082:13100   */\n      0xffffffffffffffff\n        /* \"#utility.yul\":13074:13080   */\n      dup2\n        /* \"#utility.yul\":13071:13101   */\n      gt\n        /* \"#utility.yul\":13068:13185   */\n      iszero\n      tag_469\n      jumpi\n        /* \"#utility.yul\":13104:13183   */\n      tag_470\n      tag_272\n      jump\t// in\n    tag_470:\n        /* \"#utility.yul\":13068:13185   */\n    tag_469:\n        /* \"#utility.yul\":13209:13272   */\n      tag_471\n        /* \"#utility.yul\":13264:13271   */\n      dup12\n        /* \"#utility.yul\":13255:13261   */\n      dup3\n        /* \"#utility.yul\":13244:13253   */\n      dup13\n        /* \"#utility.yul\":13240:13262   */\n      add\n        /* \"#utility.yul\":13209:13272   */\n      tag_281\n      jump\t// in\n    tag_471:\n        /* \"#utility.yul\":13199:13272   */\n      swap4\n      pop\n        /* \"#utility.yul\":12993:13282   */\n      pop\n        /* \"#utility.yul\":13349:13352   */\n      0xc0\n        /* \"#utility.yul\":13338:13347   */\n      dup10\n        /* \"#utility.yul\":13334:13353   */\n      add\n        /* \"#utility.yul\":13321:13354   */\n      calldataload\n        /* \"#utility.yul\":13381:13399   */\n      0xffffffffffffffff\n        /* \"#utility.yul\":13373:13379   */\n      dup2\n        /* \"#utility.yul\":13370:13400   */\n      gt\n        /* \"#utility.yul\":13367:13484   */\n      iszero\n      tag_472\n      jumpi\n        /* \"#utility.yul\":13403:13482   */\n      tag_473\n      tag_272\n      jump\t// in\n    tag_473:\n        /* \"#utility.yul\":13367:13484   */\n    tag_472:\n        /* \"#utility.yul\":13508:13571   */\n      tag_474\n        /* \"#utility.yul\":13563:13570   */\n      dup12\n        /* \"#utility.yul\":13554:13560   */\n      dup3\n        /* \"#utility.yul\":13543:13552   */\n      dup13\n        /* \"#utility.yul\":13539:13561   */\n      add\n        /* \"#utility.yul\":13508:13571   */\n      tag_281\n      jump\t// in\n    tag_474:\n        /* \"#utility.yul\":13498:13571   */\n      swap3\n      pop\n        /* \"#utility.yul\":13292:13581   */\n      pop\n        /* \"#utility.yul\":13620:13623   */\n      0xe0\n        /* \"#utility.yul\":13647:13700   */\n      tag_475\n        /* \"#utility.yul\":13692:13699   */\n      dup12\n        /* \"#utility.yul\":13683:13689   */\n      dup3\n        /* \"#utility.yul\":13672:13681   */\n      dup13\n        /* \"#utility.yul\":13668:13690   */\n      add\n        /* \"#utility.yul\":13647:13700   */\n      tag_305\n      jump\t// in\n    tag_475:\n        /* \"#utility.yul\":13637:13700   */\n      swap2\n      pop\n        /* \"#utility.yul\":13591:13710   */\n      pop\n        /* \"#utility.yul\":11468:13717   */\n      swap3\n      swap6\n      swap9\n      pop\n      swap3\n      swap6\n      swap9\n      swap1\n      swap4\n      swap7\n      pop\n      jump\t// out\n        /* \"#utility.yul\":13723:13892   */\n    tag_306:\n        /* \"#utility.yul\":13807:13818   */\n      0x00\n        /* \"#utility.yul\":13841:13847   */\n      dup3\n        /* \"#utility.yul\":13836:13839   */\n      dup3\n        /* \"#utility.yul\":13829:13848   */\n      mstore\n        /* \"#utility.yul\":13881:13885   */\n      0x20\n        /* \"#utility.yul\":13876:13879   */\n      dup3\n        /* \"#utility.yul\":13872:13886   */\n      add\n        /* \"#utility.yul\":13857:13886   */\n      swap1\n      pop\n        /* \"#utility.yul\":13723:13892   */\n      swap3\n      swap2\n      pop\n      pop\n      jump\t// out\n        /* \"#utility.yul\":13898:14275   */\n    tag_307:\n        /* \"#utility.yul\":13986:13989   */\n      0x00\n        /* \"#utility.yul\":14014:14053   */\n      tag_478\n        /* \"#utility.yul\":14047:14052   */\n      dup3\n        /* \"#utility.yul\":14014:14053   */\n      tag_289\n      jump\t// in\n    tag_478:\n        /* \"#utility.yul\":14069:14140   */\n      tag_479\n        /* \"#utility.yul\":14133:14139   */\n      dup2\n        /* \"#utility.yul\":14128:14131   */\n      dup6\n        /* \"#utility.yul\":14069:14140   */\n      tag_306\n      jump\t// in\n    tag_479:\n        /* \"#utility.yul\":14062:14140   */\n      swap4\n      pop\n        /* \"#utility.yul\":14149:14214   */\n      tag_480\n        /* \"#utility.yul\":14207:14213   */\n      dup2\n        /* \"#utility.yul\":14202:14205   */\n      dup6\n        /* \"#utility.yul\":14195:14199   */\n      0x20\n        /* \"#utility.yul\":14188:14193   */\n      dup7\n        /* \"#utility.yul\":14184:14200   */\n      add\n        /* \"#utility.yul\":14149:14214   */\n      tag_291\n      jump\t// in\n    tag_480:\n        /* \"#utility.yul\":14239:14268   */\n      tag_481\n        /* \"#utility.yul\":14261:14267   */\n      dup2\n        /* \"#utility.yul\":14239:14268   */\n      tag_275\n      jump\t// in\n    tag_481:\n        /* \"#utility.yul\":14234:14237   */\n      dup5\n        /* \"#utility.yul\":14230:14269   */\n      add\n        /* \"#utility.yul\":14223:14269   */\n      swap2\n      pop\n        /* \"#utility.yul\":13990:14275   */\n      pop\n        /* \"#utility.yul\":13898:14275   */\n      swap3\n      swap2\n      pop\n      pop\n      jump\t// out\n        /* \"#utility.yul\":14281:14594   */\n    tag_35:\n        /* \"#utility.yul\":14394:14398   */\n      0x00\n        /* \"#utility.yul\":14432:14434   */\n      0x20\n        /* \"#utility.yul\":14421:14430   */\n      dup3\n        /* \"#utility.yul\":14417:14435   */\n      add\n        /* \"#utility.yul\":14409:14435   */\n      swap1\n      pop\n        /* \"#utility.yul\":14481:14490   */\n      dup2\n        /* \"#utility.yul\":14475:14479   */\n      dup2\n        /* \"#utility.yul\":14471:14491   */\n      sub\n        /* \"#utility.yul\":14467:14468   */\n      0x00\n        /* \"#utility.yul\":14456:14465   */\n      dup4\n        /* \"#utility.yul\":14452:14469   */\n      add\n        /* \"#utility.yul\":14445:14492   */\n      mstore\n        /* \"#utility.yul\":14509:14587   */\n      tag_483\n        /* \"#utility.yul\":14582:14586   */\n      dup2\n        /* \"#utility.yul\":14573:14579   */\n      dup5\n        /* \"#utility.yul\":14509:14587   */\n      tag_307\n      jump\t// in\n    tag_483:\n        /* \"#utility.yul\":14501:14587   */\n      swap1\n      pop\n        /* \"#utility.yul\":14281:14594   */\n      swap3\n      swap2\n      pop\n      pop\n      jump\t// out\n        /* \"#utility.yul\":14600:14780   */\n    tag_308:\n        /* \"#utility.yul\":14648:14725   */\n      0x4e487b7100000000000000000000000000000000000000000000000000000000\n        /* \"#utility.yul\":14645:14646   */\n      0x00\n        /* \"#utility.yul\":14638:14726   */\n      mstore\n        /* \"#utility.yul\":14745:14749   */\n      0x22\n        /* \"#utility.yul\":14742:14743   */\n      0x04\n        /* \"#utility.yul\":14735:14750   */\n      mstore\n        /* \"#utility.yul\":14769:14773   */\n      0x24\n        /* \"#utility.yul\":14766:14767   */\n      0x00\n        /* \"#utility.yul\":14759:14774   */\n      revert\n        /* \"#utility.yul\":14786:15106   */\n    tag_38:\n        /* \"#utility.yul\":14830:14836   */\n      0x00\n        /* \"#utility.yul\":14867:14868   */\n      0x02\n        /* \"#utility.yul\":14861:14865   */\n      dup3\n        /* \"#utility.yul\":14857:14869   */\n      div\n        /* \"#utility.yul\":14847:14869   */\n      swap1\n      pop\n        /* \"#utility.yul\":14914:14915   */\n      0x01\n        /* \"#utility.yul\":14908:14912   */\n      dup3\n        /* \"#utility.yul\":14904:14916   */\n      and\n        /* \"#utility.yul\":14935:14953   */\n      dup1\n        /* \"#utility.yul\":14925:15006   */\n      tag_486\n      jumpi\n        /* \"#utility.yul\":14991:14995   */\n      0x7f\n        /* \"#utility.yul\":14983:14989   */\n      dup3\n        /* \"#utility.yul\":14979:14996   */\n      and\n        /* \"#utility.yul\":14969:14996   */\n      swap2\n      pop\n        /* \"#utility.yul\":14925:15006   */\n    tag_486:\n        /* \"#utility.yul\":15053:15055   */\n      0x20\n        /* \"#utility.yul\":15045:15051   */\n      dup3\n        /* \"#utility.yul\":15042:15056   */\n      lt\n        /* \"#utility.yul\":15022:15040   */\n      dup2\n        /* \"#utility.yul\":15019:15057   */\n      sub\n        /* \"#utility.yul\":15016:15100   */\n      tag_487\n      jumpi\n        /* \"#utility.yul\":15072:15090   */\n      tag_488\n      tag_308\n      jump\t// in\n    tag_488:\n        /* \"#utility.yul\":15016:15100   */\n    tag_487:\n        /* \"#utility.yul\":14837:15106   */\n      pop\n        /* \"#utility.yul\":14786:15106   */\n      swap2\n      swap1\n      pop\n      jump\t// out\n        /* \"#utility.yul\":15112:15253   */\n    tag_309:\n        /* \"#utility.yul\":15161:15165   */\n      0x00\n        /* \"#utility.yul\":15184:15187   */\n      dup2\n        /* \"#utility.yul\":15176:15187   */\n      swap1\n      pop\n        /* \"#utility.yul\":15207:15210   */\n      dup2\n        /* \"#utility.yul\":15204:15205   */\n      0x00\n        /* \"#utility.yul\":15197:15211   */\n      mstore\n        /* \"#utility.yul\":15241:15245   */\n      0x20\n        /* \"#utility.yul\":15238:15239   */\n      0x00\n        /* \"#utility.yul\":15228:15246   */\n      keccak256\n        /* \"#utility.yul\":15220:15246   */\n      swap1\n      pop\n        /* \"#utility.yul\":15112:15253   */\n      swap2\n      swap1\n      pop\n      jump\t// out\n        /* \"#utility.yul\":15259:15352   */\n    tag_310:\n        /* \"#utility.yul\":15296:15302   */\n      0x00\n        /* \"#utility.yul\":15343:15345   */\n      0x20\n        /* \"#utility.yul\":15338:15340   */\n      0x1f\n        /* \"#utility.yul\":15331:15336   */\n      dup4\n        /* \"#utility.yul\":15327:15341   */\n      add\n        /* \"#utility.yul\":15323:15346   */\n      div\n        /* \"#utility.yul\":15313:15346   */\n      swap1\n      pop\n        /* \"#utility.yul\":15259:15352   */\n      swap2\n      swap1\n      pop\n      jump\t// out\n        /* \"#utility.yul\":15358:15465   */\n    tag_311:\n        /* \"#utility.yul\":15402:15410   */\n      0x00\n        /* \"#utility.yul\":15452:15457   */\n      dup3\n        /* \"#utility.yul\":15446:15450   */\n      dup3\n        /* \"#utility.yul\":15442:15458   */\n      shl\n        /* \"#utility.yul\":15421:15458   */\n      swap1\n      pop\n        /* \"#utility.yul\":15358:15465   */\n      swap3\n      swap2\n      pop\n      pop\n      jump\t// out\n        /* \"#utility.yul\":15471:15864   */\n    tag_312:\n        /* \"#utility.yul\":15540:15546   */\n      0x00\n        /* \"#utility.yul\":15590:15591   */\n      0x08\n        /* \"#utility.yul\":15578:15588   */\n      dup4\n        /* \"#utility.yul\":15574:15592   */\n      mul\n        /* \"#utility.yul\":15613:15710   */\n      tag_493\n        /* \"#utility.yul\":15643:15709   */\n      0xffffffffffffffffffffffffffffffffffffffffffffffffffffffffffffffff\n        /* \"#utility.yul\":15632:15641   */\n      dup3\n        /* \"#utility.yul\":15613:15710   */\n      tag_311\n      jump\t// in\n    tag_493:\n        /* \"#utility.yul\":15731:15770   */\n      tag_494\n        /* \"#utility.yul\":15761:15769   */\n      dup7\n        /* \"#utility.yul\":15750:15759   */\n      dup4\n        /* \"#utility.yul\":15731:15770   */\n      tag_311\n      jump\t// in\n    tag_494:\n        /* \"#utility.yul\":15719:15770   */\n      swap6\n      pop\n        /* \"#utility.yul\":15803:15807   */\n      dup1\n        /* \"#utility.yul\":15799:15808   */\n      not\n        /* \"#utility.yul\":15792:15797   */\n      dup5\n        /* \"#utility.yul\":15788:15809   */\n      and\n        /* \"#utility.yul\":15779:15809   */\n      swap4\n      pop\n        /* \"#utility.yul\":15852:15856   */\n      dup1\n        /* \"#utility.yul\":15842:15850   */\n      dup7\n        /* \"#utility.yul\":15838:15857   */\n      and\n        /* \"#utility.yul\":15831:15836   */\n      dup5\n        /* \"#utility.yul\":15828:15858   */\n      or\n        /* \"#utility.yul\":15818:15858   */\n      swap3\n      pop\n        /* \"#utility.yul\":15547:15864   */\n      pop\n      pop\n        /* \"#utility.yul\":15471:15864   */\n      swap4\n      swap3\n      pop\n      pop\n      pop\n      jump\t// out\n        /* \"#utility.yul\":15870:15930   */\n    tag_313:\n        /* \"#utility.yul\":15898:15901   */\n      0x00\n        /* \"#utility.yul\":15919:15924   */\n      dup2\n        /* \"#utility.yul\":15912:15924   */\n      swap1\n      pop\n        /* \"#utility.yul\":15870:15930   */\n      swap2\n      swap1\n      pop\n      jump\t// out\n        /* \"#utility.yul\":15936:16078   */\n    tag_314:\n        /* \"#utility.yul\":15986:15995   */\n      0x00\n        /* \"#utility.yul\":16019:16072   */\n      tag_497\n        /* \"#utility.yul\":16037:16071   */\n      tag_498\n        /* \"#utility.yul\":16046:16070   */\n      tag_499\n        /* \"#utility.yul\":16064:16069   */\n      dup5\n        /* \"#utility.yul\":16046:16070   */\n      tag_299\n      jump\t// in\n    tag_499:\n        /* \"#utility.yul\":16037:16071   */\n      tag_313\n      jump\t// in\n    tag_498:\n        /* \"#utility.yul\":16019:16072   */\n      tag_299\n      jump\t// in\n    tag_497:\n        /* \"#utility.yul\":16006:16072   */\n      swap1\n      pop\n        /* \"#utility.yul\":15936:16078   */\n      swap2\n      swap1\n      pop\n      jump\t// out\n        /* \"#utility.yul\":16084:16159   */\n    tag_315:\n        /* \"#utility.yul\":16127:16130   */\n      0x00\n        /* \"#utility.yul\":16148:16153   */\n      dup2\n        /* \"#utility.yul\":16141:16153   */\n      swap1\n      pop\n        /* \"#utility.yul\":16084:16159   */\n      swap2\n      swap1\n      pop\n      jump\t// out\n        /* \"#utility.yul\":16165:16434   */\n    tag_316:\n        /* \"#utility.yul\":16275:16314   */\n      tag_502\n        /* \"#utility.yul\":16306:16313   */\n      dup4\n        /* \"#utility.yul\":16275:16314   */\n      tag_314\n      jump\t// in\n    tag_502:\n        /* \"#utility.yul\":16336:16427   */\n      tag_503\n        /* \"#utility.yul\":16385:16426   */\n      tag_504\n        /* \"#utility.yul\":16409:16425   */\n      dup3\n        /* \"#utility.yul\":16385:16426   */\n      tag_315\n      jump\t// in\n    tag_504:\n        /* \"#utility.yul\":16377:16383   */\n      dup5\n        /* \"#utility.yul\":16370:16374   */\n      dup5\n        /* \"#utility.yul\":16364:16375   */\n      sload\n        /* \"#utility.yul\":16336:16427   */\n      tag_312\n      jump\t// in\n    tag_503:\n        /* \"#utility.yul\":16330:16334   */\n      dup3\n        /* \"#utility.yul\":16323:16428   */\n      sstore\n        /* \"#utility.yul\":16241:16434   */\n      pop\n        /* \"#utility.yul\":16165:16434   */\n      pop\n      pop\n      pop\n      jump\t// out\n        /* \"#utility.yul\":16440:16513   */\n    tag_317:\n        /* \"#utility.yul\":16485:16488   */\n      0x00\n        /* \"#utility.yul\":16440:16513   */\n      swap1\n      jump\t// out\n        /* \"#utility.yul\":16519:16708   */\n    tag_318:\n        /* \"#utility.yul\":16596:16628   */\n      tag_507\n      tag_317\n      jump\t// in\n    tag_507:\n        /* \"#utility.yul\":16637:16702   */\n      tag_508\n        /* \"#utility.yul\":16695:16701   */\n      dup2\n        /* \"#utility.yul\":16687:16693   */\n      dup5\n        /* \"#utility.yul\":16681:16685   */\n      dup5\n        /* \"#utility.yul\":16637:16702   */\n      tag_316\n      jump\t// in\n    tag_508:\n        /* \"#utility.yul\":16572:16708   */\n      pop\n        /* \"#utility.yul\":16519:16708   */\n      pop\n      pop\n      jump\t// out\n        /* \"#utility.yul\":16714:16900   */\n    tag_319:\n        /* \"#utility.yul\":16774:16894   */\n    tag_510:\n        /* \"#utility.yul\":16791:16794   */\n      dup2\n        /* \"#utility.yul\":16784:16789   */\n      dup2\n        /* \"#utility.yul\":16781:16795   */\n      lt\n        /* \"#utility.yul\":16774:16894   */\n      iszero\n      tag_512\n      jumpi\n        /* \"#utility.yul\":16845:16884   */\n      tag_513\n        /* \"#utility.yul\":16882:16883   */\n      0x00\n        /* \"#utility.yul\":16875:16880   */\n      dup3\n        /* \"#utility.yul\":16845:16884   */\n      tag_318\n      jump\t// in\n    tag_513:\n        /* \"#utility.yul\":16818:16819   */\n      0x01\n        /* \"#utility.yul\":16811:16816   */\n      dup2\n        /* \"#utility.yul\":16807:16820   */\n      add\n        /* \"#utility.yul\":16798:16820   */\n      swap1\n      pop\n        /* \"#utility.yul\":16774:16894   */\n      jump(tag_510)\n    tag_512:\n        /* \"#utility.yul\":16714:16900   */\n      pop\n      pop\n      jump\t// out\n        /* \"#utility.yul\":16906:17449   */\n    tag_320:\n        /* \"#utility.yul\":17007:17009   */\n      0x1f\n        /* \"#utility.yul\":17002:17005   */\n      dup3\n        /* \"#utility.yul\":16999:17010   */\n      gt\n        /* \"#utility.yul\":16996:17442   */\n      iszero\n      tag_515\n      jumpi\n        /* \"#utility.yul\":17041:17079   */\n      tag_516\n        /* \"#utility.yul\":17073:17078   */\n      dup2\n        /* \"#utility.yul\":17041:17079   */\n      tag_309\n      jump\t// in\n    tag_516:\n        /* \"#utility.yul\":17125:17154   */\n      tag_517\n        /* \"#utility.yul\":17143:17153   */\n      dup5\n        /* \"#utility.yul\":17125:17154   */\n      tag_310\n      jump\t// in\n    tag_517:\n        /* \"#utility.yul\":17115:17123   */\n      dup2\n        /* \"#utility.yul\":17111:17155   */\n      add\n        /* \"#utility.yul\":17308:17310   */\n      0x20\n        /* \"#utility.yul\":17296:17306   */\n      dup6\n        /* \"#utility.yul\":17293:17311   */\n      lt\n        /* \"#utility.yul\":17290:17339   */\n      iszero\n      tag_518\n      jumpi\n        /* \"#utility.yul\":17329:17337   */\n      dup2\n        /* \"#utility.yul\":17314:17337   */\n      swap1\n      pop\n        /* \"#utility.yul\":17290:17339   */\n    tag_518:\n        /* \"#utility.yul\":17352:17432   */\n      tag_519\n        /* \"#utility.yul\":17408:17430   */\n      tag_520\n        /* \"#utility.yul\":17426:17429   */\n      dup6\n        /* \"#utility.yul\":17408:17430   */\n      tag_310\n      jump\t// in\n    tag_520:\n        /* \"#utility.yul\":17398:17406   */\n      dup4\n        /* \"#utility.yul\":17394:17431   */\n      add\n        /* \"#utility.yul\":17381:17392   */\n      dup3\n        /* \"#utility.yul\":17352:17432   */\n      tag_319\n      jump\t// in\n    tag_519:\n        /* \"#utility.yul\":17011:17442   */\n      pop\n      pop\n        /* \"#utility.yul\":16996:17442   */\n    tag_515:\n        /* \"#utility.yul\":16906:17449   */\n      pop\n      pop\n      pop\n      jump\t// out\n        /* \"#utility.yul\":17455:17572   */\n    tag_321:\n        /* \"#utility.yul\":17509:17517   */\n      0x00\n        /* \"#utility.yul\":17559:17564   */\n      dup3\n        /* \"#utility.yul\":17553:17557   */\n      dup3\n        /* \"#utility.yul\":17549:17565   */\n      shr\n        /* \"#utility.yul\":17528:17565   */\n      swap1\n      pop\n        /* \"#utility.yul\":17455:17572   */\n      swap3\n      swap2\n      pop\n      pop\n      jump\t// out\n        /* \"#utility.yul\":17578:17747   */\n    tag_322:\n        /* \"#utility.yul\":17622:17628   */\n      0x00\n        /* \"#utility.yul\":17655:17706   */\n      tag_523\n        /* \"#utility.yul\":17703:17704   */\n      0x00\n        /* \"#utility.yul\":17699:17705   */\n      not\n        /* \"#utility.yul\":17691:17696   */\n      dup5\n        /* \"#utility.yul\":17688:17689   */\n      0x08\n        /* \"#utility.yul\":17684:17697   */\n      mul\n        /* \"#utility.yul\":17655:17706   */\n      tag_321\n      jump\t// in\n    tag_523:\n        /* \"#utility.yul\":17651:17707   */\n      not\n        /* \"#utility.yul\":17736:17740   */\n      dup1\n        /* \"#utility.yul\":17730:17734   */\n      dup4\n        /* \"#utility.yul\":17726:17741   */\n      and\n        /* \"#utility.yul\":17716:17741   */\n      swap2\n      pop\n        /* \"#utility.yul\":17629:17747   */\n      pop\n        /* \"#utility.yul\":17578:17747   */\n      swap3\n      swap2\n      pop\n      pop\n      jump\t// out\n        /* \"#utility.yul\":17752:18047   */\n    tag_323:\n        /* \"#utility.yul\":17828:17832   */\n      0x00\n        /* \"#utility.yul\":17974:18003   */\n      tag_525\n        /* \"#utility.yul\":17999:18002   */\n      dup4\n        /* \"#utility.yul\":17993:17997   */\n      dup4\n        /* \"#utility.yul\":17974:18003   */\n      tag_322\n      jump\t// in\n    tag_525:\n        /* \"#utility.yul\":17966:18003   */\n      swap2\n      pop\n        /* \"#utility.yul\":18036:18039   */\n      dup3\n        /* \"#utility.yul\":18033:18034   */\n      0x02\n        /* \"#utility.yul\":18029:18040   */\n      mul\n        /* \"#utility.yul\":18023:18027   */\n      dup3\n        /* \"#utility.yul\":18020:18041   */\n      or\n        /* \"#utility.yul\":18012:18041   */\n      swap1\n      pop\n        /* \"#utility.yul\":17752:18047   */\n      swap3\n      swap2\n      pop\n      pop\n      jump\t// out\n        /* \"#utility.yul\":18052:19447   */\n    tag_44:\n        /* \"#utility.yul\":18169:18206   */\n      tag_527\n        /* \"#utility.yul\":18202:18205   */\n      dup3\n        /* \"#utility.yul\":18169:18206   */\n      tag_289\n      jump\t// in\n    tag_527:\n        /* \"#utility.yul\":18271:18289   */\n      0xffffffffffffffff\n        /* \"#utility.yul\":18263:18269   */\n      dup2\n        /* \"#utility.yul\":18260:18290   */\n      gt\n        /* \"#utility.yul\":18257:18313   */\n      iszero\n      tag_528\n      jumpi\n        /* \"#utility.yul\":18293:18311   */\n      tag_529\n      tag_75\n      jump\t// in\n    tag_529:\n        /* \"#utility.yul\":18257:18313   */\n    tag_528:\n        /* \"#utility.yul\":18337:18375   */\n      tag_530\n        /* \"#utility.yul\":18369:18373   */\n      dup3\n        /* \"#utility.yul\":18363:18374   */\n      sload\n        /* \"#utility.yul\":18337:18375   */\n      tag_38\n      jump\t// in\n    tag_530:\n        /* \"#utility.yul\":18422:18489   */\n      tag_531\n        /* \"#utility.yul\":18482:18488   */\n      dup3\n        /* \"#utility.yul\":18474:18480   */\n      dup3\n        /* \"#utility.yul\":18468:18472   */\n      dup6\n        /* \"#utility.yul\":18422:18489   */\n      tag_320\n      jump\t// in\n    tag_531:\n        /* \"#utility.yul\":18516:18517   */\n      0x00\n        /* \"#utility.yul\":18540:18544   */\n      0x20\n        /* \"#utility.yul\":18527:18544   */\n      swap1\n      pop\n        /* \"#utility.yul\":18572:18574   */\n      0x1f\n        /* \"#utility.yul\":18564:18570   */\n      dup4\n        /* \"#utility.yul\":18561:18575   */\n      gt\n        /* \"#utility.yul\":18589:18590   */\n      0x01\n        /* \"#utility.yul\":18584:19202   */\n      dup2\n      eq\n      tag_533\n      jumpi\n        /* \"#utility.yul\":19246:19247   */\n      0x00\n        /* \"#utility.yul\":19263:19269   */\n      dup5\n        /* \"#utility.yul\":19260:19337   */\n      iszero\n      tag_534\n      jumpi\n        /* \"#utility.yul\":19312:19321   */\n      dup3\n        /* \"#utility.yul\":19307:19310   */\n      dup8\n        /* \"#utility.yul\":19303:19322   */\n      add\n        /* \"#utility.yul\":19297:19323   */\n      mload\n        /* \"#utility.yul\":19288:19323   */\n      swap1\n      pop\n        /* \"#utility.yul\":19260:19337   */\n    tag_534:\n        /* \"#utility.yul\":19363:19430   */\n      tag_535\n        /* \"#utility.yul\":19423:19429   */\n      dup6\n        /* \"#utility.yul\":19416:19421   */\n      dup3\n        /* \"#utility.yul\":19363:19430   */\n      tag_323\n      jump\t// in\n    tag_535:\n        /* \"#utility.yul\":19357:19361   */\n      dup7\n        /* \"#utility.yul\":19350:19431   */\n      sstore\n        /* \"#utility.yul\":19219:19441   */\n      pop\n        /* \"#utility.yul\":18554:19441   */\n      jump(tag_532)\n        /* \"#utility.yul\":18584:19202   */\n    tag_533:\n        /* \"#utility.yul\":18636:18640   */\n      0x1f\n        /* \"#utility.yul\":18632:18641   */\n      not\n        /* \"#utility.yul\":18624:18630   */\n      dup5\n        /* \"#utility.yul\":18620:18642   */\n      and\n        /* \"#utility.yul\":18670:18707   */\n      tag_536\n        /* \"#utility.yul\":18702:18706   */\n      dup7\n        /* \"#utility.yul\":18670:18707   */\n      tag_309\n      jump\t// in\n    tag_536:\n        /* \"#utility.yul\":18729:18730   */\n      0x00\n        /* \"#utility.yul\":18743:18951   */\n    tag_537:\n        /* \"#utility.yul\":18757:18764   */\n      dup3\n        /* \"#utility.yul\":18754:18755   */\n      dup2\n        /* \"#utility.yul\":18751:18765   */\n      lt\n        /* \"#utility.yul\":18743:18951   */\n      iszero\n      tag_539\n      jumpi\n        /* \"#utility.yul\":18836:18845   */\n      dup5\n        /* \"#utility.yul\":18831:18834   */\n      dup10\n        /* \"#utility.yul\":18827:18846   */\n      add\n        /* \"#utility.yul\":18821:18847   */\n      mload\n        /* \"#utility.yul\":18813:18819   */\n      dup3\n        /* \"#utility.yul\":18806:18848   */\n      sstore\n        /* \"#utility.yul\":18887:18888   */\n      0x01\n        /* \"#utility.yul\":18879:18885   */\n      dup3\n        /* \"#utility.yul\":18875:18889   */\n      add\n        /* \"#utility.yul\":18865:18889   */\n      swap2\n      pop\n        /* \"#utility.yul\":18934:18936   */\n      0x20\n        /* \"#utility.yul\":18923:18932   */\n      dup6\n        /* \"#utility.yul\":18919:18937   */\n      add\n        /* \"#utility.yul\":18906:18937   */\n      swap5\n      pop\n        /* \"#utility.yul\":18780:18784   */\n      0x20\n        /* \"#utility.yul\":18777:18778   */\n      dup2\n        /* \"#utility.yul\":18773:18785   */\n      add\n        /* \"#utility.yul\":18768:18785   */\n      swap1\n      pop\n        /* \"#utility.yul\":18743:18951   */\n      jump(tag_537)\n    tag_539:\n        /* \"#utility.yul\":18979:18985   */\n      dup7\n        /* \"#utility.yul\":18970:18977   */\n      dup4\n        /* \"#utility.yul\":18967:18986   */\n      lt\n        /* \"#utility.yul\":18964:19143   */\n      iszero\n      tag_540\n      jumpi\n        /* \"#utility.yul\":19037:19046   */\n      dup5\n        /* \"#utility.yul\":19032:19035   */\n      dup10\n        /* \"#utility.yul\":19028:19047   */\n      add\n        /* \"#utility.yul\":19022:19048   */\n      mload\n        /* \"#utility.yul\":19080:19128   */\n      tag_541\n        /* \"#utility.yul\":19122:19126   */\n      0x1f\n        /* \"#utility.yul\":19114:19120   */\n      dup10\n        /* \"#utility.yul\":19110:19127   */\n      and\n        /* \"#utility.yul\":19099:19108   */\n      dup3\n        /* \"#utility.yul\":19080:19128   */\n      tag_322\n      jump\t// in\n    tag_541:\n        /* \"#utility.yul\":19072:19078   */\n      dup4\n        /* \"#utility.yul\":19065:19129   */\n      sstore\n        /* \"#utility.yul\":18987:19143   */\n      pop\n        /* \"#utility.yul\":18964:19143   */\n    tag_540:\n        /* \"#utility.yul\":19189:19190   */\n      0x01\n        /* \"#utility.yul\":19185:19186   */\n      0x02\n        /* \"#utility.yul\":19177:19183   */\n      dup9\n        /* \"#utility.yul\":19173:19187   */\n      mul\n        /* \"#utility.yul\":19169:19191   */\n      add\n        /* \"#utility.yul\":19163:19167   */\n      dup9\n        /* \"#utility.yul\":19156:19192   */\n      sstore\n        /* \"#utility.yul\":18591:19202   */\n      pop\n      pop\n      pop\n        /* \"#utility.yul\":18554:19441   */\n    tag_532:\n      pop\n        /* \"#utility.yul\":18144:19447   */\n      pop\n      pop\n      pop\n        /* \"#utility.yul\":18052:19447   */\n      pop\n      pop\n      jump\t// out\n        /* \"#utility.yul\":19453:19967   */\n    tag_46:\n        /* \"#utility.yul\":19614:19618   */\n      0x00\n        /* \"#utility.yul\":19652:19654   */\n      0x40\n        /* \"#utility.yul\":19641:19650   */\n      dup3\n        /* \"#utility.yul\":19637:19655   */\n      add\n        /* \"#utility.yul\":19629:19655   */\n      swap1\n      pop\n        /* \"#utility.yul\":19701:19710   */\n      dup2\n        /* \"#utility.yul\":19695:19699   */\n      dup2\n        /* \"#utility.yul\":19691:19711   */\n      sub\n        /* \"#utility.yul\":19687:19688   */\n      0x00\n        /* \"#utility.yul\":19676:19685   */\n      dup4\n        /* \"#utility.yul\":19672:19689   */\n      add\n        /* \"#utility.yul\":19665:19712   */\n      mstore\n        /* \"#utility.yul\":19729:19807   */\n      tag_543\n        /* \"#utility.yul\":19802:19806   */\n      dup2\n        /* \"#utility.yul\":19793:19799   */\n      dup6\n        /* \"#utility.yul\":19729:19807   */\n      tag_307\n      jump\t// in\n    tag_543:\n        /* \"#utility.yul\":19721:19807   */\n      swap1\n      pop\n        /* \"#utility.yul\":19854:19863   */\n      dup2\n        /* \"#utility.yul\":19848:19852   */\n      dup2\n        /* \"#utility.yul\":19844:19864   */\n      sub\n        /* \"#utility.yul\":19839:19841   */\n      0x20\n        /* \"#utility.yul\":19828:19837   */\n      dup4\n        /* \"#utility.yul\":19824:19842   */\n      add\n        /* \"#utility.yul\":19817:19865   */\n      mstore\n        /* \"#utility.yul\":19882:19960   */\n      tag_544\n        /* \"#utility.yul\":19955:19959   */\n      dup2\n        /* \"#utility.yul\":19946:19952   */\n      dup5\n        /* \"#utility.yul\":19882:19960   */\n      tag_307\n      jump\t// in\n    tag_544:\n        /* \"#utility.yul\":19874:19960   */\n      swap1\n      pop\n        /* \"#utility.yul\":19453:19967   */\n      swap4\n      swap3\n      pop\n      pop\n      pop\n      jump\t// out\n        /* \"#utility.yul\":19973:20152   */\n    tag_324:\n        /* \"#utility.yul\":20113:20144   */\n      0x4e6f7420617574686f72697a656420746f20636c6561722066696c6573000000\n        /* \"#utility.yul\":20109:20110   */\n      0x00\n        /* \"#utility.yul\":20101:20107   */\n      dup3\n        /* \"#utility.yul\":20097:20111   */\n      add\n        /* \"#utility.yul\":20090:20145   */\n      mstore\n        /* \"#utility.yul\":19973:20152   */\n      pop\n      jump\t// out\n        /* \"#utility.yul\":20158:20524   */\n    tag_325:\n        /* \"#utility.yul\":20300:20303   */\n      0x00\n        /* \"#utility.yul\":20321:20388   */\n      tag_547\n        /* \"#utility.yul\":20385:20387   */\n      0x1d\n        /* \"#utility.yul\":20380:20383   */\n      dup4\n        /* \"#utility.yul\":20321:20388   */\n      tag_306\n      jump\t// in\n    tag_547:\n        /* \"#utility.yul\":20314:20388   */\n      swap2\n      pop\n        /* \"#utility.yul\":20397:20490   */\n      tag_548\n        /* \"#utility.yul\":20486:20489   */\n      dup3\n        /* \"#utility.yul\":20397:20490   */\n      tag_324\n      jump\t// in\n    tag_548:\n        /* \"#utility.yul\":20515:20517   */\n      0x20\n        /* \"#utility.yul\":20510:20513   */\n      dup3\n        /* \"#utility.yul\":20506:20518   */\n      add\n        /* \"#utility.yul\":20499:20518   */\n      swap1\n      pop\n        /* \"#utility.yul\":20158:20524   */\n      swap2\n      swap1\n      pop\n      jump\t// out\n        /* \"#utility.yul\":20530:20949   */\n    tag_50:\n        /* \"#utility.yul\":20696:20700   */\n      0x00\n        /* \"#utility.yul\":20734:20736   */\n      0x20\n        /* \"#utility.yul\":20723:20732   */\n      dup3\n        /* \"#utility.yul\":20719:20737   */\n      add\n        /* \"#utility.yul\":20711:20737   */\n      swap1\n      pop\n        /* \"#utility.yul\":20783:20792   */\n      dup2\n        /* \"#utility.yul\":20777:20781   */\n      dup2\n        /* \"#utility.yul\":20773:20793   */\n      sub\n        /* \"#utility.yul\":20769:20770   */\n      0x00\n        /* \"#utility.yul\":20758:20767   */\n      dup4\n        /* \"#utility.yul\":20754:20771   */\n      add\n        /* \"#utility.yul\":20747:20794   */\n      mstore\n        /* \"#utility.yul\":20811:20942   */\n      tag_550\n        /* \"#utility.yul\":20937:20941   */\n      dup2\n        /* \"#utility.yul\":20811:20942   */\n      tag_325\n      jump\t// in\n    tag_550:\n        /* \"#utility.yul\":20803:20942   */\n      swap1\n      pop\n        /* \"#utility.yul\":20530:20949   */\n      swap2\n      swap1\n      pop\n      jump\t// out\n        /* \"#utility.yul\":20955:21133   */\n    tag_326:\n        /* \"#utility.yul\":21095:21125   */\n      0x4e6f2066696c657320657869737420666f722074686973207573657200000000\n        /* \"#utility.yul\":21091:21092   */\n      0x00\n        /* \"#utility.yul\":21083:21089   */\n      dup3\n        /* \"#utility.yul\":21079:21093   */\n      add\n        /* \"#utility.yul\":21072:21126   */\n      mstore\n        /* \"#utility.yul\":20955:21133   */\n      pop\n      jump\t// out\n        /* \"#utility.yul\":21139:21505   */\n    tag_327:\n        /* \"#utility.yul\":21281:21284   */\n      0x00\n        /* \"#utility.yul\":21302:21369   */\n      tag_553\n        /* \"#utility.yul\":21366:21368   */\n      0x1c\n        /* \"#utility.yul\":21361:21364   */\n      dup4\n        /* \"#utility.yul\":21302:21369   */\n      tag_306\n      jump\t// in\n    tag_553:\n        /* \"#utility.yul\":21295:21369   */\n      swap2\n      pop\n        /* \"#utility.yul\":21378:21471   */\n      tag_554\n        /* \"#utility.yul\":21467:21470   */\n      dup3\n        /* \"#utility.yul\":21378:21471   */\n      tag_326\n      jump\t// in\n    tag_554:\n        /* \"#utility.yul\":21496:21498   */\n      0x20\n        /* \"#utility.yul\":21491:21494   */\n      dup3\n        /* \"#utility.yul\":21487:21499   */\n      add\n        /* \"#utility.yul\":21480:21499   */\n      swap1\n      pop\n        /* \"#utility.yul\":21139:21505   */\n      swap2\n      swap1\n      pop\n      jump\t// out\n        /* \"#utility.yul\":21511:21930   */\n    tag_53:\n        /* \"#utility.yul\":21677:21681   */\n      0x00\n        /* \"#utility.yul\":21715:21717   */\n      0x20\n        /* \"#utility.yul\":21704:21713   */\n      dup3\n        /* \"#utility.yul\":21700:21718   */\n      add\n        /* \"#utility.yul\":21692:21718   */\n      swap1\n      pop\n        /* \"#utility.yul\":21764:21773   */\n      dup2\n        /* \"#utility.yul\":21758:21762   */\n      dup2\n        /* \"#utility.yul\":21754:21774   */\n      sub\n        /* \"#utility.yul\":21750:21751   */\n      0x00\n        /* \"#utility.yul\":21739:21748   */\n      dup4\n        /* \"#utility.yul\":21735:21752   */\n      add\n        /* \"#utility.yul\":21728:21775   */\n      mstore\n        /* \"#utility.yul\":21792:21923   */\n      tag_556\n        /* \"#utility.yul\":21918:21922   */\n      dup2\n        /* \"#utility.yul\":21792:21923   */\n      tag_327\n      jump\t// in\n    tag_556:\n        /* \"#utility.yul\":21784:21923   */\n      swap1\n      pop\n        /* \"#utility.yul\":21511:21930   */\n      swap2\n      swap1\n      pop\n      jump\t// out\n        /* \"#utility.yul\":21936:22116   */\n    tag_59:\n        /* \"#utility.yul\":21984:22061   */\n      0x4e487b7100000000000000000000000000000000000000000000000000000000\n        /* \"#utility.yul\":21981:21982   */\n      0x00\n        /* \"#utility.yul\":21974:22062   */\n      mstore\n        /* \"#utility.yul\":22081:22085   */\n      0x32\n        /* \"#utility.yul\":22078:22079   */\n      0x04\n        /* \"#utility.yul\":22071:22086   */\n      mstore\n        /* \"#utility.yul\":22105:22109   */\n      0x24\n        /* \"#utility.yul\":22102:22103   */\n      0x00\n        /* \"#utility.yul\":22095:22110   */\n      revert\n        /* \"#utility.yul\":22122:22302   */\n    tag_328:\n        /* \"#utility.yul\":22170:22247   */\n      0x4e487b7100000000000000000000000000000000000000000000000000000000\n        /* \"#utility.yul\":22167:22168   */\n      0x00\n        /* \"#utility.yul\":22160:22248   */\n      mstore\n        /* \"#utility.yul\":22267:22271   */\n      0x11\n        /* \"#utility.yul\":22264:22265   */\n      0x04\n        /* \"#utility.yul\":22257:22272   */\n      mstore\n        /* \"#utility.yul\":22291:22295   */\n      0x24\n        /* \"#utility.yul\":22288:22289   */\n      0x00\n        /* \"#utility.yul\":22281:22296   */\n      revert\n        /* \"#utility.yul\":22308:22541   */\n    tag_72:\n        /* \"#utility.yul\":22347:22350   */\n      0x00\n        /* \"#utility.yul\":22370:22394   */\n      tag_560\n        /* \"#utility.yul\":22388:22393   */\n      dup3\n        /* \"#utility.yul\":22370:22394   */\n      tag_299\n      jump\t// in\n    tag_560:\n        /* \"#utility.yul\":22361:22394   */\n      swap2\n      pop\n        /* \"#utility.yul\":22416:22482   */\n      0xffffffffffffffffffffffffffffffffffffffffffffffffffffffffffffffff\n        /* \"#utility.yul\":22409:22414   */\n      dup3\n        /* \"#utility.yul\":22406:22483   */\n      sub\n        /* \"#utility.yul\":22403:22506   */\n      tag_561\n      jumpi\n        /* \"#utility.yul\":22486:22504   */\n      tag_562\n      tag_328\n      jump\t// in\n    tag_562:\n        /* \"#utility.yul\":22403:22506   */\n    tag_561:\n        /* \"#utility.yul\":22533:22534   */\n      0x01\n        /* \"#utility.yul\":22526:22531   */\n      dup3\n        /* \"#utility.yul\":22522:22535   */\n      add\n        /* \"#utility.yul\":22515:22535   */\n      swap1\n      pop\n        /* \"#utility.yul\":22308:22541   */\n      swap2\n      swap1\n      pop\n      jump\t// out\n        /* \"#utility.yul\":22547:22727   */\n    tag_329:\n        /* \"#utility.yul\":22687:22719   */\n      0x4e6f7420617574686f72697a656420746f2064656c6574652066696c65730000\n        /* \"#utility.yul\":22683:22684   */\n      0x00\n        /* \"#utility.yul\":22675:22681   */\n      dup3\n        /* \"#utility.yul\":22671:22685   */\n      add\n        /* \"#utility.yul\":22664:22720   */\n      mstore\n        /* \"#utility.yul\":22547:22727   */\n      pop\n      jump\t// out\n        /* \"#utility.yul\":22733:23099   */\n    tag_330:\n        /* \"#utility.yul\":22875:22878   */\n      0x00\n        /* \"#utility.yul\":22896:22963   */\n      tag_565\n        /* \"#utility.yul\":22960:22962   */\n      0x1e\n        /* \"#utility.yul\":22955:22958   */\n      dup4\n        /* \"#utility.yul\":22896:22963   */\n      tag_306\n      jump\t// in\n    tag_565:\n        /* \"#utility.yul\":22889:22963   */\n      swap2\n      pop\n        /* \"#utility.yul\":22972:23065   */\n      tag_566\n        /* \"#utility.yul\":23061:23064   */\n      dup3\n        /* \"#utility.yul\":22972:23065   */\n      tag_329\n      jump\t// in\n    tag_566:\n        /* \"#utility.yul\":23090:23092   */\n      0x20\n        /* \"#utility.yul\":23085:23088   */\n      dup3\n        /* \"#utility.yul\":23081:23093   */\n      add\n        /* \"#utility.yul\":23074:23093   */\n      swap1\n      pop\n        /* \"#utility.yul\":22733:23099   */\n      swap2\n      swap1\n      pop\n      jump\t// out\n        /* \"#utility.yul\":23105:23524   */\n    tag_153:\n        /* \"#utility.yul\":23271:23275   */\n      0x00\n        /* \"#utility.yul\":23309:23311   */\n      0x20\n        /* \"#utility.yul\":23298:23307   */\n      dup3\n        /* \"#utility.yul\":23294:23312   */\n      add\n        /* \"#utility.yul\":23286:23312   */\n      swap1\n      pop\n        /* \"#utility.yul\":23358:23367   */\n      dup2\n        /* \"#utility.yul\":23352:23356   */\n      dup2\n        /* \"#utility.yul\":23348:23368   */\n      sub\n        /* \"#utility.yul\":23344:23345   */\n      0x00\n        /* \"#utility.yul\":23333:23342   */\n      dup4\n        /* \"#utility.yul\":23329:23346   */\n      add\n        /* \"#utility.yul\":23322:23369   */\n      mstore\n        /* \"#utility.yul\":23386:23517   */\n      tag_568\n        /* \"#utility.yul\":23512:23516   */\n      dup2\n        /* \"#utility.yul\":23386:23517   */\n      tag_330\n      jump\t// in\n    tag_568:\n        /* \"#utility.yul\":23378:23517   */\n      swap1\n      pop\n        /* \"#utility.yul\":23105:23524   */\n      swap2\n      swap1\n      pop\n      jump\t// out\n        /* \"#utility.yul\":23530:23693   */\n    tag_331:\n        /* \"#utility.yul\":23670:23685   */\n      0x496e76616c696420696e64657800000000000000000000000000000000000000\n        /* \"#utility.yul\":23666:23667   */\n      0x00\n        /* \"#utility.yul\":23658:23664   */\n      dup3\n        /* \"#utility.yul\":23654:23668   */\n      add\n        /* \"#utility.yul\":23647:23686   */\n      mstore\n        /* \"#utility.yul\":23530:23693   */\n      pop\n      jump\t// out\n        /* \"#utility.yul\":23699:24065   */\n    tag_332:\n        /* \"#utility.yul\":23841:23844   */\n      0x00\n        /* \"#utility.yul\":23862:23929   */\n      tag_571\n        /* \"#utility.yul\":23926:23928   */\n      0x0d\n        /* \"#utility.yul\":23921:23924   */\n      dup4\n        /* \"#utility.yul\":23862:23929   */\n      tag_306\n      jump\t// in\n    tag_571:\n        /* \"#utility.yul\":23855:23929   */\n      swap2\n      pop\n        /* \"#utility.yul\":23938:24031   */\n      tag_572\n        /* \"#utility.yul\":24027:24030   */\n      dup3\n        /* \"#utility.yul\":23938:24031   */\n      tag_331\n      jump\t// in\n    tag_572:\n        /* \"#utility.yul\":24056:24058   */\n      0x20\n        /* \"#utility.yul\":24051:24054   */\n      dup3\n        /* \"#utility.yul\":24047:24059   */\n      add\n        /* \"#utility.yul\":24040:24059   */\n      swap1\n      pop\n        /* \"#utility.yul\":23699:24065   */\n      swap2\n      swap1\n      pop\n      jump\t// out\n        /* \"#utility.yul\":24071:24490   */\n    tag_158:\n        /* \"#utility.yul\":24237:24241   */\n      0x00\n        /* \"#utility.yul\":24275:24277   */\n      0x20\n        /* \"#utility.yul\":24264:24273   */\n      dup3\n        /* \"#utility.yul\":24260:24278   */\n      add\n        /* \"#utility.yul\":24252:24278   */\n      swap1\n      pop\n        /* \"#utility.yul\":24324:24333   */\n      dup2\n        /* \"#utility.yul\":24318:24322   */\n      dup2\n        /* \"#utility.yul\":24314:24334   */\n      sub\n        /* \"#utility.yul\":24310:24311   */\n      0x00\n        /* \"#utility.yul\":24299:24308   */\n      dup4\n        /* \"#utility.yul\":24295:24312   */\n      add\n        /* \"#utility.yul\":24288:24335   */\n      mstore\n        /* \"#utility.yul\":24352:24483   */\n      tag_574\n        /* \"#utility.yul\":24478:24482   */\n      dup2\n        /* \"#utility.yul\":24352:24483   */\n      tag_332\n      jump\t// in\n    tag_574:\n        /* \"#utility.yul\":24344:24483   */\n      swap1\n      pop\n        /* \"#utility.yul\":24071:24490   */\n      swap2\n      swap1\n      pop\n      jump\t// out\n        /* \"#utility.yul\":24496:24644   */\n    tag_333:\n        /* \"#utility.yul\":24598:24609   */\n      0x00\n        /* \"#utility.yul\":24635:24638   */\n      dup2\n        /* \"#utility.yul\":24620:24638   */\n      swap1\n      pop\n        /* \"#utility.yul\":24496:24644   */\n      swap3\n      swap2\n      pop\n      pop\n      jump\t// out\n        /* \"#utility.yul\":24650:25040   */\n    tag_334:\n        /* \"#utility.yul\":24756:24759   */\n      0x00\n        /* \"#utility.yul\":24784:24823   */\n      tag_577\n        /* \"#utility.yul\":24817:24822   */\n      dup3\n        /* \"#utility.yul\":24784:24823   */\n      tag_289\n      jump\t// in\n    tag_577:\n        /* \"#utility.yul\":24839:24928   */\n      tag_578\n        /* \"#utility.yul\":24921:24927   */\n      dup2\n        /* \"#utility.yul\":24916:24919   */\n      dup6\n        /* \"#utility.yul\":24839:24928   */\n      tag_333\n      jump\t// in\n    tag_578:\n        /* \"#utility.yul\":24832:24928   */\n      swap4\n      pop\n        /* \"#utility.yul\":24937:25002   */\n      tag_579\n        /* \"#utility.yul\":24995:25001   */\n      dup2\n        /* \"#utility.yul\":24990:24993   */\n      dup6\n        /* \"#utility.yul\":24983:24987   */\n      0x20\n        /* \"#utility.yul\":24976:24981   */\n      dup7\n        /* \"#utility.yul\":24972:24988   */\n      add\n        /* \"#utility.yul\":24937:25002   */\n      tag_291\n      jump\t// in\n    tag_579:\n        /* \"#utility.yul\":25027:25033   */\n      dup1\n        /* \"#utility.yul\":25022:25025   */\n      dup5\n        /* \"#utility.yul\":25018:25034   */\n      add\n        /* \"#utility.yul\":25011:25034   */\n      swap2\n      pop\n        /* \"#utility.yul\":24760:25040   */\n      pop\n        /* \"#utility.yul\":24650:25040   */\n      swap3\n      swap2\n      pop\n      pop\n      jump\t// out\n        /* \"#utility.yul\":25046:25321   */\n    tag_160:\n        /* \"#utility.yul\":25178:25181   */\n      0x00\n        /* \"#utility.yul\":25200:25295   */\n      tag_581\n        /* \"#utility.yul\":25291:25294   */\n      dup3\n        /* \"#utility.yul\":25282:25288   */\n      dup5\n        /* \"#utility.yul\":25200:25295   */\n      tag_334\n      jump\t// in\n    tag_581:\n        /* \"#utility.yul\":25193:25295   */\n      swap2\n      pop\n        /* \"#utility.yul\":25312:25315   */\n      dup2\n        /* \"#utility.yul\":25305:25315   */\n      swap1\n      pop\n        /* \"#utility.yul\":25046:25321   */\n      swap3\n      swap2\n      pop\n      pop\n      jump\t// out\n        /* \"#utility.yul\":25351:26225   */\n    tag_335:\n        /* \"#utility.yul\":25454:25457   */\n      0x00\n        /* \"#utility.yul\":25491:25496   */\n      dup2\n        /* \"#utility.yul\":25485:25497   */\n      sload\n        /* \"#utility.yul\":25520:25556   */\n      tag_583\n        /* \"#utility.yul\":25546:25555   */\n      dup2\n        /* \"#utility.yul\":25520:25556   */\n      tag_38\n      jump\t// in\n    tag_583:\n        /* \"#utility.yul\":25572:25661   */\n      tag_584\n        /* \"#utility.yul\":25654:25660   */\n      dup2\n        /* \"#utility.yul\":25649:25652   */\n      dup7\n        /* \"#utility.yul\":25572:25661   */\n      tag_333\n      jump\t// in\n    tag_584:\n        /* \"#utility.yul\":25565:25661   */\n      swap5\n      pop\n        /* \"#utility.yul\":25692:25693   */\n      0x01\n        /* \"#utility.yul\":25681:25690   */\n      dup3\n        /* \"#utility.yul\":25677:25694   */\n      and\n        /* \"#utility.yul\":25708:25709   */\n      0x00\n        /* \"#utility.yul\":25703:25869   */\n      dup2\n      eq\n      tag_586\n      jumpi\n        /* \"#utility.yul\":25883:25884   */\n      0x01\n        /* \"#utility.yul\":25878:26219   */\n      dup2\n      eq\n      tag_587\n      jumpi\n        /* \"#utility.yul\":25670:26219   */\n      jump(tag_585)\n        /* \"#utility.yul\":25703:25869   */\n    tag_586:\n        /* \"#utility.yul\":25787:25791   */\n      0xff\n        /* \"#utility.yul\":25783:25792   */\n      not\n        /* \"#utility.yul\":25772:25781   */\n      dup4\n        /* \"#utility.yul\":25768:25793   */\n      and\n        /* \"#utility.yul\":25763:25766   */\n      dup7\n        /* \"#utility.yul\":25756:25794   */\n      mstore\n        /* \"#utility.yul\":25849:25855   */\n      dup2\n        /* \"#utility.yul\":25842:25856   */\n      iszero\n        /* \"#utility.yul\":25835:25857   */\n      iszero\n        /* \"#utility.yul\":25827:25833   */\n      dup3\n        /* \"#utility.yul\":25823:25858   */\n      mul\n        /* \"#utility.yul\":25818:25821   */\n      dup7\n        /* \"#utility.yul\":25814:25859   */\n      add\n        /* \"#utility.yul\":25807:25859   */\n      swap4\n      pop\n        /* \"#utility.yul\":25703:25869   */\n      jump(tag_585)\n        /* \"#utility.yul\":25878:26219   */\n    tag_587:\n        /* \"#utility.yul\":25945:25983   */\n      tag_588\n        /* \"#utility.yul\":25977:25982   */\n      dup6\n        /* \"#utility.yul\":25945:25983   */\n      tag_309\n      jump\t// in\n    tag_588:\n        /* \"#utility.yul\":26005:26006   */\n      0x00\n        /* \"#utility.yul\":26019:26173   */\n    tag_589:\n        /* \"#utility.yul\":26033:26039   */\n      dup4\n        /* \"#utility.yul\":26030:26031   */\n      dup2\n        /* \"#utility.yul\":26027:26040   */\n      lt\n        /* \"#utility.yul\":26019:26173   */\n      iszero\n      tag_591\n      jumpi\n        /* \"#utility.yul\":26107:26114   */\n      dup2\n        /* \"#utility.yul\":26101:26115   */\n      sload\n        /* \"#utility.yul\":26097:26098   */\n      dup2\n        /* \"#utility.yul\":26092:26095   */\n      dup10\n        /* \"#utility.yul\":26088:26099   */\n      add\n        /* \"#utility.yul\":26081:26116   */\n      mstore\n        /* \"#utility.yul\":26157:26158   */\n      0x01\n        /* \"#utility.yul\":26148:26155   */\n      dup3\n        /* \"#utility.yul\":26144:26159   */\n      add\n        /* \"#utility.yul\":26133:26159   */\n      swap2\n      pop\n        /* \"#utility.yul\":26055:26059   */\n      0x20\n        /* \"#utility.yul\":26052:26053   */\n      dup2\n        /* \"#utility.yul\":26048:26060   */\n      add\n        /* \"#utility.yul\":26043:26060   */\n      swap1\n      pop\n        /* \"#utility.yul\":26019:26173   */\n      jump(tag_589)\n    tag_591:\n        /* \"#utility.yul\":26202:26208   */\n      dup4\n        /* \"#utility.yul\":26197:26200   */\n      dup9\n        /* \"#utility.yul\":26193:26209   */\n      add\n        /* \"#utility.yul\":26186:26209   */\n      swap6\n      pop\n        /* \"#utility.yul\":25885:26219   */\n      pop\n      pop\n        /* \"#utility.yul\":25670:26219   */\n    tag_585:\n      pop\n        /* \"#utility.yul\":25458:26225   */\n      pop\n      pop\n        /* \"#utility.yul\":25351:26225   */\n      swap3\n      swap2\n      pop\n      pop\n      jump\t// out\n        /* \"#utility.yul\":26231:26500   */\n    tag_165:\n        /* \"#utility.yul\":26360:26363   */\n      0x00\n        /* \"#utility.yul\":26382:26474   */\n      tag_593\n        /* \"#utility.yul\":26470:26473   */\n      dup3\n        /* \"#utility.yul\":26461:26467   */\n      dup5\n        /* \"#utility.yul\":26382:26474   */\n      tag_335\n      jump\t// in\n    tag_593:\n        /* \"#utility.yul\":26375:26474   */\n      swap2\n      pop\n        /* \"#utility.yul\":26491:26494   */\n      dup2\n        /* \"#utility.yul\":26484:26494   */\n      swap1\n      pop\n        /* \"#utility.yul\":26231:26500   */\n      swap3\n      swap2\n      pop\n      pop\n      jump\t// out\n        /* \"#utility.yul\":26506:26679   */\n    tag_336:\n        /* \"#utility.yul\":26646:26671   */\n      0x46696c652043494420646f6573206e6f74206d61746368000000000000000000\n        /* \"#utility.yul\":26642:26643   */\n      0x00\n        /* \"#utility.yul\":26634:26640   */\n      dup3\n        /* \"#utility.yul\":26630:26644   */\n      add\n        /* \"#utility.yul\":26623:26672   */\n      mstore\n        /* \"#utility.yul\":26506:26679   */\n      pop\n      jump\t// out\n        /* \"#utility.yul\":26685:27051   */\n    tag_337:\n        /* \"#utility.yul\":26827:26830   */\n      0x00\n        /* \"#utility.yul\":26848:26915   */\n      tag_596\n        /* \"#utility.yul\":26912:26914   */\n      0x17\n        /* \"#utility.yul\":26907:26910   */\n      dup4\n        /* \"#utility.yul\":26848:26915   */\n      tag_306\n      jump\t// in\n    tag_596:\n        /* \"#utility.yul\":26841:26915   */\n      swap2\n      pop\n        /* \"#utility.yul\":26924:27017   */\n      tag_597\n        /* \"#utility.yul\":27013:27016   */\n      dup3\n        /* \"#utility.yul\":26924:27017   */\n      tag_336\n      jump\t// in\n    tag_597:\n        /* \"#utility.yul\":27042:27044   */\n      0x20\n        /* \"#utility.yul\":27037:27040   */\n      dup3\n        /* \"#utility.yul\":27033:27045   */\n      add\n        /* \"#utility.yul\":27026:27045   */\n      swap1\n      pop\n        /* \"#utility.yul\":26685:27051   */\n      swap2\n      swap1\n      pop\n      jump\t// out\n        /* \"#utility.yul\":27057:27476   */\n    tag_168:\n        /* \"#utility.yul\":27223:27227   */\n      0x00\n        /* \"#utility.yul\":27261:27263   */\n      0x20\n        /* \"#utility.yul\":27250:27259   */\n      dup3\n        /* \"#utility.yul\":27246:27264   */\n      add\n        /* \"#utility.yul\":27238:27264   */\n      swap1\n      pop\n        /* \"#utility.yul\":27310:27319   */\n      dup2\n        /* \"#utility.yul\":27304:27308   */\n      dup2\n        /* \"#utility.yul\":27300:27320   */\n      sub\n        /* \"#utility.yul\":27296:27297   */\n      0x00\n        /* \"#utility.yul\":27285:27294   */\n      dup4\n        /* \"#utility.yul\":27281:27298   */\n      add\n        /* \"#utility.yul\":27274:27321   */\n      mstore\n        /* \"#utility.yul\":27338:27469   */\n      tag_599\n        /* \"#utility.yul\":27464:27468   */\n      dup2\n        /* \"#utility.yul\":27338:27469   */\n      tag_337\n      jump\t// in\n    tag_599:\n        /* \"#utility.yul\":27330:27469   */\n      swap1\n      pop\n        /* \"#utility.yul\":27057:27476   */\n      swap2\n      swap1\n      pop\n      jump\t// out\n        /* \"#utility.yul\":27482:27600   */\n    tag_338:\n        /* \"#utility.yul\":27569:27593   */\n      tag_601\n        /* \"#utility.yul\":27587:27592   */\n      dup2\n        /* \"#utility.yul\":27569:27593   */\n      tag_299\n      jump\t// in\n    tag_601:\n        /* \"#utility.yul\":27564:27567   */\n      dup3\n        /* \"#utility.yul\":27557:27594   */\n      mstore\n        /* \"#utility.yul\":27482:27600   */\n      pop\n      pop\n      jump\t// out\n        /* \"#utility.yul\":27606:28029   */\n    tag_173:\n        /* \"#utility.yul\":27747:27751   */\n      0x00\n        /* \"#utility.yul\":27785:27787   */\n      0x40\n        /* \"#utility.yul\":27774:27783   */\n      dup3\n        /* \"#utility.yul\":27770:27788   */\n      add\n        /* \"#utility.yul\":27762:27788   */\n      swap1\n      pop\n        /* \"#utility.yul\":27834:27843   */\n      dup2\n        /* \"#utility.yul\":27828:27832   */\n      dup2\n        /* \"#utility.yul\":27824:27844   */\n      sub\n        /* \"#utility.yul\":27820:27821   */\n      0x00\n        /* \"#utility.yul\":27809:27818   */\n      dup4\n        /* \"#utility.yul\":27805:27822   */\n      add\n        /* \"#utility.yul\":27798:27845   */\n      mstore\n        /* \"#utility.yul\":27862:27940   */\n      tag_603\n        /* \"#utility.yul\":27935:27939   */\n      dup2\n        /* \"#utility.yul\":27926:27932   */\n      dup6\n        /* \"#utility.yul\":27862:27940   */\n      tag_307\n      jump\t// in\n    tag_603:\n        /* \"#utility.yul\":27854:27940   */\n      swap1\n      pop\n        /* \"#utility.yul\":27950:28022   */\n      tag_604\n        /* \"#utility.yul\":28018:28020   */\n      0x20\n        /* \"#utility.yul\":28007:28016   */\n      dup4\n        /* \"#utility.yul\":28003:28021   */\n      add\n        /* \"#utility.yul\":27994:28000   */\n      dup5\n        /* \"#utility.yul\":27950:28022   */\n      tag_338\n      jump\t// in\n    tag_604:\n        /* \"#utility.yul\":27606:28029   */\n      swap4\n      swap3\n      pop\n      pop\n      pop\n      jump\t// out\n        /* \"#utility.yul\":28035:28204   */\n    tag_339:\n        /* \"#utility.yul\":28175:28196   */\n      0x4349442063616e6e6f7420626520656d70747900000000000000000000000000\n        /* \"#utility.yul\":28171:28172   */\n      0x00\n        /* \"#utility.yul\":28163:28169   */\n      dup3\n        /* \"#utility.yul\":28159:28173   */\n      add\n        /* \"#utility.yul\":28152:28197   */\n      mstore\n        /* \"#utility.yul\":28035:28204   */\n      pop\n      jump\t// out\n        /* \"#utility.yul\":28210:28576   */\n    tag_340:\n        /* \"#utility.yul\":28352:28355   */\n      0x00\n        /* \"#utility.yul\":28373:28440   */\n      tag_607\n        /* \"#utility.yul\":28437:28439   */\n      0x13\n        /* \"#utility.yul\":28432:28435   */\n      dup4\n        /* \"#utility.yul\":28373:28440   */\n      tag_306\n      jump\t// in\n    tag_607:\n        /* \"#utility.yul\":28366:28440   */\n      swap2\n      pop\n        /* \"#utility.yul\":28449:28542   */\n      tag_608\n        /* \"#utility.yul\":28538:28541   */\n      dup3\n        /* \"#utility.yul\":28449:28542   */\n      tag_339\n      jump\t// in\n    tag_608:\n        /* \"#utility.yul\":28567:28569   */\n      0x20\n        /* \"#utility.yul\":28562:28565   */\n      dup3\n        /* \"#utility.yul\":28558:28570   */\n      add\n        /* \"#utility.yul\":28551:28570   */\n      swap1\n      pop\n        /* \"#utility.yul\":28210:28576   */\n      swap2\n      swap1\n      pop\n      jump\t// out\n        /* \"#utility.yul\":28582:29001   */\n    tag_178:\n        /* \"#utility.yul\":28748:28752   */\n      0x00\n        /* \"#utility.yul\":28786:28788   */\n      0x20\n        /* \"#utility.yul\":28775:28784   */\n      dup3\n        /* \"#utility.yul\":28771:28789   */\n      add\n        /* \"#utility.yul\":28763:28789   */\n      swap1\n      pop\n        /* \"#utility.yul\":28835:28844   */\n      dup2\n        /* \"#utility.yul\":28829:28833   */\n      dup2\n        /* \"#utility.yul\":28825:28845   */\n      sub\n        /* \"#utility.yul\":28821:28822   */\n      0x00\n        /* \"#utility.yul\":28810:28819   */\n      dup4\n        /* \"#utility.yul\":28806:28823   */\n      add\n        /* \"#utility.yul\":28799:28846   */\n      mstore\n        /* \"#utility.yul\":28863:28994   */\n      tag_610\n        /* \"#utility.yul\":28989:28993   */\n      dup2\n        /* \"#utility.yul\":28863:28994   */\n      tag_340\n      jump\t// in\n    tag_610:\n        /* \"#utility.yul\":28855:28994   */\n      swap1\n      pop\n        /* \"#utility.yul\":28582:29001   */\n      swap2\n      swap1\n      pop\n      jump\t// out\n        /* \"#utility.yul\":29007:29182   */\n    tag_341:\n        /* \"#utility.yul\":29147:29174   */\n      0x46696c65206e616d652063616e6e6f7420626520656d70747900000000000000\n        /* \"#utility.yul\":29143:29144   */\n      0x00\n        /* \"#utility.yul\":29135:29141   */\n      dup3\n        /* \"#utility.yul\":29131:29145   */\n      add\n        /* \"#utility.yul\":29124:29175   */\n      mstore\n        /* \"#utility.yul\":29007:29182   */\n      pop\n      jump\t// out\n        /* \"#utility.yul\":29188:29554   */\n    tag_342:\n        /* \"#utility.yul\":29330:29333   */\n      0x00\n        /* \"#utility.yul\":29351:29418   */\n      tag_613\n        /* \"#utility.yul\":29415:29417   */\n      0x19\n        /* \"#utility.yul\":29410:29413   */\n      dup4\n        /* \"#utility.yul\":29351:29418   */\n      tag_306\n      jump\t// in\n    tag_613:\n        /* \"#utility.yul\":29344:29418   */\n      swap2\n      pop\n        /* \"#utility.yul\":29427:29520   */\n      tag_614\n        /* \"#utility.yul\":29516:29519   */\n      dup3\n        /* \"#utility.yul\":29427:29520   */\n      tag_341\n      jump\t// in\n    tag_614:\n        /* \"#utility.yul\":29545:29547   */\n      0x20\n        /* \"#utility.yul\":29540:29543   */\n      dup3\n        /* \"#utility.yul\":29536:29548   */\n      add\n        /* \"#utility.yul\":29529:29548   */\n      swap1\n      pop\n        /* \"#utility.yul\":29188:29554   */\n      swap2\n      swap1\n      pop\n      jump\t// out\n        /* \"#utility.yul\":29560:29979   */\n    tag_181:\n        /* \"#utility.yul\":29726:29730   */\n      0x00\n        /* \"#utility.yul\":29764:29766   */\n      0x20\n        /* \"#utility.yul\":29753:29762   */\n      dup3\n        /* \"#utility.yul\":29749:29767   */\n      add\n        /* \"#utility.yul\":29741:29767   */\n      swap1\n      pop\n        /* \"#utility.yul\":29813:29822   */\n      dup2\n        /* \"#utility.yul\":29807:29811   */\n      dup2\n        /* \"#utility.yul\":29803:29823   */\n      sub\n        /* \"#utility.yul\":29799:29800   */\n      0x00\n        /* \"#utility.yul\":29788:29797   */\n      dup4\n        /* \"#utility.yul\":29784:29801   */\n      add\n        /* \"#utility.yul\":29777:29824   */\n      mstore\n        /* \"#utility.yul\":29841:29972   */\n      tag_616\n        /* \"#utility.yul\":29967:29971   */\n      dup2\n        /* \"#utility.yul\":29841:29972   */\n      tag_342\n      jump\t// in\n    tag_616:\n        /* \"#utility.yul\":29833:29972   */\n      swap1\n      pop\n        /* \"#utility.yul\":29560:29979   */\n      swap2\n      swap1\n      pop\n      jump\t// out\n        /* \"#utility.yul\":29985:30160   */\n    tag_343:\n        /* \"#utility.yul\":30125:30152   */\n      0x46696c6520747970652063616e6e6f7420626520656d70747900000000000000\n        /* \"#utility.yul\":30121:30122   */\n      0x00\n        /* \"#utility.yul\":30113:30119   */\n      dup3\n        /* \"#utility.yul\":30109:30123   */\n      add\n        /* \"#utility.yul\":30102:30153   */\n      mstore\n        /* \"#utility.yul\":29985:30160   */\n      pop\n      jump\t// out\n        /* \"#utility.yul\":30166:30532   */\n    tag_344:\n        /* \"#utility.yul\":30308:30311   */\n      0x00\n        /* \"#utility.yul\":30329:30396   */\n      tag_619\n        /* \"#utility.yul\":30393:30395   */\n      0x19\n        /* \"#utility.yul\":30388:30391   */\n      dup4\n        /* \"#utility.yul\":30329:30396   */\n      tag_306\n      jump\t// in\n    tag_619:\n        /* \"#utility.yul\":30322:30396   */\n      swap2\n      pop\n        /* \"#utility.yul\":30405:30498   */\n      tag_620\n        /* \"#utility.yul\":30494:30497   */\n      dup3\n        /* \"#utility.yul\":30405:30498   */\n      tag_343\n      jump\t// in\n    tag_620:\n        /* \"#utility.yul\":30523:30525   */\n      0x20\n        /* \"#utility.yul\":30518:30521   */\n      dup3\n        /* \"#utility.yul\":30514:30526   */\n      add\n        /* \"#utility.yul\":30507:30526   */\n      swap1\n      pop\n        /* \"#utility.yul\":30166:30532   */\n      swap2\n      swap1\n      pop\n      jump\t// out\n        /* \"#utility.yul\":30538:30957   */\n    tag_184:\n        /* \"#utility.yul\":30704:30708   */\n      0x00\n        /* \"#utility.yul\":30742:30744   */\n      0x20\n        /* \"#utility.yul\":30731:30740   */\n      dup3\n        /* \"#utility.yul\":30727:30745   */\n      add\n        /* \"#utility.yul\":30719:30745   */\n      swap1\n      pop\n        /* \"#utility.yul\":30791:30800   */\n      dup2\n        /* \"#utility.yul\":30785:30789   */\n      dup2\n        /* \"#utility.yul\":30781:30801   */\n      sub\n        /* \"#utility.yul\":30777:30778   */\n      0x00\n        /* \"#utility.yul\":30766:30775   */\n      dup4\n        /* \"#utility.yul\":30762:30779   */\n      add\n        /* \"#utility.yul\":30755:30802   */\n      mstore\n        /* \"#utility.yul\":30819:30950   */\n      tag_622\n        /* \"#utility.yul\":30945:30949   */\n      dup2\n        /* \"#utility.yul\":30819:30950   */\n      tag_344\n      jump\t// in\n    tag_622:\n        /* \"#utility.yul\":30811:30950   */\n      swap1\n      pop\n        /* \"#utility.yul\":30538:30957   */\n      swap2\n      swap1\n      pop\n      jump\t// out\n        /* \"#utility.yul\":30963:32304   */\n    tag_192:\n        /* \"#utility.yul\":31324:31328   */\n      0x00\n        /* \"#utility.yul\":31362:31365   */\n      0xe0\n        /* \"#utility.yul\":31351:31360   */\n      dup3\n        /* \"#utility.yul\":31347:31366   */\n      add\n        /* \"#utility.yul\":31339:31366   */\n      swap1\n      pop\n        /* \"#utility.yul\":31412:31421   */\n      dup2\n        /* \"#utility.yul\":31406:31410   */\n      dup2\n        /* \"#utility.yul\":31402:31422   */\n      sub\n        /* \"#utility.yul\":31398:31399   */\n      0x00\n        /* \"#utility.yul\":31387:31396   */\n      dup4\n        /* \"#utility.yul\":31383:31400   */\n      add\n        /* \"#utility.yul\":31376:31423   */\n      mstore\n        /* \"#utility.yul\":31440:31518   */\n      tag_624\n        /* \"#utility.yul\":31513:31517   */\n      dup2\n        /* \"#utility.yul\":31504:31510   */\n      dup11\n        /* \"#utility.yul\":31440:31518   */\n      tag_307\n      jump\t// in\n    tag_624:\n        /* \"#utility.yul\":31432:31518   */\n      swap1\n      pop\n        /* \"#utility.yul\":31565:31574   */\n      dup2\n        /* \"#utility.yul\":31559:31563   */\n      dup2\n        /* \"#utility.yul\":31555:31575   */\n      sub\n        /* \"#utility.yul\":31550:31552   */\n      0x20\n        /* \"#utility.yul\":31539:31548   */\n      dup4\n        /* \"#utility.yul\":31535:31553   */\n      add\n        /* \"#utility.yul\":31528:31576   */\n      mstore\n        /* \"#utility.yul\":31593:31671   */\n      tag_625\n        /* \"#utility.yul\":31666:31670   */\n      dup2\n        /* \"#utility.yul\":31657:31663   */\n      dup10\n        /* \"#utility.yul\":31593:31671   */\n      tag_307\n      jump\t// in\n    tag_625:\n        /* \"#utility.yul\":31585:31671   */\n      swap1\n      pop\n        /* \"#utility.yul\":31718:31727   */\n      dup2\n        /* \"#utility.yul\":31712:31716   */\n      dup2\n        /* \"#utility.yul\":31708:31728   */\n      sub\n        /* \"#utility.yul\":31703:31705   */\n      0x40\n        /* \"#utility.yul\":31692:31701   */\n      dup4\n        /* \"#utility.yul\":31688:31706   */\n      add\n        /* \"#utility.yul\":31681:31729   */\n      mstore\n        /* \"#utility.yul\":31746:31824   */\n      tag_626\n        /* \"#utility.yul\":31819:31823   */\n      dup2\n        /* \"#utility.yul\":31810:31816   */\n      dup9\n        /* \"#utility.yul\":31746:31824   */\n      tag_307\n      jump\t// in\n    tag_626:\n        /* \"#utility.yul\":31738:31824   */\n      swap1\n      pop\n        /* \"#utility.yul\":31834:31906   */\n      tag_627\n        /* \"#utility.yul\":31902:31904   */\n      0x60\n        /* \"#utility.yul\":31891:31900   */\n      dup4\n        /* \"#utility.yul\":31887:31905   */\n      add\n        /* \"#utility.yul\":31878:31884   */\n      dup8\n        /* \"#utility.yul\":31834:31906   */\n      tag_338\n      jump\t// in\n    tag_627:\n        /* \"#utility.yul\":31954:31963   */\n      dup2\n        /* \"#utility.yul\":31948:31952   */\n      dup2\n        /* \"#utility.yul\":31944:31964   */\n      sub\n        /* \"#utility.yul\":31938:31941   */\n      0x80\n        /* \"#utility.yul\":31927:31936   */\n      dup4\n        /* \"#utility.yul\":31923:31942   */\n      add\n        /* \"#utility.yul\":31916:31965   */\n      mstore\n        /* \"#utility.yul\":31982:32060   */\n      tag_628\n        /* \"#utility.yul\":32055:32059   */\n      dup2\n        /* \"#utility.yul\":32046:32052   */\n      dup7\n        /* \"#utility.yul\":31982:32060   */\n      tag_307\n      jump\t// in\n    tag_628:\n        /* \"#utility.yul\":31974:32060   */\n      swap1\n      pop\n        /* \"#utility.yul\":32108:32117   */\n      dup2\n        /* \"#utility.yul\":32102:32106   */\n      dup2\n        /* \"#utility.yul\":32098:32118   */\n      sub\n        /* \"#utility.yul\":32092:32095   */\n      0xa0\n        /* \"#utility.yul\":32081:32090   */\n      dup4\n        /* \"#utility.yul\":32077:32096   */\n      add\n        /* \"#utility.yul\":32070:32119   */\n      mstore\n        /* \"#utility.yul\":32136:32214   */\n      tag_629\n        /* \"#utility.yul\":32209:32213   */\n      dup2\n        /* \"#utility.yul\":32200:32206   */\n      dup6\n        /* \"#utility.yul\":32136:32214   */\n      tag_307\n      jump\t// in\n    tag_629:\n        /* \"#utility.yul\":32128:32214   */\n      swap1\n      pop\n        /* \"#utility.yul\":32224:32297   */\n      tag_630\n        /* \"#utility.yul\":32292:32295   */\n      0xc0\n        /* \"#utility.yul\":32281:32290   */\n      dup4\n        /* \"#utility.yul\":32277:32296   */\n      add\n        /* \"#utility.yul\":32268:32274   */\n      dup5\n        /* \"#utility.yul\":32224:32297   */\n      tag_338\n      jump\t// in\n    tag_630:\n        /* \"#utility.yul\":30963:32304   */\n      swap9\n      swap8\n      pop\n      pop\n      pop\n      pop\n      pop\n      pop\n      pop\n      pop\n      jump\t// out\n\n    auxdata: 0xa26469706673582212202a06684b137602abc5317566c38ea72fccea11257433b95e72e00fa36c68eb1764736f6c634300081a0033\n}\n",
				"bytecode": {
					"linkReferences": {},
					"object": "608060405234801561000f575f80fd5b50604051612cfd380380612cfd83398181016040528101906100319190610193565b805f908161003f91906103e7565b50506104b6565b5f604051905090565b5f80fd5b5f80fd5b5f80fd5b5f80fd5b5f601f19601f8301169050919050565b7f4e487b71000000000000000000000000000000000000000000000000000000005f52604160045260245ffd5b6100a58261005f565b810181811067ffffffffffffffff821117156100c4576100c361006f565b5b80604052505050565b5f6100d6610046565b90506100e2828261009c565b919050565b5f67ffffffffffffffff8211156101015761010061006f565b5b61010a8261005f565b9050602081019050919050565b8281835e5f83830152505050565b5f610137610132846100e7565b6100cd565b9050828152602081018484840111156101535761015261005b565b5b61015e848285610117565b509392505050565b5f82601f83011261017a57610179610057565b5b815161018a848260208601610125565b91505092915050565b5f602082840312156101a8576101a761004f565b5b5f82015167ffffffffffffffff8111156101c5576101c4610053565b5b6101d184828501610166565b91505092915050565b5f81519050919050565b7f4e487b71000000000000000000000000000000000000000000000000000000005f52602260045260245ffd5b5f600282049050600182168061022857607f821691505b60208210810361023b5761023a6101e4565b5b50919050565b5f819050815f5260205f209050919050565b5f6020601f8301049050919050565b5f82821b905092915050565b5f6008830261029d7fffffffffffffffffffffffffffffffffffffffffffffffffffffffffffffffff82610262565b6102a78683610262565b95508019841693508086168417925050509392505050565b5f819050919050565b5f819050919050565b5f6102eb6102e66102e1846102bf565b6102c8565b6102bf565b9050919050565b5f819050919050565b610304836102d1565b610318610310826102f2565b84845461026e565b825550505050565b5f90565b61032c610320565b6103378184846102fb565b505050565b5b8181101561035a5761034f5f82610324565b60018101905061033d565b5050565b601f82111561039f5761037081610241565b61037984610253565b81016020851015610388578190505b61039c61039485610253565b83018261033c565b50505b505050565b5f82821c905092915050565b5f6103bf5f19846008026103a4565b1980831691505092915050565b5f6103d783836103b0565b9150826002028217905092915050565b6103f0826101da565b67ffffffffffffffff8111156104095761040861006f565b5b6104138254610211565b61041e82828561035e565b5f60209050601f83116001811461044f575f841561043d578287015190505b61044785826103cc565b8655506104ae565b601f19841661045d86610241565b5f5b828110156104845784890151825560018201915060208501945060208101905061045f565b868310156104a1578489015161049d601f8916826103b0565b8355505b6001600288020188555050505b505050505050565b61283a806104c35f395ff3fe608060405234801561000f575f80fd5b5060043610610060575f3560e01c80633d7403a3146100645780633e2d245814610080578063433bf37b146100b657806345e660c9146100ec578063d4277f9814610122578063e21f37ce1461013e575b5f80fd5b61007e600480360381019061007991906119f2565b61015c565b005b61009a60048036038101906100959190611a93565b610233565b6040516100ad9796959493929190611c99565b60405180910390f35b6100d060048036038101906100cb9190611a93565b610465565b6040516100e39796959493929190611c99565b60405180910390f35b61010660048036038101906101019190611d61565b610c0b565b6040516101199796959493929190611c99565b60405180910390f35b61013c60048036038101906101379190611dcd565b610f20565b005b61014661118e565b6040516101539190611f52565b60405180910390f35b5f80805461016990611f9f565b80601f016020809104026020016040519081016040528092919081815260200182805461019590611f9f565b80156101e05780601f106101b7576101008083540402835291602001916101e0565b820191905f5260205f20905b8154815290600101906020018083116101c357829003601f168201915b50505050509050815f90816101f5919061216c565b507ff91d506d7335e83e4869a58cd98e0557cdcef6f507ba1e52725521305626d05b818360405161022792919061223b565b60405180910390a15050565b60608060608060608060608773ffffffffffffffffffffffffffffffffffffffff163373ffffffffffffffffffffffffffffffffffffffff16146102ac576040517f08c379a00000000000000000000000000000000000000000000000000000000081526004016102a3906122ba565b60405180910390fd5b5f60015f8a73ffffffffffffffffffffffffffffffffffffffff1673ffffffffffffffffffffffffffffffffffffffff1681526020019081526020015f20805490501161032e576040517f08c379a000000000000000000000000000000000000000000000000000000000815260040161032590612322565b60405180910390fd5b5f60015f8a73ffffffffffffffffffffffffffffffffffffffff1673ffffffffffffffffffffffffffffffffffffffff1681526020019081526020015f208054905090505f5b818110156103fe575f60015f8c73ffffffffffffffffffffffffffffffffffffffff1673ffffffffffffffffffffffffffffffffffffffff1681526020019081526020015f2082815481106103cc576103cb612340565b5b905f5260205f2090600802016007015f6101000a81548160ff0219169083151502179055508080600101915050610374565b508873ffffffffffffffffffffffffffffffffffffffff167fac3bda4dd8cefc7c083649cc37a6edd7fe0f6c6b19e8e8451935185b07695d9860405160405180910390a261044b89611219565b975097509750975097509750975050919395979092949650565b60608060608060608060605f60015f8a73ffffffffffffffffffffffffffffffffffffffff1673ffffffffffffffffffffffffffffffffffffffff1681526020019081526020015f208054905090505f805b8281101561054b5760015f8c73ffffffffffffffffffffffffffffffffffffffff1673ffffffffffffffffffffffffffffffffffffffff1681526020019081526020015f20818154811061050e5761050d612340565b5b905f5260205f2090600802016007015f9054906101000a900460ff161561053e57818061053a9061239a565b9250505b80806001019150506104b7565b508067ffffffffffffffff811115610566576105656118ce565b5b60405190808252806020026020018201604052801561059957816020015b60608152602001906001900390816105845790505b5098508067ffffffffffffffff8111156105b6576105b56118ce565b5b6040519080825280602002602001820160405280156105e957816020015b60608152602001906001900390816105d45790505b5097508067ffffffffffffffff811115610606576106056118ce565b5b60405190808252806020026020018201604052801561063957816020015b60608152602001906001900390816106245790505b5096508067ffffffffffffffff811115610656576106556118ce565b5b6040519080825280602002602001820160405280156106845781602001602082028036833780820191505090505b5095508067ffffffffffffffff8111156106a1576106a06118ce565b5b6040519080825280602002602001820160405280156106d457816020015b60608152602001906001900390816106bf5790505b5094508067ffffffffffffffff8111156106f1576106f06118ce565b5b60405190808252806020026020018201604052801561072457816020015b606081526020019060019003908161070f5790505b5093508067ffffffffffffffff811115610741576107406118ce565b5b60405190808252806020026020018201604052801561076f5781602001602082028036833780820191505090505b5092505f805b83811015610bfc5760015f8d73ffffffffffffffffffffffffffffffffffffffff1673ffffffffffffffffffffffffffffffffffffffff1681526020019081526020015f2081815481106107cc576107cb612340565b5b905f5260205f2090600802016007015f9054906101000a900460ff1615610bef575f60015f8e73ffffffffffffffffffffffffffffffffffffffff1673ffffffffffffffffffffffffffffffffffffffff1681526020019081526020015f20828154811061083d5761083c612340565b5b905f5260205f2090600802019050805f01805461085990611f9f565b80601f016020809104026020016040519081016040528092919081815260200182805461088590611f9f565b80156108d05780601f106108a7576101008083540402835291602001916108d0565b820191905f5260205f20905b8154815290600101906020018083116108b357829003601f168201915b50505050508c84815181106108e8576108e7612340565b5b602002602001018190525080600101805461090290611f9f565b80601f016020809104026020016040519081016040528092919081815260200182805461092e90611f9f565b80156109795780601f1061095057610100808354040283529160200191610979565b820191905f5260205f20905b81548152906001019060200180831161095c57829003601f168201915b50505050508b848151811061099157610990612340565b5b60200260200101819052508060020180546109ab90611f9f565b80601f01602080910402602001604051908101604052809291908181526020018280546109d790611f9f565b8015610a225780601f106109f957610100808354040283529160200191610a22565b820191905f5260205f20905b815481529060010190602001808311610a0557829003601f168201915b50505050508a8481518110610a3a57610a39612340565b5b60200260200101819052508060030154898481518110610a5d57610a5c612340565b5b602002602001018181525050806004018054610a7890611f9f565b80601f0160208091040260200160405190810160405280929190818152602001828054610aa490611f9f565b8015610aef5780601f10610ac657610100808354040283529160200191610aef565b820191905f5260205f20905b815481529060010190602001808311610ad257829003601f168201915b5050505050888481518110610b0757610b06612340565b5b6020026020010181905250806005018054610b2190611f9f565b80601f0160208091040260200160405190810160405280929190818152602001828054610b4d90611f9f565b8015610b985780601f10610b6f57610100808354040283529160200191610b98565b820191905f5260205f20905b815481529060010190602001808311610b7b57829003601f168201915b5050505050878481518110610bb057610baf612340565b5b60200260200101819052508060060154868481518110610bd357610bd2612340565b5b6020026020010181815250508280610bea9061239a565b935050505b8080600101915050610775565b50505050919395979092949650565b60608060608060608060608973ffffffffffffffffffffffffffffffffffffffff163373ffffffffffffffffffffffffffffffffffffffff1614610c84576040517f08c379a0000000000000000000000000000000000000000000000000000000008152600401610c7b9061242b565b60405180910390fd5b5f60015f8c73ffffffffffffffffffffffffffffffffffffffff1673ffffffffffffffffffffffffffffffffffffffff1681526020019081526020015f208054905090505f8111610d0a576040517f08c379a0000000000000000000000000000000000000000000000000000000008152600401610d0190612322565b60405180910390fd5b808a10610d4c576040517f08c379a0000000000000000000000000000000000000000000000000000000008152600401610d4390612493565b60405180910390fd5b88604051602001610d5d91906124eb565b6040516020818303038152906040528051906020012060015f8d73ffffffffffffffffffffffffffffffffffffffff1673ffffffffffffffffffffffffffffffffffffffff1681526020019081526020015f208b81548110610dc257610dc1612340565b5b905f5260205f2090600802015f01604051602001610de09190612581565b6040516020818303038152906040528051906020012014610e36576040517f08c379a0000000000000000000000000000000000000000000000000000000008152600401610e2d906125e1565b60405180910390fd5b5f60015f8d73ffffffffffffffffffffffffffffffffffffffff1673ffffffffffffffffffffffffffffffffffffffff1681526020019081526020015f208b81548110610e8657610e85612340565b5b905f5260205f2090600802016007015f6101000a81548160ff0219169083151502179055508a73ffffffffffffffffffffffffffffffffffffffff167f4f290849018eb780affafba63563006086546149769e7b527f0e61c4f282de078a8c604051610ef392919061260e565b60405180910390a2610f048b611219565b9750975097509750975097509750509397509397509397909450565b5f875111610f63576040517f08c379a0000000000000000000000000000000000000000000000000000000008152600401610f5a90612686565b60405180910390fd5b5f865111610fa6576040517f08c379a0000000000000000000000000000000000000000000000000000000008152600401610f9d906126ee565b60405180910390fd5b5f855111610fe9576040517f08c379a0000000000000000000000000000000000000000000000000000000008152600401610fe090612756565b60405180910390fd5b60015f8973ffffffffffffffffffffffffffffffffffffffff1673ffffffffffffffffffffffffffffffffffffffff1681526020019081526020015f2060405180610100016040528089815260200188815260200187815260200186815260200185815260200184815260200183815260200160011515815250908060018154018082558091505060019003905f5260205f2090600802015f909190919091505f820151815f01908161109c919061216c565b5060208201518160010190816110b2919061216c565b5060408201518160020190816110c8919061216c565b506060820151816003015560808201518160040190816110e8919061216c565b5060a08201518160050190816110fe919061216c565b5060c0820151816006015560e0820151816007015f6101000a81548160ff02191690831515021790555050508773ffffffffffffffffffffffffffffffffffffffff167fad8603a3fe1d55f26ce13346f2c7f31f8624ac0b9cf6f1a0586469eec64732408888888888888860405161117c9796959493929190612774565b60405180910390a25050505050505050565b5f805461119a90611f9f565b80601f01602080910402602001604051908101604052809291908181526020018280546111c690611f9f565b80156112115780601f106111e857610100808354040283529160200191611211565b820191905f5260205f20905b8154815290600101906020018083116111f457829003601f168201915b505050505081565b60608060608060608060605f60015f8a73ffffffffffffffffffffffffffffffffffffffff1673ffffffffffffffffffffffffffffffffffffffff1681526020019081526020015f208054905090508067ffffffffffffffff811115611282576112816118ce565b5b6040519080825280602002602001820160405280156112b557816020015b60608152602001906001900390816112a05790505b5097508067ffffffffffffffff8111156112d2576112d16118ce565b5b60405190808252806020026020018201604052801561130557816020015b60608152602001906001900390816112f05790505b5096508067ffffffffffffffff811115611322576113216118ce565b5b60405190808252806020026020018201604052801561135557816020015b60608152602001906001900390816113405790505b5095508067ffffffffffffffff811115611372576113716118ce565b5b6040519080825280602002602001820160405280156113a05781602001602082028036833780820191505090505b5094508067ffffffffffffffff8111156113bd576113bc6118ce565b5b6040519080825280602002602001820160405280156113f057816020015b60608152602001906001900390816113db5790505b5093508067ffffffffffffffff81111561140d5761140c6118ce565b5b60405190808252806020026020018201604052801561144057816020015b606081526020019060019003908161142b5790505b5092508067ffffffffffffffff81111561145d5761145c6118ce565b5b60405190808252806020026020018201604052801561148b5781602001602082028036833780820191505090505b5091505f5b81811015611898575f60015f8c73ffffffffffffffffffffffffffffffffffffffff1673ffffffffffffffffffffffffffffffffffffffff1681526020019081526020015f2082815481106114e8576114e7612340565b5b905f5260205f2090600802019050805f01805461150490611f9f565b80601f016020809104026020016040519081016040528092919081815260200182805461153090611f9f565b801561157b5780601f106115525761010080835404028352916020019161157b565b820191905f5260205f20905b81548152906001019060200180831161155e57829003601f168201915b50505050508a838151811061159357611592612340565b5b60200260200101819052508060010180546115ad90611f9f565b80601f01602080910402602001604051908101604052809291908181526020018280546115d990611f9f565b80156116245780601f106115fb57610100808354040283529160200191611624565b820191905f5260205f20905b81548152906001019060200180831161160757829003601f168201915b505050505089838151811061163c5761163b612340565b5b602002602001018190525080600201805461165690611f9f565b80601f016020809104026020016040519081016040528092919081815260200182805461168290611f9f565b80156116cd5780601f106116a4576101008083540402835291602001916116cd565b820191905f5260205f20905b8154815290600101906020018083116116b057829003601f168201915b50505050508883815181106116e5576116e4612340565b5b6020026020010181905250806003015487838151811061170857611707612340565b5b60200260200101818152505080600401805461172390611f9f565b80601f016020809104026020016040519081016040528092919081815260200182805461174f90611f9f565b801561179a5780601f106117715761010080835404028352916020019161179a565b820191905f5260205f20905b81548152906001019060200180831161177d57829003601f168201915b50505050508683815181106117b2576117b1612340565b5b60200260200101819052508060050180546117cc90611f9f565b80601f01602080910402602001604051908101604052809291908181526020018280546117f890611f9f565b80156118435780601f1061181a57610100808354040283529160200191611843565b820191905f5260205f20905b81548152906001019060200180831161182657829003601f168201915b505050505085838151811061185b5761185a612340565b5b6020026020010181905250806006015484838151811061187e5761187d612340565b5b602002602001018181525050508080600101915050611490565b5050919395979092949650565b5f604051905090565b5f80fd5b5f80fd5b5f80fd5b5f80fd5b5f601f19601f8301169050919050565b7f4e487b71000000000000000000000000000000000000000000000000000000005f52604160045260245ffd5b611904826118be565b810181811067ffffffffffffffff82111715611923576119226118ce565b5b80604052505050565b5f6119356118a5565b905061194182826118fb565b919050565b5f67ffffffffffffffff8211156119605761195f6118ce565b5b611969826118be565b9050602081019050919050565b828183375f83830152505050565b5f61199661199184611946565b61192c565b9050828152602081018484840111156119b2576119b16118ba565b5b6119bd848285611976565b509392505050565b5f82601f8301126119d9576119d86118b6565b5b81356119e9848260208601611984565b91505092915050565b5f60208284031215611a0757611a066118ae565b5b5f82013567ffffffffffffffff811115611a2457611a236118b2565b5b611a30848285016119c5565b91505092915050565b5f73ffffffffffffffffffffffffffffffffffffffff82169050919050565b5f611a6282611a39565b9050919050565b611a7281611a58565b8114611a7c575f80fd5b50565b5f81359050611a8d81611a69565b92915050565b5f60208284031215611aa857611aa76118ae565b5b5f611ab584828501611a7f565b91505092915050565b5f81519050919050565b5f82825260208201905092915050565b5f819050602082019050919050565b5f81519050919050565b5f82825260208201905092915050565b8281835e5f83830152505050565b5f611b1982611ae7565b611b238185611af1565b9350611b33818560208601611b01565b611b3c816118be565b840191505092915050565b5f611b528383611b0f565b905092915050565b5f602082019050919050565b5f611b7082611abe565b611b7a8185611ac8565b935083602082028501611b8c85611ad8565b805f5b85811015611bc75784840389528151611ba88582611b47565b9450611bb383611b5a565b925060208a01995050600181019050611b8f565b50829750879550505050505092915050565b5f81519050919050565b5f82825260208201905092915050565b5f819050602082019050919050565b5f819050919050565b611c1481611c02565b82525050565b5f611c258383611c0b565b60208301905092915050565b5f602082019050919050565b5f611c4782611bd9565b611c518185611be3565b9350611c5c83611bf3565b805f5b83811015611c8c578151611c738882611c1a565b9750611c7e83611c31565b925050600181019050611c5f565b5085935050505092915050565b5f60e0820190508181035f830152611cb1818a611b66565b90508181036020830152611cc58189611b66565b90508181036040830152611cd98188611b66565b90508181036060830152611ced8187611c3d565b90508181036080830152611d018186611b66565b905081810360a0830152611d158185611b66565b905081810360c0830152611d298184611c3d565b905098975050505050505050565b611d4081611c02565b8114611d4a575f80fd5b50565b5f81359050611d5b81611d37565b92915050565b5f805f60608486031215611d7857611d776118ae565b5b5f611d8586828701611a7f565b9350506020611d9686828701611d4d565b925050604084013567ffffffffffffffff811115611db757611db66118b2565b5b611dc3868287016119c5565b9150509250925092565b5f805f805f805f80610100898b031215611dea57611de96118ae565b5b5f611df78b828c01611a7f565b985050602089013567ffffffffffffffff811115611e1857611e176118b2565b5b611e248b828c016119c5565b975050604089013567ffffffffffffffff811115611e4557611e446118b2565b5b611e518b828c016119c5565b965050606089013567ffffffffffffffff811115611e7257611e716118b2565b5b611e7e8b828c016119c5565b9550506080611e8f8b828c01611d4d565b94505060a089013567ffffffffffffffff811115611eb057611eaf6118b2565b5b611ebc8b828c016119c5565b93505060c089013567ffffffffffffffff811115611edd57611edc6118b2565b5b611ee98b828c016119c5565b92505060e0611efa8b828c01611d4d565b9150509295985092959890939650565b5f82825260208201905092915050565b5f611f2482611ae7565b611f2e8185611f0a565b9350611f3e818560208601611b01565b611f47816118be565b840191505092915050565b5f6020820190508181035f830152611f6a8184611f1a565b905092915050565b7f4e487b71000000000000000000000000000000000000000000000000000000005f52602260045260245ffd5b5f6002820490506001821680611fb657607f821691505b602082108103611fc957611fc8611f72565b5b50919050565b5f819050815f5260205f209050919050565b5f6020601f8301049050919050565b5f82821b905092915050565b5f6008830261202b7fffffffffffffffffffffffffffffffffffffffffffffffffffffffffffffffff82611ff0565b6120358683611ff0565b95508019841693508086168417925050509392505050565b5f819050919050565b5f61207061206b61206684611c02565b61204d565b611c02565b9050919050565b5f819050919050565b61208983612056565b61209d61209582612077565b848454611ffc565b825550505050565b5f90565b6120b16120a5565b6120bc818484612080565b505050565b5b818110156120df576120d45f826120a9565b6001810190506120c2565b5050565b601f821115612124576120f581611fcf565b6120fe84611fe1565b8101602085101561210d578190505b61212161211985611fe1565b8301826120c1565b50505b505050565b5f82821c905092915050565b5f6121445f1984600802612129565b1980831691505092915050565b5f61215c8383612135565b9150826002028217905092915050565b61217582611ae7565b67ffffffffffffffff81111561218e5761218d6118ce565b5b6121988254611f9f565b6121a38282856120e3565b5f60209050601f8311600181146121d4575f84156121c2578287015190505b6121cc8582612151565b865550612233565b601f1984166121e286611fcf565b5f5b82811015612209578489015182556001820191506020850194506020810190506121e4565b868310156122265784890151612222601f891682612135565b8355505b6001600288020188555050505b505050505050565b5f6040820190508181035f8301526122538185611f1a565b905081810360208301526122678184611f1a565b90509392505050565b7f4e6f7420617574686f72697a656420746f20636c6561722066696c65730000005f82015250565b5f6122a4601d83611f0a565b91506122af82612270565b602082019050919050565b5f6020820190508181035f8301526122d181612298565b9050919050565b7f4e6f2066696c657320657869737420666f7220746869732075736572000000005f82015250565b5f61230c601c83611f0a565b9150612317826122d8565b602082019050919050565b5f6020820190508181035f83015261233981612300565b9050919050565b7f4e487b71000000000000000000000000000000000000000000000000000000005f52603260045260245ffd5b7f4e487b71000000000000000000000000000000000000000000000000000000005f52601160045260245ffd5b5f6123a482611c02565b91507fffffffffffffffffffffffffffffffffffffffffffffffffffffffffffffffff82036123d6576123d561236d565b5b600182019050919050565b7f4e6f7420617574686f72697a656420746f2064656c6574652066696c657300005f82015250565b5f612415601e83611f0a565b9150612420826123e1565b602082019050919050565b5f6020820190508181035f83015261244281612409565b9050919050565b7f496e76616c696420696e646578000000000000000000000000000000000000005f82015250565b5f61247d600d83611f0a565b915061248882612449565b602082019050919050565b5f6020820190508181035f8301526124aa81612471565b9050919050565b5f81905092915050565b5f6124c582611ae7565b6124cf81856124b1565b93506124df818560208601611b01565b80840191505092915050565b5f6124f682846124bb565b915081905092915050565b5f815461250d81611f9f565b61251781866124b1565b9450600182165f8114612531576001811461254657612578565b60ff1983168652811515820286019350612578565b61254f85611fcf565b5f5b8381101561257057815481890152600182019150602081019050612551565b838801955050505b50505092915050565b5f61258c8284612501565b915081905092915050565b7f46696c652043494420646f6573206e6f74206d617463680000000000000000005f82015250565b5f6125cb601783611f0a565b91506125d682612597565b602082019050919050565b5f6020820190508181035f8301526125f8816125bf565b9050919050565b61260881611c02565b82525050565b5f6040820190508181035f8301526126268185611f1a565b905061263560208301846125ff565b9392505050565b7f4349442063616e6e6f7420626520656d707479000000000000000000000000005f82015250565b5f612670601383611f0a565b915061267b8261263c565b602082019050919050565b5f6020820190508181035f83015261269d81612664565b9050919050565b7f46696c65206e616d652063616e6e6f7420626520656d707479000000000000005f82015250565b5f6126d8601983611f0a565b91506126e3826126a4565b602082019050919050565b5f6020820190508181035f830152612705816126cc565b9050919050565b7f46696c6520747970652063616e6e6f7420626520656d707479000000000000005f82015250565b5f612740601983611f0a565b915061274b8261270c565b602082019050919050565b5f6020820190508181035f83015261276d81612734565b9050919050565b5f60e0820190508181035f83015261278c818a611f1a565b905081810360208301526127a08189611f1a565b905081810360408301526127b48188611f1a565b90506127c360608301876125ff565b81810360808301526127d58186611f1a565b905081810360a08301526127e98185611f1a565b90506127f860c08301846125ff565b9897505050505050505056fea26469706673582212202a06684b137602abc5317566c38ea72fccea11257433b95e72e00fa36c68eb1764736f6c634300081a0033",
					"opcodes": "PUSH1 0x80 PUSH1 0x40 MSTORE CALLVALUE DUP1 ISZERO PUSH2 0xF JUMPI PUSH0 DUP1 REVERT JUMPDEST POP PUSH1 0x40 MLOAD PUSH2 0x2CFD CODESIZE SUB DUP1 PUSH2 0x2CFD DUP4 CODECOPY DUP2 DUP2 ADD PUSH1 0x40 MSTORE DUP2 ADD SWAP1 PUSH2 0x31 SWAP2 SWAP1 PUSH2 0x193 JUMP JUMPDEST DUP1 PUSH0 SWAP1 DUP2 PUSH2 0x3F SWAP2 SWAP1 PUSH2 0x3E7 JUMP JUMPDEST POP POP PUSH2 0x4B6 JUMP JUMPDEST PUSH0 PUSH1 0x40 MLOAD SWAP1 POP SWAP1 JUMP JUMPDEST PUSH0 DUP1 REVERT JUMPDEST PUSH0 DUP1 REVERT JUMPDEST PUSH0 DUP1 REVERT JUMPDEST PUSH0 DUP1 REVERT JUMPDEST PUSH0 PUSH1 0x1F NOT PUSH1 0x1F DUP4 ADD AND SWAP1 POP SWAP2 SWAP1 POP JUMP JUMPDEST PUSH32 0x4E487B7100000000000000000000000000000000000000000000000000000000 PUSH0 MSTORE PUSH1 0x41 PUSH1 0x4 MSTORE PUSH1 0x24 PUSH0 REVERT JUMPDEST PUSH2 0xA5 DUP3 PUSH2 0x5F JUMP JUMPDEST DUP2 ADD DUP2 DUP2 LT PUSH8 0xFFFFFFFFFFFFFFFF DUP3 GT OR ISZERO PUSH2 0xC4 JUMPI PUSH2 0xC3 PUSH2 0x6F JUMP JUMPDEST JUMPDEST DUP1 PUSH1 0x40 MSTORE POP POP POP JUMP JUMPDEST PUSH0 PUSH2 0xD6 PUSH2 0x46 JUMP JUMPDEST SWAP1 POP PUSH2 0xE2 DUP3 DUP3 PUSH2 0x9C JUMP JUMPDEST SWAP2 SWAP1 POP JUMP JUMPDEST PUSH0 PUSH8 0xFFFFFFFFFFFFFFFF DUP3 GT ISZERO PUSH2 0x101 JUMPI PUSH2 0x100 PUSH2 0x6F JUMP JUMPDEST JUMPDEST PUSH2 0x10A DUP3 PUSH2 0x5F JUMP JUMPDEST SWAP1 POP PUSH1 0x20 DUP2 ADD SWAP1 POP SWAP2 SWAP1 POP JUMP JUMPDEST DUP3 DUP2 DUP4 MCOPY PUSH0 DUP4 DUP4 ADD MSTORE POP POP POP JUMP JUMPDEST PUSH0 PUSH2 0x137 PUSH2 0x132 DUP5 PUSH2 0xE7 JUMP JUMPDEST PUSH2 0xCD JUMP JUMPDEST SWAP1 POP DUP3 DUP2 MSTORE PUSH1 0x20 DUP2 ADD DUP5 DUP5 DUP5 ADD GT ISZERO PUSH2 0x153 JUMPI PUSH2 0x152 PUSH2 0x5B JUMP JUMPDEST JUMPDEST PUSH2 0x15E DUP5 DUP3 DUP6 PUSH2 0x117 JUMP JUMPDEST POP SWAP4 SWAP3 POP POP POP JUMP JUMPDEST PUSH0 DUP3 PUSH1 0x1F DUP4 ADD SLT PUSH2 0x17A JUMPI PUSH2 0x179 PUSH2 0x57 JUMP JUMPDEST JUMPDEST DUP2 MLOAD PUSH2 0x18A DUP5 DUP3 PUSH1 0x20 DUP7 ADD PUSH2 0x125 JUMP JUMPDEST SWAP2 POP POP SWAP3 SWAP2 POP POP JUMP JUMPDEST PUSH0 PUSH1 0x20 DUP3 DUP5 SUB SLT ISZERO PUSH2 0x1A8 JUMPI PUSH2 0x1A7 PUSH2 0x4F JUMP JUMPDEST JUMPDEST PUSH0 DUP3 ADD MLOAD PUSH8 0xFFFFFFFFFFFFFFFF DUP2 GT ISZERO PUSH2 0x1C5 JUMPI PUSH2 0x1C4 PUSH2 0x53 JUMP JUMPDEST JUMPDEST PUSH2 0x1D1 DUP5 DUP3 DUP6 ADD PUSH2 0x166 JUMP JUMPDEST SWAP2 POP POP SWAP3 SWAP2 POP POP JUMP JUMPDEST PUSH0 DUP2 MLOAD SWAP1 POP SWAP2 SWAP1 POP JUMP JUMPDEST PUSH32 0x4E487B7100000000000000000000000000000000000000000000000000000000 PUSH0 MSTORE PUSH1 0x22 PUSH1 0x4 MSTORE PUSH1 0x24 PUSH0 REVERT JUMPDEST PUSH0 PUSH1 0x2 DUP3 DIV SWAP1 POP PUSH1 0x1 DUP3 AND DUP1 PUSH2 0x228 JUMPI PUSH1 0x7F DUP3 AND SWAP2 POP JUMPDEST PUSH1 0x20 DUP3 LT DUP2 SUB PUSH2 0x23B JUMPI PUSH2 0x23A PUSH2 0x1E4 JUMP JUMPDEST JUMPDEST POP SWAP2 SWAP1 POP JUMP JUMPDEST PUSH0 DUP2 SWAP1 POP DUP2 PUSH0 MSTORE PUSH1 0x20 PUSH0 KECCAK256 SWAP1 POP SWAP2 SWAP1 POP JUMP JUMPDEST PUSH0 PUSH1 0x20 PUSH1 0x1F DUP4 ADD DIV SWAP1 POP SWAP2 SWAP1 POP JUMP JUMPDEST PUSH0 DUP3 DUP3 SHL SWAP1 POP SWAP3 SWAP2 POP POP JUMP JUMPDEST PUSH0 PUSH1 0x8 DUP4 MUL PUSH2 0x29D PUSH32 0xFFFFFFFFFFFFFFFFFFFFFFFFFFFFFFFFFFFFFFFFFFFFFFFFFFFFFFFFFFFFFFFF DUP3 PUSH2 0x262 JUMP JUMPDEST PUSH2 0x2A7 DUP7 DUP4 PUSH2 0x262 JUMP JUMPDEST SWAP6 POP DUP1 NOT DUP5 AND SWAP4 POP DUP1 DUP7 AND DUP5 OR SWAP3 POP POP POP SWAP4 SWAP3 POP POP POP JUMP JUMPDEST PUSH0 DUP2 SWAP1 POP SWAP2 SWAP1 POP JUMP JUMPDEST PUSH0 DUP2 SWAP1 POP SWAP2 SWAP1 POP JUMP JUMPDEST PUSH0 PUSH2 0x2EB PUSH2 0x2E6 PUSH2 0x2E1 DUP5 PUSH2 0x2BF JUMP JUMPDEST PUSH2 0x2C8 JUMP JUMPDEST PUSH2 0x2BF JUMP JUMPDEST SWAP1 POP SWAP2 SWAP1 POP JUMP JUMPDEST PUSH0 DUP2 SWAP1 POP SWAP2 SWAP1 POP JUMP JUMPDEST PUSH2 0x304 DUP4 PUSH2 0x2D1 JUMP JUMPDEST PUSH2 0x318 PUSH2 0x310 DUP3 PUSH2 0x2F2 JUMP JUMPDEST DUP5 DUP5 SLOAD PUSH2 0x26E JUMP JUMPDEST DUP3 SSTORE POP POP POP POP JUMP JUMPDEST PUSH0 SWAP1 JUMP JUMPDEST PUSH2 0x32C PUSH2 0x320 JUMP JUMPDEST PUSH2 0x337 DUP2 DUP5 DUP5 PUSH2 0x2FB JUMP JUMPDEST POP POP POP JUMP JUMPDEST JUMPDEST DUP2 DUP2 LT ISZERO PUSH2 0x35A JUMPI PUSH2 0x34F PUSH0 DUP3 PUSH2 0x324 JUMP JUMPDEST PUSH1 0x1 DUP2 ADD SWAP1 POP PUSH2 0x33D JUMP JUMPDEST POP POP JUMP JUMPDEST PUSH1 0x1F DUP3 GT ISZERO PUSH2 0x39F JUMPI PUSH2 0x370 DUP2 PUSH2 0x241 JUMP JUMPDEST PUSH2 0x379 DUP5 PUSH2 0x253 JUMP JUMPDEST DUP2 ADD PUSH1 0x20 DUP6 LT ISZERO PUSH2 0x388 JUMPI DUP2 SWAP1 POP JUMPDEST PUSH2 0x39C PUSH2 0x394 DUP6 PUSH2 0x253 JUMP JUMPDEST DUP4 ADD DUP3 PUSH2 0x33C JUMP JUMPDEST POP POP JUMPDEST POP POP POP JUMP JUMPDEST PUSH0 DUP3 DUP3 SHR SWAP1 POP SWAP3 SWAP2 POP POP JUMP JUMPDEST PUSH0 PUSH2 0x3BF PUSH0 NOT DUP5 PUSH1 0x8 MUL PUSH2 0x3A4 JUMP JUMPDEST NOT DUP1 DUP4 AND SWAP2 POP POP SWAP3 SWAP2 POP POP JUMP JUMPDEST PUSH0 PUSH2 0x3D7 DUP4 DUP4 PUSH2 0x3B0 JUMP JUMPDEST SWAP2 POP DUP3 PUSH1 0x2 MUL DUP3 OR SWAP1 POP SWAP3 SWAP2 POP POP JUMP JUMPDEST PUSH2 0x3F0 DUP3 PUSH2 0x1DA JUMP JUMPDEST PUSH8 0xFFFFFFFFFFFFFFFF DUP2 GT ISZERO PUSH2 0x409 JUMPI PUSH2 0x408 PUSH2 0x6F JUMP JUMPDEST JUMPDEST PUSH2 0x413 DUP3 SLOAD PUSH2 0x211 JUMP JUMPDEST PUSH2 0x41E DUP3 DUP3 DUP6 PUSH2 0x35E JUMP JUMPDEST PUSH0 PUSH1 0x20 SWAP1 POP PUSH1 0x1F DUP4 GT PUSH1 0x1 DUP2 EQ PUSH2 0x44F JUMPI PUSH0 DUP5 ISZERO PUSH2 0x43D JUMPI DUP3 DUP8 ADD MLOAD SWAP1 POP JUMPDEST PUSH2 0x447 DUP6 DUP3 PUSH2 0x3CC JUMP JUMPDEST DUP7 SSTORE POP PUSH2 0x4AE JUMP JUMPDEST PUSH1 0x1F NOT DUP5 AND PUSH2 0x45D DUP7 PUSH2 0x241 JUMP JUMPDEST PUSH0 JUMPDEST DUP3 DUP2 LT ISZERO PUSH2 0x484 JUMPI DUP5 DUP10 ADD MLOAD DUP3 SSTORE PUSH1 0x1 DUP3 ADD SWAP2 POP PUSH1 0x20 DUP6 ADD SWAP5 POP PUSH1 0x20 DUP2 ADD SWAP1 POP PUSH2 0x45F JUMP JUMPDEST DUP7 DUP4 LT ISZERO PUSH2 0x4A1 JUMPI DUP5 DUP10 ADD MLOAD PUSH2 0x49D PUSH1 0x1F DUP10 AND DUP3 PUSH2 0x3B0 JUMP JUMPDEST DUP4 SSTORE POP JUMPDEST PUSH1 0x1 PUSH1 0x2 DUP9 MUL ADD DUP9 SSTORE POP POP POP JUMPDEST POP POP POP POP POP POP JUMP JUMPDEST PUSH2 0x283A DUP1 PUSH2 0x4C3 PUSH0 CODECOPY PUSH0 RETURN INVALID PUSH1 0x80 PUSH1 0x40 MSTORE CALLVALUE DUP1 ISZERO PUSH2 0xF JUMPI PUSH0 DUP1 REVERT JUMPDEST POP PUSH1 0x4 CALLDATASIZE LT PUSH2 0x60 JUMPI PUSH0 CALLDATALOAD PUSH1 0xE0 SHR DUP1 PUSH4 0x3D7403A3 EQ PUSH2 0x64 JUMPI DUP1 PUSH4 0x3E2D2458 EQ PUSH2 0x80 JUMPI DUP1 PUSH4 0x433BF37B EQ PUSH2 0xB6 JUMPI DUP1 PUSH4 0x45E660C9 EQ PUSH2 0xEC JUMPI DUP1 PUSH4 0xD4277F98 EQ PUSH2 0x122 JUMPI DUP1 PUSH4 0xE21F37CE EQ PUSH2 0x13E JUMPI JUMPDEST PUSH0 DUP1 REVERT JUMPDEST PUSH2 0x7E PUSH1 0x4 DUP1 CALLDATASIZE SUB DUP2 ADD SWAP1 PUSH2 0x79 SWAP2 SWAP1 PUSH2 0x19F2 JUMP JUMPDEST PUSH2 0x15C JUMP JUMPDEST STOP JUMPDEST PUSH2 0x9A PUSH1 0x4 DUP1 CALLDATASIZE SUB DUP2 ADD SWAP1 PUSH2 0x95 SWAP2 SWAP1 PUSH2 0x1A93 JUMP JUMPDEST PUSH2 0x233 JUMP JUMPDEST PUSH1 0x40 MLOAD PUSH2 0xAD SWAP8 SWAP7 SWAP6 SWAP5 SWAP4 SWAP3 SWAP2 SWAP1 PUSH2 0x1C99 JUMP JUMPDEST PUSH1 0x40 MLOAD DUP1 SWAP2 SUB SWAP1 RETURN JUMPDEST PUSH2 0xD0 PUSH1 0x4 DUP1 CALLDATASIZE SUB DUP2 ADD SWAP1 PUSH2 0xCB SWAP2 SWAP1 PUSH2 0x1A93 JUMP JUMPDEST PUSH2 0x465 JUMP JUMPDEST PUSH1 0x40 MLOAD PUSH2 0xE3 SWAP8 SWAP7 SWAP6 SWAP5 SWAP4 SWAP3 SWAP2 SWAP1 PUSH2 0x1C99 JUMP JUMPDEST PUSH1 0x40 MLOAD DUP1 SWAP2 SUB SWAP1 RETURN JUMPDEST PUSH2 0x106 PUSH1 0x4 DUP1 CALLDATASIZE SUB DUP2 ADD SWAP1 PUSH2 0x101 SWAP2 SWAP1 PUSH2 0x1D61 JUMP JUMPDEST PUSH2 0xC0B JUMP JUMPDEST PUSH1 0x40 MLOAD PUSH2 0x119 SWAP8 SWAP7 SWAP6 SWAP5 SWAP4 SWAP3 SWAP2 SWAP1 PUSH2 0x1C99 JUMP JUMPDEST PUSH1 0x40 MLOAD DUP1 SWAP2 SUB SWAP1 RETURN JUMPDEST PUSH2 0x13C PUSH1 0x4 DUP1 CALLDATASIZE SUB DUP2 ADD SWAP1 PUSH2 0x137 SWAP2 SWAP1 PUSH2 0x1DCD JUMP JUMPDEST PUSH2 0xF20 JUMP JUMPDEST STOP JUMPDEST PUSH2 0x146 PUSH2 0x118E JUMP JUMPDEST PUSH1 0x40 MLOAD PUSH2 0x153 SWAP2 SWAP1 PUSH2 0x1F52 JUMP JUMPDEST PUSH1 0x40 MLOAD DUP1 SWAP2 SUB SWAP1 RETURN JUMPDEST PUSH0 DUP1 DUP1 SLOAD PUSH2 0x169 SWAP1 PUSH2 0x1F9F JUMP JUMPDEST DUP1 PUSH1 0x1F ADD PUSH1 0x20 DUP1 SWAP2 DIV MUL PUSH1 0x20 ADD PUSH1 0x40 MLOAD SWAP1 DUP2 ADD PUSH1 0x40 MSTORE DUP1 SWAP3 SWAP2 SWAP1 DUP2 DUP2 MSTORE PUSH1 0x20 ADD DUP3 DUP1 SLOAD PUSH2 0x195 SWAP1 PUSH2 0x1F9F JUMP JUMPDEST DUP1 ISZERO PUSH2 0x1E0 JUMPI DUP1 PUSH1 0x1F LT PUSH2 0x1B7 JUMPI PUSH2 0x100 DUP1 DUP4 SLOAD DIV MUL DUP4 MSTORE SWAP2 PUSH1 0x20 ADD SWAP2 PUSH2 0x1E0 JUMP JUMPDEST DUP3 ADD SWAP2 SWAP1 PUSH0 MSTORE PUSH1 0x20 PUSH0 KECCAK256 SWAP1 JUMPDEST DUP2 SLOAD DUP2 MSTORE SWAP1 PUSH1 0x1 ADD SWAP1 PUSH1 0x20 ADD DUP1 DUP4 GT PUSH2 0x1C3 JUMPI DUP3 SWAP1 SUB PUSH1 0x1F AND DUP3 ADD SWAP2 JUMPDEST POP POP POP POP POP SWAP1 POP DUP2 PUSH0 SWAP1 DUP2 PUSH2 0x1F5 SWAP2 SWAP1 PUSH2 0x216C JUMP JUMPDEST POP PUSH32 0xF91D506D7335E83E4869A58CD98E0557CDCEF6F507BA1E52725521305626D05B DUP2 DUP4 PUSH1 0x40 MLOAD PUSH2 0x227 SWAP3 SWAP2 SWAP1 PUSH2 0x223B JUMP JUMPDEST PUSH1 0x40 MLOAD DUP1 SWAP2 SUB SWAP1 LOG1 POP POP JUMP JUMPDEST PUSH1 0x60 DUP1 PUSH1 0x60 DUP1 PUSH1 0x60 DUP1 PUSH1 0x60 DUP8 PUSH20 0xFFFFFFFFFFFFFFFFFFFFFFFFFFFFFFFFFFFFFFFF AND CALLER PUSH20 0xFFFFFFFFFFFFFFFFFFFFFFFFFFFFFFFFFFFFFFFF AND EQ PUSH2 0x2AC JUMPI PUSH1 0x40 MLOAD PUSH32 0x8C379A000000000000000000000000000000000000000000000000000000000 DUP2 MSTORE PUSH1 0x4 ADD PUSH2 0x2A3 SWAP1 PUSH2 0x22BA JUMP JUMPDEST PUSH1 0x40 MLOAD DUP1 SWAP2 SUB SWAP1 REVERT JUMPDEST PUSH0 PUSH1 0x1 PUSH0 DUP11 PUSH20 0xFFFFFFFFFFFFFFFFFFFFFFFFFFFFFFFFFFFFFFFF AND PUSH20 0xFFFFFFFFFFFFFFFFFFFFFFFFFFFFFFFFFFFFFFFF AND DUP2 MSTORE PUSH1 0x20 ADD SWAP1 DUP2 MSTORE PUSH1 0x20 ADD PUSH0 KECCAK256 DUP1 SLOAD SWAP1 POP GT PUSH2 0x32E JUMPI PUSH1 0x40 MLOAD PUSH32 0x8C379A000000000000000000000000000000000000000000000000000000000 DUP2 MSTORE PUSH1 0x4 ADD PUSH2 0x325 SWAP1 PUSH2 0x2322 JUMP JUMPDEST PUSH1 0x40 MLOAD DUP1 SWAP2 SUB SWAP1 REVERT JUMPDEST PUSH0 PUSH1 0x1 PUSH0 DUP11 PUSH20 0xFFFFFFFFFFFFFFFFFFFFFFFFFFFFFFFFFFFFFFFF AND PUSH20 0xFFFFFFFFFFFFFFFFFFFFFFFFFFFFFFFFFFFFFFFF AND DUP2 MSTORE PUSH1 0x20 ADD SWAP1 DUP2 MSTORE PUSH1 0x20 ADD PUSH0 KECCAK256 DUP1 SLOAD SWAP1 POP SWAP1 POP PUSH0 JUMPDEST DUP2 DUP2 LT ISZERO PUSH2 0x3FE JUMPI PUSH0 PUSH1 0x1 PUSH0 DUP13 PUSH20 0xFFFFFFFFFFFFFFFFFFFFFFFFFFFFFFFFFFFFFFFF AND PUSH20 0xFFFFFFFFFFFFFFFFFFFFFFFFFFFFFFFFFFFFFFFF AND DUP2 MSTORE PUSH1 0x20 ADD SWAP1 DUP2 MSTORE PUSH1 0x20 ADD PUSH0 KECCAK256 DUP3 DUP2 SLOAD DUP2 LT PUSH2 0x3CC JUMPI PUSH2 0x3CB PUSH2 0x2340 JUMP JUMPDEST JUMPDEST SWAP1 PUSH0 MSTORE PUSH1 0x20 PUSH0 KECCAK256 SWAP1 PUSH1 0x8 MUL ADD PUSH1 0x7 ADD PUSH0 PUSH2 0x100 EXP DUP2 SLOAD DUP2 PUSH1 0xFF MUL NOT AND SWAP1 DUP4 ISZERO ISZERO MUL OR SWAP1 SSTORE POP DUP1 DUP1 PUSH1 0x1 ADD SWAP2 POP POP PUSH2 0x374 JUMP JUMPDEST POP DUP9 PUSH20 0xFFFFFFFFFFFFFFFFFFFFFFFFFFFFFFFFFFFFFFFF AND PUSH32 0xAC3BDA4DD8CEFC7C083649CC37A6EDD7FE0F6C6B19E8E8451935185B07695D98 PUSH1 0x40 MLOAD PUSH1 0x40 MLOAD DUP1 SWAP2 SUB SWAP1 LOG2 PUSH2 0x44B DUP10 PUSH2 0x1219 JUMP JUMPDEST SWAP8 POP SWAP8 POP SWAP8 POP SWAP8 POP SWAP8 POP SWAP8 POP SWAP8 POP POP SWAP2 SWAP4 SWAP6 SWAP8 SWAP1 SWAP3 SWAP5 SWAP7 POP JUMP JUMPDEST PUSH1 0x60 DUP1 PUSH1 0x60 DUP1 PUSH1 0x60 DUP1 PUSH1 0x60 PUSH0 PUSH1 0x1 PUSH0 DUP11 PUSH20 0xFFFFFFFFFFFFFFFFFFFFFFFFFFFFFFFFFFFFFFFF AND PUSH20 0xFFFFFFFFFFFFFFFFFFFFFFFFFFFFFFFFFFFFFFFF AND DUP2 MSTORE PUSH1 0x20 ADD SWAP1 DUP2 MSTORE PUSH1 0x20 ADD PUSH0 KECCAK256 DUP1 SLOAD SWAP1 POP SWAP1 POP PUSH0 DUP1 JUMPDEST DUP3 DUP2 LT ISZERO PUSH2 0x54B JUMPI PUSH1 0x1 PUSH0 DUP13 PUSH20 0xFFFFFFFFFFFFFFFFFFFFFFFFFFFFFFFFFFFFFFFF AND PUSH20 0xFFFFFFFFFFFFFFFFFFFFFFFFFFFFFFFFFFFFFFFF AND DUP2 MSTORE PUSH1 0x20 ADD SWAP1 DUP2 MSTORE PUSH1 0x20 ADD PUSH0 KECCAK256 DUP2 DUP2 SLOAD DUP2 LT PUSH2 0x50E JUMPI PUSH2 0x50D PUSH2 0x2340 JUMP JUMPDEST JUMPDEST SWAP1 PUSH0 MSTORE PUSH1 0x20 PUSH0 KECCAK256 SWAP1 PUSH1 0x8 MUL ADD PUSH1 0x7 ADD PUSH0 SWAP1 SLOAD SWAP1 PUSH2 0x100 EXP SWAP1 DIV PUSH1 0xFF AND ISZERO PUSH2 0x53E JUMPI DUP2 DUP1 PUSH2 0x53A SWAP1 PUSH2 0x239A JUMP JUMPDEST SWAP3 POP POP JUMPDEST DUP1 DUP1 PUSH1 0x1 ADD SWAP2 POP POP PUSH2 0x4B7 JUMP JUMPDEST POP DUP1 PUSH8 0xFFFFFFFFFFFFFFFF DUP2 GT ISZERO PUSH2 0x566 JUMPI PUSH2 0x565 PUSH2 0x18CE JUMP JUMPDEST JUMPDEST PUSH1 0x40 MLOAD SWAP1 DUP1 DUP3 MSTORE DUP1 PUSH1 0x20 MUL PUSH1 0x20 ADD DUP3 ADD PUSH1 0x40 MSTORE DUP1 ISZERO PUSH2 0x599 JUMPI DUP2 PUSH1 0x20 ADD JUMPDEST PUSH1 0x60 DUP2 MSTORE PUSH1 0x20 ADD SWAP1 PUSH1 0x1 SWAP1 SUB SWAP1 DUP2 PUSH2 0x584 JUMPI SWAP1 POP JUMPDEST POP SWAP9 POP DUP1 PUSH8 0xFFFFFFFFFFFFFFFF DUP2 GT ISZERO PUSH2 0x5B6 JUMPI PUSH2 0x5B5 PUSH2 0x18CE JUMP JUMPDEST JUMPDEST PUSH1 0x40 MLOAD SWAP1 DUP1 DUP3 MSTORE DUP1 PUSH1 0x20 MUL PUSH1 0x20 ADD DUP3 ADD PUSH1 0x40 MSTORE DUP1 ISZERO PUSH2 0x5E9 JUMPI DUP2 PUSH1 0x20 ADD JUMPDEST PUSH1 0x60 DUP2 MSTORE PUSH1 0x20 ADD SWAP1 PUSH1 0x1 SWAP1 SUB SWAP1 DUP2 PUSH2 0x5D4 JUMPI SWAP1 POP JUMPDEST POP SWAP8 POP DUP1 PUSH8 0xFFFFFFFFFFFFFFFF DUP2 GT ISZERO PUSH2 0x606 JUMPI PUSH2 0x605 PUSH2 0x18CE JUMP JUMPDEST JUMPDEST PUSH1 0x40 MLOAD SWAP1 DUP1 DUP3 MSTORE DUP1 PUSH1 0x20 MUL PUSH1 0x20 ADD DUP3 ADD PUSH1 0x40 MSTORE DUP1 ISZERO PUSH2 0x639 JUMPI DUP2 PUSH1 0x20 ADD JUMPDEST PUSH1 0x60 DUP2 MSTORE PUSH1 0x20 ADD SWAP1 PUSH1 0x1 SWAP1 SUB SWAP1 DUP2 PUSH2 0x624 JUMPI SWAP1 POP JUMPDEST POP SWAP7 POP DUP1 PUSH8 0xFFFFFFFFFFFFFFFF DUP2 GT ISZERO PUSH2 0x656 JUMPI PUSH2 0x655 PUSH2 0x18CE JUMP JUMPDEST JUMPDEST PUSH1 0x40 MLOAD SWAP1 DUP1 DUP3 MSTORE DUP1 PUSH1 0x20 MUL PUSH1 0x20 ADD DUP3 ADD PUSH1 0x40 MSTORE DUP1 ISZERO PUSH2 0x684 JUMPI DUP2 PUSH1 0x20 ADD PUSH1 0x20 DUP3 MUL DUP1 CALLDATASIZE DUP4 CALLDATACOPY DUP1 DUP3 ADD SWAP2 POP POP SWAP1 POP JUMPDEST POP SWAP6 POP DUP1 PUSH8 0xFFFFFFFFFFFFFFFF DUP2 GT ISZERO PUSH2 0x6A1 JUMPI PUSH2 0x6A0 PUSH2 0x18CE JUMP JUMPDEST JUMPDEST PUSH1 0x40 MLOAD SWAP1 DUP1 DUP3 MSTORE DUP1 PUSH1 0x20 MUL PUSH1 0x20 ADD DUP3 ADD PUSH1 0x40 MSTORE DUP1 ISZERO PUSH2 0x6D4 JUMPI DUP2 PUSH1 0x20 ADD JUMPDEST PUSH1 0x60 DUP2 MSTORE PUSH1 0x20 ADD SWAP1 PUSH1 0x1 SWAP1 SUB SWAP1 DUP2 PUSH2 0x6BF JUMPI SWAP1 POP JUMPDEST POP SWAP5 POP DUP1 PUSH8 0xFFFFFFFFFFFFFFFF DUP2 GT ISZERO PUSH2 0x6F1 JUMPI PUSH2 0x6F0 PUSH2 0x18CE JUMP JUMPDEST JUMPDEST PUSH1 0x40 MLOAD SWAP1 DUP1 DUP3 MSTORE DUP1 PUSH1 0x20 MUL PUSH1 0x20 ADD DUP3 ADD PUSH1 0x40 MSTORE DUP1 ISZERO PUSH2 0x724 JUMPI DUP2 PUSH1 0x20 ADD JUMPDEST PUSH1 0x60 DUP2 MSTORE PUSH1 0x20 ADD SWAP1 PUSH1 0x1 SWAP1 SUB SWAP1 DUP2 PUSH2 0x70F JUMPI SWAP1 POP JUMPDEST POP SWAP4 POP DUP1 PUSH8 0xFFFFFFFFFFFFFFFF DUP2 GT ISZERO PUSH2 0x741 JUMPI PUSH2 0x740 PUSH2 0x18CE JUMP JUMPDEST JUMPDEST PUSH1 0x40 MLOAD SWAP1 DUP1 DUP3 MSTORE DUP1 PUSH1 0x20 MUL PUSH1 0x20 ADD DUP3 ADD PUSH1 0x40 MSTORE DUP1 ISZERO PUSH2 0x76F JUMPI DUP2 PUSH1 0x20 ADD PUSH1 0x20 DUP3 MUL DUP1 CALLDATASIZE DUP4 CALLDATACOPY DUP1 DUP3 ADD SWAP2 POP POP SWAP1 POP JUMPDEST POP SWAP3 POP PUSH0 DUP1 JUMPDEST DUP4 DUP2 LT ISZERO PUSH2 0xBFC JUMPI PUSH1 0x1 PUSH0 DUP14 PUSH20 0xFFFFFFFFFFFFFFFFFFFFFFFFFFFFFFFFFFFFFFFF AND PUSH20 0xFFFFFFFFFFFFFFFFFFFFFFFFFFFFFFFFFFFFFFFF AND DUP2 MSTORE PUSH1 0x20 ADD SWAP1 DUP2 MSTORE PUSH1 0x20 ADD PUSH0 KECCAK256 DUP2 DUP2 SLOAD DUP2 LT PUSH2 0x7CC JUMPI PUSH2 0x7CB PUSH2 0x2340 JUMP JUMPDEST JUMPDEST SWAP1 PUSH0 MSTORE PUSH1 0x20 PUSH0 KECCAK256 SWAP1 PUSH1 0x8 MUL ADD PUSH1 0x7 ADD PUSH0 SWAP1 SLOAD SWAP1 PUSH2 0x100 EXP SWAP1 DIV PUSH1 0xFF AND ISZERO PUSH2 0xBEF JUMPI PUSH0 PUSH1 0x1 PUSH0 DUP15 PUSH20 0xFFFFFFFFFFFFFFFFFFFFFFFFFFFFFFFFFFFFFFFF AND PUSH20 0xFFFFFFFFFFFFFFFFFFFFFFFFFFFFFFFFFFFFFFFF AND DUP2 MSTORE PUSH1 0x20 ADD SWAP1 DUP2 MSTORE PUSH1 0x20 ADD PUSH0 KECCAK256 DUP3 DUP2 SLOAD DUP2 LT PUSH2 0x83D JUMPI PUSH2 0x83C PUSH2 0x2340 JUMP JUMPDEST JUMPDEST SWAP1 PUSH0 MSTORE PUSH1 0x20 PUSH0 KECCAK256 SWAP1 PUSH1 0x8 MUL ADD SWAP1 POP DUP1 PUSH0 ADD DUP1 SLOAD PUSH2 0x859 SWAP1 PUSH2 0x1F9F JUMP JUMPDEST DUP1 PUSH1 0x1F ADD PUSH1 0x20 DUP1 SWAP2 DIV MUL PUSH1 0x20 ADD PUSH1 0x40 MLOAD SWAP1 DUP2 ADD PUSH1 0x40 MSTORE DUP1 SWAP3 SWAP2 SWAP1 DUP2 DUP2 MSTORE PUSH1 0x20 ADD DUP3 DUP1 SLOAD PUSH2 0x885 SWAP1 PUSH2 0x1F9F JUMP JUMPDEST DUP1 ISZERO PUSH2 0x8D0 JUMPI DUP1 PUSH1 0x1F LT PUSH2 0x8A7 JUMPI PUSH2 0x100 DUP1 DUP4 SLOAD DIV MUL DUP4 MSTORE SWAP2 PUSH1 0x20 ADD SWAP2 PUSH2 0x8D0 JUMP JUMPDEST DUP3 ADD SWAP2 SWAP1 PUSH0 MSTORE PUSH1 0x20 PUSH0 KECCAK256 SWAP1 JUMPDEST DUP2 SLOAD DUP2 MSTORE SWAP1 PUSH1 0x1 ADD SWAP1 PUSH1 0x20 ADD DUP1 DUP4 GT PUSH2 0x8B3 JUMPI DUP3 SWAP1 SUB PUSH1 0x1F AND DUP3 ADD SWAP2 JUMPDEST POP POP POP POP POP DUP13 DUP5 DUP2 MLOAD DUP2 LT PUSH2 0x8E8 JUMPI PUSH2 0x8E7 PUSH2 0x2340 JUMP JUMPDEST JUMPDEST PUSH1 0x20 MUL PUSH1 0x20 ADD ADD DUP2 SWAP1 MSTORE POP DUP1 PUSH1 0x1 ADD DUP1 SLOAD PUSH2 0x902 SWAP1 PUSH2 0x1F9F JUMP JUMPDEST DUP1 PUSH1 0x1F ADD PUSH1 0x20 DUP1 SWAP2 DIV MUL PUSH1 0x20 ADD PUSH1 0x40 MLOAD SWAP1 DUP2 ADD PUSH1 0x40 MSTORE DUP1 SWAP3 SWAP2 SWAP1 DUP2 DUP2 MSTORE PUSH1 0x20 ADD DUP3 DUP1 SLOAD PUSH2 0x92E SWAP1 PUSH2 0x1F9F JUMP JUMPDEST DUP1 ISZERO PUSH2 0x979 JUMPI DUP1 PUSH1 0x1F LT PUSH2 0x950 JUMPI PUSH2 0x100 DUP1 DUP4 SLOAD DIV MUL DUP4 MSTORE SWAP2 PUSH1 0x20 ADD SWAP2 PUSH2 0x979 JUMP JUMPDEST DUP3 ADD SWAP2 SWAP1 PUSH0 MSTORE PUSH1 0x20 PUSH0 KECCAK256 SWAP1 JUMPDEST DUP2 SLOAD DUP2 MSTORE SWAP1 PUSH1 0x1 ADD SWAP1 PUSH1 0x20 ADD DUP1 DUP4 GT PUSH2 0x95C JUMPI DUP3 SWAP1 SUB PUSH1 0x1F AND DUP3 ADD SWAP2 JUMPDEST POP POP POP POP POP DUP12 DUP5 DUP2 MLOAD DUP2 LT PUSH2 0x991 JUMPI PUSH2 0x990 PUSH2 0x2340 JUMP JUMPDEST JUMPDEST PUSH1 0x20 MUL PUSH1 0x20 ADD ADD DUP2 SWAP1 MSTORE POP DUP1 PUSH1 0x2 ADD DUP1 SLOAD PUSH2 0x9AB SWAP1 PUSH2 0x1F9F JUMP JUMPDEST DUP1 PUSH1 0x1F ADD PUSH1 0x20 DUP1 SWAP2 DIV MUL PUSH1 0x20 ADD PUSH1 0x40 MLOAD SWAP1 DUP2 ADD PUSH1 0x40 MSTORE DUP1 SWAP3 SWAP2 SWAP1 DUP2 DUP2 MSTORE PUSH1 0x20 ADD DUP3 DUP1 SLOAD PUSH2 0x9D7 SWAP1 PUSH2 0x1F9F JUMP JUMPDEST DUP1 ISZERO PUSH2 0xA22 JUMPI DUP1 PUSH1 0x1F LT PUSH2 0x9F9 JUMPI PUSH2 0x100 DUP1 DUP4 SLOAD DIV MUL DUP4 MSTORE SWAP2 PUSH1 0x20 ADD SWAP2 PUSH2 0xA22 JUMP JUMPDEST DUP3 ADD SWAP2 SWAP1 PUSH0 MSTORE PUSH1 0x20 PUSH0 KECCAK256 SWAP1 JUMPDEST DUP2 SLOAD DUP2 MSTORE SWAP1 PUSH1 0x1 ADD SWAP1 PUSH1 0x20 ADD DUP1 DUP4 GT PUSH2 0xA05 JUMPI DUP3 SWAP1 SUB PUSH1 0x1F AND DUP3 ADD SWAP2 JUMPDEST POP POP POP POP POP DUP11 DUP5 DUP2 MLOAD DUP2 LT PUSH2 0xA3A JUMPI PUSH2 0xA39 PUSH2 0x2340 JUMP JUMPDEST JUMPDEST PUSH1 0x20 MUL PUSH1 0x20 ADD ADD DUP2 SWAP1 MSTORE POP DUP1 PUSH1 0x3 ADD SLOAD DUP10 DUP5 DUP2 MLOAD DUP2 LT PUSH2 0xA5D JUMPI PUSH2 0xA5C PUSH2 0x2340 JUMP JUMPDEST JUMPDEST PUSH1 0x20 MUL PUSH1 0x20 ADD ADD DUP2 DUP2 MSTORE POP POP DUP1 PUSH1 0x4 ADD DUP1 SLOAD PUSH2 0xA78 SWAP1 PUSH2 0x1F9F JUMP JUMPDEST DUP1 PUSH1 0x1F ADD PUSH1 0x20 DUP1 SWAP2 DIV MUL PUSH1 0x20 ADD PUSH1 0x40 MLOAD SWAP1 DUP2 ADD PUSH1 0x40 MSTORE DUP1 SWAP3 SWAP2 SWAP1 DUP2 DUP2 MSTORE PUSH1 0x20 ADD DUP3 DUP1 SLOAD PUSH2 0xAA4 SWAP1 PUSH2 0x1F9F JUMP JUMPDEST DUP1 ISZERO PUSH2 0xAEF JUMPI DUP1 PUSH1 0x1F LT PUSH2 0xAC6 JUMPI PUSH2 0x100 DUP1 DUP4 SLOAD DIV MUL DUP4 MSTORE SWAP2 PUSH1 0x20 ADD SWAP2 PUSH2 0xAEF JUMP JUMPDEST DUP3 ADD SWAP2 SWAP1 PUSH0 MSTORE PUSH1 0x20 PUSH0 KECCAK256 SWAP1 JUMPDEST DUP2 SLOAD DUP2 MSTORE SWAP1 PUSH1 0x1 ADD SWAP1 PUSH1 0x20 ADD DUP1 DUP4 GT PUSH2 0xAD2 JUMPI DUP3 SWAP1 SUB PUSH1 0x1F AND DUP3 ADD SWAP2 JUMPDEST POP POP POP POP POP DUP9 DUP5 DUP2 MLOAD DUP2 LT PUSH2 0xB07 JUMPI PUSH2 0xB06 PUSH2 0x2340 JUMP JUMPDEST JUMPDEST PUSH1 0x20 MUL PUSH1 0x20 ADD ADD DUP2 SWAP1 MSTORE POP DUP1 PUSH1 0x5 ADD DUP1 SLOAD PUSH2 0xB21 SWAP1 PUSH2 0x1F9F JUMP JUMPDEST DUP1 PUSH1 0x1F ADD PUSH1 0x20 DUP1 SWAP2 DIV MUL PUSH1 0x20 ADD PUSH1 0x40 MLOAD SWAP1 DUP2 ADD PUSH1 0x40 MSTORE DUP1 SWAP3 SWAP2 SWAP1 DUP2 DUP2 MSTORE PUSH1 0x20 ADD DUP3 DUP1 SLOAD PUSH2 0xB4D SWAP1 PUSH2 0x1F9F JUMP JUMPDEST DUP1 ISZERO PUSH2 0xB98 JUMPI DUP1 PUSH1 0x1F LT PUSH2 0xB6F JUMPI PUSH2 0x100 DUP1 DUP4 SLOAD DIV MUL DUP4 MSTORE SWAP2 PUSH1 0x20 ADD SWAP2 PUSH2 0xB98 JUMP JUMPDEST DUP3 ADD SWAP2 SWAP1 PUSH0 MSTORE PUSH1 0x20 PUSH0 KECCAK256 SWAP1 JUMPDEST DUP2 SLOAD DUP2 MSTORE SWAP1 PUSH1 0x1 ADD SWAP1 PUSH1 0x20 ADD DUP1 DUP4 GT PUSH2 0xB7B JUMPI DUP3 SWAP1 SUB PUSH1 0x1F AND DUP3 ADD SWAP2 JUMPDEST POP POP POP POP POP DUP8 DUP5 DUP2 MLOAD DUP2 LT PUSH2 0xBB0 JUMPI PUSH2 0xBAF PUSH2 0x2340 JUMP JUMPDEST JUMPDEST PUSH1 0x20 MUL PUSH1 0x20 ADD ADD DUP2 SWAP1 MSTORE POP DUP1 PUSH1 0x6 ADD SLOAD DUP7 DUP5 DUP2 MLOAD DUP2 LT PUSH2 0xBD3 JUMPI PUSH2 0xBD2 PUSH2 0x2340 JUMP JUMPDEST JUMPDEST PUSH1 0x20 MUL PUSH1 0x20 ADD ADD DUP2 DUP2 MSTORE POP POP DUP3 DUP1 PUSH2 0xBEA SWAP1 PUSH2 0x239A JUMP JUMPDEST SWAP4 POP POP POP JUMPDEST DUP1 DUP1 PUSH1 0x1 ADD SWAP2 POP POP PUSH2 0x775 JUMP JUMPDEST POP POP POP POP SWAP2 SWAP4 SWAP6 SWAP8 SWAP1 SWAP3 SWAP5 SWAP7 POP JUMP JUMPDEST PUSH1 0x60 DUP1 PUSH1 0x60 DUP1 PUSH1 0x60 DUP1 PUSH1 0x60 DUP10 PUSH20 0xFFFFFFFFFFFFFFFFFFFFFFFFFFFFFFFFFFFFFFFF AND CALLER PUSH20 0xFFFFFFFFFFFFFFFFFFFFFFFFFFFFFFFFFFFFFFFF AND EQ PUSH2 0xC84 JUMPI PUSH1 0x40 MLOAD PUSH32 0x8C379A000000000000000000000000000000000000000000000000000000000 DUP2 MSTORE PUSH1 0x4 ADD PUSH2 0xC7B SWAP1 PUSH2 0x242B JUMP JUMPDEST PUSH1 0x40 MLOAD DUP1 SWAP2 SUB SWAP1 REVERT JUMPDEST PUSH0 PUSH1 0x1 PUSH0 DUP13 PUSH20 0xFFFFFFFFFFFFFFFFFFFFFFFFFFFFFFFFFFFFFFFF AND PUSH20 0xFFFFFFFFFFFFFFFFFFFFFFFFFFFFFFFFFFFFFFFF AND DUP2 MSTORE PUSH1 0x20 ADD SWAP1 DUP2 MSTORE PUSH1 0x20 ADD PUSH0 KECCAK256 DUP1 SLOAD SWAP1 POP SWAP1 POP PUSH0 DUP2 GT PUSH2 0xD0A JUMPI PUSH1 0x40 MLOAD PUSH32 0x8C379A000000000000000000000000000000000000000000000000000000000 DUP2 MSTORE PUSH1 0x4 ADD PUSH2 0xD01 SWAP1 PUSH2 0x2322 JUMP JUMPDEST PUSH1 0x40 MLOAD DUP1 SWAP2 SUB SWAP1 REVERT JUMPDEST DUP1 DUP11 LT PUSH2 0xD4C JUMPI PUSH1 0x40 MLOAD PUSH32 0x8C379A000000000000000000000000000000000000000000000000000000000 DUP2 MSTORE PUSH1 0x4 ADD PUSH2 0xD43 SWAP1 PUSH2 0x2493 JUMP JUMPDEST PUSH1 0x40 MLOAD DUP1 SWAP2 SUB SWAP1 REVERT JUMPDEST DUP9 PUSH1 0x40 MLOAD PUSH1 0x20 ADD PUSH2 0xD5D SWAP2 SWAP1 PUSH2 0x24EB JUMP JUMPDEST PUSH1 0x40 MLOAD PUSH1 0x20 DUP2 DUP4 SUB SUB DUP2 MSTORE SWAP1 PUSH1 0x40 MSTORE DUP1 MLOAD SWAP1 PUSH1 0x20 ADD KECCAK256 PUSH1 0x1 PUSH0 DUP14 PUSH20 0xFFFFFFFFFFFFFFFFFFFFFFFFFFFFFFFFFFFFFFFF AND PUSH20 0xFFFFFFFFFFFFFFFFFFFFFFFFFFFFFFFFFFFFFFFF AND DUP2 MSTORE PUSH1 0x20 ADD SWAP1 DUP2 MSTORE PUSH1 0x20 ADD PUSH0 KECCAK256 DUP12 DUP2 SLOAD DUP2 LT PUSH2 0xDC2 JUMPI PUSH2 0xDC1 PUSH2 0x2340 JUMP JUMPDEST JUMPDEST SWAP1 PUSH0 MSTORE PUSH1 0x20 PUSH0 KECCAK256 SWAP1 PUSH1 0x8 MUL ADD PUSH0 ADD PUSH1 0x40 MLOAD PUSH1 0x20 ADD PUSH2 0xDE0 SWAP2 SWAP1 PUSH2 0x2581 JUMP JUMPDEST PUSH1 0x40 MLOAD PUSH1 0x20 DUP2 DUP4 SUB SUB DUP2 MSTORE SWAP1 PUSH1 0x40 MSTORE DUP1 MLOAD SWAP1 PUSH1 0x20 ADD KECCAK256 EQ PUSH2 0xE36 JUMPI PUSH1 0x40 MLOAD PUSH32 0x8C379A000000000000000000000000000000000000000000000000000000000 DUP2 MSTORE PUSH1 0x4 ADD PUSH2 0xE2D SWAP1 PUSH2 0x25E1 JUMP JUMPDEST PUSH1 0x40 MLOAD DUP1 SWAP2 SUB SWAP1 REVERT JUMPDEST PUSH0 PUSH1 0x1 PUSH0 DUP14 PUSH20 0xFFFFFFFFFFFFFFFFFFFFFFFFFFFFFFFFFFFFFFFF AND PUSH20 0xFFFFFFFFFFFFFFFFFFFFFFFFFFFFFFFFFFFFFFFF AND DUP2 MSTORE PUSH1 0x20 ADD SWAP1 DUP2 MSTORE PUSH1 0x20 ADD PUSH0 KECCAK256 DUP12 DUP2 SLOAD DUP2 LT PUSH2 0xE86 JUMPI PUSH2 0xE85 PUSH2 0x2340 JUMP JUMPDEST JUMPDEST SWAP1 PUSH0 MSTORE PUSH1 0x20 PUSH0 KECCAK256 SWAP1 PUSH1 0x8 MUL ADD PUSH1 0x7 ADD PUSH0 PUSH2 0x100 EXP DUP2 SLOAD DUP2 PUSH1 0xFF MUL NOT AND SWAP1 DUP4 ISZERO ISZERO MUL OR SWAP1 SSTORE POP DUP11 PUSH20 0xFFFFFFFFFFFFFFFFFFFFFFFFFFFFFFFFFFFFFFFF AND PUSH32 0x4F290849018EB780AFFAFBA63563006086546149769E7B527F0E61C4F282DE07 DUP11 DUP13 PUSH1 0x40 MLOAD PUSH2 0xEF3 SWAP3 SWAP2 SWAP1 PUSH2 0x260E JUMP JUMPDEST PUSH1 0x40 MLOAD DUP1 SWAP2 SUB SWAP1 LOG2 PUSH2 0xF04 DUP12 PUSH2 0x1219 JUMP JUMPDEST SWAP8 POP SWAP8 POP SWAP8 POP SWAP8 POP SWAP8 POP SWAP8 POP SWAP8 POP POP SWAP4 SWAP8 POP SWAP4 SWAP8 POP SWAP4 SWAP8 SWAP1 SWAP5 POP JUMP JUMPDEST PUSH0 DUP8 MLOAD GT PUSH2 0xF63 JUMPI PUSH1 0x40 MLOAD PUSH32 0x8C379A000000000000000000000000000000000000000000000000000000000 DUP2 MSTORE PUSH1 0x4 ADD PUSH2 0xF5A SWAP1 PUSH2 0x2686 JUMP JUMPDEST PUSH1 0x40 MLOAD DUP1 SWAP2 SUB SWAP1 REVERT JUMPDEST PUSH0 DUP7 MLOAD GT PUSH2 0xFA6 JUMPI PUSH1 0x40 MLOAD PUSH32 0x8C379A000000000000000000000000000000000000000000000000000000000 DUP2 MSTORE PUSH1 0x4 ADD PUSH2 0xF9D SWAP1 PUSH2 0x26EE JUMP JUMPDEST PUSH1 0x40 MLOAD DUP1 SWAP2 SUB SWAP1 REVERT JUMPDEST PUSH0 DUP6 MLOAD GT PUSH2 0xFE9 JUMPI PUSH1 0x40 MLOAD PUSH32 0x8C379A000000000000000000000000000000000000000000000000000000000 DUP2 MSTORE PUSH1 0x4 ADD PUSH2 0xFE0 SWAP1 PUSH2 0x2756 JUMP JUMPDEST PUSH1 0x40 MLOAD DUP1 SWAP2 SUB SWAP1 REVERT JUMPDEST PUSH1 0x1 PUSH0 DUP10 PUSH20 0xFFFFFFFFFFFFFFFFFFFFFFFFFFFFFFFFFFFFFFFF AND PUSH20 0xFFFFFFFFFFFFFFFFFFFFFFFFFFFFFFFFFFFFFFFF AND DUP2 MSTORE PUSH1 0x20 ADD SWAP1 DUP2 MSTORE PUSH1 0x20 ADD PUSH0 KECCAK256 PUSH1 0x40 MLOAD DUP1 PUSH2 0x100 ADD PUSH1 0x40 MSTORE DUP1 DUP10 DUP2 MSTORE PUSH1 0x20 ADD DUP9 DUP2 MSTORE PUSH1 0x20 ADD DUP8 DUP2 MSTORE PUSH1 0x20 ADD DUP7 DUP2 MSTORE PUSH1 0x20 ADD DUP6 DUP2 MSTORE PUSH1 0x20 ADD DUP5 DUP2 MSTORE PUSH1 0x20 ADD DUP4 DUP2 MSTORE PUSH1 0x20 ADD PUSH1 0x1 ISZERO ISZERO DUP2 MSTORE POP SWAP1 DUP1 PUSH1 0x1 DUP2 SLOAD ADD DUP1 DUP3 SSTORE DUP1 SWAP2 POP POP PUSH1 0x1 SWAP1 SUB SWAP1 PUSH0 MSTORE PUSH1 0x20 PUSH0 KECCAK256 SWAP1 PUSH1 0x8 MUL ADD PUSH0 SWAP1 SWAP2 SWAP1 SWAP2 SWAP1 SWAP2 POP PUSH0 DUP3 ADD MLOAD DUP2 PUSH0 ADD SWAP1 DUP2 PUSH2 0x109C SWAP2 SWAP1 PUSH2 0x216C JUMP JUMPDEST POP PUSH1 0x20 DUP3 ADD MLOAD DUP2 PUSH1 0x1 ADD SWAP1 DUP2 PUSH2 0x10B2 SWAP2 SWAP1 PUSH2 0x216C JUMP JUMPDEST POP PUSH1 0x40 DUP3 ADD MLOAD DUP2 PUSH1 0x2 ADD SWAP1 DUP2 PUSH2 0x10C8 SWAP2 SWAP1 PUSH2 0x216C JUMP JUMPDEST POP PUSH1 0x60 DUP3 ADD MLOAD DUP2 PUSH1 0x3 ADD SSTORE PUSH1 0x80 DUP3 ADD MLOAD DUP2 PUSH1 0x4 ADD SWAP1 DUP2 PUSH2 0x10E8 SWAP2 SWAP1 PUSH2 0x216C JUMP JUMPDEST POP PUSH1 0xA0 DUP3 ADD MLOAD DUP2 PUSH1 0x5 ADD SWAP1 DUP2 PUSH2 0x10FE SWAP2 SWAP1 PUSH2 0x216C JUMP JUMPDEST POP PUSH1 0xC0 DUP3 ADD MLOAD DUP2 PUSH1 0x6 ADD SSTORE PUSH1 0xE0 DUP3 ADD MLOAD DUP2 PUSH1 0x7 ADD PUSH0 PUSH2 0x100 EXP DUP2 SLOAD DUP2 PUSH1 0xFF MUL NOT AND SWAP1 DUP4 ISZERO ISZERO MUL OR SWAP1 SSTORE POP POP POP DUP8 PUSH20 0xFFFFFFFFFFFFFFFFFFFFFFFFFFFFFFFFFFFFFFFF AND PUSH32 0xAD8603A3FE1D55F26CE13346F2C7F31F8624AC0B9CF6F1A0586469EEC6473240 DUP9 DUP9 DUP9 DUP9 DUP9 DUP9 DUP9 PUSH1 0x40 MLOAD PUSH2 0x117C SWAP8 SWAP7 SWAP6 SWAP5 SWAP4 SWAP3 SWAP2 SWAP1 PUSH2 0x2774 JUMP JUMPDEST PUSH1 0x40 MLOAD DUP1 SWAP2 SUB SWAP1 LOG2 POP POP POP POP POP POP POP POP JUMP JUMPDEST PUSH0 DUP1 SLOAD PUSH2 0x119A SWAP1 PUSH2 0x1F9F JUMP JUMPDEST DUP1 PUSH1 0x1F ADD PUSH1 0x20 DUP1 SWAP2 DIV MUL PUSH1 0x20 ADD PUSH1 0x40 MLOAD SWAP1 DUP2 ADD PUSH1 0x40 MSTORE DUP1 SWAP3 SWAP2 SWAP1 DUP2 DUP2 MSTORE PUSH1 0x20 ADD DUP3 DUP1 SLOAD PUSH2 0x11C6 SWAP1 PUSH2 0x1F9F JUMP JUMPDEST DUP1 ISZERO PUSH2 0x1211 JUMPI DUP1 PUSH1 0x1F LT PUSH2 0x11E8 JUMPI PUSH2 0x100 DUP1 DUP4 SLOAD DIV MUL DUP4 MSTORE SWAP2 PUSH1 0x20 ADD SWAP2 PUSH2 0x1211 JUMP JUMPDEST DUP3 ADD SWAP2 SWAP1 PUSH0 MSTORE PUSH1 0x20 PUSH0 KECCAK256 SWAP1 JUMPDEST DUP2 SLOAD DUP2 MSTORE SWAP1 PUSH1 0x1 ADD SWAP1 PUSH1 0x20 ADD DUP1 DUP4 GT PUSH2 0x11F4 JUMPI DUP3 SWAP1 SUB PUSH1 0x1F AND DUP3 ADD SWAP2 JUMPDEST POP POP POP POP POP DUP2 JUMP JUMPDEST PUSH1 0x60 DUP1 PUSH1 0x60 DUP1 PUSH1 0x60 DUP1 PUSH1 0x60 PUSH0 PUSH1 0x1 PUSH0 DUP11 PUSH20 0xFFFFFFFFFFFFFFFFFFFFFFFFFFFFFFFFFFFFFFFF AND PUSH20 0xFFFFFFFFFFFFFFFFFFFFFFFFFFFFFFFFFFFFFFFF AND DUP2 MSTORE PUSH1 0x20 ADD SWAP1 DUP2 MSTORE PUSH1 0x20 ADD PUSH0 KECCAK256 DUP1 SLOAD SWAP1 POP SWAP1 POP DUP1 PUSH8 0xFFFFFFFFFFFFFFFF DUP2 GT ISZERO PUSH2 0x1282 JUMPI PUSH2 0x1281 PUSH2 0x18CE JUMP JUMPDEST JUMPDEST PUSH1 0x40 MLOAD SWAP1 DUP1 DUP3 MSTORE DUP1 PUSH1 0x20 MUL PUSH1 0x20 ADD DUP3 ADD PUSH1 0x40 MSTORE DUP1 ISZERO PUSH2 0x12B5 JUMPI DUP2 PUSH1 0x20 ADD JUMPDEST PUSH1 0x60 DUP2 MSTORE PUSH1 0x20 ADD SWAP1 PUSH1 0x1 SWAP1 SUB SWAP1 DUP2 PUSH2 0x12A0 JUMPI SWAP1 POP JUMPDEST POP SWAP8 POP DUP1 PUSH8 0xFFFFFFFFFFFFFFFF DUP2 GT ISZERO PUSH2 0x12D2 JUMPI PUSH2 0x12D1 PUSH2 0x18CE JUMP JUMPDEST JUMPDEST PUSH1 0x40 MLOAD SWAP1 DUP1 DUP3 MSTORE DUP1 PUSH1 0x20 MUL PUSH1 0x20 ADD DUP3 ADD PUSH1 0x40 MSTORE DUP1 ISZERO PUSH2 0x1305 JUMPI DUP2 PUSH1 0x20 ADD JUMPDEST PUSH1 0x60 DUP2 MSTORE PUSH1 0x20 ADD SWAP1 PUSH1 0x1 SWAP1 SUB SWAP1 DUP2 PUSH2 0x12F0 JUMPI SWAP1 POP JUMPDEST POP SWAP7 POP DUP1 PUSH8 0xFFFFFFFFFFFFFFFF DUP2 GT ISZERO PUSH2 0x1322 JUMPI PUSH2 0x1321 PUSH2 0x18CE JUMP JUMPDEST JUMPDEST PUSH1 0x40 MLOAD SWAP1 DUP1 DUP3 MSTORE DUP1 PUSH1 0x20 MUL PUSH1 0x20 ADD DUP3 ADD PUSH1 0x40 MSTORE DUP1 ISZERO PUSH2 0x1355 JUMPI DUP2 PUSH1 0x20 ADD JUMPDEST PUSH1 0x60 DUP2 MSTORE PUSH1 0x20 ADD SWAP1 PUSH1 0x1 SWAP1 SUB SWAP1 DUP2 PUSH2 0x1340 JUMPI SWAP1 POP JUMPDEST POP SWAP6 POP DUP1 PUSH8 0xFFFFFFFFFFFFFFFF DUP2 GT ISZERO PUSH2 0x1372 JUMPI PUSH2 0x1371 PUSH2 0x18CE JUMP JUMPDEST JUMPDEST PUSH1 0x40 MLOAD SWAP1 DUP1 DUP3 MSTORE DUP1 PUSH1 0x20 MUL PUSH1 0x20 ADD DUP3 ADD PUSH1 0x40 MSTORE DUP1 ISZERO PUSH2 0x13A0 JUMPI DUP2 PUSH1 0x20 ADD PUSH1 0x20 DUP3 MUL DUP1 CALLDATASIZE DUP4 CALLDATACOPY DUP1 DUP3 ADD SWAP2 POP POP SWAP1 POP JUMPDEST POP SWAP5 POP DUP1 PUSH8 0xFFFFFFFFFFFFFFFF DUP2 GT ISZERO PUSH2 0x13BD JUMPI PUSH2 0x13BC PUSH2 0x18CE JUMP JUMPDEST JUMPDEST PUSH1 0x40 MLOAD SWAP1 DUP1 DUP3 MSTORE DUP1 PUSH1 0x20 MUL PUSH1 0x20 ADD DUP3 ADD PUSH1 0x40 MSTORE DUP1 ISZERO PUSH2 0x13F0 JUMPI DUP2 PUSH1 0x20 ADD JUMPDEST PUSH1 0x60 DUP2 MSTORE PUSH1 0x20 ADD SWAP1 PUSH1 0x1 SWAP1 SUB SWAP1 DUP2 PUSH2 0x13DB JUMPI SWAP1 POP JUMPDEST POP SWAP4 POP DUP1 PUSH8 0xFFFFFFFFFFFFFFFF DUP2 GT ISZERO PUSH2 0x140D JUMPI PUSH2 0x140C PUSH2 0x18CE JUMP JUMPDEST JUMPDEST PUSH1 0x40 MLOAD SWAP1 DUP1 DUP3 MSTORE DUP1 PUSH1 0x20 MUL PUSH1 0x20 ADD DUP3 ADD PUSH1 0x40 MSTORE DUP1 ISZERO PUSH2 0x1440 JUMPI DUP2 PUSH1 0x20 ADD JUMPDEST PUSH1 0x60 DUP2 MSTORE PUSH1 0x20 ADD SWAP1 PUSH1 0x1 SWAP1 SUB SWAP1 DUP2 PUSH2 0x142B JUMPI SWAP1 POP JUMPDEST POP SWAP3 POP DUP1 PUSH8 0xFFFFFFFFFFFFFFFF DUP2 GT ISZERO PUSH2 0x145D JUMPI PUSH2 0x145C PUSH2 0x18CE JUMP JUMPDEST JUMPDEST PUSH1 0x40 MLOAD SWAP1 DUP1 DUP3 MSTORE DUP1 PUSH1 0x20 MUL PUSH1 0x20 ADD DUP3 ADD PUSH1 0x40 MSTORE DUP1 ISZERO PUSH2 0x148B JUMPI DUP2 PUSH1 0x20 ADD PUSH1 0x20 DUP3 MUL DUP1 CALLDATASIZE DUP4 CALLDATACOPY DUP1 DUP3 ADD SWAP2 POP POP SWAP1 POP JUMPDEST POP SWAP2 POP PUSH0 JUMPDEST DUP2 DUP2 LT ISZERO PUSH2 0x1898 JUMPI PUSH0 PUSH1 0x1 PUSH0 DUP13 PUSH20 0xFFFFFFFFFFFFFFFFFFFFFFFFFFFFFFFFFFFFFFFF AND PUSH20 0xFFFFFFFFFFFFFFFFFFFFFFFFFFFFFFFFFFFFFFFF AND DUP2 MSTORE PUSH1 0x20 ADD SWAP1 DUP2 MSTORE PUSH1 0x20 ADD PUSH0 KECCAK256 DUP3 DUP2 SLOAD DUP2 LT PUSH2 0x14E8 JUMPI PUSH2 0x14E7 PUSH2 0x2340 JUMP JUMPDEST JUMPDEST SWAP1 PUSH0 MSTORE PUSH1 0x20 PUSH0 KECCAK256 SWAP1 PUSH1 0x8 MUL ADD SWAP1 POP DUP1 PUSH0 ADD DUP1 SLOAD PUSH2 0x1504 SWAP1 PUSH2 0x1F9F JUMP JUMPDEST DUP1 PUSH1 0x1F ADD PUSH1 0x20 DUP1 SWAP2 DIV MUL PUSH1 0x20 ADD PUSH1 0x40 MLOAD SWAP1 DUP2 ADD PUSH1 0x40 MSTORE DUP1 SWAP3 SWAP2 SWAP1 DUP2 DUP2 MSTORE PUSH1 0x20 ADD DUP3 DUP1 SLOAD PUSH2 0x1530 SWAP1 PUSH2 0x1F9F JUMP JUMPDEST DUP1 ISZERO PUSH2 0x157B JUMPI DUP1 PUSH1 0x1F LT PUSH2 0x1552 JUMPI PUSH2 0x100 DUP1 DUP4 SLOAD DIV MUL DUP4 MSTORE SWAP2 PUSH1 0x20 ADD SWAP2 PUSH2 0x157B JUMP JUMPDEST DUP3 ADD SWAP2 SWAP1 PUSH0 MSTORE PUSH1 0x20 PUSH0 KECCAK256 SWAP1 JUMPDEST DUP2 SLOAD DUP2 MSTORE SWAP1 PUSH1 0x1 ADD SWAP1 PUSH1 0x20 ADD DUP1 DUP4 GT PUSH2 0x155E JUMPI DUP3 SWAP1 SUB PUSH1 0x1F AND DUP3 ADD SWAP2 JUMPDEST POP POP POP POP POP DUP11 DUP4 DUP2 MLOAD DUP2 LT PUSH2 0x1593 JUMPI PUSH2 0x1592 PUSH2 0x2340 JUMP JUMPDEST JUMPDEST PUSH1 0x20 MUL PUSH1 0x20 ADD ADD DUP2 SWAP1 MSTORE POP DUP1 PUSH1 0x1 ADD DUP1 SLOAD PUSH2 0x15AD SWAP1 PUSH2 0x1F9F JUMP JUMPDEST DUP1 PUSH1 0x1F ADD PUSH1 0x20 DUP1 SWAP2 DIV MUL PUSH1 0x20 ADD PUSH1 0x40 MLOAD SWAP1 DUP2 ADD PUSH1 0x40 MSTORE DUP1 SWAP3 SWAP2 SWAP1 DUP2 DUP2 MSTORE PUSH1 0x20 ADD DUP3 DUP1 SLOAD PUSH2 0x15D9 SWAP1 PUSH2 0x1F9F JUMP JUMPDEST DUP1 ISZERO PUSH2 0x1624 JUMPI DUP1 PUSH1 0x1F LT PUSH2 0x15FB JUMPI PUSH2 0x100 DUP1 DUP4 SLOAD DIV MUL DUP4 MSTORE SWAP2 PUSH1 0x20 ADD SWAP2 PUSH2 0x1624 JUMP JUMPDEST DUP3 ADD SWAP2 SWAP1 PUSH0 MSTORE PUSH1 0x20 PUSH0 KECCAK256 SWAP1 JUMPDEST DUP2 SLOAD DUP2 MSTORE SWAP1 PUSH1 0x1 ADD SWAP1 PUSH1 0x20 ADD DUP1 DUP4 GT PUSH2 0x1607 JUMPI DUP3 SWAP1 SUB PUSH1 0x1F AND DUP3 ADD SWAP2 JUMPDEST POP POP POP POP POP DUP10 DUP4 DUP2 MLOAD DUP2 LT PUSH2 0x163C JUMPI PUSH2 0x163B PUSH2 0x2340 JUMP JUMPDEST JUMPDEST PUSH1 0x20 MUL PUSH1 0x20 ADD ADD DUP2 SWAP1 MSTORE POP DUP1 PUSH1 0x2 ADD DUP1 SLOAD PUSH2 0x1656 SWAP1 PUSH2 0x1F9F JUMP JUMPDEST DUP1 PUSH1 0x1F ADD PUSH1 0x20 DUP1 SWAP2 DIV MUL PUSH1 0x20 ADD PUSH1 0x40 MLOAD SWAP1 DUP2 ADD PUSH1 0x40 MSTORE DUP1 SWAP3 SWAP2 SWAP1 DUP2 DUP2 MSTORE PUSH1 0x20 ADD DUP3 DUP1 SLOAD PUSH2 0x1682 SWAP1 PUSH2 0x1F9F JUMP JUMPDEST DUP1 ISZERO PUSH2 0x16CD JUMPI DUP1 PUSH1 0x1F LT PUSH2 0x16A4 JUMPI PUSH2 0x100 DUP1 DUP4 SLOAD DIV MUL DUP4 MSTORE SWAP2 PUSH1 0x20 ADD SWAP2 PUSH2 0x16CD JUMP JUMPDEST DUP3 ADD SWAP2 SWAP1 PUSH0 MSTORE PUSH1 0x20 PUSH0 KECCAK256 SWAP1 JUMPDEST DUP2 SLOAD DUP2 MSTORE SWAP1 PUSH1 0x1 ADD SWAP1 PUSH1 0x20 ADD DUP1 DUP4 GT PUSH2 0x16B0 JUMPI DUP3 SWAP1 SUB PUSH1 0x1F AND DUP3 ADD SWAP2 JUMPDEST POP POP POP POP POP DUP9 DUP4 DUP2 MLOAD DUP2 LT PUSH2 0x16E5 JUMPI PUSH2 0x16E4 PUSH2 0x2340 JUMP JUMPDEST JUMPDEST PUSH1 0x20 MUL PUSH1 0x20 ADD ADD DUP2 SWAP1 MSTORE POP DUP1 PUSH1 0x3 ADD SLOAD DUP8 DUP4 DUP2 MLOAD DUP2 LT PUSH2 0x1708 JUMPI PUSH2 0x1707 PUSH2 0x2340 JUMP JUMPDEST JUMPDEST PUSH1 0x20 MUL PUSH1 0x20 ADD ADD DUP2 DUP2 MSTORE POP POP DUP1 PUSH1 0x4 ADD DUP1 SLOAD PUSH2 0x1723 SWAP1 PUSH2 0x1F9F JUMP JUMPDEST DUP1 PUSH1 0x1F ADD PUSH1 0x20 DUP1 SWAP2 DIV MUL PUSH1 0x20 ADD PUSH1 0x40 MLOAD SWAP1 DUP2 ADD PUSH1 0x40 MSTORE DUP1 SWAP3 SWAP2 SWAP1 DUP2 DUP2 MSTORE PUSH1 0x20 ADD DUP3 DUP1 SLOAD PUSH2 0x174F SWAP1 PUSH2 0x1F9F JUMP JUMPDEST DUP1 ISZERO PUSH2 0x179A JUMPI DUP1 PUSH1 0x1F LT PUSH2 0x1771 JUMPI PUSH2 0x100 DUP1 DUP4 SLOAD DIV MUL DUP4 MSTORE SWAP2 PUSH1 0x20 ADD SWAP2 PUSH2 0x179A JUMP JUMPDEST DUP3 ADD SWAP2 SWAP1 PUSH0 MSTORE PUSH1 0x20 PUSH0 KECCAK256 SWAP1 JUMPDEST DUP2 SLOAD DUP2 MSTORE SWAP1 PUSH1 0x1 ADD SWAP1 PUSH1 0x20 ADD DUP1 DUP4 GT PUSH2 0x177D JUMPI DUP3 SWAP1 SUB PUSH1 0x1F AND DUP3 ADD SWAP2 JUMPDEST POP POP POP POP POP DUP7 DUP4 DUP2 MLOAD DUP2 LT PUSH2 0x17B2 JUMPI PUSH2 0x17B1 PUSH2 0x2340 JUMP JUMPDEST JUMPDEST PUSH1 0x20 MUL PUSH1 0x20 ADD ADD DUP2 SWAP1 MSTORE POP DUP1 PUSH1 0x5 ADD DUP1 SLOAD PUSH2 0x17CC SWAP1 PUSH2 0x1F9F JUMP JUMPDEST DUP1 PUSH1 0x1F ADD PUSH1 0x20 DUP1 SWAP2 DIV MUL PUSH1 0x20 ADD PUSH1 0x40 MLOAD SWAP1 DUP2 ADD PUSH1 0x40 MSTORE DUP1 SWAP3 SWAP2 SWAP1 DUP2 DUP2 MSTORE PUSH1 0x20 ADD DUP3 DUP1 SLOAD PUSH2 0x17F8 SWAP1 PUSH2 0x1F9F JUMP JUMPDEST DUP1 ISZERO PUSH2 0x1843 JUMPI DUP1 PUSH1 0x1F LT PUSH2 0x181A JUMPI PUSH2 0x100 DUP1 DUP4 SLOAD DIV MUL DUP4 MSTORE SWAP2 PUSH1 0x20 ADD SWAP2 PUSH2 0x1843 JUMP JUMPDEST DUP3 ADD SWAP2 SWAP1 PUSH0 MSTORE PUSH1 0x20 PUSH0 KECCAK256 SWAP1 JUMPDEST DUP2 SLOAD DUP2 MSTORE SWAP1 PUSH1 0x1 ADD SWAP1 PUSH1 0x20 ADD DUP1 DUP4 GT PUSH2 0x1826 JUMPI DUP3 SWAP1 SUB PUSH1 0x1F AND DUP3 ADD SWAP2 JUMPDEST POP POP POP POP POP DUP6 DUP4 DUP2 MLOAD DUP2 LT PUSH2 0x185B JUMPI PUSH2 0x185A PUSH2 0x2340 JUMP JUMPDEST JUMPDEST PUSH1 0x20 MUL PUSH1 0x20 ADD ADD DUP2 SWAP1 MSTORE POP DUP1 PUSH1 0x6 ADD SLOAD DUP5 DUP4 DUP2 MLOAD DUP2 LT PUSH2 0x187E JUMPI PUSH2 0x187D PUSH2 0x2340 JUMP JUMPDEST JUMPDEST PUSH1 0x20 MUL PUSH1 0x20 ADD ADD DUP2 DUP2 MSTORE POP POP POP DUP1 DUP1 PUSH1 0x1 ADD SWAP2 POP POP PUSH2 0x1490 JUMP JUMPDEST POP POP SWAP2 SWAP4 SWAP6 SWAP8 SWAP1 SWAP3 SWAP5 SWAP7 POP JUMP JUMPDEST PUSH0 PUSH1 0x40 MLOAD SWAP1 POP SWAP1 JUMP JUMPDEST PUSH0 DUP1 REVERT JUMPDEST PUSH0 DUP1 REVERT JUMPDEST PUSH0 DUP1 REVERT JUMPDEST PUSH0 DUP1 REVERT JUMPDEST PUSH0 PUSH1 0x1F NOT PUSH1 0x1F DUP4 ADD AND SWAP1 POP SWAP2 SWAP1 POP JUMP JUMPDEST PUSH32 0x4E487B7100000000000000000000000000000000000000000000000000000000 PUSH0 MSTORE PUSH1 0x41 PUSH1 0x4 MSTORE PUSH1 0x24 PUSH0 REVERT JUMPDEST PUSH2 0x1904 DUP3 PUSH2 0x18BE JUMP JUMPDEST DUP2 ADD DUP2 DUP2 LT PUSH8 0xFFFFFFFFFFFFFFFF DUP3 GT OR ISZERO PUSH2 0x1923 JUMPI PUSH2 0x1922 PUSH2 0x18CE JUMP JUMPDEST JUMPDEST DUP1 PUSH1 0x40 MSTORE POP POP POP JUMP JUMPDEST PUSH0 PUSH2 0x1935 PUSH2 0x18A5 JUMP JUMPDEST SWAP1 POP PUSH2 0x1941 DUP3 DUP3 PUSH2 0x18FB JUMP JUMPDEST SWAP2 SWAP1 POP JUMP JUMPDEST PUSH0 PUSH8 0xFFFFFFFFFFFFFFFF DUP3 GT ISZERO PUSH2 0x1960 JUMPI PUSH2 0x195F PUSH2 0x18CE JUMP JUMPDEST JUMPDEST PUSH2 0x1969 DUP3 PUSH2 0x18BE JUMP JUMPDEST SWAP1 POP PUSH1 0x20 DUP2 ADD SWAP1 POP SWAP2 SWAP1 POP JUMP JUMPDEST DUP3 DUP2 DUP4 CALLDATACOPY PUSH0 DUP4 DUP4 ADD MSTORE POP POP POP JUMP JUMPDEST PUSH0 PUSH2 0x1996 PUSH2 0x1991 DUP5 PUSH2 0x1946 JUMP JUMPDEST PUSH2 0x192C JUMP JUMPDEST SWAP1 POP DUP3 DUP2 MSTORE PUSH1 0x20 DUP2 ADD DUP5 DUP5 DUP5 ADD GT ISZERO PUSH2 0x19B2 JUMPI PUSH2 0x19B1 PUSH2 0x18BA JUMP JUMPDEST JUMPDEST PUSH2 0x19BD DUP5 DUP3 DUP6 PUSH2 0x1976 JUMP JUMPDEST POP SWAP4 SWAP3 POP POP POP JUMP JUMPDEST PUSH0 DUP3 PUSH1 0x1F DUP4 ADD SLT PUSH2 0x19D9 JUMPI PUSH2 0x19D8 PUSH2 0x18B6 JUMP JUMPDEST JUMPDEST DUP2 CALLDATALOAD PUSH2 0x19E9 DUP5 DUP3 PUSH1 0x20 DUP7 ADD PUSH2 0x1984 JUMP JUMPDEST SWAP2 POP POP SWAP3 SWAP2 POP POP JUMP JUMPDEST PUSH0 PUSH1 0x20 DUP3 DUP5 SUB SLT ISZERO PUSH2 0x1A07 JUMPI PUSH2 0x1A06 PUSH2 0x18AE JUMP JUMPDEST JUMPDEST PUSH0 DUP3 ADD CALLDATALOAD PUSH8 0xFFFFFFFFFFFFFFFF DUP2 GT ISZERO PUSH2 0x1A24 JUMPI PUSH2 0x1A23 PUSH2 0x18B2 JUMP JUMPDEST JUMPDEST PUSH2 0x1A30 DUP5 DUP3 DUP6 ADD PUSH2 0x19C5 JUMP JUMPDEST SWAP2 POP POP SWAP3 SWAP2 POP POP JUMP JUMPDEST PUSH0 PUSH20 0xFFFFFFFFFFFFFFFFFFFFFFFFFFFFFFFFFFFFFFFF DUP3 AND SWAP1 POP SWAP2 SWAP1 POP JUMP JUMPDEST PUSH0 PUSH2 0x1A62 DUP3 PUSH2 0x1A39 JUMP JUMPDEST SWAP1 POP SWAP2 SWAP1 POP JUMP JUMPDEST PUSH2 0x1A72 DUP2 PUSH2 0x1A58 JUMP JUMPDEST DUP2 EQ PUSH2 0x1A7C JUMPI PUSH0 DUP1 REVERT JUMPDEST POP JUMP JUMPDEST PUSH0 DUP2 CALLDATALOAD SWAP1 POP PUSH2 0x1A8D DUP2 PUSH2 0x1A69 JUMP JUMPDEST SWAP3 SWAP2 POP POP JUMP JUMPDEST PUSH0 PUSH1 0x20 DUP3 DUP5 SUB SLT ISZERO PUSH2 0x1AA8 JUMPI PUSH2 0x1AA7 PUSH2 0x18AE JUMP JUMPDEST JUMPDEST PUSH0 PUSH2 0x1AB5 DUP5 DUP3 DUP6 ADD PUSH2 0x1A7F JUMP JUMPDEST SWAP2 POP POP SWAP3 SWAP2 POP POP JUMP JUMPDEST PUSH0 DUP2 MLOAD SWAP1 POP SWAP2 SWAP1 POP JUMP JUMPDEST PUSH0 DUP3 DUP3 MSTORE PUSH1 0x20 DUP3 ADD SWAP1 POP SWAP3 SWAP2 POP POP JUMP JUMPDEST PUSH0 DUP2 SWAP1 POP PUSH1 0x20 DUP3 ADD SWAP1 POP SWAP2 SWAP1 POP JUMP JUMPDEST PUSH0 DUP2 MLOAD SWAP1 POP SWAP2 SWAP1 POP JUMP JUMPDEST PUSH0 DUP3 DUP3 MSTORE PUSH1 0x20 DUP3 ADD SWAP1 POP SWAP3 SWAP2 POP POP JUMP JUMPDEST DUP3 DUP2 DUP4 MCOPY PUSH0 DUP4 DUP4 ADD MSTORE POP POP POP JUMP JUMPDEST PUSH0 PUSH2 0x1B19 DUP3 PUSH2 0x1AE7 JUMP JUMPDEST PUSH2 0x1B23 DUP2 DUP6 PUSH2 0x1AF1 JUMP JUMPDEST SWAP4 POP PUSH2 0x1B33 DUP2 DUP6 PUSH1 0x20 DUP7 ADD PUSH2 0x1B01 JUMP JUMPDEST PUSH2 0x1B3C DUP2 PUSH2 0x18BE JUMP JUMPDEST DUP5 ADD SWAP2 POP POP SWAP3 SWAP2 POP POP JUMP JUMPDEST PUSH0 PUSH2 0x1B52 DUP4 DUP4 PUSH2 0x1B0F JUMP JUMPDEST SWAP1 POP SWAP3 SWAP2 POP POP JUMP JUMPDEST PUSH0 PUSH1 0x20 DUP3 ADD SWAP1 POP SWAP2 SWAP1 POP JUMP JUMPDEST PUSH0 PUSH2 0x1B70 DUP3 PUSH2 0x1ABE JUMP JUMPDEST PUSH2 0x1B7A DUP2 DUP6 PUSH2 0x1AC8 JUMP JUMPDEST SWAP4 POP DUP4 PUSH1 0x20 DUP3 MUL DUP6 ADD PUSH2 0x1B8C DUP6 PUSH2 0x1AD8 JUMP JUMPDEST DUP1 PUSH0 JUMPDEST DUP6 DUP2 LT ISZERO PUSH2 0x1BC7 JUMPI DUP5 DUP5 SUB DUP10 MSTORE DUP2 MLOAD PUSH2 0x1BA8 DUP6 DUP3 PUSH2 0x1B47 JUMP JUMPDEST SWAP5 POP PUSH2 0x1BB3 DUP4 PUSH2 0x1B5A JUMP JUMPDEST SWAP3 POP PUSH1 0x20 DUP11 ADD SWAP10 POP POP PUSH1 0x1 DUP2 ADD SWAP1 POP PUSH2 0x1B8F JUMP JUMPDEST POP DUP3 SWAP8 POP DUP8 SWAP6 POP POP POP POP POP POP SWAP3 SWAP2 POP POP JUMP JUMPDEST PUSH0 DUP2 MLOAD SWAP1 POP SWAP2 SWAP1 POP JUMP JUMPDEST PUSH0 DUP3 DUP3 MSTORE PUSH1 0x20 DUP3 ADD SWAP1 POP SWAP3 SWAP2 POP POP JUMP JUMPDEST PUSH0 DUP2 SWAP1 POP PUSH1 0x20 DUP3 ADD SWAP1 POP SWAP2 SWAP1 POP JUMP JUMPDEST PUSH0 DUP2 SWAP1 POP SWAP2 SWAP1 POP JUMP JUMPDEST PUSH2 0x1C14 DUP2 PUSH2 0x1C02 JUMP JUMPDEST DUP3 MSTORE POP POP JUMP JUMPDEST PUSH0 PUSH2 0x1C25 DUP4 DUP4 PUSH2 0x1C0B JUMP JUMPDEST PUSH1 0x20 DUP4 ADD SWAP1 POP SWAP3 SWAP2 POP POP JUMP JUMPDEST PUSH0 PUSH1 0x20 DUP3 ADD SWAP1 POP SWAP2 SWAP1 POP JUMP JUMPDEST PUSH0 PUSH2 0x1C47 DUP3 PUSH2 0x1BD9 JUMP JUMPDEST PUSH2 0x1C51 DUP2 DUP6 PUSH2 0x1BE3 JUMP JUMPDEST SWAP4 POP PUSH2 0x1C5C DUP4 PUSH2 0x1BF3 JUMP JUMPDEST DUP1 PUSH0 JUMPDEST DUP4 DUP2 LT ISZERO PUSH2 0x1C8C JUMPI DUP2 MLOAD PUSH2 0x1C73 DUP9 DUP3 PUSH2 0x1C1A JUMP JUMPDEST SWAP8 POP PUSH2 0x1C7E DUP4 PUSH2 0x1C31 JUMP JUMPDEST SWAP3 POP POP PUSH1 0x1 DUP2 ADD SWAP1 POP PUSH2 0x1C5F JUMP JUMPDEST POP DUP6 SWAP4 POP POP POP POP SWAP3 SWAP2 POP POP JUMP JUMPDEST PUSH0 PUSH1 0xE0 DUP3 ADD SWAP1 POP DUP2 DUP2 SUB PUSH0 DUP4 ADD MSTORE PUSH2 0x1CB1 DUP2 DUP11 PUSH2 0x1B66 JUMP JUMPDEST SWAP1 POP DUP2 DUP2 SUB PUSH1 0x20 DUP4 ADD MSTORE PUSH2 0x1CC5 DUP2 DUP10 PUSH2 0x1B66 JUMP JUMPDEST SWAP1 POP DUP2 DUP2 SUB PUSH1 0x40 DUP4 ADD MSTORE PUSH2 0x1CD9 DUP2 DUP9 PUSH2 0x1B66 JUMP JUMPDEST SWAP1 POP DUP2 DUP2 SUB PUSH1 0x60 DUP4 ADD MSTORE PUSH2 0x1CED DUP2 DUP8 PUSH2 0x1C3D JUMP JUMPDEST SWAP1 POP DUP2 DUP2 SUB PUSH1 0x80 DUP4 ADD MSTORE PUSH2 0x1D01 DUP2 DUP7 PUSH2 0x1B66 JUMP JUMPDEST SWAP1 POP DUP2 DUP2 SUB PUSH1 0xA0 DUP4 ADD MSTORE PUSH2 0x1D15 DUP2 DUP6 PUSH2 0x1B66 JUMP JUMPDEST SWAP1 POP DUP2 DUP2 SUB PUSH1 0xC0 DUP4 ADD MSTORE PUSH2 0x1D29 DUP2 DUP5 PUSH2 0x1C3D JUMP JUMPDEST SWAP1 POP SWAP9 SWAP8 POP POP POP POP POP POP POP POP JUMP JUMPDEST PUSH2 0x1D40 DUP2 PUSH2 0x1C02 JUMP JUMPDEST DUP2 EQ PUSH2 0x1D4A JUMPI PUSH0 DUP1 REVERT JUMPDEST POP JUMP JUMPDEST PUSH0 DUP2 CALLDATALOAD SWAP1 POP PUSH2 0x1D5B DUP2 PUSH2 0x1D37 JUMP JUMPDEST SWAP3 SWAP2 POP POP JUMP JUMPDEST PUSH0 DUP1 PUSH0 PUSH1 0x60 DUP5 DUP7 SUB SLT ISZERO PUSH2 0x1D78 JUMPI PUSH2 0x1D77 PUSH2 0x18AE JUMP JUMPDEST JUMPDEST PUSH0 PUSH2 0x1D85 DUP7 DUP3 DUP8 ADD PUSH2 0x1A7F JUMP JUMPDEST SWAP4 POP POP PUSH1 0x20 PUSH2 0x1D96 DUP7 DUP3 DUP8 ADD PUSH2 0x1D4D JUMP JUMPDEST SWAP3 POP POP PUSH1 0x40 DUP5 ADD CALLDATALOAD PUSH8 0xFFFFFFFFFFFFFFFF DUP2 GT ISZERO PUSH2 0x1DB7 JUMPI PUSH2 0x1DB6 PUSH2 0x18B2 JUMP JUMPDEST JUMPDEST PUSH2 0x1DC3 DUP7 DUP3 DUP8 ADD PUSH2 0x19C5 JUMP JUMPDEST SWAP2 POP POP SWAP3 POP SWAP3 POP SWAP3 JUMP JUMPDEST PUSH0 DUP1 PUSH0 DUP1 PUSH0 DUP1 PUSH0 DUP1 PUSH2 0x100 DUP10 DUP12 SUB SLT ISZERO PUSH2 0x1DEA JUMPI PUSH2 0x1DE9 PUSH2 0x18AE JUMP JUMPDEST JUMPDEST PUSH0 PUSH2 0x1DF7 DUP12 DUP3 DUP13 ADD PUSH2 0x1A7F JUMP JUMPDEST SWAP9 POP POP PUSH1 0x20 DUP10 ADD CALLDATALOAD PUSH8 0xFFFFFFFFFFFFFFFF DUP2 GT ISZERO PUSH2 0x1E18 JUMPI PUSH2 0x1E17 PUSH2 0x18B2 JUMP JUMPDEST JUMPDEST PUSH2 0x1E24 DUP12 DUP3 DUP13 ADD PUSH2 0x19C5 JUMP JUMPDEST SWAP8 POP POP PUSH1 0x40 DUP10 ADD CALLDATALOAD PUSH8 0xFFFFFFFFFFFFFFFF DUP2 GT ISZERO PUSH2 0x1E45 JUMPI PUSH2 0x1E44 PUSH2 0x18B2 JUMP JUMPDEST JUMPDEST PUSH2 0x1E51 DUP12 DUP3 DUP13 ADD PUSH2 0x19C5 JUMP JUMPDEST SWAP7 POP POP PUSH1 0x60 DUP10 ADD CALLDATALOAD PUSH8 0xFFFFFFFFFFFFFFFF DUP2 GT ISZERO PUSH2 0x1E72 JUMPI PUSH2 0x1E71 PUSH2 0x18B2 JUMP JUMPDEST JUMPDEST PUSH2 0x1E7E DUP12 DUP3 DUP13 ADD PUSH2 0x19C5 JUMP JUMPDEST SWAP6 POP POP PUSH1 0x80 PUSH2 0x1E8F DUP12 DUP3 DUP13 ADD PUSH2 0x1D4D JUMP JUMPDEST SWAP5 POP POP PUSH1 0xA0 DUP10 ADD CALLDATALOAD PUSH8 0xFFFFFFFFFFFFFFFF DUP2 GT ISZERO PUSH2 0x1EB0 JUMPI PUSH2 0x1EAF PUSH2 0x18B2 JUMP JUMPDEST JUMPDEST PUSH2 0x1EBC DUP12 DUP3 DUP13 ADD PUSH2 0x19C5 JUMP JUMPDEST SWAP4 POP POP PUSH1 0xC0 DUP10 ADD CALLDATALOAD PUSH8 0xFFFFFFFFFFFFFFFF DUP2 GT ISZERO PUSH2 0x1EDD JUMPI PUSH2 0x1EDC PUSH2 0x18B2 JUMP JUMPDEST JUMPDEST PUSH2 0x1EE9 DUP12 DUP3 DUP13 ADD PUSH2 0x19C5 JUMP JUMPDEST SWAP3 POP POP PUSH1 0xE0 PUSH2 0x1EFA DUP12 DUP3 DUP13 ADD PUSH2 0x1D4D JUMP JUMPDEST SWAP2 POP POP SWAP3 SWAP6 SWAP9 POP SWAP3 SWAP6 SWAP9 SWAP1 SWAP4 SWAP7 POP JUMP JUMPDEST PUSH0 DUP3 DUP3 MSTORE PUSH1 0x20 DUP3 ADD SWAP1 POP SWAP3 SWAP2 POP POP JUMP JUMPDEST PUSH0 PUSH2 0x1F24 DUP3 PUSH2 0x1AE7 JUMP JUMPDEST PUSH2 0x1F2E DUP2 DUP6 PUSH2 0x1F0A JUMP JUMPDEST SWAP4 POP PUSH2 0x1F3E DUP2 DUP6 PUSH1 0x20 DUP7 ADD PUSH2 0x1B01 JUMP JUMPDEST PUSH2 0x1F47 DUP2 PUSH2 0x18BE JUMP JUMPDEST DUP5 ADD SWAP2 POP POP SWAP3 SWAP2 POP POP JUMP JUMPDEST PUSH0 PUSH1 0x20 DUP3 ADD SWAP1 POP DUP2 DUP2 SUB PUSH0 DUP4 ADD MSTORE PUSH2 0x1F6A DUP2 DUP5 PUSH2 0x1F1A JUMP JUMPDEST SWAP1 POP SWAP3 SWAP2 POP POP JUMP JUMPDEST PUSH32 0x4E487B7100000000000000000000000000000000000000000000000000000000 PUSH0 MSTORE PUSH1 0x22 PUSH1 0x4 MSTORE PUSH1 0x24 PUSH0 REVERT JUMPDEST PUSH0 PUSH1 0x2 DUP3 DIV SWAP1 POP PUSH1 0x1 DUP3 AND DUP1 PUSH2 0x1FB6 JUMPI PUSH1 0x7F DUP3 AND SWAP2 POP JUMPDEST PUSH1 0x20 DUP3 LT DUP2 SUB PUSH2 0x1FC9 JUMPI PUSH2 0x1FC8 PUSH2 0x1F72 JUMP JUMPDEST JUMPDEST POP SWAP2 SWAP1 POP JUMP JUMPDEST PUSH0 DUP2 SWAP1 POP DUP2 PUSH0 MSTORE PUSH1 0x20 PUSH0 KECCAK256 SWAP1 POP SWAP2 SWAP1 POP JUMP JUMPDEST PUSH0 PUSH1 0x20 PUSH1 0x1F DUP4 ADD DIV SWAP1 POP SWAP2 SWAP1 POP JUMP JUMPDEST PUSH0 DUP3 DUP3 SHL SWAP1 POP SWAP3 SWAP2 POP POP JUMP JUMPDEST PUSH0 PUSH1 0x8 DUP4 MUL PUSH2 0x202B PUSH32 0xFFFFFFFFFFFFFFFFFFFFFFFFFFFFFFFFFFFFFFFFFFFFFFFFFFFFFFFFFFFFFFFF DUP3 PUSH2 0x1FF0 JUMP JUMPDEST PUSH2 0x2035 DUP7 DUP4 PUSH2 0x1FF0 JUMP JUMPDEST SWAP6 POP DUP1 NOT DUP5 AND SWAP4 POP DUP1 DUP7 AND DUP5 OR SWAP3 POP POP POP SWAP4 SWAP3 POP POP POP JUMP JUMPDEST PUSH0 DUP2 SWAP1 POP SWAP2 SWAP1 POP JUMP JUMPDEST PUSH0 PUSH2 0x2070 PUSH2 0x206B PUSH2 0x2066 DUP5 PUSH2 0x1C02 JUMP JUMPDEST PUSH2 0x204D JUMP JUMPDEST PUSH2 0x1C02 JUMP JUMPDEST SWAP1 POP SWAP2 SWAP1 POP JUMP JUMPDEST PUSH0 DUP2 SWAP1 POP SWAP2 SWAP1 POP JUMP JUMPDEST PUSH2 0x2089 DUP4 PUSH2 0x2056 JUMP JUMPDEST PUSH2 0x209D PUSH2 0x2095 DUP3 PUSH2 0x2077 JUMP JUMPDEST DUP5 DUP5 SLOAD PUSH2 0x1FFC JUMP JUMPDEST DUP3 SSTORE POP POP POP POP JUMP JUMPDEST PUSH0 SWAP1 JUMP JUMPDEST PUSH2 0x20B1 PUSH2 0x20A5 JUMP JUMPDEST PUSH2 0x20BC DUP2 DUP5 DUP5 PUSH2 0x2080 JUMP JUMPDEST POP POP POP JUMP JUMPDEST JUMPDEST DUP2 DUP2 LT ISZERO PUSH2 0x20DF JUMPI PUSH2 0x20D4 PUSH0 DUP3 PUSH2 0x20A9 JUMP JUMPDEST PUSH1 0x1 DUP2 ADD SWAP1 POP PUSH2 0x20C2 JUMP JUMPDEST POP POP JUMP JUMPDEST PUSH1 0x1F DUP3 GT ISZERO PUSH2 0x2124 JUMPI PUSH2 0x20F5 DUP2 PUSH2 0x1FCF JUMP JUMPDEST PUSH2 0x20FE DUP5 PUSH2 0x1FE1 JUMP JUMPDEST DUP2 ADD PUSH1 0x20 DUP6 LT ISZERO PUSH2 0x210D JUMPI DUP2 SWAP1 POP JUMPDEST PUSH2 0x2121 PUSH2 0x2119 DUP6 PUSH2 0x1FE1 JUMP JUMPDEST DUP4 ADD DUP3 PUSH2 0x20C1 JUMP JUMPDEST POP POP JUMPDEST POP POP POP JUMP JUMPDEST PUSH0 DUP3 DUP3 SHR SWAP1 POP SWAP3 SWAP2 POP POP JUMP JUMPDEST PUSH0 PUSH2 0x2144 PUSH0 NOT DUP5 PUSH1 0x8 MUL PUSH2 0x2129 JUMP JUMPDEST NOT DUP1 DUP4 AND SWAP2 POP POP SWAP3 SWAP2 POP POP JUMP JUMPDEST PUSH0 PUSH2 0x215C DUP4 DUP4 PUSH2 0x2135 JUMP JUMPDEST SWAP2 POP DUP3 PUSH1 0x2 MUL DUP3 OR SWAP1 POP SWAP3 SWAP2 POP POP JUMP JUMPDEST PUSH2 0x2175 DUP3 PUSH2 0x1AE7 JUMP JUMPDEST PUSH8 0xFFFFFFFFFFFFFFFF DUP2 GT ISZERO PUSH2 0x218E JUMPI PUSH2 0x218D PUSH2 0x18CE JUMP JUMPDEST JUMPDEST PUSH2 0x2198 DUP3 SLOAD PUSH2 0x1F9F JUMP JUMPDEST PUSH2 0x21A3 DUP3 DUP3 DUP6 PUSH2 0x20E3 JUMP JUMPDEST PUSH0 PUSH1 0x20 SWAP1 POP PUSH1 0x1F DUP4 GT PUSH1 0x1 DUP2 EQ PUSH2 0x21D4 JUMPI PUSH0 DUP5 ISZERO PUSH2 0x21C2 JUMPI DUP3 DUP8 ADD MLOAD SWAP1 POP JUMPDEST PUSH2 0x21CC DUP6 DUP3 PUSH2 0x2151 JUMP JUMPDEST DUP7 SSTORE POP PUSH2 0x2233 JUMP JUMPDEST PUSH1 0x1F NOT DUP5 AND PUSH2 0x21E2 DUP7 PUSH2 0x1FCF JUMP JUMPDEST PUSH0 JUMPDEST DUP3 DUP2 LT ISZERO PUSH2 0x2209 JUMPI DUP5 DUP10 ADD MLOAD DUP3 SSTORE PUSH1 0x1 DUP3 ADD SWAP2 POP PUSH1 0x20 DUP6 ADD SWAP5 POP PUSH1 0x20 DUP2 ADD SWAP1 POP PUSH2 0x21E4 JUMP JUMPDEST DUP7 DUP4 LT ISZERO PUSH2 0x2226 JUMPI DUP5 DUP10 ADD MLOAD PUSH2 0x2222 PUSH1 0x1F DUP10 AND DUP3 PUSH2 0x2135 JUMP JUMPDEST DUP4 SSTORE POP JUMPDEST PUSH1 0x1 PUSH1 0x2 DUP9 MUL ADD DUP9 SSTORE POP POP POP JUMPDEST POP POP POP POP POP POP JUMP JUMPDEST PUSH0 PUSH1 0x40 DUP3 ADD SWAP1 POP DUP2 DUP2 SUB PUSH0 DUP4 ADD MSTORE PUSH2 0x2253 DUP2 DUP6 PUSH2 0x1F1A JUMP JUMPDEST SWAP1 POP DUP2 DUP2 SUB PUSH1 0x20 DUP4 ADD MSTORE PUSH2 0x2267 DUP2 DUP5 PUSH2 0x1F1A JUMP JUMPDEST SWAP1 POP SWAP4 SWAP3 POP POP POP JUMP JUMPDEST PUSH32 0x4E6F7420617574686F72697A656420746F20636C6561722066696C6573000000 PUSH0 DUP3 ADD MSTORE POP JUMP JUMPDEST PUSH0 PUSH2 0x22A4 PUSH1 0x1D DUP4 PUSH2 0x1F0A JUMP JUMPDEST SWAP2 POP PUSH2 0x22AF DUP3 PUSH2 0x2270 JUMP JUMPDEST PUSH1 0x20 DUP3 ADD SWAP1 POP SWAP2 SWAP1 POP JUMP JUMPDEST PUSH0 PUSH1 0x20 DUP3 ADD SWAP1 POP DUP2 DUP2 SUB PUSH0 DUP4 ADD MSTORE PUSH2 0x22D1 DUP2 PUSH2 0x2298 JUMP JUMPDEST SWAP1 POP SWAP2 SWAP1 POP JUMP JUMPDEST PUSH32 0x4E6F2066696C657320657869737420666F722074686973207573657200000000 PUSH0 DUP3 ADD MSTORE POP JUMP JUMPDEST PUSH0 PUSH2 0x230C PUSH1 0x1C DUP4 PUSH2 0x1F0A JUMP JUMPDEST SWAP2 POP PUSH2 0x2317 DUP3 PUSH2 0x22D8 JUMP JUMPDEST PUSH1 0x20 DUP3 ADD SWAP1 POP SWAP2 SWAP1 POP JUMP JUMPDEST PUSH0 PUSH1 0x20 DUP3 ADD SWAP1 POP DUP2 DUP2 SUB PUSH0 DUP4 ADD MSTORE PUSH2 0x2339 DUP2 PUSH2 0x2300 JUMP JUMPDEST SWAP1 POP SWAP2 SWAP1 POP JUMP JUMPDEST PUSH32 0x4E487B7100000000000000000000000000000000000000000000000000000000 PUSH0 MSTORE PUSH1 0x32 PUSH1 0x4 MSTORE PUSH1 0x24 PUSH0 REVERT JUMPDEST PUSH32 0x4E487B7100000000000000000000000000000000000000000000000000000000 PUSH0 MSTORE PUSH1 0x11 PUSH1 0x4 MSTORE PUSH1 0x24 PUSH0 REVERT JUMPDEST PUSH0 PUSH2 0x23A4 DUP3 PUSH2 0x1C02 JUMP JUMPDEST SWAP2 POP PUSH32 0xFFFFFFFFFFFFFFFFFFFFFFFFFFFFFFFFFFFFFFFFFFFFFFFFFFFFFFFFFFFFFFFF DUP3 SUB PUSH2 0x23D6 JUMPI PUSH2 0x23D5 PUSH2 0x236D JUMP JUMPDEST JUMPDEST PUSH1 0x1 DUP3 ADD SWAP1 POP SWAP2 SWAP1 POP JUMP JUMPDEST PUSH32 0x4E6F7420617574686F72697A656420746F2064656C6574652066696C65730000 PUSH0 DUP3 ADD MSTORE POP JUMP JUMPDEST PUSH0 PUSH2 0x2415 PUSH1 0x1E DUP4 PUSH2 0x1F0A JUMP JUMPDEST SWAP2 POP PUSH2 0x2420 DUP3 PUSH2 0x23E1 JUMP JUMPDEST PUSH1 0x20 DUP3 ADD SWAP1 POP SWAP2 SWAP1 POP JUMP JUMPDEST PUSH0 PUSH1 0x20 DUP3 ADD SWAP1 POP DUP2 DUP2 SUB PUSH0 DUP4 ADD MSTORE PUSH2 0x2442 DUP2 PUSH2 0x2409 JUMP JUMPDEST SWAP1 POP SWAP2 SWAP1 POP JUMP JUMPDEST PUSH32 0x496E76616C696420696E64657800000000000000000000000000000000000000 PUSH0 DUP3 ADD MSTORE POP JUMP JUMPDEST PUSH0 PUSH2 0x247D PUSH1 0xD DUP4 PUSH2 0x1F0A JUMP JUMPDEST SWAP2 POP PUSH2 0x2488 DUP3 PUSH2 0x2449 JUMP JUMPDEST PUSH1 0x20 DUP3 ADD SWAP1 POP SWAP2 SWAP1 POP JUMP JUMPDEST PUSH0 PUSH1 0x20 DUP3 ADD SWAP1 POP DUP2 DUP2 SUB PUSH0 DUP4 ADD MSTORE PUSH2 0x24AA DUP2 PUSH2 0x2471 JUMP JUMPDEST SWAP1 POP SWAP2 SWAP1 POP JUMP JUMPDEST PUSH0 DUP2 SWAP1 POP SWAP3 SWAP2 POP POP JUMP JUMPDEST PUSH0 PUSH2 0x24C5 DUP3 PUSH2 0x1AE7 JUMP JUMPDEST PUSH2 0x24CF DUP2 DUP6 PUSH2 0x24B1 JUMP JUMPDEST SWAP4 POP PUSH2 0x24DF DUP2 DUP6 PUSH1 0x20 DUP7 ADD PUSH2 0x1B01 JUMP JUMPDEST DUP1 DUP5 ADD SWAP2 POP POP SWAP3 SWAP2 POP POP JUMP JUMPDEST PUSH0 PUSH2 0x24F6 DUP3 DUP5 PUSH2 0x24BB JUMP JUMPDEST SWAP2 POP DUP2 SWAP1 POP SWAP3 SWAP2 POP POP JUMP JUMPDEST PUSH0 DUP2 SLOAD PUSH2 0x250D DUP2 PUSH2 0x1F9F JUMP JUMPDEST PUSH2 0x2517 DUP2 DUP7 PUSH2 0x24B1 JUMP JUMPDEST SWAP5 POP PUSH1 0x1 DUP3 AND PUSH0 DUP2 EQ PUSH2 0x2531 JUMPI PUSH1 0x1 DUP2 EQ PUSH2 0x2546 JUMPI PUSH2 0x2578 JUMP JUMPDEST PUSH1 0xFF NOT DUP4 AND DUP7 MSTORE DUP2 ISZERO ISZERO DUP3 MUL DUP7 ADD SWAP4 POP PUSH2 0x2578 JUMP JUMPDEST PUSH2 0x254F DUP6 PUSH2 0x1FCF JUMP JUMPDEST PUSH0 JUMPDEST DUP4 DUP2 LT ISZERO PUSH2 0x2570 JUMPI DUP2 SLOAD DUP2 DUP10 ADD MSTORE PUSH1 0x1 DUP3 ADD SWAP2 POP PUSH1 0x20 DUP2 ADD SWAP1 POP PUSH2 0x2551 JUMP JUMPDEST DUP4 DUP9 ADD SWAP6 POP POP POP JUMPDEST POP POP POP SWAP3 SWAP2 POP POP JUMP JUMPDEST PUSH0 PUSH2 0x258C DUP3 DUP5 PUSH2 0x2501 JUMP JUMPDEST SWAP2 POP DUP2 SWAP1 POP SWAP3 SWAP2 POP POP JUMP JUMPDEST PUSH32 0x46696C652043494420646F6573206E6F74206D61746368000000000000000000 PUSH0 DUP3 ADD MSTORE POP JUMP JUMPDEST PUSH0 PUSH2 0x25CB PUSH1 0x17 DUP4 PUSH2 0x1F0A JUMP JUMPDEST SWAP2 POP PUSH2 0x25D6 DUP3 PUSH2 0x2597 JUMP JUMPDEST PUSH1 0x20 DUP3 ADD SWAP1 POP SWAP2 SWAP1 POP JUMP JUMPDEST PUSH0 PUSH1 0x20 DUP3 ADD SWAP1 POP DUP2 DUP2 SUB PUSH0 DUP4 ADD MSTORE PUSH2 0x25F8 DUP2 PUSH2 0x25BF JUMP JUMPDEST SWAP1 POP SWAP2 SWAP1 POP JUMP JUMPDEST PUSH2 0x2608 DUP2 PUSH2 0x1C02 JUMP JUMPDEST DUP3 MSTORE POP POP JUMP JUMPDEST PUSH0 PUSH1 0x40 DUP3 ADD SWAP1 POP DUP2 DUP2 SUB PUSH0 DUP4 ADD MSTORE PUSH2 0x2626 DUP2 DUP6 PUSH2 0x1F1A JUMP JUMPDEST SWAP1 POP PUSH2 0x2635 PUSH1 0x20 DUP4 ADD DUP5 PUSH2 0x25FF JUMP JUMPDEST SWAP4 SWAP3 POP POP POP JUMP JUMPDEST PUSH32 0x4349442063616E6E6F7420626520656D70747900000000000000000000000000 PUSH0 DUP3 ADD MSTORE POP JUMP JUMPDEST PUSH0 PUSH2 0x2670 PUSH1 0x13 DUP4 PUSH2 0x1F0A JUMP JUMPDEST SWAP2 POP PUSH2 0x267B DUP3 PUSH2 0x263C JUMP JUMPDEST PUSH1 0x20 DUP3 ADD SWAP1 POP SWAP2 SWAP1 POP JUMP JUMPDEST PUSH0 PUSH1 0x20 DUP3 ADD SWAP1 POP DUP2 DUP2 SUB PUSH0 DUP4 ADD MSTORE PUSH2 0x269D DUP2 PUSH2 0x2664 JUMP JUMPDEST SWAP1 POP SWAP2 SWAP1 POP JUMP JUMPDEST PUSH32 0x46696C65206E616D652063616E6E6F7420626520656D70747900000000000000 PUSH0 DUP3 ADD MSTORE POP JUMP JUMPDEST PUSH0 PUSH2 0x26D8 PUSH1 0x19 DUP4 PUSH2 0x1F0A JUMP JUMPDEST SWAP2 POP PUSH2 0x26E3 DUP3 PUSH2 0x26A4 JUMP JUMPDEST PUSH1 0x20 DUP3 ADD SWAP1 POP SWAP2 SWAP1 POP JUMP JUMPDEST PUSH0 PUSH1 0x20 DUP3 ADD SWAP1 POP DUP2 DUP2 SUB PUSH0 DUP4 ADD MSTORE PUSH2 0x2705 DUP2 PUSH2 0x26CC JUMP JUMPDEST SWAP1 POP SWAP2 SWAP1 POP JUMP JUMPDEST PUSH32 0x46696C6520747970652063616E6E6F7420626520656D70747900000000000000 PUSH0 DUP3 ADD MSTORE POP JUMP JUMPDEST PUSH0 PUSH2 0x2740 PUSH1 0x19 DUP4 PUSH2 0x1F0A JUMP JUMPDEST SWAP2 POP PUSH2 0x274B DUP3 PUSH2 0x270C JUMP JUMPDEST PUSH1 0x20 DUP3 ADD SWAP1 POP SWAP2 SWAP1 POP JUMP JUMPDEST PUSH0 PUSH1 0x20 DUP3 ADD SWAP1 POP DUP2 DUP2 SUB PUSH0 DUP4 ADD MSTORE PUSH2 0x276D DUP2 PUSH2 0x2734 JUMP JUMPDEST SWAP1 POP SWAP2 SWAP1 POP JUMP JUMPDEST PUSH0 PUSH1 0xE0 DUP3 ADD SWAP1 POP DUP2 DUP2 SUB PUSH0 DUP4 ADD MSTORE PUSH2 0x278C DUP2 DUP11 PUSH2 0x1F1A JUMP JUMPDEST SWAP1 POP DUP2 DUP2 SUB PUSH1 0x20 DUP4 ADD MSTORE PUSH2 0x27A0 DUP2 DUP10 PUSH2 0x1F1A JUMP JUMPDEST SWAP1 POP DUP2 DUP2 SUB PUSH1 0x40 DUP4 ADD MSTORE PUSH2 0x27B4 DUP2 DUP9 PUSH2 0x1F1A JUMP JUMPDEST SWAP1 POP PUSH2 0x27C3 PUSH1 0x60 DUP4 ADD DUP8 PUSH2 0x25FF JUMP JUMPDEST DUP2 DUP2 SUB PUSH1 0x80 DUP4 ADD MSTORE PUSH2 0x27D5 DUP2 DUP7 PUSH2 0x1F1A JUMP JUMPDEST SWAP1 POP DUP2 DUP2 SUB PUSH1 0xA0 DUP4 ADD MSTORE PUSH2 0x27E9 DUP2 DUP6 PUSH2 0x1F1A JUMP JUMPDEST SWAP1 POP PUSH2 0x27F8 PUSH1 0xC0 DUP4 ADD DUP5 PUSH2 0x25FF JUMP JUMPDEST SWAP9 SWAP8 POP POP POP POP POP POP POP POP JUMP INVALID LOG2 PUSH5 0x6970667358 0x22 SLT KECCAK256 0x2A MOD PUSH9 0x4B137602ABC5317566 0xC3 DUP15 0xA7 0x2F 0xCC 0xEA GT 0x25 PUSH21 0x33B95E72E00FA36C68EB1764736F6C634300081A00 CALLER "
				},
				"gasEstimates": {
					"creation": {
						"codeDepositCost": "2059600",
						"executionCost": "infinite",
						"totalCost": "infinite"
					},
					"external": {
						"clearAllFiles(address)": "infinite",
						"deleteUserFile(address,uint256,string)": "infinite",
						"getFiles(address)": "infinite",
						"message()": "infinite",
						"storeFileForUser(address,string,string,string,uint256,string,string,uint256)": "infinite",
						"update(string)": "infinite"
					},
					"internal": {
						"getUpdatedFiles(address)": "infinite"
					}
				},
				"methodIdentifiers": {
					"clearAllFiles(address)": "3e2d2458",
					"deleteUserFile(address,uint256,string)": "45e660c9",
					"getFiles(address)": "433bf37b",
					"message()": "e21f37ce",
					"storeFileForUser(address,string,string,string,uint256,string,string,uint256)": "d4277f98",
					"update(string)": "3d7403a3"
				}
			},
			"storageLayout": {
				"storage": [
					{
						"astId": 3,
						"contract": "contracts/UlaloDatastore.sol:UlaloDataStore",
						"label": "message",
						"offset": 0,
						"slot": "0",
						"type": "t_string_storage"
					},
					{
						"astId": 61,
						"contract": "contracts/UlaloDatastore.sol:UlaloDataStore",
						"label": "userFiles",
						"offset": 0,
						"slot": "1",
						"type": "t_mapping(t_address,t_array(t_struct(FileDetails)55_storage)dyn_storage)"
					}
				],
				"types": {
					"t_address": {
						"encoding": "inplace",
						"label": "address",
						"numberOfBytes": "20"
					},
					"t_array(t_struct(FileDetails)55_storage)dyn_storage": {
						"base": "t_struct(FileDetails)55_storage",
						"encoding": "dynamic_array",
						"label": "struct UlaloDataStore.FileDetails[]",
						"numberOfBytes": "32"
					},
					"t_bool": {
						"encoding": "inplace",
						"label": "bool",
						"numberOfBytes": "1"
					},
					"t_mapping(t_address,t_array(t_struct(FileDetails)55_storage)dyn_storage)": {
						"encoding": "mapping",
						"key": "t_address",
						"label": "mapping(address => struct UlaloDataStore.FileDetails[])",
						"numberOfBytes": "32",
						"value": "t_array(t_struct(FileDetails)55_storage)dyn_storage"
					},
					"t_string_storage": {
						"encoding": "bytes",
						"label": "string",
						"numberOfBytes": "32"
					},
					"t_struct(FileDetails)55_storage": {
						"encoding": "inplace",
						"label": "struct UlaloDataStore.FileDetails",
						"members": [
							{
								"astId": 40,
								"contract": "contracts/UlaloDatastore.sol:UlaloDataStore",
								"label": "cid",
								"offset": 0,
								"slot": "0",
								"type": "t_string_storage"
							},
							{
								"astId": 42,
								"contract": "contracts/UlaloDatastore.sol:UlaloDataStore",
								"label": "fileName",
								"offset": 0,
								"slot": "1",
								"type": "t_string_storage"
							},
							{
								"astId": 44,
								"contract": "contracts/UlaloDatastore.sol:UlaloDataStore",
								"label": "fileType",
								"offset": 0,
								"slot": "2",
								"type": "t_string_storage"
							},
							{
								"astId": 46,
								"contract": "contracts/UlaloDatastore.sol:UlaloDataStore",
								"label": "fileSize",
								"offset": 0,
								"slot": "3",
								"type": "t_uint256"
							},
							{
								"astId": 48,
								"contract": "contracts/UlaloDatastore.sol:UlaloDataStore",
								"label": "fileContent",
								"offset": 0,
								"slot": "4",
								"type": "t_string_storage"
							},
							{
								"astId": 50,
								"contract": "contracts/UlaloDatastore.sol:UlaloDataStore",
								"label": "date",
								"offset": 0,
								"slot": "5",
								"type": "t_string_storage"
							},
							{
								"astId": 52,
								"contract": "contracts/UlaloDatastore.sol:UlaloDataStore",
								"label": "score",
								"offset": 0,
								"slot": "6",
								"type": "t_uint256"
							},
							{
								"astId": 54,
								"contract": "contracts/UlaloDatastore.sol:UlaloDataStore",
								"label": "active",
								"offset": 0,
								"slot": "7",
								"type": "t_bool"
							}
						],
						"numberOfBytes": "256"
					},
					"t_uint256": {
						"encoding": "inplace",
						"label": "uint256",
						"numberOfBytes": "32"
					}
				}
			},
			"userdoc": {
				"kind": "user",
				"methods": {},
				"version": 1
			}
		}
	}
}